:020000040800F2
:10000000A0E00020750400087D0400087F040008BB
:100010008104000883040008850400080000000033
:10002000000000000000000000000000870400083D
:1000300089040008000000000B3E00082D3F000866
:100040008F0400088F0400088F0400088F04000844
:100050008F0400088F0400089B6800088F040008C4
:100060008F0400088F0400088F0400088F04000824
:100070008F0400088F0400081B6D00088F0400081F
:100080008F0400088F0400088F0400088F04000804
:10009000018A0008BF8A00088F0400081968000858
:1000A0008F0400088F0400088F0400088F040008E4
:1000B0008F0400088F0400088F0400088F040008D4
:1000C0008F0400088F0400088F0400088F040008C4
:1000D0008F040008899C00088F040008B56C000894
:1000E0008F0400088F0400088F0400088F040008A4
:1000F0008F0400088F0400088F0400088F04000894
:100100008F0400088F0400088F0400088F04000883
:100110008F0400088F0400088F0400088F04000873
:100120008F0400088F0400088F0400088F04000863
:100130008F0400088F0400088F0400088F04000853
:10014000A18B00085D8C00088F0400088F04000854
:100150008F04000869D30008ED9C000801D3000853
:100160008F0400088F0400088F0400088F04000823
:100170008F0400088F0400088F0400088F04000813
:100180008F040008DFF80CD00DF0B4FC00480047E5
:1001900049020008A0E000204FF47A74204607F0DE
:1001A000C9FE00F039F900F084F900F01BFB00F003
:1001B0003BF909F04AFD0BF0B2FF06F00CFC0220FF
:1001C00006F047FC0CF03AFD0DF055FD07F0F4FF8A
:1001D000204603F0A7FA0CF0A1F804232A4A0021D4
:1001E0002A4803F012F80523294A0021294803F080
:1001F0000CF80623284A0021284803F006F80723B4
:10020000274A0021274803F000F80923264A002145
:10021000264802F0FAFF0823254A0021254802F06B
:10022000F4FF0A23244A0021244802F0EEFF0B23A6
:10023000234A0021234802F0E8FF00230122194647
:10024000184603F09BFAF8E700B585B04FF47A70D2
:1002500007F070FE00F02DF901F0FFFC1A480DF1D7
:10026000040C032300229621ACE80F000220034671
:100270000090164A0021164803F010F801F095FD91
:1002800005B0012000BD00009C1C0020096E000884
:100290006C24002077B8000844330020A7860008AB
:1002A0002C1E0020AD700008C4260020099A00080A
:1002B000742B00204BB90008343E0020B9D400084C
:1002C000F4370020F75F000898150020EC17002095
:1002D0009901000870477047704770477047704732
:1002E0007047704770B5444D2868444B444910F03E
:1002F0000C0004D05E10042803D0082803D00B6043
:100300001BE00E6019E03C4A121F1068C0F38054D5
:10031000106800F03F0014B1B6FBF0F001E0B3FB51
:10032000F0F013681268C3F388135843C2F3014214
:10033000521C5200B0FBF2F008602868304AC0F34B
:100340000310121D105C0A68C2400A6070BD2A4882
:1003500010B50838016841F001010160264A00210A
:1003600011600268274B1A400260031D264A1A607A
:10037000026822F4802202601F48001D016000F024
:1003800007F822494FF000600860BDE81040A9E777
:1003900019490839086840F480300860086810F48A
:1003A000003FFBD00868800325D51348026802602F
:1003B000026842F400420260026842F4A052026005
:1003C000031F134A1A600A6842F080720A600A68C2
:1003D0009201FCD50F4A40F203711160016821F0CF
:1003E00003010160016841F0020101600168C1F38D
:1003F00081010229FAD17047083802400024F40034
:10040000FC0C0020FFFFF6FE1030002408ED00E099
:10041000083C4005003C024070471FB5684604F0A8
:100420008AFE019804B010BD10B5FFF7F6FF4FF437
:100430007A71B0FBF1F0BDE8104003F09EBD0B48AF
:1004400010B5016841F080710160094800214160E8
:10045000016841F001010160FFF7DFFFBDE81040D6
:1004600000F076B80248406870470000FCED00E0FC
:10047000001000E00648804706480047FEE7FEE718
:10048000FEE7FEE7FEE7FEE7FEE7FEE7FEE7FEE744
:100490004F0300088501000810B500F0DFF804469E
:1004A0001021694800F0DBF92046BDE8104000F05B
:1004B000D9B8664910B500200860FFF7C0FFBDE855
:1004C0001040E9E7FEE770B505460C000ED075B1A7
:1004D00000F0C4F8064610225B49284600F038FEBA
:1004E000304600F0BFF80020208070BDFEE70A20F3
:1004F000088070BD70B505460C0012D095B1102172
:1005000000F018FE102810D200F0A8F806461022BD
:1005100029464D4800F01CFE304600F0A3F80020AC
:1005200005E0FEE70A20088070BD4FF47A70208055
:1005300070BDFFF797BF7047020004D043480068C2
:1005400010B1002102E0FEE74FF4FA61118070471C
:100550003E490860704710B500F08BF8183810BDA0
:1005600010B500F086F8103810BD00F082B810B554
:100570004FF0FF340023364A241A8B411DD24FF02E
:10058000FF34230C241A8B414FF0FF340AD2230A84
:10059000201A8B4102D2080E105C10BD080C105CB2
:1005A000083010BDFF23201A8B4103D2080A105CCB
:1005B000103010BD505C183010BD4FF6FF74002392
:1005C000241A8B4111D26FF07F440023241A8B41EF
:1005D00005D2000E40EA0120105C203010BD000C56
:1005E00040EA0140105C283010BDFF240023241A8B
:1005F0008B4105D2000A40EA0160105C303010BD2A
:10060000105C383010BD08B100F036B808207047D3
:1006100008B100F031B81020704708B100F02CB8D4
:100620002020704700B550EA010201D1402000BDF2
:10063000C243521CCB4343F1000310401940FFF763
:1006400096FFC0F13F0000BD383E0020100D002095
:1006500020E9000872B6704762B67047EFF3108069
:1006600072B6704780F31088704730BF704720BF64
:100670007047B0FA80F0704790FAA0F0B0FA80F0BE
:10068000704790FAA0F07047A0F14101192902D9F2
:100690006138192801D80120704700207047A0F167
:1006A0004101192905D92039192902D930380928D9
:1006B00001D801207047002070476138192801D8FF
:1006C00001207047002070474138192801D80120C7
:1006D0007047002070473038092801D80120704742
:1006E000002070473038072801D8012070470020CB
:1006F0007047A0F13001092905D91139052902D91E
:100700006138052801D80120704700207047202853
:1007100003D0092801D0002070470120704720280D
:100720000BD00D2809D00A2807D00C2805D009289D
:1007300003D00B2801D000207047012070472038DB
:100740005E2801D8012070470020704721385D28BD
:1007500001D80120704700207047A0F120015E29D8
:1007600016D8202814D00D2812D00A2810D00C2812
:100770000ED009280CD00B280AD021391A2907D30A
:1007800020391A2904D330380A2801D301207047B0
:100790000020704741B2002901DB1F2803D97F28C0
:1007A00001D00020704701207047A0F141011929B4
:1007B00000D82030C0B27047A0F16101192900D8DB
:1007C0002038C0B2704700B50B46FFF7F5FF024670
:1007D0001846FFF7F1FF824201D1012000BD002041
:1007E00000BD0000FD48FE4901600021C0E9010193
:1007F000C160016141618161C16101620163C162E6
:10080000416200F148018163C1634FF410510164FA
:100810004164F4490860704710B5002A1ED00028D2
:100820001CD000231C46641C41EA0323042CFAD389
:1008300010F0030404D109E0521E00F8011B641CEF
:1008400022B1042CF8D301E008C0121F042AFBD205
:1008500002E000F8011B521E002AFAD110BD0A4620
:100860000021D9E730B4002A3CD000283AD0002932
:1008700038D0814202D930BC00F030BF83188818CC
:100880005B1E401E191A042925D303F0030100F052
:100890000304A14201D1012400E00024012C1AD15B
:1008A000032909D10AE010F80149A1F1010103F877
:1008B0000149521E49B201D00029F4DADB1EC01EE4
:1008C00004E050F8041943F80419121F042AF8D25E
:1008D000DB1CC01C04E010F8011903F80119521EBA
:1008E000002AF8D130BC704770B5034662B16BB1D5
:1008F00061B113441144012003F0030401F0030526
:10090000AC4205D1012504E0012070BD002070BD7E
:100910000025012D1BD1BCB113F8015D11F8016D4B
:10092000B54200D00020521E641E0128EFD1002ADB
:10093000F1D109E053F8044D51F8045DAC4200D008
:100940000020121F01280AD1042AF3D207E013F86D
:10095000014D11F8015DAC4200D00020521E01286B
:10096000D5D1002AF3D170BD30B5C36BB3FBF2F41F
:1009700002FB143404B1141B456C6218954205D374
:10098000A24203D38A4201D3991801D3002030BD7B
:10099000C163A91A23444164184630BDF0B5B0FBC9
:1009A000F3F403FB140008B11D1A00E00025B2FBAC
:1009B000F3F003FB102008B11B1A00E00023AC1871
:1009C000D6184F1E06FB0740AC421AD3944218D3E8
:1009D000012917D99E4214D3964212D306FB07F180
:1009E000B1420ED399420CD391420AD38B188B4259
:1009F00007D3934205D3A04203D3884201D3984240
:100A000000D20020F0BD2DE9FC5F81468B461546E3
:100A10001C0001D1FFF756FD05B901AD002028608B
:100A2000B9F1000F1BD0BBF1000F1BD06B4FFFF7CC
:100A300015FE00905B464A460121D7F84480F86BCA
:100A4000FFF7ACFF060011D042F2E27A464515D915
:100A50000098FFF707FEA6EB0800286021E042F2AD
:100A6000747001E042F2757020801CE00098FFF77E
:100A7000F9FD42F2E370C5F80090F5E75A464946A1
:100A80003846FFF771FF0700009807D0FFF7EAFD2F
:100A900042F2107020803846BDE8FC9FFFF7E2FD6F
:100AA0002E60A4F800A00020F6E72DE9F0410646EC
:100AB0000D46140001D1FFF705FD42F2757085B1B6
:100AC000B5F5805F0DD886B1FFF7C8FD464A31689D
:100AD00089180DD0454A89180AD0FFF7C3FD42F2A4
:100AE000887020800020BDE8F08142F21170F8E7A4
:100AF00071688A6B02B93949CF6B4E6CFFF7B2FD52
:100B0000012D06D9B7FBF5F005FB107000B1281ACE
:100B1000361A42F2107020803046E4E70A46014659
:100B20002E48C2E770B504460D0001D1FFF7CAFC9C
:100B3000BCB12F48206000206060A060E0602061B0
:100B40006061A061E0612062A06260632063E06296
:100B50006062A063E0632064606442F210702880E9
:100B600070BD42F21170FAE72DE9FF4F87B00446DD
:100B7000DDE916858A4691460DB9FFF7A3FCB8F169
:100B8000000F01D10DF118080021C8F80010294606
:100B90002046FFF7C7FF2988A1F51C50103877D1F0
:100BA000BAF1000F02D0B9F1000F2BD00A9860B350
:100BB000149868B3159870B30A48006860B30020B1
:100BC000DFF818B00090FFF749FD04905FEA0A00D3
:100BD00029D000EB090CACF1010C0BE0483E0020E1
:100BE00048454150140D0020B0B0B0B3080A0EFCC7
:100BF0004E4F4E4584454CD20498FFF733FD42F2E8
:100C0000977018E142F27E7015E142F2927012E1A3
:100C100042F293700FE100E002E042F294700AE1C8
:100C200042F2E77007E1CDF808B0DBF83C9004230E
:100C30005E465F461A4648460A99FFF7AFFE0390A4
:100C400098B1039909EB01000590DDE914230A9995
:100C5000FFF7A4FE5FEA000907D003980399484410
:100C60000090884201D3484505D20498FFF7FAFC6A
:100C700042F2E370DFE0DBF844000099019081422A
:100C800064D90498FFF7EEFCDDE90001411A3FE06A
:100C9000D2E0FF49002702970E681AE0B16B514578
:100CA00004D1336C4B4501D1374614E0326C0A4411
:100CB000521E8C450FD3884203D9944501D99042E6
:100CC00005D80498FFF7CEFC42F27F70B3E002969D
:100CD000F668002EE2D137B9C4F838A0C4E90FA9EC
:100CE0002746C4F8449004231A46DBF83C000A99CE
:100CF000FFF754FE5FEA0009B7D0DBF8440001902B
:100D0000814508D90498FFF7ADFC0199A9EB0101D1
:100D1000C8F8001037E0F86B0590DDE914230A9954
:100D2000FFF73CFE5FEA00090AD0786C019081452C
:100D30000CD90498FFF796FC0199A9EB01014DE04D
:100D40000498FFF78FFC42F2D97074E00A980422ED
:100D50008000014601905846FFF706FE039008B157
:100D600000201EE0DBF844400498FFF77BFCBAF15A
:100D7000000F04D00198A04203D9011BC8E70098D6
:100D8000F9E7C8F8000042F2E27054E0DDE914121D
:100D90003846FFF7E9FD88B1039941F82A000AF1C6
:100DA00001000A9982468842F0D3A74223D10298D3
:100DB000C4E902060298C8B1C46019E0FE6B7C6CFD
:100DC0000498FFF74FFC0A98DDE91423A0EB0A0111
:100DD0003046FFF7E3FDA04203D9011BC8F800101D
:100DE00001E0C8F8000042F2D87024E0A84804608E
:100DF0003EB1B46005E07869C4E904707C6100B17B
:100E00000461A448C4E900070598A0610598484416
:100E1000401EE0610398C4F8289020621598606332
:100E2000149820630A98E0620A9860620498FFF7B9
:100E300019FC42F2107028800BB0BDE8F08F70B53D
:100E400005460C0001D1FFF73DFB6DB1FFF706FC35
:100E5000904A29685242891809D0FFF703FC42F2F0
:100E600088702080002070BD42F21170F9E76D6A31
:100E7000FFF7F8FB42F210702080284670BD2DE984
:100E8000F04105460E46140001D1FFF71BFB75B17A
:100E900042F2937776B1FFF7E1FB7E4A29689142EF
:100EA0000BD0FFF7DFFB42F28870208003E042F2B4
:100EB0001170FAE72780002015E6296BB14202D2B3
:100EC000FFF7D0FBF6E7696A39B1EA6A914209D9BE
:100ED000FFF7C8FB42F29570E7E7FFF7C3FB42F26A
:100EE000DE70E2E7491E69622A6A52F82150FFF774
:100EF000B9FB42F2107020802846F4E52DE9F0415C
:100F000005460F46140001D1FFF7DCFA5DB1FFF78B
:100F1000A5FB604A2968914208D0FFF7A3FB42F283
:100F20008870208011E042F21170FAE76B6AEA6A79
:100F300042F29576934205D2D11B491E8A4201D9CD
:100F40008B4204D9FFF78EFB26800020CBE52A6A6E
:100F500052F82150FFF786FB42F21070208028469D
:100F6000C1E530B5D0E90632994219D3914217D87C
:100F7000426BB3FBF2F402FB143404B1141B006B9C
:100F8000B0FBF2F502FB15050DB1521B00E000228B
:100F90002344C91A1044B1FBF0F200FB121008B14F
:100FA000002030BD012030BD2DE9F04704460E463B
:100FB000150001D1FFF786FA42F2117014B30EB397
:100FC000FFF74CFB80463348216842F28879814222
:100FD00032D131462046FFF7C4FF012805D04046F4
:100FE000FFF740FB42F297703EE00021626A0BE09F
:100FF000206A50F82100B04205D14046FFF732FB8D
:1010000042F2987030E0491C8A42F1D8E36A9A4271
:1010100005D34046FFF726FB42F2DD7024E00027AF
:10102000104605E0216A51F82010B1420BD0401C57
:101030008342F7D8012F06D04046FFF713FBA5F8EF
:101040000090BDE8F087216A51F8222041F8202065
:10105000D4E9080140F82160606A401C60624046A3
:10106000FFF700FB42F210702880EAE72DE9F04715
:1010700005460E4614004FF0FF3901D1FFF722FA62
:1010800042F21170A5B19EB1FFF7E8FA074603E0FE
:10109000140D0020504F4F4C2549286842F28878A3
:1010A000884208D03846FFF7DDFAA4F8008000E057
:1010B00020804846C5E731462846FFF752FF012801
:1010C00005D03846FFF7CEFA42F29770F0E70021DC
:1010D000686A0BE02A6A52F82120B24205D13846EC
:1010E000FFF7C0FA42F29870E2E7491C8842F1D853
:1010F000E96A884205D33846FFF7B4FA42F2DD7058
:10110000D6E7002205E02B6A53F82030B34204D022
:10111000401C8142F7D8012AC4D10D1A6D1E3846F1
:10112000FFF7A0FA42F210702080284689E70000FD
:10113000504F4F4C002201E0401C521C18B1037864
:101140000BB18A42F8D3104670474FF0FF31F1E7F8
:1011500030B5002811D089B10346002405E0491CB0
:1011600003F8015B641C4BB141B10D780DB19442A1
:10117000F5D3944201D20021197030BD002030BD5A
:101180004FF0FF32E4E730B5002816D0B1B1002AA5
:1011900013D0034601E05B1C10D01C78002CFAD160
:1011A00004E0491C03F8015B641C3BB131B10D78CC
:1011B0000DB19442F5D30021197030BD002030BD2F
:1011C0004FF0FF32DFE7F0B532B330B111B3044670
:1011D0000B46401C491C002508E0E9B10878404254
:1011E000F0BD641C5B1C401C491C6D1C26781F78DC
:1011F000BE4204D11EB110B109B19542F1D395425E
:101200000AD0F4B2FAB2944201D0B01AF0BD1EB1C5
:101210000028E2D00078F0BD0020F0BD4FF0FF3292
:10122000D1E72DE9F0475FEA020A41D070B181B100
:101230000446461C0F464D1C0078FFF7B6FA81465F
:101240003878FFF7B2FA4FF0000811E079B3087868
:1012500029E0007821E07F1C761C6D1C08F1010854
:1012600014F8010FFFF7A1FA81463878FFF79DFACD
:10127000814505D1217819B116B10DB1D045EAD318
:10128000D04515D04946814503D0A9EB0000BDE803
:10129000F0870800FBD026B13078BDE8F047FFF7B3
:1012A00084BA25B12878FFF780FA4042EFE7FFE7DC
:1012B0000020ECE74FF0FF32B3E710B5002812D062
:1012C00081B1002303E0401C03F101030BD004783B
:1012D0001CB1944201D08B42F5D38B4202D2E1B2D1
:1012E000914200D0002010BD0A464FF0FF31E4E7E4
:1012F00030B5040015460FD071B1491EFFF71AFF33
:1013000020180AD000E0401EA04202D00178A94275
:10131000F9D10178A94200D0002030BD0A464FF033
:10132000FF31E5E730B5002803D00BB1044608E0F3
:10133000002030BD8D4200D12270641CA3F1010356
:10134000F7D02578002DF4D0002BF3D130BD4FF02D
:10135000FF33E7E72DE9F0418C460600114630D017
:10136000BCF1000F2DD061B3481C01D0054601E04F
:101370004FF0FF353046FFF7DDFE04462946604654
:10138000FFF7D8FE050014D0A5421AD8301911D0A5
:101390001CEB05000ED0671B0024301980462A463E
:1013A0006146FFF710FF010006D00020641C28B141
:1013B00006E03046BDE8F0810120F7E7BC42ECD9F9
:1013C00009B10020F6E74046F4E74FF0FF32C1E7ED
:1013D0002DE9FF5F074611980E9C894616460028A6
:1013E00077D00025B9F1000F00D10125B01E2328C8
:1013F00000D301251CB32046FFF7A1F901281DD118
:10140000302C1CD00F99A4F13000C0B2012902D0B9
:10141000A4F1410101E0A4F16101C9B20A2E02D890
:10142000B04206D307E00A2803D3A6F10A0081429E
:1014300001D2012000E00020012800D101251199EE
:101440004DBBB846012003E0B7FBF6F7401CC0B225
:10145000B742F9D2039A012A00D0002287184F45DB
:1014600018D84FF0000B4B46484500D318464CB1F6
:10147000A9EB0000801A4B4610F0FF0F04D0302C6F
:1014800004D001E01044C3B2002000E001208246F5
:101490000DB901E001254B461098194408B1002010
:1014A0000870491E002034E015B13F220A702EE07A
:1014B0005FEA080204D118B1039A012A16D024E089
:1014C000B2FBF6F706FB1782D2B20A2A02D23032FA
:1014D00008E022E0DDF83CC0BCF1010F01D037325A
:1014E00000E0573201F80129B84611E05AEA0B0230
:1014F00005D0BAF1000F08D05A1E904205D12D2216
:1015000001F801294FF0010B02E00CB10C70491EEB
:10151000401C9842C8D31DB1002004B0BDE8F09F24
:101520001198FAE77FB50DF1200CBCE870008DE84A
:1015300078000023FFF74CFF04B070BD2DE9FF4198
:101540000AAF002870CF02DA4042012700E00027EE
:101550008DE878003B46FFF73BFF04B02AE72DE912
:10156000F04F85B08246DDF838B05FEA01091546D4
:101570001E4601D10DF10C09BBF1000FC9F800A006
:1015800001D10DF1100B00218BF800105FEA0A0069
:1015900003D0012D01D0242D03D9002005B0BDE8D2
:1015A000F08F044600E0641C2078FFF7B8F80128AB
:1015B000F9D020782B2802D02D2801D102E0641C1C
:1015C000002003E0012E00D1641C0120CDE90004BD
:1015D00025B1082D11D0102D22D112E0207830280D
:1015E00001D00A251CE014F8010F582803D07828F0
:1015F00001D0082514E010250CE0207830280ED00A
:101600000EE0207830280BD114F8010F582801D0B3
:10161000782805D16078FFF76CF8012800D1641CA8
:101620000026B046029627783846FFF738F801289A
:1016300024D13846FFF74FF801280CD03846FFF781
:101640003CF8012809D0373FF9B2A94216D2B8F1C7
:10165000000F04D00EE0303FF6E7573FF4E71E4896
:1016600050F82500B04203D306FB05168E4201D286
:101670004FF001080298641C0028D4D0B8F1010F83
:1016800001D14FF0FF360198844202D0C9F80040E2
:1016900001E0C9F800A000988BF8000030467DE713
:1016A00008B500230093FFF75AFF08BD1CB501AB36
:1016B00000930123FFF753FF9DF804204FF00041F2
:1016C00022B1884200D2414208461CBD8842FCD368
:1016D0006FF000401CBD000020EA0008002800D187
:1016E0007047002900D17047002A00D170472DE9CA
:1016F000F81F00F0030301F00304A34211D1C3F16A
:10170000040303F00303012B1DD3012A00D2F2E0EE
:1017100011F8014B00F8014BA3F10103A2F1010202
:10172000F1E700F0010301F00104A34200D094E0CE
:10173000012B44D311F8014B00F8014BA3F1010335
:10174000A2F10102F4E7B2F5B47F26D3B1E8F81FA5
:10175000A0E8F81FB1E8F81FA0E8F81FB1E8F81FEB
:10176000A0E8F81FB1E8F81FA0E8F81FB1E8F81FDB
:10177000A0E8F81FB1E8F81FA0E8F81FB1E8F81FCB
:10178000A0E8F81FB1E8F81FA0E8F81FB1E8F81FBB
:10179000A0E8F81FA2F5B472D5E7282A06D3B1E86D
:1017A000F81FA0E8F81FA2F12802F6E7042A06D3E2
:1017B00051F8043B40F8043BA2F10402F6E7202A6A
:1017C00042D331F8023B20F8023B31F8023B20F8CB
:1017D000023B31F8023B20F8023B31F8023B20F893
:1017E000023B31F8023B20F8023B31F8023B20F883
:1017F000023B31F8023B20F8023B31F8023B20F873
:10180000023B31F8023B20F8023B31F8023B20F862
:10181000023B31F8023B20F8023B31F8023B20F852
:10182000023B31F8023B20F8023B31F8023B20F842
:10183000023B31F8023B20F8023B31F8023B20F832
:10184000023BA2F12002BAE7022A06D331F8023B9A
:1018500020F8023BA2F10202F6E7102A42D311F867
:10186000013B00F8013B11F8013B00F8013B11F886
:10187000013B00F8013B11F8013B00F8013B11F876
:10188000013B00F8013B11F8013B00F8013B11F866
:10189000013B00F8013B11F8013B00F8013B11F856
:1018A000013B00F8013B11F8013B00F8013B11F846
:1018B000013B00F8013B11F8013B00F8013B11F836
:1018C000013B00F8013B11F8013B00F8013B11F826
:1018D000013B00F8013B11F8013B00F8013BA2F18C
:1018E0001002BAE7012A06D311F8013B00F8013BC8
:1018F000A2F10102F6E7BDE8F81F7047014600209B
:1019000002E0491C401CC0B20A78002AF9D1704795
:1019100070B50646FF480D461446007808B1112000
:1019200009E03378012B09D0022B07D0032B05D017
:10193000042B03D001201070002070BD02F040FA8B
:10194000034670692860FFF7D9FF0546184602F084
:101950003BFA00202070284670BD70B50546ED4862
:101960000E461446007808B1122009E02B78012BAE
:1019700008D0022B06D0032B04D0042B02D0012068
:10198000107070BD02F01CFA6E6102F01DFA0020AA
:10199000207070BD70B510F8384F43788278DB4303
:1019A000D243DDB2D6B2086809E00319DA7A2A40D8
:1019B000DA7202D1827A3240827251F8040F002822
:1019C000F3D170BD70B502F0FBF9D24C054620781A
:1019D00098B9607888B900F066FBCF48E27850F893
:1019E00022102162A078824207D0C86B401CC863D5
:1019F000E068401CE06002F0FEF92846BDE8704057
:101A000002F0E2B970B5C34D0022A969C1E907200F
:101A10000FE0AC6901F10B0214F8383F64789E5C6A
:101A200026439E54AB698A7A93F83A301A438A72F5
:101A3000001D01680029ECD1A869B64B90F8381058
:101A40002C3390F839405A5CE443E4B222405A54B3
:101A500005D190F83A00297921EA0000287170BD7B
:101A60002DE9FF5F0020DDF83890086000981646E9
:101A70000D46026814460CE01178012907D00229AE
:101A800005D0032903D0012089F800000EE050F8AA
:101A9000042F002AF0D19F48017809B1022103E008
:101AA0009C48407830B10D2189F80010002004B026
:101AB000BDE8F09F4FF0000A5746D046DDF800B071
:101AC00002F07EF984463EE02078012816D00228F4
:101AD0001DD0032805D0604602F076F9002028606A
:101AE00085E0208938B1401E208110C5002001C644
:101AF0004FF0010A1FE048F0010021E0606818B1D2
:101B000001C60020606013E048F0020018E0606841
:101B1000C18A99B101690A1D0261096802C6826819
:101B20000169914201D141680161C18A491EC182A6
:101B300010C54FF0010A7F1CBFB202E048F004005C
:101B400080465BF8044F002CBED1BAF1010F23D0C0
:101B5000DFF8C0A148F08002A046DAF8180000F1D2
:101B60003000017941EA0201017180F80580039992
:101B700001600098FFF746FF604602F025F9FFF785
:101B800021FF02F01DF98446DAF8180090F83510AC
:101B900051B1022911D107E0002460462C6002F007
:101BA00013F989F8004042E0C4691CB1E5E8014836
:101BB000012705E0012180F835100099FFF7EAFEC2
:101BC000DAF8181091F8350028B10228C6F800801C
:101BD00019D00A2118E0207801280FD002280DD052
:101BE000032808D0604602F0EFF8C5F80080012015
:101BF00089F800001BE0C6F8008001E0486A306008
:101C000089F8008002E00E2189F80010DAF8180047
:101C100000F11C0080F8188080F81980C0F800805E
:101C2000C0F80480C0F80880604602F0CDF838465D
:101C30003DE7384C02F0C4F86169491C616102F06B
:101C4000C3F802F025F9F5E7002203E0491E00F889
:101C5000012B89B20029F9D1704710B586B002F086
:101C600007F92C4900248C620C704C708C714C71FB
:101C7000CC604C610C720C71204601F12C021454A2
:101C8000401CC0B20828FAD38C70CC700C628C61F6
:101C900000F046FA00F013FA00F01BFD00F0DEFD44
:101CA00001F06DF8802103200291CDE903401B4A29
:101CB0004FF6FF70CDE900023F2302F5FE720021CE
:101CC000AFF2910001F0EAFA01F0F3FF02F0DBF865
:101CD00006B0BDE8104002F075B90E4948790128F8
:101CE00004D10878FF2801D2401C0870704770B5F5
:101CF000084C607901282AD102F062F82178054663
:101D000021B1491E11F0FF0020701BD16078C8B9C5
:101D100006E00000180D0020F8650020F8630020A0
:101D200000F0C1F9F949E07851F820102162A27859
:101D3000904207D0C86B401CC863E068401CE0605C
:101D400002F05EF82846BDE8704002F03DB870BD74
:101D500010B5EF4C607901280CD102F031F82178F0
:101D600021B96178FF2901D2491C6170BDE810409A
:101D700002F02AB810BD10B5E54C6079012813D1E6
:101D800002F01EF8217831B9617821B1491E11F0B5
:101D9000FF01617003D0BDE8104002F015B802F0F9
:101DA00013F8BDE810400DE610BD10B5D84C6079B1
:101DB00000280CD100F077F9E078D449A07051F8F0
:101DC00020002062A061BDE8104002F000B810BD04
:101DD0002DE9F04102F099F801F0F2FFCC4DA96A2B
:101DE000491CA96201F0F0FF6879012840D1E87927
:101DF00001264FF0000828B1012839D0022803D06D
:101E000085F807806C6A2FE0EE71FBE701F0D8FFE0
:101E1000216B31B3491E216323D194F8341011F0A2
:101E2000370F06D001F0C80184F8341084F835600B
:101E300001E084F8358094F83410090711D404F1D6
:101E400038042A79A17841EA02012971B04A21783F
:101E500002F12C026778535CA4F1380443EA0703CB
:101E60005354646901F0B0FF94F836003F28CDD197
:101E7000BDE8F08147F217207047704710B590F821
:101E8000382090F839408B18E443DA7AE4B22240E3
:101E9000DA7204D18A7A90F83A0082438A7210BDCD
:101EA000F0B505460F46807A9A49085C05EB0004B8
:101EB000E47A095D01EBC001CEB2944951F82640A5
:101EC0004FF0000104F124042760E160217C21EA45
:101ED000020121746374A4F1240409070CD48C4911
:101EE00094F83A200B791A430A7101F12C0294F804
:101EF0003930115C1943115429462046FFF7BEFFC3
:101F0000216A19B12046FFF745FDE5613046F0BD75
:101F100030B57F4B00F10B02996941F81C0F0C7F23
:101F2000497FA55C0D43A5549969827A01F1380176
:101F30008C7842EA04028272087803F12C044D780E
:101F4000225C6FEA0505EDB22A40A1F13801225466
:101F500005D191F83A00197921EA0000187130BDD5
:101F60000022827211464318491CC9B2DA7208294C
:101F7000F9D3704705E011F8013B521E00F8013B10
:101F800092B2002AF7D170477CB5604D00246946B3
:101F9000204601F0D1FA58B955F8241041B1012971
:101FA00006D0D1E9020200EB820088640198C8647F
:101FB000641CE4B23F2CEAD97CBD2DE9F05F0546F4
:101FC000DDE90ABA0E469046994601F0F9FE504FF7
:101FD000FC69002C63D061691C34F96101F0F4FEE6
:101FE00044F81C6CA576002626766676666144F871
:101FF00010BC44E906A80C9824F80C0C24F80A9CA0
:10200000E677E908217705F00700012202FA01F1DD
:10201000E0768240A177627726606660E660A6601F
:102020002662A6626662E6622663A4F11C0430465C
:1020300004EB800100F101000E6510F0FF00F7D005
:10204000204601F060FF01F0BBFE304941F8254019
:1020500001F0BAFE204601F017FF01F0B1FE014683
:10206000786AC4E9050600B184617C6204F1380431
:102070003A79A078264B40EA02003871207803F1C3
:102080002C0364781A5C42EA04021A54B87900F10D
:102090000100B871084601F097FE002008E501F044
:1020A00093FE422004E51A4A1A4902F12C031079E2
:1020B000085C1B5CC95C01EBC000D070704710B5B8
:1020C0004FF4B4711448FFF7BFFD0020124A0346D5
:1020D000411C0C4600EB400089B202EBC00001EB52
:1020E000410102EBC101037041600CA14161A0B24A
:1020F0000E28EDD300EB400002EBC00007A10370F7
:10210000436041610248026110BD0000F865002093
:10211000180D0020B4EA0008906200203F00000083
:1021200010B54FF4A8611448FFF78EFD4FF480718D
:102130001248FFF789FD104B0020411CC0EBC00086
:102140000A4600EB4000C9B203EB8004C1EBC100BA
:1021500000EB400003EB80006061D0B20F28ECD3AD
:10216000C0EBC00000EB400003EB800000214161A8
:102170000348C3614162C7E7F8660020F8650020A4
:10218000180D00202DE9F041054600780F46144651
:102190001E46052804D0012018700020BDE8F081FB
:1021A00014F0800002D022F080040120804600203C
:1021B000307001F005FE7021FCB1012C24D0022CFE
:1021C00008D0032C11D001F0FFFD00246F203070E7
:1021D0002046E3E72C8922463C40BC4209D01EE061
:1021E000A2431AE001F0F0FDF2E72C8922463C40C0
:1021F00015D0B8F1010FF5D1F2E72A89D3439CB28B
:102200003C40BC4205D00AE02A89D3439CB23C4002
:1022100005D0B8F1010FE5D122432A81E2E7317000
:10222000E0E770B50646F8480D46007818B1102072
:102230000870002070BD01F0C3FDF4490C6864B162
:1022400062680A600521217026810026F0A166607F
:10225000E16001F0B9FD2E7003E001F0B5FD7220E0
:102260002870204670BDD0E9001200232AB1116009
:1022700001B14A60806883627047C268002951607A
:10228000F8D04B60F6E710B503468068002400F1F3
:102290002C0044600180017A11F0DF01017242726A
:1022A000A0F12C0004D01846FFF7DDFF204610BD3A
:1022B000D84900F1380082780C7842EA04020A70AA
:1022C0000178D54A4078545C44EA000454544FF0F5
:1022D0000104E8E72DE9F05F0446CB48884616463E
:1022E000007808B10F2003E02078052802D00120F3
:1022F00010701AE001F064FD656881460DB1012798
:1023000000E00027DFF804B34FF0000AB8F1000F37
:1023100006D0B8F1010F21D001F056FD072003E0EF
:1023200037B101F051FD492030702046BDE8F09FE3
:10233000B7A0E06084F800A0DBF800106160A4F8AA
:1023400008A055464846CBF8004001F03DFD1AE094
:10235000022200212846FFF796FF2D68002DF7D1B5
:10236000ABA0E06084F800A0DBF800106160A4F886
:1023700008A055464846CBF8004001F025FD012F46
:1023800001D1FFF71FFB35700020CFE72DE9F041A9
:1023900007469D480E461446007810B11120107073
:1023A0000AE001F00DFD05463878052806D02846DC
:1023B00001F00AFD012020700020EFE6F86830608F
:1023C000FFF79CFA0646284601F0FEFC002020702C
:1023D0003046E3E670B505468B480E461446007855
:1023E00010B11220107070BD01F0EAFC29780529A7
:1023F00003D001F0E9FC012003E0EE6001F0E4FC11
:102400000020207070BDF0B5844E059F346804F143
:102410002804257B45F0200525734FF000056573E2
:10242000A76044F828190A828B748C604268C860DF
:10243000C1E90025426802B1516041603068764BC5
:1024400090F8381090F839405A5CE443E4B22240E6
:102450005A5406D16F4990F83A000A7822EA0000EF
:102460000870F0BD2DE9F04F0446674887B00F466D
:102470000078109D91469A4608B1022093E0684882
:10248000007808B10D208EE02078052801D00120C9
:1024900089E019F0800F03D009F07F09012600E0E0
:1024A000002601F08DFC06905FEA09004FF0000B5A
:1024B0001BD0012831D0022808D0B9F1030F0FD06A
:1024C000069801F081FC00206F2159E0208900EA84
:1024D0000708B84527D1012E12D120EA08000EE0E6
:1024E000208910EA0708F6D11DE02089C14389B28E
:1024F00001EA0708B84516D1012E3DD000E0208141
:1025000046490968A1F82C80069801F05DFC85F821
:1025100000B0404607B0BDE8F08F2089C14389B2C2
:1025200011EA0708E8D14B463A4601A92046CDF802
:1025300000A0FFF768FF069801F046FCFFF742FA9B
:1025400001F03EFCDFF8D4808446D8F8000090F813
:102550003570BFB180F835B05C4601A8FFF783FE47
:10256000D8F8000080F83440604601F02DFC0020CF
:10257000022F04D00A2103E040EA0800BFE70E2141
:102580002970C7E7878D012E16D15FEA090010D0A8
:1025900001280ED0022809D0B9F1030F06D06046F9
:1025A00001F012FC6F2028700020B3E72089B843A7
:1025B00001E0208938432081604601F005FC85F860
:1025C00000B03846A6E710B501F0FAFB13490968D8
:1025D0008C8D01F0F9FB204610BD2DE9F041054638
:1025E00000780E4614461F46052802D001201870B8
:1025F0002EE001F0E5FB8046A4B1012C15D001F0DE
:10260000E3FB712023E00000180D00204C0D00209A
:102610003F0000001C0D0020440D0020300D002064
:10262000190D00202889B04301E028893043288112
:1026300000266C6828E0A07C80B1012816D0022812
:1026400008D0032808D0404601F0BEFB6F20387048
:102650000020A3E5298904E029890AE02889C043EC
:1026600081B2208A0140884206D00CE02889C0430C
:1026700081B2208A014006D000222046FFF703FEE7
:10268000012800D101262468002CD4D1404601F055
:102690009BFB012E01D1FFF795F901F091FB2C89ED
:1026A00001F092FB00203870204677E570B50546B2
:1026B00000780C46052803D001200870002070BD6A
:1026C00001F07EFB2D8901F07FFB00202070284661
:1026D00070BD10B550210F48FFF7B6FA00200D4B22
:1026E0000446411C0A4603EB001089B203EB0111BA
:1026F00004704160AFF2E801C16090B20428F0D3E9
:1027000003EB00100470AFF2F8014460C1600248AE
:10271000036010BD386C00204C0D00202DE9F047FF
:1027200006460F469046994601F04AFB5B490D6804
:102730000DB16A680A6001F047FB25B17A1E314687
:102740003446002009E05A2189F800100020BDE835
:10275000F08744440C602146401C9042F9D300208D
:1027600020602F61EF602E60C5E9016889F80000E4
:102770002846ECE770B504460E4601F021FB2169BE
:1027800051B16568491E2A686260216101F01CFB35
:1027900000203070284670BD01F016FB5D203070BF
:1027A000002070BD2DE9F04107463D480E46144615
:1027B000007820B1112010700020BDE8F08101F0F8
:1027C000FFFA054678693060FFF798F80646284614
:1027D00001F0FAFA002020703046EEE770B50546A9
:1027E0002F480E461446007810B11220107070BDAC
:1027F00001F0E6FA6E6101F0E7FA0020207070BD8A
:1028000070B504460D4601F0DBFAD4E903128A42A2
:1028100003D301F0D9FA5E2070BD6168296065605C
:102820002169491C216101F0CFFA002070BD70B50B
:1028300005460C4601F0C4FA2968216069686160A8
:10284000A968A160E968E1602969216101F0BCFA29
:10285000D4E90301401A6061002070BD10B57821F1
:102860001048FFF7F1F90F4A002000EB400102EB9E
:10287000C10101F118034B60401C0BA380B24B61F6
:102880000428F2D300EB400002EBC00000214160BD
:1028900005A141610148026010BD0000500D0020FB
:1028A000180D0020886C00203F00000070B5054620
:1028B00000780C46022803D001200870002070BD6B
:1028C00001F07EFA6A680346D08A70B11169081D6A
:1028D00010610D68D18A491ED1829168884201D168
:1028E000506810610020207002E01F202070002539
:1028F000184601F069FA284670BD2DE9F0410646F8
:10290000FB488846007810B10020BDE8F08101F056
:1029100057FAF84F3C680CB16168396001F054FA1D
:1029200014B301F04DFAF4490D68BDB12A680A608C
:1029300001F04AFA06EB8800C5E90160EE602E61FD
:10294000A5F814800020E882022121702081EBA0EC
:10295000656060612046FFF703FB05E03968616050
:102960003C6001F031FA00242046CEE72DE9F04723
:102970000446007888461546022801D0012003E06D
:10298000DB48007810B10F2010701DE001F018FA3C
:102990000746A07A08B1012600E000265FEA080099
:1029A000DFF85483DFF84C934FF0000A06D001287B
:1029B0002AD0384601F008FA072004E03EB1384634
:1029C00001F002FA492028702046BDE8F087CBA02C
:1029D00060616068D8F8002056460260C8F80000C0
:1029E00084F800A0D9F800106160A4F808A0384667
:1029F000C9F8004001F0E8F92E7023E00223042218
:102A000000212046FFF74CFAA07A0028F6D1BBA09F
:102A100060616068D8F800200260C8F8000084F89F
:102A200000A0D9F800206260A4F808A0D04638467B
:102A3000C9F8004001F0C8F9012E01D1FEF7C2FF2C
:102A400085F800800020C0E710B5044601F0B8F911
:102A500061684A68CA600A610022CA8201F0B4F95A
:102A6000002010BD2DE9F04706460078894614463F
:102A7000022801D0012008E09D48007808B102201A
:102A800003E09F48007818B10D20107000209CE7EB
:102A900001F096F9054670680027C18A89B102697C
:102AA000111D01611668C28A521EC282826891425B
:102AB00001D141680161284601F086F9277030464E
:102AC00083E7DFF84082D8F8000010F8341F41F0A7
:102AD00004010170477040F8049C3046FFF718FA73
:102AE000284601F071F9FEF76DFF01F069F98146A2
:102AF000D8F8000090F8351039B1022908D03146D5
:102B0000FFF7BCF900250A2004E0456A277002E0BF
:102B100000250E202070D8F80010484601F11C0155
:102B20000F764F760F604F608F6001F04DF92846A9
:102B30004BE72DE9F0410F46054601780120164686
:102B4000022901D0107028E001F03AF98046A87AF5
:102B5000F0B10024012F0FD00223042200212846C7
:102B6000FFF79EF90124404601F02EF9FEF72AFFF7
:102B70000E2030702046C8E6022304220021284699
:102B8000FFF78EF9641CA87AE4B20028F4D1EAE7D2
:102B9000404601F019F9002030700020B5E670B50C
:102BA000044600780E46022801D0012070BD01F0D5
:102BB00007F90546A07A58B1002304223146204681
:102BC000FFF76EF9284601F0FFF8FEF7FBFE19E06B
:102BD0006068C18A828A914204D3284601F0F4F8E1
:102BE0001E2070BDC1680A1DC2600E60C18A491CEA
:102BF000C182D0E902128A4201D14168C1602846EF
:102C000001F0E2F8002070BD70B5044600780E4671
:102C1000022801D0012070BD01F0D2F80546A07A4B
:102C200058B10023042231462046FFF739F92846DF
:102C300001F0CAF8FEF7C6FE18E06068C18A828A11
:102C4000914204D3284601F0BFF81E2070BD4268AF
:102C50000169914201D181680161091F01610E6022
:102C6000C18A491CC182284601F0AEF8002070BD1F
:102C70002DE9F041074600780D461446022801D0A0
:102C8000012042E601F09CF80646B87AD0B1E00790
:102C900009D00023042229463846FFF701F9B87A03
:102CA0000028F6D105E00023042229463846FFF724
:102CB000F7F8304601F088F8600701D4FEF782FE8D
:102CC000002022E67B68D88A998A884204D330465D
:102CD00001F07AF81E2018E6A00715D55968186982
:102CE000884201D198681861001F1861056015E0DD
:102CF000180D0020280D0020540D00203F0000007A
:102D0000190D0020300D0020D868011DD960056024
:102D1000D3E90201814201D15868D860D88A401CA9
:102D2000D882304601F050F8CAE72DE9F041074655
:102D300000780E46022801D00120E6E501F040F8B7
:102D40000146B87A307407F10B0406F1080500203B
:102D5000401C14F8012BC0B205F8012B0828F7D34A
:102D60007868C28A0AB1026912683260C28AB28087
:102D7000808AF080084601F027F80020C5E510B5EC
:102D800060210D48FEF760FF0B4B0020411C0A46F6
:102D900089B200EB400001EB410103EBC10143F8B4
:102DA000301090B20328F1D300EB4000002143F82B
:102DB00030100248036010BD006D0020540D00204B
:102DC00070B505460078032801D0002070BD00F0E2
:102DD000F7FF2C890CB1611E298100F0F5FF204618
:102DE00070BD70B50546B548007808B1002070BDCB
:102DF00000F0E6FFB2490C680CB162680A6000F0AE
:102E0000E3FF4CB103202070258100206060ADA05D
:102E100060612046FFF7A4F8204670BD2DE9F04719
:102E20000446007888461546032801D0012003E0B7
:102E3000A248007810B10F2010701BE000F0C0FF16
:102E40000746A07A08B1012600E000265FEA0800E4
:102E5000DFF86C924FF0000806D0012824D03846E5
:102E600000F0B2FF072004E03EB1384600F0ACFFAE
:102E7000492028702046BDE8F08792A0606184F860
:102E80000080D9F800106160A4F8088046463846F2
:102E9000C9F8004000F098FF2E701CE002230122C8
:102EA00000212046FEF7FCFFA07A0028F6D185A07D
:102EB000606184F80080D9F800206260A4F808807E
:102EC0003846C9F8004000F07FFF012E01D1FEF71F
:102ED00079FD85F800800020CDE72DE9F047054613
:102EE000007889461446032801D0012008E0734881
:102EF000007808B1022003E07348007810B10D207B
:102F00001070B8E700F05CFF06462889002730B152
:102F1000401E2881304600F057FF2770ABE7DFF8EE
:102F2000AC81D8F8000010F8341F41F001010170A5
:102F3000477040F8049C2846FEF7EAFF304600F050
:102F400043FFFEF73FFD00F03BFF0646D8F80000C8
:102F500090F8351031B1022906D02946FEF78EFFD0
:102F60000A2002E0277001E00E202070D8F800004F
:102F700000F11C0007764776076047603046BDE8E1
:102F8000F04700F021BF2DE9F0410F4605460178DA
:102F900001201646032901D0107029E000F010FF2F
:102FA0008046A87AF8B10024012F10D00223012214
:102FB00000212846FEF774FF0124404600F004FF7C
:102FC000FEF700FD0E2030702046BDE8F0810223A0
:102FD000012200212846FEF763FF641CA87AE4B2B0
:102FE0000028F4D1E9E7404600F0EEFE0020307002
:102FF0000020EAE770B504460078032801D00120DC
:1030000070BD00F0DDFE0546A07A58B10023012214
:1030100019462046FEF744FF284600F0D5FEFEF78D
:10302000D1FC09E020894FF6FF71884206D2401C8E
:103030002081284600F0C8FE002070BD284600F020
:10304000C3FE332070BD2DE9F041064600780F46DF
:10305000032801D00120B8E700F0B2FE0146B07AA3
:10306000B872BC1C06F10B050020401C15F8012BA2
:10307000C0B204F8012B0828F7D3308938800846FD
:1030800000F0A2FE0020A0E770B5044600780E46CE
:103090001546032802D00120107070BD00F090FE8C
:1030A00000212970218939B9A17A29B149212970D2
:1030B000BDE8704000F088BE2681F9E7180D0020B9
:1030C000280D00203F000000190D0020300D0020C9
:1030D0002DE9F84F04468B4600F072FE8646F7480D
:1030E00050F82B1029B1704600F06EFE2820BDE884
:1030F000F88FFF2C03D1F249096891F8364050F857
:10310000241029B3012928D04FEADB0201260BF055
:10311000070506FA02F303F0FF0906FA05F303F0C8
:10312000FF0A0023009540F8243040F82B1091F856
:103130003840E44E91F8395091F83A80305D284299
:103140001CD0EB43DBB21840DF4F30550AD00DE006
:10315000704600F039FE2920C9E7704600F034FEC1
:103160004320C4E7387820EA08003870387840EA0D
:1031700009003870B05C40EA0A00B054C86998B1E0
:103180000719EE43FB7AF6B23340FB7203D1837A20
:1031900023EA08038372837A43EA090383721044A3
:1031A000C37A43EA0A03C3720B6AD3B11868C0B189
:1031B00007196FEA050CFE7A0CF0FF0C16EA0C06F4
:1031C000FE7203D1867A26EA08068672867A871806
:1031D00046EA09068672F87A1B1D40EA0A00F87270
:1031E000E4E701F836BF8A700098487081F80490CF
:1031F00081F803A0704600F0E7FDB448007801288C
:1032000001D1FEF7DFFB002071E72DE9FE43064602
:103210000F4690461C4600F0D3FDAD49097821B118
:1032200000F0D2FD3C20BDE8FE83A44D55F82410EB
:1032300019B100F0C9FD2820F5E7012145F8241057
:1032400000F0C2FD002342463946304600F026FE1B
:1032500000260146009601963346324620460296E5
:10326000FEF7ABFE070007D000F0AAFD45F824608A
:1032700000F0AAFD3846D6E7944800780128F9D135
:10328000FEF7A0FBF6E7D30707D0920705D500228B
:10329000002902D004C0491EFAE770472DE9FF4F0C
:1032A00083B08246DDE91386DDE911978B461C4623
:1032B00000F086FD8649097829B100F085FD3C20A3
:1032C00007B0BDE8F08F7D4D55F8241019B100F01E
:1032D0007BFD2820F4E7012145F8241000F074FD5F
:1032E000324639464846FFF7CEFF334659465046E8
:1032F000059A00F0D3FD0097CDE9018601464A46C4
:103300002046109BFEF759FE060008D000F058FD3D
:10331000002145F8241000F057FD3046D0E76B48F7
:1033200000780128F9D1FEF74DFBF6E72DE9F047CB
:1033300005466748007810B14020BDE8F0873F2D72
:1033400005D000F03DFD0646FF2D02D005E03E20F1
:10335000F3E75B48006890F83650DFF8609159F861
:1033600025406CB1012C10D094F83810554A94F8CF
:103370003930505CDB43DBB2184050540AD010E0C7
:10338000304600F021FD4320D7E7304600F01CFD19
:103390003D20D2E794F83A00C1434B4802781140EF
:1033A0000170E16911B12046FEF768FD216A11B193
:1033B0002046FEF7EFFAA06A08B1FEF754FF4FF07F
:1033C0000008C4F83080434F84F8348084F8358096
:1033D0003878FF2801D2401C3870304600F0F4FCE9
:1033E000FEF74BFD00F0ECFC0646387808B1401EB5
:1033F0003870204600F04AFD37490878401E0870B2
:1034000049F82580A069414680B161694161D4E9EC
:10341000050181613148016861610460304600F056
:10342000D3FC2A480078012806D007E06069816152
:103430002B4960690860EDE7FEF7C4FA00207CE7DD
:1034400010B504463F2810D0FF2C10D000F0B8FC77
:103450001A4951F82410A1B1012916D03F2281F850
:103460003B2000F0B1FC002010BD3E2010BD00F05C
:10347000A7FC1349096891F83B4000F0A5FC2046E1
:1034800010BD00F0A1FC432010BD00F09DFC3D20CC
:1034900010BD10B5044600F093FC084951F8241003
:1034A00059B1012922D091F83420130740D512F0E8
:1034B000F70281F834201DD01EE013E0F8650020EB
:1034C000300D0020440D00201C0D00201D0D00209B
:1034D000180D0020190D00201E0D0020340D0020B5
:1034E0003C0D002000F070FC462010BD00F06CFC8C
:1034F000432010BD0A6B1AB100F066FC002010BD1D
:10350000824A01F138018B78147843EA040313707E
:103510000A787F4C4978A35C43EA0103A35400F086
:1035200053FC7C4800780128E8D1FEF74BFAE5E728
:1035300000F04AFC442010BD2DE9F0410446002073
:1035400008600E46486000F03BFCFF2C03D1724936
:10355000096891F83640714951F8241051B1012998
:1035600008D00A8AD2070AD0D1E90257002400F015
:103570002BFC09E000F028FC4320BDE8F08100F0BE
:1035800023FC4520F9E7641C01CD0028FBD0381B43
:10359000C6E900400020F0E770B5044600F010FCDA
:1035A00001465D48FF2C006805D090F83600A04227
:1035B00004D1012503E090F83640FAE7002557488A
:1035C00050F8240068B1012810D090F83820504CF1
:1035D00090F83960A35CF643F6B23340A3540AD0A6
:1035E00010E0084600F0F0FB482070BD084600F0EF
:1035F000EBFB432070BD454B90F83A201C7824EA41
:1036000002021A7010F8342F42F0080202700846C5
:1036100000F0DAFB012D01D1FEF7D4F9002070BDD6
:1036200070B505460E4600F0CBFB0446FF2D03D1D6
:103630003948006890F83650384850F8251051B194
:1036400001290DD054223046FEF794FC204600F0AC
:10365000BBFB002070BD204600F0B6FB292070BDEA
:10366000204600F0B1FB432070BD70B504460E4605
:10367000154600F0A5FB0146FF2C0CD0274850F85A
:10368000240000EB8600046D084600F09DFB00203E
:103690002870204670BD20480068F2E710B5044647
:1036A00000F08EFB1E490A782AB19621217000F0A5
:1036B0008BFB012010BD01220A7000F085FB002069
:1036C000207010BD2DE9F04107460C4615461E46F8
:1036D00000F076FB0146FF2F0BD0104850F8270072
:1036E00000EB84000565084600F06EFB002030709A
:1036F00043E709480068F3E7074810B5006800F0A1
:10370000C9FBBDE81040FF2010E600001C0D0020A2
:10371000440D00201D0D0020300D0020F865002014
:10372000200D002070B5044651480078002824D1AF
:1037300050480078002820D1002C1ED000F040FB1B
:1037400003464D484D4D016891F8382091F8396095
:10375000A85CF643F6B23040A85406D1484A91F826
:103760003A00157825EA0000107018460C6300F046
:103770002BFBBDE87040FEF725B970BD10B53C4C81
:1037800024780CB1552010BD3A4C24780CB132206D
:1037900010BD4FF47A746343B3FBF4F34FF46164E8
:1037A0006043C1EB011100EB8100104400EB4001CC
:1037B000C1EBC01003EBC000FFF7B4FF002010BD49
:1037C00010B504463F2801D32A2010BD00F0F8FAB6
:1037D0002C4951F8241091B1012910D00A6B92B1F3
:1037E00000230B6391F8342012F0370F0FD022F032
:1037F000370281F83420012281F8352009E000F0F9
:10380000E3FA432010BD00F0DFFA502010BD81F82C
:10381000353091F83420120713D4194A01F13801D8
:103820008B78147843EA040313700A78134B4978B1
:103830009C5C44EA01049C5400F0C6FAFEF7C2F80E
:1038400001E000F0C1FA002010BD10B500F0B8FA98
:103850000D490C6800F0B8FA204610BD10B50446BA
:1038600000F0AEFA08490C60BDE8104000F0ACBAB8
:10387000180D0020190D0020300D0020440D0020EF
:103880001C0D0020F8650020400D00202DE9F05FA0
:103890008046FD48DDE90B750078894692469B46D7
:1038A00008B18B202AE0FEF753FAF8480026046896
:1038B000FCB1E1680160F649E66026610888401CB9
:1038C0000880F4480188491E0180A4B1012084F8D1
:1038D0002500C4E9068984F824A0C4F804B00A9835
:1038E000A06077B12762FEF746FA2E702046BDE849
:1038F000F09F3446E9E7FEF73EFA86202870002064
:10390000F5E7E5A02062EEE7002180F8251080F8B9
:103910002410C16141614160DFA2816002620161E6
:10392000DA490A68C2600860D9490888401E0880E0
:10393000D8490888401C0880704710B54169D74AAB
:1039400001F0070102EBC10100240B68C268834249
:1039500003D10A602AB1146103E00369DA6002B19D
:103960001361012280F82520C46004618888401E0C
:10397000888010BD70B5054600780C46642801D0DB
:10398000892003E0C048007810B18B2008701EE049
:10399000FEF7DEF995F82510A9B1002601290AD015
:1039A000022908D0032903D0FEF7E5F98D200DE0A8
:1039B0002846FFF7C2FF2846FFF7A6FFFEF7DBF910
:1039C0002670012070BDFEF7D6F9872020700020F8
:1039D00070BD70B5054600780E461446642801D0C7
:1039E000892003E0A848007810B1112010701DE074
:1039F000FEF7AEF995F82520A2B1012A07D0022AD8
:103A000005D0032A03D0FEF7B6F98D200DE0286A11
:103A10003060FDF773FF0546FEF7ADF90021217018
:103A2000284670BDFEF7A7F987202070002070BDE2
:103A30002DE9F041054600780C46642801D0892024
:103A400003E09148007810B18B2008702DE0FEF75C
:103A50007FF995F8250020B30026012811D002280F
:103A60001BD0032803D0FEF786F98D201CE08C497B
:103A700068690968451AFEF77EF926702846BDE890
:103A8000F08195F82400AF69022801D107B9EF69E8
:103A9000FEF771F926703846F1E7FEF76CF92670EB
:103AA00003E0FEF768F9872020700020E7E770B593
:103AB000044600780D46642801D0892003E072484E
:103AC000007818B18B200870002070BDFEF740F917
:103AD00094F825403CB1012C05D0022C03D0032CD6
:103AE00001D08D2000E000202870FEF744F9204628
:103AF00070BD032280F82520694A0129126813D07D
:103B0000816989B111444161644A01F0070102EB06
:103B1000C10100230A68086042B1C26010618A884E
:103B2000521C8A8003617047C169EBE70122C360C0
:103B3000F7E770B5054600780C46642801D0892067
:103B400003E05148007810B18B2008701FE0FEF7A9
:103B5000FFF895F82510B1B1002601290AD00229F5
:103B600008D0032903D0FEF706F98D200EE0284681
:103B7000FFF7E3FE00212846FFF7BBFFFEF7FBF847
:103B80002670012070BDFEF7F6F887202070002017
:103B900070BD2DE9F041054600780E4617461C46DB
:103BA000642801D0892003E03748007810B18B20C9
:103BB000187033E0FEF7CCF895F8250050B30128D3
:103BC00023D0022821D0032803D0FEF7D4F88D207B
:103BD00023E02846FFF7B1FE002020708EB18F2031
:103BE000032E03D0042E05D0842009E06A683AB180
:103BF000A96802E06A681AB139462846904700E091
:103C00002070FEF7B8F8012039E7FEF7B4F88E20EF
:103C10002070F8E7FEF7AFF88720207000202EE72D
:103C200020480068FFF7E6B908B5DFF87880DFF8CC
:103C30006C901B4E6A460021D8F80000FFF74DF942
:103C4000FEF786F83068401C306000F0070002275D
:103C500059F8304013E060693168E56888420DD159
:103C60002046FFF76AFE94F8240002281CD084F84E
:103C70002570626812B12046A16890472C46002C3E
:103C8000E9D1FEF778F8D5E7180D0020680D00207F
:103C90005A0D0020580D00203F000000E071002068
:103CA0005C0D0020640D002001212046FFF721FF5C
:103CB000DFE770B586B04FF420712D48FDF7C4FFE3
:103CC00040212C48FDF7C0FF0020294A0446642308
:103CD000411C00EB80000D4602EBC00089B201EBF5
:103CE0008101037002EBC10180F82540C160AFF291
:103CF00058010162A8B20F28EAD300EB800002EB62
:103D0000C000037080F82540AFF27401C460016206
:103D100019481B490460194804801020088019487C
:103D200002600120FFF75DF8174D28600020FFF7C3
:103D300058F8164E05AA16A130602868FDF70DFE4A
:103D400005AA18A13068FDF708FE80210291032022
:103D5000CDE90340184A4FF6FD70CDE900023D233E
:103D600002F5FE7200211548FFF798FA06B070BD03
:103D7000606D0020E07100205C0D00205A0D0020D5
:103D8000580D0020680D0020600D0020640D0020FB
:103D900075432F4F532D494920546D724C6F636BFF
:103DA0000000000075432F4F532D494920546D7278
:103DB0005369676E616C0000E06F0020293C0008C9
:103DC000EFF3108072B6704780F3108870471F4879
:103DD0004FF0FF010170002080F309881C48016842
:103DE00081F308881B48012101701B484FF0805166
:103DF000016062B6FEE718484FF0805101607047DD
:103E000015484FF080510160704772B6EFF309809A
:103E100028B1203880E8F00F10490968086000B523
:103E20000F4880475DF804EB0E480F490A7802708E
:103E30000A480E490A680260106890E8F00F2030C6
:103E400080F309884EF0040E62B6704722ED00E060
:103E5000700D00201D0D002004ED00E0300D00204D
:103E6000033F00081A0D00201B0D0020380D002014
:103E70004A498020002204C1401EFCD149484849DB
:103E80004160028070477047FCF724BAFCF723BA00
:103E9000FCF722BAFCF722BAFCF71FBA4FF0807386
:103EA0001360131FA2F1240218603F48D0614FF045
:103EB000123090614FF0033050614FF002301061CA
:103EC0004FF00130C2E902104FF0113050604FF056
:103ED000103042F804094FF009301060A2F11000D0
:103EE0004FF00831C1604FF0073181604FF006316B
:103EF00041604FF0053140F804194FF00431016082
:103F00007047FCF7ECB9FCF7EBB910B5FCF7E9F931
:103F100024490888401C80B20880642805D300200A
:103F20000880BDE81040FFF77BBE10BD10B5FFF75D
:103F300047FF1E4A1178491C11701D490A68521C1E
:103F40000A601C4A1189B1F5FA6F01D2491C11812E
:103F5000194A40F2FF731188994201D2491C11801D
:103F6000164A117809B1491E1170FFF72DFFFDF7B0
:103F70002FFFBDE81040FDF7BABE4FF0E021401E14
:103F800048610F4AFF201070086940F00500086181
:103F9000086940F0020008617047000020720020AC
:103FA0001C7400206C0D0020F9360008180D00204C
:103FB000BC120020240E00205C920020547E0020C1
:103FC00023ED00E0704700002749084327490860B7
:103FD000704770B50F23C278017801254FF0E026B5
:103FE000E2B1224A126802F4E062C2F5E062C2F372
:103FF0000722C2F10404D3404278A24084781C40D6
:104000001B4B14432201CA54007800F01F018D405D
:10401000400906EB8000C0F8005170BD01F01F00A0
:104020008540480906EB8000C0F8805170BD114AF8
:10403000114001430D48001F016070470B4A121DDB
:104040000029116801D0014300E0814311607047ED
:104050004FF0E0210428086903D020F00400086133
:10406000704740F00400FAE70000FA050CED00E0AC
:1040700000E400E080FFFF1F10B501210C02204684
:1040800001F017F92046BDE81040002101F011B9F8
:1040900030B54268C64B0C791A400B6842EA0422DC
:1040A000134343608268C34B4D791A40D1E90343FF
:1040B00023438C6844EA4504234313438360C26A64
:1040C000097D22F47002491EC9B242EA0151C1625F
:1040D00030BD00210160017141718160C1600161E9
:1040E000012101757047B44B10B51968B34A01EA54
:1040F0000201D0E9002442EA0402D0E9024044EA85
:10410000000442EA040242EA01021A6010BD0021E2
:10411000016041608160C16070470029816802D000
:1041200041F0010101E021F0010181607047426826
:10413000A34B1A400A434260704741628262704753
:10414000426822F01F020A43426070479D490028DE
:10415000D1F8040302D040F4000001E020F4000094
:10416000C1F80403704797490028D1F8040302D02E
:1041700040F4800001E020F48000C1F8040370479F
:1041800070B5072609290AD9C568A1F10A0404EB0C
:104190004404A640B543A3401D43C56007E005693C
:1041A00001EB4104A640B543A3401D4305611F2315
:1041B000072A09D2446B521E02EB820293409C43B1
:1041C00091400C43446370BD0D2A09D2046BD21F89
:1041D00002EB820293409C4391400C43046370BD08
:1041E000C46A0D3A02EB820293409C4391400C4317
:1041F000C46270BD816841F08041816070470146B2
:1042000000208968490200D5012070470029816893
:1042100002D041F4806101E021F480618160704747
:104220000029816802D041F0020101E021F0020181
:10423000816070474268491E22F4604242EA41317F
:10424000416070470029416802D041F4006101E0FB
:1042500021F4006141607047C06C80B270475A48D9
:10426000006870470029816802D041F4807101E044
:1042700021F48071816070470029816802D041F487
:10428000007101E021F40071816070474D49002800
:10429000D1F8040302D040F4005001E020F40050B3
:1042A000C1F80403704770B5072609290AD9C56803
:1042B000A1F10A0404EB4404A640B543A3401D4306
:1042C000C56007E0056901EB4104A640B543A34082
:1042D0001D430561836BC3F30154121B921C02EB57
:1042E00082021F249440A34391400B43836370BD1B
:1042F000826B491E22F4401242EA015181637047E9
:1043000042507047826822F470220A4382607047EC
:10431000826822F440120A4382607047816841F447
:10432000800181607047014600208968490200D5FC
:10433000012070470029416802D041F4806101E00A
:1043400021F48061416070470029416802D041F446
:10435000805101E021F48051416070470844806A37
:1043600080B2704701238B4041680AB1194300E0D5
:104370009943416070470246002012680A4200D00B
:1043800001207047C9430160704730B502460020E4
:1043900053680C0A01258D4011682B40214202D040
:1043A000002B00D0012030BD6FEA11210160704761
:1043B000FFFEFFFCFDF7FFC004230140E030FCFFDF
:1043C000FFFD3FFF0020014008230140FE4910B5DA
:1043D00088424FF0010101D14C0601E04FF08064AA
:1043E000204600F05CFF2046BDE81040002100F0B0
:1043F00056BF10B50368002223F002030360036870
:1044000043F0010303604FF6FF7300E0521C446861
:10441000E40701D19A42F9D14268D2073ED08A79A5
:10442000012A02683CD022F080020260CA79012A87
:10443000026838D022F0400202600A7A012A02683B
:1044400034D022F0200202604A7A012A026830D079
:1044500022F0100202608A7A012A02682CD022F02F
:1044600008020260CA7A012A026828D022F00402F7
:1044700002608A78CC78920742EA04620C7942EAB8
:1044800004424C79098842EA0452491E0A43C26137
:10449000016821F001010160002114E0002010BD3D
:1044A00042F08002C1E742F04002C5E742F020023C
:1044B000C9E742F01002CDE742F00802D1E742F02E
:1044C0000402D5E7491C4268D20701D09942F9D1CC
:1044D0004068C007E2D1012010BDF0B5827ABB4D23
:1044E000012191402A6842F001022A60B74E1C3631
:1044F00032688A433260DFF8D4C2B44F037B0CF1D8
:10450000400C0C370CF1040283B93B688B433B60D1
:104510004388C48843EA0443847A4CF834300388DF
:10452000848843EA0443847A42F83430037B012BC5
:104530000ED13B680B433B600368847A4FEA3343F8
:104540004CF834304368847A4FEA334342F83430CD
:104550009E4AC37A121D002B136806D00B431360CA
:104560009A4A0389143213B104E08B43F7E71368C6
:104570008B4313600389012B02D113680B43136033
:10458000407B012802D1306808433060286820F061
:1045900001002860F0BD00218171C171017241727A
:1045A0008172C1728170C170032101710221417158
:1045B00001210180704785490A6842F001020A60C2
:1045C0000A6843F60E739A430A600A6842EA0020BA
:1045D0000860086820F00100086070470029016841
:1045E00002D041F4803101E021F480310160704754
:1045F0000029016813D041F080010160D0F88411D6
:1046000041F48071C0F88411D0F8941141F48071A4
:10461000C0F89411D0F8A41141F4807112E021F097
:1046200080010160D0F8841121F48071C0F88411F8
:10463000D0F8941121F48071C0F89411D0F8A4112D
:1046400021F48071C0F8A411704730B502460020F3
:1046500093685B0108D49068000101D5012003E054
:104660009068C00032D5022002EB0012D2F88031EF
:1046700003F00103C2F880310B7A4BB3D2F88041CA
:104680004D681C434B7A43EAC5031C43C2F8804182
:104690008B7A02F5C07203F00F038B72536823F01C
:1046A0000F03536053688C7A43EA04035360CB7A58
:1046B000CC6843EA04239360CB7B096943EA012178
:1046C000D160116841F00101116030BD042030BD9E
:1046D000D2F880314C7A23430C6843EA4453C2F841
:1046E0008031D5E7002221B1012905D0022906D168
:1046F00012E08268364801E0826836480240364956
:10470000501A8A4214D00ADCA2B16FF080601018EF
:1047100013D002280CD10FE082683048EEE7B0F5E4
:10472000007F09D02E49401807D0B0F5003F03D0D4
:10473000002002E0022000E00120C0B2704741B139
:1047400001290AD0022903D1816841F40001816066
:104750007047816841F08001F9E7816841F40041C8
:10476000F5E710B500EB0113D3F8B04114F00404E1
:104770001472D3F8B04140D0E408546003F5D87304
:104780001C6804F0020454725C6804F00F04947214
:104790005C684FEA1424D4749C68D4729C684FEA15
:1047A000142414739C684FEA144454739C684FEAB1
:1047B00014649473DC68D473DC684FEA14241474B2
:1047C000DC684FEA14440DE00064004000660040DD
:1047D00003000004000300080001000800000310AB
:1047E0000001FFF75474DB684FEA1363937439B127
:1047F000016941F02001016110BD640D1460BDE745
:10480000C16841F02001C16010BD21B1016941F0D2
:10481000200101617047C16841F02001C16070470B
:104820000246002029B1012902D1106900F00300DD
:104830007047D068FAE700234FF6FF7221B10129D3
:1048400017D0022924D03AE0016821F0020141F09A
:104850000101016000E0521E416801F003010129DD
:1048600001D0002AF7D1406800F00300012823D1CD
:1048700024E0016821F00301016000E0521E41685C
:10488000890701D0002AF9D14068800714D115E0CA
:10489000016821F0010141F00201016000E0521EB7
:1048A000416801F00301022901D0002AF7D14068D4
:1048B00000F00300022801D0002300E00123184685
:1048C00070470268002122F0010242F002020260F9
:1048D000406800F00300022800D10121084670471B
:1048E00002684FF6FF71002322F00202026001E02D
:1048F000A1F101014268920701D50029F8D1406871
:10490000800700D40123184670478069C0F3021065
:10491000000170478069000E70478069C0F307404E
:104920007047002A426901D00A4300E08A4342618D
:1049300070470246002011F4700F03D0926904E022
:1049400001207047CB0104D552680A401103F7D10A
:1049500070470B0101D59268F7E78B0101D5D2684A
:10496000F3E71269F1E7534A914202D100218161D4
:104970007047C1F313028B0101D5C26070474B0130
:1049800001D502617047090101D58260704742601C
:1049900070470246002053690B424AD0B1F5807F30
:1049A0003BD013DC08292ED007DC012926D00229B0
:1049B00027D004293DD1D0682BE0102925D020290B
:1049C00026D0402935D11069102130E0B1F5004FD3
:1049D0002BD00BDCB1F5007F22D0B1F5806F22D057
:1049E000B1F5006F25D19069702120E0B1F5803FCD
:1049F00011D0B1F5003F1CD15068E5E790682E4911
:104A000015E0D06802E0D068DEE7106903210EE00F
:104A1000106908210BE05068FBE79069012106E06E
:104A20009069022103E0906900E05068042100F0E1
:104A30003BB8704730B5082310240422B1F5007F3D
:104A40001DD010DC202929D007DC012921D0042920
:104A500022D0082900D1C46030BD402920D0B1F552
:104A6000807FF9D10BE00025B1F5004F06D008DCBE
:104A7000B1F5806F03D0B1F5006FEDD18561426073
:104A800030BDB1F5803F0DD0B1F5003FF8D14460A5
:104A900030BD0949816030BDC36030BD036130BDA8
:104AA000046130BD436030BD024600200A4200D0A0
:104AB000012070477000F030010101002DE9F04342
:104AC000016821F001010160002101604160816005
:104AD000C160016121214161B849B84B3D221039C3
:104AE000984202D18A60BDE8F083B44C4FF47463FD
:104AF0001834A04201D18B60F5E7B04D4FF4741427
:104B00003035A84201D18C60EDE7AC4E4FF07465B2
:104B10004836B04201D18D60E5E7A84FA84E603716
:104B2000B84201D1CE60DEE7A44FDFF898C27837F3
:104B3000B84202D1C1F80CC0D5E7A04FDFF8888297
:104B40009037B84202D1C1F80C80CCE79B4F4FF0B0
:104B50003D59A837B84202D1C1F80C90C3E79B4930
:104B60009A4F0839B84201D10A60BCE7974A183217
:104B7000904201D10B60B6E7944A3032904201D1A5
:104B80000C60B0E7914A4832904201D10D60AAE72B
:104B90008E4A8E496032091F904201D10E60A2E711
:104BA0008A4A7832904202D1C1F800C09BE7874A16
:104BB0009032904202D1C1F8008094E7834AA83233
:104BC000904290D1C1F800908DE730B50368804ADB
:104BD000CC6813400A682243D1E905452C4322439F
:104BE000CC6922430C6A22434C6A22438C6A2243DA
:104BF0004C6B22438C6B22431A430260426922F0C1
:104C00000703D1E90B2422431A4342610A69426037
:104C10004A6882608968C16030BD002101604160DE
:104C20008160C160016141618161C1610162416274
:104C30008162C16201634163816370470029016839
:104C400002D041F0010101E021F001010160704753
:104C50000029016802D041F4004101E021F4004143
:104C6000016070470029016802D041F0200101E095
:104C700021F020010160704741607047406880B2B8
:104C80007047002A026802D042F4002201E022F4B8
:104C900000220260016170470029016802D041F4DE
:104CA000802101E021F48021016070470AB1016197
:104CB0007047C1607047014600200968090300D5AC
:104CC00001207047014600200968C90700D0012073
:104CD0007047406900F03800704702463B4B0020A7
:104CE0009A4202D2354A103A01E0384A103A8B0013
:104CF00001D5526800E01268364B1A400A4200D0D3
:104D000001207047314A904202D22C48103801E00D
:104D10002E4810382F4A8B0001EA020101D5C160EC
:104D20007047816070470B0607D5436912B143F0A5
:104D3000800301E023F080034361802908D0002A2A
:104D4000026801F01E0101D00A4300E08A430260BC
:104D5000704730B51D4A0024904202D2174A103ADB
:104D600001E01A4A103A1C4B194205D01E2303EAEF
:104D7000D12503682B4002E0406900F080038800E1
:104D800001D5506800E01068124A1040084201D076
:104D900003B10124204630BD0C4A904202D207489C
:104DA000103801E0094810380A4A8B0001EA020174
:104DB00001D5C160704781607047000010600240FB
:104DC0003D000020400F002000003D201064024004
:104DD0003F801CF07D0F7D0F3C0F3C0F37490020BA
:104DE0000860091D0860091D0860091D0860334935
:104DF000334814310860704730B5304A8379016810
:104E000053B313688B431360111D0B680468A343ED
:104E10000B60017911440B68046823430B60274B36
:104E2000083319680468A14319601C1D21680568CE
:104E3000A94321604179102905D011440A6800680E
:104E400002430A6030BD1968026811431960216885
:104E500000680143216030BD0079104402688A4334
:104E6000026030BD0021016001710C22427181712C
:104E70007047124910310A6802430A6070470146C0
:104E80000E4A0020143212680A4200D001207047F6
:104E90000A49143108607047084A01460020126828
:104EA000064B0A4014331B680B4202D0002A00D084
:104EB000012070470149143108607047003C0140EF
:104EC000FFFF7F000D49086070470C49486070473C
:104ED0000A498860704709494AF6AA200860704765
:104EE00006494CF6CC4008607047044A0146002051
:104EF000D2680A4200D00120704700000030004014
:104F000010B501210C07204600F0C9F92046BDE884
:104F10001040002100F0C3B9244908627047244AB8
:104F2000116821F0E0010143116070471F490861D9
:104F300070472049086070471F49086070471B4947
:104F4000486270471A4B1A6822F0030202431A6043
:104F50001A48026842F004020260012905D020BF0D
:104F6000016821F004010160704730BFF8E7104884
:104F7000016841F004010160016841F00201016033
:104F80000E48016841F00401016030BF7047084AD3
:104F90000146002052680A4200D0012070470449AF
:104FA0000A6842EA800008607047000000000E4274
:104FB00000700040A0000E42A4000E4210ED00E080
:104FC000E948016841F001010160E74A0021083227
:104FD00011600268E54B1A400260031DE44A1A6042
:104FE000026822F480220260DF480C3001607047C2
:104FF000DD490022891C0A700870704702460020B3
:10500000510901290CD002290CD0D7497431096803
:1050100002F01F02012393400B4200D00120704791
:10502000D149F4E7D0497031F1E730B500244FF4AD
:10503000A0653120FFF7E2FF641CAC4201D00028DC
:10504000F7D03120FFF7DAFF002800D0012030BD73
:10505000C54A116821F0F80141EAC00010607047AC
:10506000C44908607047C049002270310A700A7054
:10507000012802D0042801D1052008707047BE49DC
:105080000860704741EA82115A0810B5BB4B029C78
:1050900003EB02421143014341EA0460B249091D96
:1050A000086010BDB34908667047800140EA01708E
:1050B000AD49843108607047AE4988667047AD4994
:1050C000C8647047A84B08331A68084322F0EC62A2
:1050D000104318607047A44B08331A68084322F045
:1050E00078421043186070479F4A0832116821F0D7
:1050F00003010143116070479B480830006800F0CD
:105100000C007047984A0832116821F0F001014301
:1051100011607047944A0832116821F4E05101434C
:1051200011607047904A0832116821F4604141EAE9
:10513000C0001060704770B58B4B08331968904CF5
:1051400011F00C0104D06610042903D0082903D003
:1051500004601BE0066019E0834A121D1168C1F368
:105160008055116801F03F0115B1B6FBF1F101E086
:10517000B4FBF1F114681268C4F388146143C2F3FC
:105180000142521C5200B1FBF2F1016019687D4AE4
:1051900001F0F0010909545C0168E14041601C68BC
:1051A00004F4E054A40A145D21FA04F484601B683A
:1051B00003F460435B0BD25CD140C16070BDC0F3AF
:1051C0000121032908D1684B083319686E4A21F47C
:1051D000F81102400A431A60634970310A68C0F34B
:1051E0000B0002430A607047634944390860704706
:1051F00061494039086070476449086070475A4AFD
:1052000030320029116801D0014300E08143116070
:105210007047554A34320029116801D0014300E03B
:10522000814311607047504A38320029116801D01B
:10523000014300E08143116070474B4A403200292E
:10524000116801D0014300E0814311607047464A74
:1052500044320029116801D0014300E0814311600C
:105260007047414A10320029116801D0014300E023
:105270008143116070473C4A14320029116801D003
:10528000014300E0814311607047374A183200291A
:10529000116801D0014300E0814311607047324A38
:1052A00020320029116801D0014300E081431160E0
:1052B00070472D4A24320029116801D0014300E0D3
:1052C000814311607047284A50320029116801D08B
:1052D000014300E0814311607047234A54320029A2
:1052E000116801D0014300E08143116070471E4AFC
:1052F00058320029116801D0014300E08143116058
:105300007047194A60320029116801D0014300E05A
:10531000814311607047144A64320029116801D03A
:10532000014300E08143116070470F4A0D320029AC
:10533000117801D0014300E08143117070470A48A1
:105340007430016841F08071016070470146064A7F
:1053500000200C3212680A4200D001207047024936
:105360000E3108707047000000380240FFFFF6FE63
:105370001030002400004742800E47420000FFFF2B
:105380000024F400740D0020FFFCFF0F5C01474275
:10539000FC4B10B50020CA21196053211960F94A4D
:1053A000183A116821F0A0011160D4131168401C53
:1053B00001F02001A04201D00029F7D0106880063A
:1053C00001D5012000E00020FF21196010BDED4A49
:1053D0000020183A116849060FD4411E116093133A
:1053E0001168401C01F04001984201D00029F7D01B
:1053F0001068400601D4002070470120704770B546
:105400000024E04ECA202546306053203060FFF76C
:10541000DEFF98B3DB48002224380260D94942F20B
:105420000110203908600B1D186800F00700186093
:105430008D13191D0868641C00F00400AC4201D0F3
:105440000028F7D0086840071CD518681A60CD4BB3
:105450004FF6FF70103B18601B1FCB481860C948FF
:105460000C380260001D0260001D02600A60C54821
:105470001C300260FFF78CFF20B10125FF20306057
:10548000284670BD0025F9E7BE481838016821F0AC
:1054900080010160704770B5BA4D04460026CA20ED
:1054A000286053202860FFF792FFA8B1B5481C3848
:1054B000016821F040010160016822681143016028
:1054C000B048A168143801600168626841EA02418D
:1054D0000160FFF7D9FF0126FF202860304670BD2C
:1054E000002101607F214160FF2181607047A54953
:1054F00008B1FF2002E0CA2008605320086070470E
:1055000070B5A04D06460024CA20286053202860AC
:10551000FFF75DFF60B19B481C38016816B141F090
:10552000100101E021F010010160FFF7ADFF01243F
:10553000FF202860204670BD70B50C4693490026B8
:1055400002002078096833464FEA416104D00029FF
:105550002BDA00F04AFB29E0002900DBE37000F0C1
:1055600038FB0504607800F034FB45EA0025A0789C
:1055700000F02FFB0543E07845EA0045814CCA2046
:10558000206053202060FFF722FF50B18048054083
:105590007E4808380560FFF777FFFFF7F9FE00B196
:1055A0000126FF202060304670BDE370A07821788E
:1055B00040EA01456078E178000240EA0140054395
:1055C000DCE70021C17001704170817070470200FA
:1055D00010B570480C4601686D4801EA0001C1F33E
:1055E00005402070C1F30623637001F07F0301F4CE
:1055F0008001A3704FEA1141E1700AD100F0F5FA81
:105600002070607800F0F1FA6070A07800F0EDFA98
:10561000A07010BD70B50026020048780C4610D06E
:1056200000F0E3FAA07800F0E0FAA078E17840EA30
:105630000145607821784FEA002040EA4130054377
:1056400015E0C10603D520F010000A306070E07844
:1056500000F0BFFA0504607800F0BBFA45EA0025C7
:10566000A07800F0B6FA0543207845EA4035454C6D
:10567000CA20206053202060FFF7A9FE50B14648A1
:1056800005404248001F0560FFF7FEFEFFF780FE61
:1056900000B10126FF202060304670BD012101705D
:1056A000817041700021C1707047020010B53B4805
:1056B0000C460168384801EA00014FEA1140E070E9
:1056C000C1F30423637001F03F03A370C1F34231BF
:1056D00021700AD100F089FAE070607800F085FA54
:1056E0006070A07800F081FAA07010BD70B514460B
:1056F0000D46264A0021002810684FEA406005D078
:1057000000282CDA207800F070FA29E0002800DB6D
:10571000E170207800F05DFA0604607800F059FA34
:1057200046EA0026A07800F054FA0643E07846EAFC
:105730000046207B00F04DFA46EA0060A16808436D
:10574000616808430F49CA220A6053220A60B5F50E
:10575000807F25D00A1F1060FF20086070BDE170B7
:10576000207B00F042FAA0782178E27840EA0140FC
:105770006178090241EA02410843217B40EA016065
:10578000DCE7000024280040FF007F0008280040DC
:105790007F7F7F00002800403FFFFF00042800407B
:1057A000F84AD8E70021C170017041708170012270
:1057B000816002734160704710B503461446B1F52D
:1057C000807F2AD0EF48001D0168C1F3054020709A
:1057D000C1F30622627001F07F02A27001F4800220
:1057E000120CE270C1F30562227301F0804201F0F5
:1057F0008031C4E90112002B0ED100F0F6F92070BF
:10580000607800F0F2F96070A07800F0EEF9A07016
:10581000207B00F0EAF9207310BDDA48D4E730B5F8
:10582000D84B0022CA2408331C6053241C60D54C7A
:10583000143C0029216802D00143216010E081431B
:105840002160D04C103CA5132168521C01EA1021A4
:10585000AA4201D00029F7D0216811EA102000D017
:105860000120FF21196030BDC64ACA2108321160EB
:1058700053211160C34914390B6823F007030B60EF
:105880000B6803430B60FF2010607047BD49CA22BC
:1058900008310A6053220A60BA4A083A1060FF20B1
:1058A00008607047B7480838006880B27047B54A4A
:1058B0000021CA2310B50832136053231360B14B83
:1058C000143B0028186803D040F48060186012E090
:1058D00020F480601860AB4B103B9C131868491C87
:1058E00000F00400A14201D00028F7D0186840075A
:1058F00001D4002000E00120FF21116010BDA14B68
:10590000CA2210B508331A6053221A609D4A143A0D
:10591000146824F480241460146808430443146059
:10592000FF20186010BD97481438006800F48020EC
:105930007047944BCA2210B508331A6053221A607C
:10594000904A143A146824F4E0041460146808437C
:1059500004431460FF20186010BDF0B50646894D61
:105960000024CA2008350F46286053202860FFF71E
:105970002EFD30B183483E43001F0660FFF784FDD3
:105980000124FF2028602046F0BD70B506467D4DFD
:105990000024CA200835286053202860FFF717FD2F
:1059A00060B178481438016816B141F0800101E017
:1059B00021F080010160FFF767FD0124FF202860CE
:1059C000204670BD6F4ACA21083211605321116010
:1059D0006C4914390028086802D040F4000001E046
:1059E00020F400000860FF2010607047654B10B580
:1059F000143B1A6840F60804A24342EA000209B1C7
:105A000042F400625F48CA210830016053210160FE
:105A10001A60FF21016010BD70B50C46594915464A
:105A200014310968584A1140564A183212684FF624
:105A30003F731A40C1F305432370C1F3062363701B
:105A400001F07F0301F48001A370090CE1700021D3
:105A5000E970C2F30421697002F03F01A970C2F33A
:105A600042312970002817D1207800F0BEF820704C
:105A7000607800F0BAF86070A07800F0B6F8A07016
:105A8000687800F0B2F86870A87800F0AEF8A870F6
:105A9000287800F0AAF8287070BD3A4A243200290C
:105AA000116803D041EA40001060704721EA4000CD
:105AB000FAE7344A24320029116801D0014300E09A
:105AC0008143116070472F4A343242F820107047EA
:105AD0002C49343151F8200070472A4924310A6892
