:020000040800F2
:10000000F8170120F5050008FD050008C5C1010825
:1000100001060008030600080506000800000000AD
:10002000000000000000000000000000990100082E
:100030000906000800000000DD010008E979010858
:100040000F0600080F0600080F0600080F0600083C
:100050000F0600080F060008FD0900080F0600083B
:100060000F060008110A00080F0600080F06000816
:100070000F0600080F0600085D0501080F060008BE
:100080000F0600080F0600080F0600080F060008FC
:10009000531B0008891B00080F0600081B0B0008F3
:1000A0000F0600080F0600080F0600080F060008DC
:1000B0000F0600080F0600080F0600080F060008CC
:1000C0000F0600080F0600080F0600080F060008BC
:1000D0000F060008DDFD00080F060008DD0401081A
:1000E0000F0600080F0600080F0600080F0600089C
:1000F0000F0600080F0600080F0600080F0600088C
:100100000F0600080F0600080F0600080F0600087B
:100110000F0600080F0600080F0600080F0600086B
:100120000F0600080F0600080F0600080F0600085B
:100130000F0600080F0600080F0600080F0600084B
:100140005F1C0008951C00080F0600080F06000839
:100150000F060008D978010845FE00086D780108EF
:100160000F0600080F0600080F0600080F0600081B
:100170000F0600080F0600080F0600080F0600080B
:100180000F060008DFF80CD01BF050FF00480047B6
:10019000D9040008F8170120224B19680868B0E854
:1001A000F00F80F30988BFF36F8F4FF0000080F3EA
:1001B00011884EF00D0E70470000000006480068E0
:1001C000006880F3088862B661B6BFF34F8FBFF353
:1001D0006F8F00DF00BF00BF08ED00E0EFF3098084
:1001E000BFF36F8F0F4B1A6820E9F00F106008B54E
:1001F0004FF0100080F31188BFF34F8FBFF36F8F64
:100200001AF063FB4FF0000080F31188BDE808404E
:1002100019680868B0E8F00F80F30988BFF36F8FA2
:10022000704700BF28240020EFF3058070470000CE
:100230000221304A5183082151832021118340211A
:1002400011838021118301212B4A11802B490968D8
:1002500001F0004149B12949096841F00041274AAC
:1002600011608169891C81617047244908390968D6
:10027000234A11622149091F097882F824101F4975
:10028000C91E097891621D490C310968D1621B4968
:10029000891E098811861949096851631749091D82
:1002A00009689163154910310968D1630021154A25
:1002B000116000BF134909680029FBD0104A01688A
:1002C00011604168516081689160C168D1600169C5
:1002D00011614169516181699161C169D1610021F7
:1002E000084A116000BF074909680029FBD000BF18
:1002F000BAE7000000000240180402402CED00E0C4
:100300007824002000180020322017F0B9FF0FF0E9
:100310007CFF14F0FAFB1BF05EFF0BF05DF902F0BE
:10032000C0F913F01EFC11F0A8F801F040F913F029
:1003300053FB17F058F90FF06EFF13F026FC01F095
:100340004AF902F0C9F911F0A5F817F054F904E0E0
:100350000A2017F095FF13F006FBF9E710B545F2F8
:10036000555015F06DFF052015F06DFF40F271201E
:1003700015F06CFF15F06DFF15F070FF10BD1CB58A
:1003800001210F2016F06EF949F2F62000900120AD
:100390008DF804008DF8050000208DF8060001207E
:1003A0008DF8070069468D481BF01AFF02208B4923
:1003B0004883042048830820488310204883202055
:1003C000088340200883802008830002488346F683
:1003D000D570009001208DF804008DF805000020F4
:1003E0008DF8060001208DF8070069467C481BF057
:1003F000F7FE01207A491A31088000020880400087
:1004000008808000891E08804FF2587000900120FB
:100410008DF804008DF8050000208DF806000120FD
:100420008DF8070069466F481BF0DAFE10206D4911
:100430001A31088002200880C020009001208DF829
:10044000040000208DF8050001208DF806008DF8CD
:100450000700694662481BF0C3FE4020604918311E
:1004600008808020088040F60150009000208DF820
:10047000040001208DF80700694658481BF0B0FEC3
:1004800049F22A00009000208DF8040001208DF828
:100490000700694652481BF0A3FE40F6A7000090F3
:1004A00000208DF8040001208DF8070069464D48B2
:1004B0001BF096FE1CBD10B54FF4407016F064FCA6
:1004C0000121080716F001F9012015F0E4FEFFF7FD
:1004D00056FFFFF743FF10BD00F020F9FFF7EBFFD9
:1004E00017F08DFA404A0021AFF2E31017F0C9FB74
:1004F0003E49086017F0CCFA00BFFEE701460DE068
:10050000002001E000BF401C41F65E729042F9D32A
:1005100000BF4AF6AA22364B1A6000BF0A1EA1F19C
:100520000101EDD1704708B50021009100914AE02A
:1005300000BF00BF00BF00BF00BF00BF00BF00BFC3
:1005400000BF00BF00BF00BF00BF00BF00BF00BFB3
:1005500000BF00BF00BF00BF00BF00BF00BF00BFA3
:1005600000BF00BF00BF00BF00BF00BF00BF00BF93
:1005700000BF00BF00BF00BF00BF00BF00BF00BF83
:1005800000BF00BF00BF00BF00BF00BF00BF00BF73
:1005900000BF00BF00BF00BF00BF00BF00BF00BF63
:1005A00000BF00BF00BF00BF00BF00BF00BF00BF53
:1005B00000BF00BF00BF00BF00BF00BF00BF00BF43
:1005C0000099491C009100998142B1D300BF4AF6BD
:1005D000AA21074A116000BF08BD000000000240C8
:1005E000000402400008024064CB01080418002007
:1005F000003000400648804706480047FEE7FEE717
:10060000FEE7FEE7FEE7FEE7FEE7FEE7FEE7FEE7C2
:10061000D3060008850100080CB500200190009069
:100620006A48006840F480306849086000BF674845
:10063000006800F4003000900198401C0190009880
:100640000028F4D06148006800F4003010B10120A7
:10065000009001E0002000900098012838D15B480C
:10066000083000685949083108600846006840F4BD
:10067000004008600846006840F4A05008605448F4
:10068000091F0860081F006840F08070091F08609B
:1006900000BF4E48006800F000700028F9D040F21A
:1006A00003704C49086049480830006820F0030096
:1006B0004649083108600846006840F002000860BA
:1006C00000BF42480830006800F00C000828F8D14C
:1006D0000CBD10B53D48006840F001003B49086082
:1006E00000203A4908310860384800683A49084013
:1006F000364908603948091D0860081F006820F461
:100700008020091F0860002030490C310860FFF785
:1007100083FF4FF000603249086010BD70B50020C3
:100720000022022300240221284D08352D6805F0FF
:100730000C0020B1042806D0082834D107E0294D48
:10074000294E356033E0294D274E35602FE01F4D8F
:100750002D1D2D68C5F380541C4D2D1D2D6805F0F1
:100760003F0154B1214DB5FBF1F5184E361D3668E9
:10077000C6F3881605FB06F209E01A4DB5FBF1F544
:10078000124E361D3668C6F3881605FB06F20F4D6D
:100790002D1D2D68C5F301456D1C6B00B2FBF3F5F3
:1007A000114E356003E00F4D0F4E356000BF00BFA6
:1007B000064D08352D68C5F303150D4E705D0A4DC5
:1007C0002D68C540084E356070BD000000380240FD
:1007D000083C4005003C0240FFFFF6FE10300024BC
:1007E00008ED00E00024F4000818002000127A0050
:1007F0000C1800202020D54981F845002021D3483D
:1008000080F88B1080F8D11080F81711704700B570
:100810009BB00121CE4815F025FF0121080215F0FB
:1008200065FFCC4815F0AAFA00200290CA48039050
:10083000CA480490002005900420069000200790EC
:100840004FF4806008904000099080000A904011A9
:100850000B9040020C9000200D9001200E90002083
:100860000F90109002A9BB4815F02AFB0121B9484E
:1008700015F060FB032000908DF8040000208DF837
:1008800007006946B6481BF0ABFC002011904FF4FE
:100890008030129000201390149011A814F07EFB69
:1008A0000020159001208DF858008DF85900002087
:1008B00017901890199004208DF8680015A9A64883
:1008C0004C3814F03CFB012014F09DFB0523012261
:1008D0000A21A1484C3814F0B8FB052302220B2151
:1008E0009D484C3814F0B1FB0523032210219A488F
:1008F0004C3814F0AAFB05230422112196484C38E9
:1009000014F0A3FB012194484C3814F049FC012158
:1009100091484C3814F039FC01218F484C3814F0C0
:1009200054FB8D484C3814F0ECFBFFF763FF1BB011
:1009300000BD30B5002125E0C1EBC10202EB82020F
:10094000824C04EB4200854A32F8113090F8444062
:10095000641CE2B290F84540944200DC0022056835
:10096000041D04EB420424882C1B0460041D04EBCA
:100970004204238004681C44046080F8442000BFC3
:10098000481CC1B20429D7DB30BD00B585B00121B8
:10099000084615F067FE0121880315F0A7FE012027
:1009A000019000208DF8080001208DF80B0001A9AE
:1009B0006C481BF015FC0021084615F09FFF012034
:1009C000039000208DF810000C208DF811000120FC
:1009D0008DF8120003A815F0B3FB06208DF8000077
:1009E0000E208DF8010000208DF8020001208DF806
:1009F0000300684616F0CDF905B000BD10B5012022
:100A000015F004FC10B1012015F011FC10BD704769
:100A100010B5082015F0FAFB50B1082015F007FCBE
:100A200012F05FFC00BF4AF6AA204F49086000BFE1
:100A300010BD00B585B00121084615F013FE012157
:100A4000880315F053FE4FF48070019000208DF85C
:100A5000080001208DF80B0001A942481BF0C0FBE3
:100A60000821002015F04AFF4FF480700390002009
:100A70008DF810000C208DF8110001208DF8120067
:100A800003A815F05DFB28208DF800000E208DF8DE
:100A9000010000208DF8020001208DF80300684657
:100AA00016F077F905B000BD00B585B0012104202E
:100AB00015F0D8FD0121880315F018FE20200190C3
:100AC00000208DF8080001208DF80B0001A92448B2
:100AD0001BF086FB0521022015F010FF202003905B
:100AE00000208DF810000C208DF8110001208DF8E9
:100AF000120003A815F024FB17208DF800000E202B
:100B00008DF8010000208DF8020001208DF803000F
:100B1000684616F03EF905B000BD10B5202015F06E
:100B200075FB50B1202015F082FB12F0DAFB00BFFC
:100B30004AF6AA200C49086000BF10BD10B5FFF7A7
:100B400066FEFFF7B1FFFFF720FF10BDB8240020BD
:100B500004004000106402404C2001401E18002098
:100B6000000802400000024000300040FD490968D2
:100B7000FC4A92F84520B1FBF2F000EB4011C1F3C2
:100B8000CF11F94A91821146898AB1F5AF7F13DA04
:100B90000021F64A1170F6490978052906DDF24967
:100BA000C97E41F02001F04AD17618E0F049097879
:100BB000491CEF4A117012E00021ED4A1170EB4917
:100BC0000978052906DDE849C97E21F02001E64AB9
:100BD000D17604E0E5490978491CE44A1170704770
:100BE000E049D1F8462091F88B10B2FBF1F0C0EB50
:100BF000C001C1EBC0117D22B1FBF2F11B31DA4A19
:100C0000D1821146C98AB1F5FA7F01DA0021D18279
:100C1000D549C98A40F69802914219DAD249C98A5F
:100C200040F2A462914213DD0021D24A1170D249F0
:100C300009780A2906DDCC49C97E41F00201CA4A79
:100C4000D17618E0CC490978491CCB4A117012E0E2
:100C50000021C94A1170C7490978052906DDC24932
:100C6000C97E21F00201C04AD17604E0C149097869
:100C7000491CC04A1170BC49C98AB1F52F7F13DDE8
:100C80000021BE4A1170BE490978052906DDB64922
:100C9000C97E21F00101B44AD17618E0B84909783B
:100CA000491CB74A117012E00021B54A1170B349CE
:100CB0000978052906DDAC49C97E41F00101AA4A3F
:100CC000D17604E0AD490978491CAC4A11707047EF
:100CD000AC480078012843D1A348C07E00F0010051
:100CE00018BB0020A84908809F48808AB0F5D07FB3
:100CF0000ADB4FF40060A54908809B48C07E20F0C5
:100D000004009949C87635E09748808AB0F5C87FD5
:100D100030DA4FF400609D49891C08809248C07EFB
:100D200040F004009049C87624E097480188008884
:100D3000401C954A10803C2907DD8B48808AB0F51D
:100D4000AA7F02DA0020114608804FF400608F4924
:100D500008808548C07E20F004008349C87609E0F9
:100D60004FF40060894908807F48C07E20F004006D
:100D70007D49C87670477C48407EC0F3400070478C
:100D800010B5FFF7F8FF012803D100208049087053
:100D900002E001207E4908707D4800787D4909788D
:100DA00088420BD04FF496607B49088078480078E1
:100DB0007849087000206C49087018E0764800886F
:100DC00028B175480088401E734908800FE07048BC
:100DD000007840B17148007828B901206249087054
:100DE0006FA00FF0FFF86A4800786C49087010BDDA
:100DF0006E48006800F0200098B100206C4908702F
:100E00006C480078142806DD5748407E20F0020028
:100E10005549487618E067480078401C65490870D5
:100E200012E000206349087061480078052806DD5B
:100E30004D48407E40F002004B49487604E05C4853
:100E40000078401C5A49087070474648D0F88C20FA
:100E500090F8D100B2FBF0F081B2C1EB411202EB8D
:100E60008200C21700EBD2525212A2F2171252B2F3
:100E70003D4B1A7670473C4890F8200070473A483E
:100E800090F825007047384890F82100704710B559
:100E90003C48007848B9052047490870002088710F
:100EA000087388740876887741E03648007801280E
:100EB00030D1052040490870FFF7E5FF012803D035
:100EC000FFF7DDFF012803D103203B4988740AE0C6
:100ED000FFF7D1FF012803D105203749887402E0CC
:100EE00000203549887401F037FC012803D1032024
:100EF0003149887102E005202F49887101F02FFCEB
:100F0000012803D103202C49087310E005202A4949
:100F100008730CE01B480078022808D105202649F8
:100F2000087000208871087388740876887710BD6F
:100F300010B516480838006800F0200088B100207D
:100F40001E4908701E480078052842DD0648007FCB
:100F500040F02000044908770846807F012834D1FA
:100F600030E03CE0B8240020E025002033180020C9
:100F700032180020351800203418002037180020BF
:100F8000361800207E230020381800201804024064
:100F90003A1800203B1800203E1800203C18002082
:100FA0004143433A4F6666210A00000010080240A0
:100FB0004018002041180020687C002042180020C2
:100FC00043180020FBA00FF00DF80020FE498877A1
:100FD00021E0FE480078401CFC4908701BE000201E
:100FE000FA490870FA48007814280FDDF648007FA7
:100FF00020F02000F44908770846807F10B9F5A05A
:101000000EF0F0FF0120F049887704E0F048007806
:10101000401CEF490870F348006800F00800E8B988
:101020000020F1490870F1480078052810DDE648F5
:10103000007F40F04000E44908770846C07F01285F
:1010400002D1EBA00EF0CEFF0020DF49C87721E0EF
:10105000E6480078401CE54908701BE00020E349A1
:101060000870E148007814280FDDD748007F20F091
:101070004000D54908770846C07F10B9E0A00EF0BF
:10108000B1FF0120D049C87704E0D7480078401C60
:10109000D5490870CC48C07F38B9CB48807F20B98B
:1010A0000020C94981F8200003E00120C64981F8E9
:1010B000200010BD10B5C44890F8240078B1C24893
:1010C0000069B0F5616F04D90020BF4908610AF0DA
:1010D0000CFD0020CE490880BB49086116E0CC48D1
:1010E0000088401CCA490880B7480069401CB649BE
:1010F0000861C7480088B0F5616F07DDC448008803
:10110000A0F56160C24908800AF0EFFC10BDC1493A
:10111000B1F80F12C1EB01118800AB490969014414
:10112000A94A11617047A848407F7047A648C08A05
:101130007047A548808A7047A348C07EC0F340101E
:101140007047A148C07EC0F3800070479E48C07EB3
:1011500000F0010070479C48C07EC0F3400070471B
:101160009948C08A822803DD9748C08A972804DB03
:101170009548C08AB0F5857F01DB012070470020CB
:10118000FCE79148807F70478F48C07F70478E484A
:1011900090F8230070478C48407E70478A48807ED4
:1011A00070478948C07E70470020704710B51BF01B
:1011B0001CF8044604F0010040B18348007F40F071
:1011C0000100814908770020887107E07E48007F90
:1011D00020F001007C490877AA20887110BD7A4868
:1011E00080687047784988607047704770477649D3
:1011F0004871704774490871704710B5724840795A
:1012000068B371484079401E6F494871084640797B
:1012100028BB81A00EF0E6FE00BF0A2017F030F8D0
:1012200000BF00BF00BF00BF00BF00BFBFF34F8FB4
:1012300000BF00BF00BF7B48006800F4E0607A494F
:101240000843001D7749086000BF00BF00BFBFF31F
:101250004F8F00BF00BF00BF00BF00BFFDE75A486F
:101260000079B8B158480079401E574908710846BE
:10127000007978B96DA00EF0B5FE00BF642016F0BD
:10128000FFFF00BF4FF480705649083108800120ED
:1012900012F04AFFFFF70EFF10BD4B4890F82200F6
:1012A0007047494981F82200704710B5FFF7F5FFF4
:1012B00058B9FFF7E4FD012807D1FFF7F2FF5F48B7
:1012C00013F0D0FA5EA00EF08DFE10BD10B5FFF742
:1012D00030FBFFF78DFDFFF753FD10BD10B5FFF795
:1012E000D6FDFFF743FCFFF77BFCFFF7F1FCFFF7B0
:1012F000DCFFFFF71DFE10BD092057490870574954
:1013000008700420564908703B2056490870564919
:10131000087000205549087070475448007820F044
:101320000100401C514908704B48007800283ED10C
:101330000846007820F00400001D08700920464986
:10134000087046480078002832D14848007820F0DC
:101350000800083045490870092040490870404895
:10136000007850B94148007820F0100010303F4913
:10137000087004203A49087004E039480078401E9B
:10138000374908703748007878B93848007820F035
:1013900020002030354908703B203249087032481F
:1013A000007818B93148007862E070E069E07AE0CE
:1013B00073E00000477073416E743A4E6F53686F6C
:1013C0007274210A00000000E0250020431800206C
:1013D00042180020477073416E743A53686F7274FC
:1013E000210A000010040240441800204518002083
:1013F000477073416E743A4E6F4F70656E210A00EC
:10140000477073416E743A4F70656E210A00000098
:1014100046180020301E002043544C3A5265736534
:1014200074210A000CED00E00000FA0543544C3A28
:10143000506F7765724F6666210A0000D82300203E
:10144000436F72726563745274634279496E744774
:101450007073210A000000002C1800202E180020B4
:101460002D1800202F1800203018002031180020DF
:1014700020F0400040305D4908703B205C49087016
:1014800016E05B480078401E5949087010E0594842
:101490000078401E574908700AE057480078401EFF
:1014A0005549087004E055480078401E53490870BB
:1014B000704700B50020FFF7F4FE00BD704770478D
:1014C00010B5FFF70BFFFFF798FE01F023F913F0BB
:1014D000BDFA10BD10B500BF4AF6AA204849086001
:1014E00000BFFFF7F3FE01F00FF910BD10B513F0C8
:1014F00066FB13F0A5FA01F001F910BD10B53B48E9
:10150000007800F0010038B13848007820F0010080
:1015100036490870FFF7EAFF34480078C0F38000CE
:1015200038B13248007820F0040030490870FFF7E5
:10153000D1FF2E480078C0F3C00038B12B480078A6
:1015400020F0080029490870FFF7BAFF2748007803
:10155000C0F3001038B12548007820F0100023496E
:101560000870FFF7ACFF21480078C0F3401038B195
:101570001E48007820F020001C490870FFF79EFFED
:101580001A480078C0F3801038B11848007820F06D
:10159000400016490870FFF78CFF10BD06E00A20D6
:1015A00016F06EFEFFF7B9FEFFF7A8FFF7E710B5DC
:1015B000FFF7C4FAFFF7A0FE0020FFF772FE00203D
:1015C0001049087048708870C87048768876C87668
:1015D0000AF0F0FA10BD10B50B4A0021AFF243003B
:1015E00016F04FFB0949086010BD000031180020BB
:1015F000301800202F1800202E1800202C18002052
:1016000000300040E025002088CB01082818002089
:1016100010B50246002024E000EB4003FB4C54F8D8
:101620002330934208D100EB400304EB83030C68A2
:101630005C604C689C6010BD00EB4003F34C54F8B8
:10164000233063B900EB400344F8232000EB400350
:1016500004EB83030C685C604C689C60EBE7431C04
:10166000D8B25A28D8DB00BFE5E71CB501210846EF
:1016700014F0F8FFC420009001208DF80400002031
:101680008DF8060001208DF807008DF805006946E9
:10169000DF481AF0A5FD0420DD4948831CBD00B5D4
:1016A0008BB00420DA494883DA4800F0CBFDDA48F1
:1016B00000F0C8FDD948006830B900221146012069
:1016C00017F05CF9D5490860D548006830B90022A8
:1016D0001146012017F052F9D1490860012108464E
:1016E00014F0C0FF0121480614F0EFFF09220C217D
:1016F000C7481AF07FFD09220B21C5481AF07AFD70
:101700004FF4C050099002208DF828008DF8290070
:1017100000208DF82A0001208DF82B0009A9BC4873
:101720001AF05EFDBF4813F031FE06A813F052FF19
:1017300000208DF81E0001208DF81F0000208DF87C
:1017400020008DF821008DF822008DF823008DF8FF
:101750001A008DF81B0005208DF81C0000208DF864
:101760001D000F20ADF8180006A9AE4813F027FEA3
:1017700014208DF8040001208DF8050000208DF85C
:10178000060001208DF8070001A815F002FB1520C6
:101790008DF8040001208DF8050000208DF806006A
:1017A00001208DF8070001A815F0F3FA01220221AB
:1017B0009C4814F08DF9012210219A4814F088F900
:1017C0000121022014F04EFF0121880614F07DFF54
:1017D00009220D2194481AF00DFD09220C2192488E
:1017E0001AF008FD4FF44050099002208DF82800AF
:1017F0008DF8290000208DF82A0001208DF82B009B
:1018000009A989481AF0ECFC884813F0BFFD06A826
:1018100013F0E0FE00208DF81E0001208DF81F005F
:1018200000208DF820008DF821008DF822008DF821
:1018300023008DF81A008DF81B0005208DF81C0080
:1018400000208DF81D000F20ADF8180006A977487C
:1018500013F0B5FD40208DF8040001208DF805003F
:101860008DF806008DF8070001A815F092FA4120C6
:101870008DF8040001208DF805008DF806008DF824
:10188000070001A815F085FA01220221674814F02B
:101890001FF901221021654814F01AF900208DF873
:1018A00012008DF8130001208DF814000020ADF80F
:1018B0000800ADF80A00ADF80C00ADF80E00ADF868
:1018C000100001208DF8150002A813F002FE0E2072
:1018D0008DF8120000208DF8130001208DF81400FF
:1018E0000020ADF80800ADF80A00ADF80C00ADF826
:1018F0000E00ADF8100001208DF8150002A813F0BD
:10190000E8FD0420424908830BB000BDF0B585B066
:1019100006460D4617461C46012E04D101950420AB
:101920008DF8080003E0009500208DF808000020E5
:101930008DF809008DF80A7020788DF80B00617819
:101940008DF80C10A1788DF80D10E1788DF80E103F
:1019500021798DF80F1061798DF81010A1798DF82B
:101960001110E1798DF8121069462E4813F0A0FE8F
:1019700005B0F0BD70B5044621462848006817F050
:1019800060F805460DB9012070BD0020FCE7F0B5F8
:1019900085B006460D4617461C46012E04D101951A
:1019A00004208DF8080003E0009500208DF8080061
:1019B00000208DF809008DF80A7020788DF80B0052
:1019C00061788DF80C10A1788DF80D10E1788DF804
:1019D0000E1021798DF80F1061798DF81010A17912
:1019E0008DF81110E1798DF8121069460F4813F047
:1019F0005FFE05B0F0BD70B504462146084800689A
:101A000017F01FF805469DB9012070BD84270020FE
:101A100000000240BC2B0020002D002048180020B0
:101A20004C180020006400400004024000680040A0
:101A30000020EAE770B50646307A042801D17568BF
:101A400000E03568002415E0A04850F82400A842C2
:101A50000ED106F10B012846FFF7DAFD31469C480E
:101A600000F0F4FB9B48006817F02EF8012070BDD1
:101A7000601CC4B2032CE7DB00240EE0964800EBA8
:101A800084000068A84206D106F10B012846FFF742
:101A9000BFFD0320EBE7601CC4B28F48A43890F868
:101AA0000C02A042EADC002410E08C4850F824002C
:101AB000A84209D13146864800F0C8FB8548006835
:101AC00017F002F80220D2E7601CC4B2112CECD34C
:101AD000002410E0824850F82400A84209D1314681
:101AE0007B4800F0B3FB7B48006816F0EDFF022056
:101AF000BDE7601CC4B2232CECD3002410E079486D
:101B000050F82400A84209D13146714800F09EFBEC
:101B10007048006816F0D8FF0220A8E7601CC4B225
:101B2000232CECD3002410E06F4850F82400A84286
:101B300009D13146664800F089FB6648006816F016
:101B4000C3FF022093E7601CC4B2172CECD3002023
:101B50008DE700B585B00221644814F021F888B102
:101B60006A460021614813F098FE02215F4814F094
:101B7000B2F86846FFF75EFF01205D4908724872BF
:101B80000A20488105B000BD00B585B01021574836
:101B900014F006F888B16A460121544813F07DFE1E
:101BA0001021524814F097F86846FFF743FF0120D0
:101BB0004F49087248720A20488105B000BD70B5CF
:101BC0000546287A042801D16E6800E02E680024BA
:101BD00015E0484850F82400B0420ED105F10B0141
:101BE0003046FFF715FD2946434800F02FFB4348D8
:101BF000006816F069FF012070BD601CC4B2022CA1
:101C0000E7DB00240EE0344800EB84000068B042BB
:101C100006D105F10B013046FFF7FAFC0320EBE794
:101C2000601CC4B22C48A43890F80C02A042EADC34
:101C3000002410E0324850F82400B04209D129466F
:101C40002D4800F003FB2D48006816F03DFF0220F0
:101C5000D2E7601CC4B25A2CECD30020CCE700B50C
:101C600085B00221274813F09BFF88B16A46002106
:101C7000244813F012FE0221224814F02CF8684682
:101C8000FFF79DFF01201A49087348730A20C88195
:101C900005B000BD00B585B010211A4813F080FFD3
:101CA00088B16A460121174813F0F7FD1021154845
:101CB00014F011F86846FFF782FF01200C49087301
:101CC00048730A20C88105B000BD000050180020EC
:101CD000BC2B002048180020D41E00205C180020D7
:101CE000A01800202C190020B81900200064004022
:101CF0008C1B0020141A0020002D00204C180020FE
:101D00001C1A00200068004010B5FFF734F8FE49A7
:101D1000087008460078FD49097888420CD0FA48D6
:101D20000078FA490870F848007828B91E20F84968
:101D300008800020F7490870F348007801286BD12B
:101D4000F348008820B1F2480088401EF04908801E
:101D5000EF480088A0B9F048407A88B9EE48407B47
:101D600070B9EC48007858B90120EA49087005209C
:101D7000EA4908700420EA494883EAA00EF032F9E3
:101D8000E548407AA0B9EA48007805280ADDE2482B
:101D9000007A012802D1E7A00EF024F90020DE49E4
:101DA00008720BE0E2480078401CE149087005E049
:101DB0000020DF4908700120D7490872D648407BCF
:101DC000A0B9E048007805280ADDD348007B012847
:101DD00002D1DDA00EF006F90020CF4908730BE018
:101DE000D8480078401CD749087005E00020D54944
:101DF00008700120C8490873C848007860B1C74816
:101E00000078401EC54908700846007820B9FFF7E1
:101E100046FCD1A00EF0E6F8BF48407A012803D076
:101E2000BD48407B012805D11E20B949088000200B
:101E3000B849087010BDB848408928B1B6484089F3
:101E4000401EB549488102E00020B3494872B248BB
:101E5000C08928B1B048C089401EAF49C88102E09E
:101E60000020AD494873704701460878704700214B
:101E70000170704710B502460B460BB9002010BD2B
:101E800023F07F4300210DE002F12C0050F82100E7
:101E9000984205D11E2402F1540044540020EEE77C
:101EA000481CC1B20A29EFDB002112E002F12C002C
:101EB00050F8210058B902F12C0040F821301E24BE
:101EC000283044545078401C50700120D7E7481CFB
:101ED000C1B20A29EADB0020D1E700211BE000F1B2
:101EE0002C0252F82120A2B100F15402525C42B1FE
:101EF00000F15402525C521ED3B200F1540253540A
:101F000007E0002300F12C0242F821304278521EF3
:101F100042704A1CD1B20A29E1DB704710B5024673
:101F20000020002323E002F12C0454F82340E4B104
:101F300002F12C0414F8234001F8014B02F12C04A7
:101F400034F82340240A01F8014B02F12C0454F820
:101F50002340240C01F8014B02F12C0454F82340D7
:101F6000240E01F8014B441CE0B25C1CE3B20A2BC6
:101F7000D9DB08B90024547010BD01464878704779
:101F80002DE9F05F80460C4692460026B146754822
:101F90004044002842D0B0F5803F17D07249084431
:101FA00000287DD1A078E17800EB0120217900EBB9
:101FB0000140617900EB0165681C20B11DB1294623
:101FC0006A48FFF757FF4FF00109ECE06079CA2833
:101FD00016D1A079FE2813D1E07988B96178881EDE
:101FE000C11700EB9171C1F38701614A1170E0786C
:101FF00060490870012060490870604908700AE073
:102000006079E32807D1A079FE2804D1E07910B9DE
:1020100001205B4908704FF00109C4E0584800787E
:10202000012805D12078032802D1002054490870E6
:102030005248007800B9B6E020784F4909788842C4
:1020400060D14E48007801285CD12078012810D159
:10205000FF2228214548C01C19F09AFD4348D4F8B6
:102060000310C0F80310E179C17105203F49887061
:1020700014E03E488078212810DA3C488178C01C62
:102080000844D4F801100160B4F805108180E179AA
:10209000817136488078C01D34498870364800E028
:1020A00080E00078401C34490870084600783149C7
:1020B0000978884273DD002766E02C48C01C825DE9
:1020C000711C405C02EB00222848C01CB11C405C23
:1020D00002EB00422548C01CF11C405C02EB00658D
:1020E000301DC6B2681C60B15DB129461F48FFF7BC
:1020F000C1FE8346BBF1010F02D101201B490870CC
:1021000000BF3FE04BE00000A41C0020A51C002005
:10211000A61C0020A91C00208C1B0020A81C00204D
:102120000000024043616E204F6666210A000000F5
:10213000AA1C002043616E31436F6D6D45727221A0
:102140000A000000AB1C002043616E32436F6D6DCE
:10215000457272210A00000043616E20526573745B
:10216000210A0000000114E70035EDFFC42600201D
:10217000AC1C0020AD1C0020AE1C0020B01C0020B8
:10218000AF1C0020781CC7B2F9480078874294DB66
:102190000020F8490870F8490870F84908704FF0B5
:1021A000010900E000BF00BF4846BDE8F09F10B540
:1021B000FE20F3494870002088708880888008726B
:1021C0001121EF48093019F0EAFC0020EC4988762B
:1021D000FF221221EA481B3019F0DAFC0020E849FE
:1021E00081F82D00FF221221E5482E3019F0D0FC95
:1021F0000020E34981F84000FF222421E0484130DB
:1022000019F0C6FC0020DE4981F865005021DC4849
:10221000683019F0C4FC10BD00200FE0002100EB75
:102220004002D84B43F8221000EB40011A4602EB63
:10223000810100224A608A60411CC8B25A28EDDB45
:1022400070477047002101704170704730B50478C5
:10225000621CD41702EB14742411A2EB0414E3B231
:1022600042789A426FD0027802EB8205021D0C6818
:1022700042F82540027802EB8205021D02EB85023E
:102280004C6854600C7A027802EB8205021D02EB66
:10229000850214724C7A027802EB8205021D02EB71
:1022A000850254728C7A027802EB8205021D02EBE1
:1022B00085029472CC7C027802EB8205021D02EB4F
:1022C0008502D474CC7A027802EB8205021D02EBFF
:1022D0008502D4720C7B027802EB8205021D02EBB0
:1022E000850214734C7B027802EB8205021D02EB1F
:1022F000850254738C7B027802EB8205021D02EB8F
:1023000085029473CC7B027802EB8205021D02EBFE
:102310008502D4730C7C027802EB8205021D02EB6D
:10232000850214744C7C027802EB8205021D02EBDC
:10233000850254748C7C027802EB8205021D02EB4C
:1023400085029474037030BD427803789A426DD050
:10235000427802EB8203021D02EB8302127A042A06
:102360000AD1427802EB8203021D02EB830252681B
:102370000A6001224A7108E0427802EB8203021DE2
:1023800052F823200A6000224A71427802EB82034D
:10239000021D02EB8302927A0A71427802EB8203F9
:1023A000021D02EB8302D27A8A71427802EB820329
:1023B000021D02EB8302137BCB71427802EB820396
:1023C000021D02EB8302537B0B72427802EB820305
:1023D000021D02EB8302937B4B72427802EB820375
:1023E000021D02EB8302D37B8B72427802EB8203E5
:1023F000021D02EB8302137CCB72427802EB820354
:10240000021D02EB8302537C0B73427802EB8203C2
:10241000021D02EB8302937C4B7343785A1CD31743
:1024200002EB13731B11A2EB0313437070470146B9
:10243000087810304B78C21AD01702EB10700011D8
:10244000A2EB0010C0B270477CB50446002522798B
:10245000A11D206803F089F80546012D00D17CBD3F
:102460002279A11D206804F0D9FD0546012D00D177
:10247000F5E72279A11D206803F0DEFC0546012D59
:1024800000D1ECE72279A11D206805F072FE054617
:10249000012D00D1E3E76FF060412068401A35D18B
:1024A000A079312831D1E07961282ED1207A3228E3
:1024B0002BD1607A622828D1A07A332825D1E07AFE
:1024C000632822D1207B34281FD1607B64281CD153
:1024D00065208DF8000035208DF8010066208DF80C
:1024E000020036208DF8030067208DF804003720A5
:1024F0008DF8050068208DF8060038208DF807005B
:102500006B4608220120FFF701FA00E000BF00BF80
:1025100000BFA4E71FB52AE04FF4FA60FFF72AFADC
:10252000012824D11EE000BF00220221164813F02A
:10253000CFFA00221021144813F0CAFA00BF6946EE
:102540001248FFF701FF00BF012202210E4813F0DD
:10255000BFFA012210210C4813F0BAFA00BF6846F6
:10256000FFF772FF0948FFF762FF0028DBDCD3E7C3
:10257000AC1C0020AE1C0020AD1C0020B01C0020B4
:102580000C2600208427002000640040BC2B002083
:102590007CB5044600252279A11D206800F094FA3C
:1025A0000546012D00D17CBD9248007801280AD152
:1025B0002379A21D8F48904E21683668B0470546A2
:1025C000012D00D1EFE78D4920680844B0BBA07908
:1025D000312832D1E07961282FD1207A32282CD1CC
:1025E000607A622829D1A07A332826D1E07A63283C
:1025F00023D1207B342820D1607B64281DD1652025
:102600008DF8000035208DF8010066208DF802005D
:1026100036208DF8030067208DF8040037208DF8F0
:10262000050068208DF8060038208DF807006B46FD
:10263000082249420120FFF7AAF901E0FFE700BFA5
:1026400000BF00BFAFE71FB52AE04FF4FA60FFF705
:10265000D2F9012824D11EE000BF002202216848DF
:1026600013F036FA00221021654813F031FA00BF4A
:1026700069466448FFF768FE00BF012202216048F6
:1026800013F026FA012210215D4813F021FA00BF51
:102690006846FFF77DFF5B48FFF7C9FE0028DBDCDB
:1026A000D3E710B5FEF7E1FF5748FFF7CBFD5648DB
:1026B000FFF7C8FD07F06FFF544808F034FB54489B
:1026C00008F0CAFB09F0F9F809F0AEFBFEF7E7FFE6
:1026D000484808F0F8FE10BD10B54E4A0021AFF290
:1026E000CB1015F0CEFA4C4908604C4A0021AFF2ED
:1026F000A90015F0C6FA4A49086010BD10B53D485A
:1027000048490968884710BD10B5FFF794FB06F0EB
:1027100030FD10BD10B5FFF7F7FA4348FFF7DDFBBA
:102720004248FFF7DAFB424890F89900401C4049C4
:1027300081F89900084690F899001E2802DD0020D3
:1027400081F89800314807F069FF10BD3848007AD9
:1027500070473748007B70473548407A70473448A7
:10276000407B7047324890F81401012803D031486B
:10277000007A012801D1012070470020FCE72D4894
:10278000007A012800D170470020FCE7284890F823
:102790001401012800D170470020FCE7244880780C
:1027A000012800D170470020FCE7214890F8010182
:1027B00070471F48C08870471D48C088B0F5967F95
:1027C00001DD012070470020FCE719488088B0F542
:1027D000967F01DD012070470020FCE71448406926
:1027E00070471348806970471148C06970471048A6
:1027F000006A704794340020F81C0020020000E0BA
:1028000000680040002D0020BC2B00204434002034
:10281000E01C0020ACCB0108841B0020D0CB0108B9
:10282000881B0020FC1C0020C42600202427002038
:102830008C1B00200C260020002004E00021FE4A12
:102840001154411C88B22028F8DB4FF6FF71FB4A77
:102850001180002004E00021F94A1154411C88B283
:10286000B0F5CC7FF7DD4FF6FF71F64A1180F64ADE
:102870001180F64A1180002004E00021F44A11542E
:10288000411C88B2C728F8DB4FF6FF71F14A11806E
:10289000F14A1180002004E00021F04A1154411C4B
:1028A00088B25D28F8DB4FF6FF71ED4A11800922EE
:1028B000EA4981F82620002004E00021E94A115469
:1028C000411C88B2C828F8DB4FF6FF71E64A118038
:1028D000002004E00021E54A1154411C88B2702810
:1028E000F8DB4FF6FF71E24A1180704738B50020DF
:1028F0000090FFF72EFF012805D19DF8000020F081
:102900000100401C0090FFF721FF012805D19DF830
:10291000000020F00200801C0090FFF756FF012805
:1029200005D19DF8000020F00400001D0090FFF785
:1029300043FF012805D19DF8000020F00800083071
:1029400000909DF80000BC4908700020009008F03D
:10295000CEFD012805D19DF8000020F00100401CAB
:10296000009008F0D4FD0446012C0BD19DF8000026
:1029700020F00400001D00909DF8000020F00800E9
:10298000009017E054B99DF8000020F0040000907A
:102990009DF8000020F0080000900BE09DF800007A
:1029A00020F00400001D00909DF8000020F00800B9
:1029B0000830009008F0A3FD012805D19DF8000023
:1029C00020F010001030009008F0AFFD0446012CFC
:1029D0000BD19DF8000020F04000403000909DF8A1
:1029E000000020F08000009017E054B99DF800002E
:1029F00020F0400000909DF8000020F08000009042
:102A00000BE09DF8000020F04000403000909DF861
:102A1000000020F08000803000909DF80000864982
:102A200088700020009008F0A6FD012805D19DF8CF
:102A3000000020F00100401C009008F084FD0128F7
:102A400005D19DF8000020F00200801C009008F0E5
:102A500082FD012805D19DF8000020F00400001D32
:102A6000009008F080FD012805D19DF8000020F0BD
:102A7000080008300090FFF791FE012805D19DF86D
:102A8000000020F0200020300090FFF778FE0128A1
:102A900005D19DF8000020F04000403000909DF8E6
:102AA00000006549C87038BD0221634801720121E8
:102AB0004172704890F801115F4881720021C17223
:102AC00070471E2181737047F8B504460B461646C1
:102AD0000025B4F55B7F73D073DC40F28321A4EB57
:102AE00001008C426ED053DC40F2C311A4EB010014
:102AF0008C4201F03F862FDC40F29311A4EB0100E1
:102B00008C4201F09C8716DC40F28511A4EB010099
:102B10008C4269D008DCA4F28110002801F04482C4
:102B2000022842F01E85C0E1032801F035840C28FC
:102B3000F7D101F074BA1E2801F0FA8305DC0228EF
:102B400053D01028EDD101F03DBD1F2801F00284C3
:102B50002028E6D101F00FBC302868D00DDC122807
:102B600066D004DC022864D00E28DAD1ACE120283B
:102B700060D02628D5D102F07EB940285BD0A028AD
:102B80007AD0A12801F0F386B028CAD102F079BA30
:102B9000C02801F0418422DC202801F0668512DC87
:102BA0000E2801F0B78205DC022866D00528B8D1CE
:102BB00001F002BC102802F03E811228B1D1AAE136
:102BC000FCE327E09BE1302802F0A281402802F0DC
:102BD000E780602874D07028A3D102F07BB9D73881
:102BE000122882F0BE8401E0C7E146E1DFE810F080
:102BF0003D06AF06BC06CC06E8062207B914B91498
:102C0000B9149509E811B914B914B914B914B9145F
:102C10003807450740F27341601A8C4202F038844D
:102C200079DC40F2B331A4EB01008C4226E0F6E3FC
:102C300094E118E27DE36FE3442E0020B41C0020F1
:102C4000642E0020B81C0020BC1C0020C01C0020EA
:102C5000FD2F0020C41C0020C81C0020C430002010
:102C6000CC1C002021310020D41C0020E9310020A0
:102C7000D01C00208C1B00202CE3E2E002F06681D7
:102C80002BDC40F29131A4EB01008C4201F0068371
:102C900017DC40F28231A4EB01008C4201F01C836E
:102CA00008DCA4F27330002802F05C820E2885D183
:102CB00001F04EBA032876D006288DD101F08CBBE6
:102CC0005AE3022801F02B85032802F0C48004286F
:102CD0006AD01028EBD101F080B940287ED00FDCFB
:102CE00030287CD006DC102802F0E3802028DED1DA
:102CF00001F056BD312802F074813228D7D1A5E108
:102D000042286DD0902801F06185B02869D0B128A3
:102D1000CDD1EEE3FFE7802801F0148420DC4E28BB
:102D200001F0F58211DC202801F0868306DC0F28F3
:102D300001F0D2811528BAD101F05EBB302801F034
:102D4000D5834028B3D101F0B3BB502801F0928362
:102D5000602801F0E983702872D07128A7D1F3E3CD
:102D6000FE2802F0C48310DCEF2802F0AD8306DCFD
:102D7000912802F07183EE2899D101F0F0B8F12882
:102D800001F0F783F22892D154E0FF2802F0BD83CE
:102D9000B0F5807F02F0C883A0F2011028B10128AD
:102DA00085D102F0D0BB26E134E1F94890F8280043
:102DB0001978884206D00120F54981F8300018784A
:102DC00081F82800F24890F82900597888420BD001
:102DD0000120EF4981F83000587803E0DFE311E388
:102DE00027E150E181F82900E94890F82A00997814
:102DF000884206D00120E64981F83000987881F8B1
:102E00002A00E34890F82B00D978884206D00120A8
:102E1000DF4981F83000D87881F82B001878DD4937
:102E200008715978DB48417199788171D978C171FD
:102E300002F098BB1878D849087058784870F7E7BE
:102E4000BDE25878D4498870D878C87098780871ED
:102E500000204871187888711879C87258790873F9
:102E60009879C875D8790876CC48006820F00100B8
:102E7000401CCA4908600125DAE71879C649C871BB
:102E80005879087298784872D8788872987981F859
:102E90002700D87981F82800C048006820F0010098
:102EA000401CBE4908600125C2E7BB480E301968C6
:102EB000016059684160B948006820F00100401C79
:102EC000B64908600125B3E7187800909DF8000026
:102ED00000F0010040B1B248006820F4806000F5C5
:102EE0008060AF49086005E0AD48006820F480606C
:102EF000AB490860AB48FFF7E4FD012598E7187877
:102F0000A5498875A548006820F00100401CA34928
:102F1000086001258CE718789F49487658788876AC
:102F20009878C876D8780877187948775879887764
:102F3000987981F86B00D979974880F86C10974898
:102F4000006820F00100401C9449086008460068B1
:102F500020F00400001D0860012569E78E481F303D
:102F600019680160596841608C48006820F00100D0
:102F7000401C8A49086001255AE71879597900EB05
:102F800001200A2190FBF1F082B2642A07DD844817
:102F9000006820F00100401C8149086005E080487D
:102FA000006820F001007E4908607E48A038FFF7E5
:102FB00088FD1878784981F82900587881F82A0026
:102FC000987881F82B00D87881F82C00187981F84E
:102FD0002D00587981F82E00987981F82F00D87942
:102FE00081F830006D48006820F00100401C6B49FA
:102FF000086001251CE7684831301968016059688C
:1030000041606648006820F00100401C6349086088
:1030100001250DE760483930196801605968416041
:103020005E48006820F00100401C5C4908600125F2
:10303000FEE659481968C0F841105848006820F069
:103040000100401C554908600125F1E65248196805
:10305000C0F845105148006820F00100401C4F495D
:1030600008600125E4E619784B4880F86D1059781E
:1030700080F86E104948006820F00400001D4749A0
:1030800008600125D4E6987800909DF8000000F0D3
:10309000010038B14248006820F04000403040490B
:1030A000086005E03E48006820F040003C490860A8
:1030B0003C484038FFF705FD9DF80000C0F3400094
:1030C00040B13748006820F4807000F580703449C2
:1030D000086005E03248006820F4807030490860DC
:1030E00030482038FFF7EDFC9DF80000C0F3800069
:1030F00038B12B48006820F08000803028490860F3
:1031000005E02748006820F0800025490860254830
:103110003038FFF7D6FC9DF80000C0F3C00040B186
:103120001F48006820F4007000F500701C4908601A
:1031300005E01B48006820F4007019490860194830
:103140001038FFF7BEFC9DF80000C0F3001038B146
:103150001348006820F0200020301149086005E085
:103160000F48006820F020000D4908600D485038D5
:10317000FFF7A7FC987800F01000A8B1064890F877
:10318000490040F00200044981F8490014E00000C1
:103190008C1B0020442E0020642E0020B81C002030
:1031A000DC1C0020FC330020FD4890F8490020F092
:1031B0000200FB4981F84900987800F0010040B115
:1031C000F74890F8490040F00400F54981F84900BB
:1031D00007E0F34890F8490020F00400F04981F836
:1031E0004900987800F0040040B1ED4890F849009B
:1031F00040F00800EA4981F8490007E0E84890F803
:10320000490020F00800E64981F84900987800F06C
:10321000080040B1E24890F8490040F01000E04951
:1032200081F8490007E0DE4890F8490020F01000DE
:10323000DB4981F84900987800F0020040B1D84895
:1032400090F8490040F02000D54981F8490007E096
:10325000D34890F8490020F02000D14981F8490076
:10326000D87900F0800040B1CD4890F8110140F0CD
:103270000101CB4880F8111107E0C94890F811010D
:1032800020F00101C64880F81111D87900F0400003
:1032900040B1C34890F8110140F00201C04880F8E5
:1032A000111107E0BE4890F8110120F00201BC485E
:1032B00080F81111BB48006820F008000830B949B7
:1032C0000860B948006820F00100401CB649086059
:1032D0000125ADE51878B24981F84A00587881F89F
:1032E0004B00987881F84C00D87881F84D00187917
:1032F00081F84E00587981F84F00987981F8500094
:10330000D87981F85100A848006820F00100401CDD
:10331000A549086001258BE55878A14981F852003C
:10332000A148006820F00100401C9F490860012569
:103330007EE518789A4981F853005978984880F8C2
:103340005410997880F85B10D97880F85C1019795E
:1033500080F85710597980F85810997980F85F10E3
:10336000D97980F860109048006820F00200801C35
:103370008D49086001255BE51978894880F855106A
:10338000597880F85610997880F85D10D97880F8CF
:103390005E10197980F86710597980F8681099796A
:1033A00080F86910D97980F86A107F48006820F0A9
:1033B0000200801C7C490860012539E573E3997897
:1033C000774880F85910D97880F85A10197980F820
:1033D0006110597980F86210997980F80111D979D2
:1033E00080F802117048006820F00200801C6E49CD
:1033F00008606C48006820F00200801C6949086081
:10340000012515E5587900F0010048B1644890F8AD
:10341000630040F00101624880F8631008E08DE12C
:103420005F4890F8630020F001015D4880F8631068
:10343000587900F0020040B1594890F8630040F01C
:103440000201574880F8631007E0554890F8630080
:1034500020F00201524880F86310587900F0100003
:1034600040B14F4890F8630040F004014C4880F8A8
:10347000631007E04A4890F8630020F004014848D0
:1034800080F86310987900F0020040B1444890F849
:10349000630040F02001424880F8631007E0404894
:1034A00090F8630020F020013D4880F8631098797F
:1034B00000F0010040B13A4890F8630040F040014C
:1034C000374880F8631007E0354890F8630020F033
:1034D0004001334880F86310987900F0100048B13B
:1034E0002F4890F8630040F080012D4880F8631069
:1034F00008E0E5E22A4890F8630020F080012848BF
:1035000080F86310587900F0040040B1244890F826
:10351000640040F00101224880F8641007E0204870
:1035200090F8640020F001011D4880F8641058797B
:1035300000F0080048B11A4890F8640040F0020119
:10354000174880F8641008E0FEE3154890F864001E
:1035500020F00201124880F86410587900F0200031
:1035600040B10F4890F8640040F004010C4880F826
:10357000641007E00A4890F8640020F0040108484D
:1035800080F86410987900F0080078B1044890F849
:10359000640040F02001024880F864100EE0A9E0C9
:1035A000642E0020BC1C0020B81C0020FE4890F8AF
:1035B000640020F02001FC4880F86410987900F045
:1035C000040040B1F84890F8640040F04001F6482B
:1035D00080F8641007E0F44890F8640020F040019F
:1035E000F14880F86410987900F0200040B1EE486E
:1035F00090F8640040F08001EB4880F8641007E028
:10360000E94890F8640020F08001E74880F86410F1
:103610001978E54880F86510597880F86610D879EF
:1036200000F0040040B1E04890F8030140F00101CF
:10363000DD4880F8031107E0DB4890F8030120F033
:103640000101D94880F80311D87900F0080040B191
:10365000D54890F8030140F00201D34880F80311E7
:1036600007E0D14890F8030120F00201CE4880F82D
:103670000311D87900F0100040B1CB4890F8030155
:1036800040F00401C84880F8031107E0C64890F8EC
:10369000030120F00401C44880F80311D87900F038
:1036A000200040B1C04890F8030140F00801BE4836
:1036B00080F8031107E0BC4890F8030120F00801EE
:1036C000B94880F803119978B74880F8FF10D97885
:1036D00080F80011B548006820F00200801CB34952
:1036E0000860B348006820F00200801CB049086000
:1036F00001250FE41979AC4880F86F10597980F8EA
:103700007010197980F87110597980F872109979D0
:1037100080F85711D97980F85811A448006820F032
:103720000400001DA1490860A148006820F4804001
:1037300000F580409E49086001250EE4187800F0ED
:10374000080040B1984890F8730040F00101964895
:1037500080F8731007E0944890F8730020F001019E
:10376000914880F87310187800F0010040B18E483D
:1037700090F8730040F002018B4880F8731007E066
:10378000894890F8730020F00201874880F8731090
:10379000187800F0020040B1834890F8730040F0C0
:1037A0000401814880F8731007E07F4890F87300A7
:1037B00020F004017C4880F87310187800F00400B1
:1037C00040B1794890F8730040F00801764880F8DD
:1037D000731007E0744890F8730020F008017248F5
:1037E00080F87310987800F0010040B16E4890F8AE
:1037F000590140F002016C4880F8591107E06A480D
:1038000090F8590120F00201674880F85911987822
:1038100000F0020040B1644890F8590140F0040102
:10382000614880F8591107E05F4890F8590120F08D
:1038300004015D4880F8591198795B4981F8550178
:10384000D979594880F856115848006820F004008A
:10385000001D564908605648006820F4804000F575
:1038600080405349086001250CE4D9781F7901EBA9
:103870000720C11700EB5171C9104E4FB980D8789D
:10388000494981F874001979474880F8751099788A
:1038900080F87610187800F0010040B1424890F8A6
:1038A0008A0040F00101404880F88A1007E03E4855
:1038B00090F88A0020F001013B4880F88A101878BF
:1038C00000F0020040B1384890F88A0040F0020150
:1038D000354880F88A1007E0334890F88A0020F0D5
:1038E0000201314880F88A10187800F0040040B1D5
:1038F0002D4890F88A0040F004012B4880F88A1087
:1039000007E0294890F88A0020F00401264880F852
:103910008A10187800F0080040B1234890F88A0017
:1039200040F00801204880F88A1007E01E4890F80F
:103930008A0020F008011C4880F88A101B480068A3
:1039400020F020002030194908600125C1E41978D1
:10395000154880F877101548006820F020002030C6
:10396000124908600125B4E459780F4880F87810AE
:10397000997880F879100D48006820F020002030F8
:103980000A4908600125A4E41978074880F87A10EC
:10399000997880F87B10D97880F87C10034800680B
:1039A00020F02000203007E0642E0020B81C00200A
:1039B000BC1C00208C1B0020FB490860012588E40A
:1039C000187800F0010040B1F84890F8830040F00A
:1039D0000101F64880F8831007E0F44890F883006E
:1039E00020F00101F14880F88310187800F00200FF
:1039F00040B1EE4890F8830040F00201EB4880F8B7
:103A0000831007E0E94890F8830020F00201E748BE
:103A100080F883109978E54880F87D10D97880F88F
:103A20007E10E148006820F020002030DE49086068
:103A300001254EE41978DD4880F87F10597880F828
:103A40008010997880F88110D97880F88210D64853
:103A5000006820F020002030D3490860012538E4B8
:103A60005978D24880F88410CF48006820F02000B0
:103A70002030CD49086001252BE41978CB4880F827
:103A80008510597880F88610197980F8871059794F
:103A900080F88810C448006820F020002030C24917
:103AA0000860012515E45978C04880F88910BE489F
:103AB000006820F020002030BB490860012508E4A0
:103AC000D87800909DF8000000F0010038B1B848A7
:103AD000006820F040004030B549086005E0B44877
:103AE000006820F04000B24908609DF80000C0F373
:103AF000400038B1AE48006820F080008030AC490A
:103B0000086005E0AA48006820F08000A849086025
:103B1000A848FEF7D6FFA7481030FEF7D2FF9DF861
:103B20000000C0F3800040B1A148006820F480602C
:103B300000F580609E49086005E09D48006820F41B
:103B400080609B4908609DF80000C0F3C00040B150
:103B50009748006820F4006000F500609449086010
:103B600005E09348006820F400609149086091489E
:103B70004030FEF7A6FF8F485030FEF7A2FF9DF8B9
:103B80000000C0F3001038B18948006820F0100030
:103B900010308749086005E08548006820F0100073
:103BA000834908609DF80000C0F3401038B1804898
:103BB000006820F0200020307D49086005E07C4846
:103BC000006820F020007A4908607A482038FEF723
:103BD00078FF78481038FEF774FF9DF80000C0F3B6
:103BE000801040B17248006820F4807000F5807049
:103BF0006F49086005E06E48006820F480706C49E9
:103C000008609DF80000C00940B16948006820F4D0
:103C1000007000F500706649086005E064480068BF
:103C200020F400706249086062482030FEF749FFC6
:103C300060483030FEF745FF587800F0010040B191
:103C40005A4890F88B0040F00100584981F88B00E9
:103C500007E0564890F88B0020F00100534981F8A6
:103C60008B00587800F0020040B1504890F88B006B
:103C700040F020004D4981F88B0007E04B4890F858
:103C80008B0020F02000494981F88B00587800F023
:103C9000040040B1454890F88B0040F04000434993
:103CA00081F88B0007E0414890F88B0020F040003D
:103CB0003E4981F88B00587800F0080040B13B483D
:103CC00090F88B0040F08000384981F88B0007E0C5
:103CD000364890F88B0020F08000344981F88B0042
:103CE000587800F0100040B1304890F8900040F053
:103CF00001012E4880F8901007E02C4890F89000C1
:103D000020F00101294880F89010587800F0200038
:103D100040B1264890F8900040F02001234880F8F8
:103D2000901007E0214890F8900020F020011F48F3
:103D300080F89010587800F0400050B11B4890F87F
:103D4000900040F0400100E036E0184880F8901004
:103D500007E0164890F8900020F04001134880F8E2
:103D60009010587800F0800040B1104890F8900012
:103D700040F080010D4880F8901007E00B4890F863
:103D8000900020F08001094880F890109978074849
:103D900080F810110448006820F0400040300249CB
:103DA00008600125A5E40000B81C0020642E002056
:103DB000D81C0020FC320020187800F0100040B120
:103DC000FE4890F88B0040F00200FC4981F88B001F
:103DD00007E0FA4890F88B0020F00200F74981F8DC
:103DE0008B00187800F0200040B1F44890F88B0068
:103DF00040F00400F14981F88B0007E0EF4890F8AB
:103E00008B0020F00400ED4981F88B00187800F059
:103E1000400040B1E94890F88B0040F00800E749C5
:103E200081F88B0007E0E54890F88B0020F008004F
:103E3000E24981F88B00187800F0800040B1DF483B
:103E400090F88B0040F01000DC4981F88B0007E00F
:103E5000DA4890F88B0020F01000D84981F88B00E8
:103E6000187800F0010040B1D44890F8900040F07C
:103E70000201D24880F8901007E0D04890F89000F6
:103E800020F00201CD4880F89010187800F0020070
:103E900040B1CA4890F8900040F00401C74880F84B
:103EA000901007E0C54890F8900020F00401C34846
:103EB00080F89010187800F0040040B1BF4890F8E6
:103EC000900040F00801BD4880F8901007E0BB4822
:103ED00090F8900020F00801B84880F89010187809
:103EE00000F0080040B1B54890F8900040F0100193
:103EF000B24880F8901007E0B04890F8900020F0A9
:103F00001001AE4880F89010AD48006820F04000E5
:103F10004030AB49086001250FE41979A74880F8C3
:103F20008C10597980F88D10997980F88E10D97994
:103F300080F88F10197880F89110597880F89210D5
:103F4000997880F89310D97880F894109C4800688C
:103F500020F0400040309A490860012584E4187838
:103F6000964981F895005978944880F89610997888
:103F700080F89710D97880F89810187991490874CA
:103F800058794874987988748F48006820F0010047
:103F9000401C8D4908608A48006820F0800080300D
:103FA0008749086001255FE45978844880F89910B2
:103FB000D97880F89A10997880F89B10197980F850
:103FC000A510597980F8A8107D48006820F080007D
:103FD00080307B490860012546E41978774880F8ED
:103FE0009D10997980F89E10197980F89F10597961
:103FF00080F8A010997880F8A110D97880F8A210E4
:10400000597880F8A310D97980F8A4106C4800681A
:1040100020F0800080306A490860012524E4187887
:1040200000F0010040B1654890F8A60040F00201A0
:10403000624880F8A61007E0604890F8A60020F0DB
:1040400002015E4880F8A610187800F0020040B126
:104050005A4890F8A60040F00401584880F8A6108D
:1040600007E0564890F8A60020F00401534880F875
:10407000A610187800F0100040B1504890F8A60043
:1040800040F008014D4880F8A61007E04B4890F832
:10409000A60020F00801494880F8A610187800F022
:1040A000080040B1454890F8A60040F01001434890
:1040B00080F8A61007E0414890F8A60020F0100113
:1040C0003E4880F8A6103E48006820F0800080300E
:1040D0003B490860012539E4987800F0010040B1BF
:1040E000364890F8A60040F00101344880F8A61048
:1040F00007E0324890F8A60020F001012F4880F830
:10410000A6102F48006820F0800080302C490860FD
:1041100001251BE4187800F0010040B1274890F811
:10412000A60040F02001254880F8A61007E02348AB
:1041300090F8A60020F02001204880F8A610204822
:10414000006820F0800080301D49086001250AE4E5
:10415000187800F0010040B1184890F8A70040F02E
:104160000801164880F8A71007E0144890F8A70047
:1041700020F00801114880F8A710187800F002001C
:1041800040B10E4890F8A70040F010010B4880F8AD
:10419000A71007E0094890F8A70020F01001074891
:1041A00080F8A710187800F0040090B1034890F848
:1041B000A70040F02001014808E00000642E002024
:1041C000B81C0020E9310020D01C002080F8A71086
:1041D00007E0F94890F8A70020F02001F64880F8A1
:1041E000A710D87800F0010040B1F34890F8A6007D
:1041F00040F04001F04880F8A61007E0EE4890F843
:10420000A60020F04001EC4880F8A610D87800F015
:10421000020040B1E84890F8A60040F08001E6486E
:1042200080F8A61007E0E44890F8A60020F080018E
:10423000E14880F8A610D87800F0040040B1DE48CC
:1042400090F8A70040F00101DB4880F8A71007E0D4
:10425000D94890F8A70020F00101D74880F8A710AE
:10426000D87800F0080040B1D34890F8A70040F09B
:104270000201D14880F8A71007E0CF4890F8A700C6
:1042800020F00201CC4880F8A710CC48006820F04C
:1042900080008030C9490860012510E4187800F0DA
:1042A000010040B1C44890F8A70040F00401C248A2
:1042B00080F8A71007E0C04890F8A70020F004019C
:1042C000BD4880F8A710BD48006820F0800080300D
:1042D000BA490860012565E5B748A9301968016049
:1042E00059684160D878B44981F8FE00B348006845
:1042F00020F4807000F58070B0490860B048006814
:1043000020F00200801CAE49086001254AE51978BA
:10431000A94880F8B110597880F8B210A748006811
:1043200020F4807000F58070A4490860012539E50B
:104330001878A14981F8B30059789F4880F8B410E3
:104340009E48006820F4007000F500709B490860EA
:10435000012527E51978984880F8B510597880F834
:10436000B6109648006820F4007000F5007093497C
:104370000860012516E519788F4880F8B71059783C
:1043800080F8B8108D48006820F4007000F50070C7
:104390008A490860012505E58748B9301968016038
:1043A000596841608548006820F4806000F58060AD
:1043B000824908600125F5E47F48B93019688160B9
:1043C0005968C1607D48006820F4806000F5806015
:1043D0007A4908600125E5E47748B9301968016138
:1043E000596841617548006820F4806000F580607C
:1043F000724908600125D5E46F48B93019688161B8
:104400005968C1616D48006820F4806000F58060E3
:104410006A4908600125C5E46748D9301968016018
:10442000596841606548006820F4006000F500604C
:10443000624908600125B5E45F48E1301968016010
:10444000998881809979E13880F80811D97980F8C4
:1044500009115A48006820F4805000F580505749EF
:1044600008605748006820F00400001D54490860A7
:10447000012597E45048E7301968016059684160A8
:104480009979E73880F80A11D97980F80B114B48EF
:10449000006820F4005000F5005048490860484882
:1044A000006820F00400001D45490860012579E4FA
:1044B0001878414981F8EF0019793F4880F8F010E9
:1044C000597880F8F110997880F8F210597980F8CD
:1044D000F310D97880F8F4103848006820F4804050
:1044E00000F580403549086001255BE43248F5302D
:1044F00019680160197901715979F53880F80C1142
:10450000997980F80D112D48006820F4004000F5DD
:1045100000402A4908602A48006820F00400001D75
:104520002749086001253DE42348D3F80310C0F86B
:10453000FA102348006820F00100401C2049086060
:1045400001252FE418781C4981F8040159781A488C
:1045500080F80511997880F80611D97880F807114C
:104560001748006820F00400001D15490860012567
:1045700018E41878104981F80E0159780E4880F82F
:104580000F11197980F82A11597980F82B1199792E
:1045900080F82E11D97980F82F110948006820F091
:1045A00008000830064908600846006820F020002E
:1045B000203008600125AFE4642E0020B81C0020E4
:1045C000BC1C00201878FB4981F812015978F94881
:1045D00080F81311997880F81411D97880F81511A2
:1045E000197880F82011597880F82111997880F88D
:1045F0002211D97880F823111878EE4981F8440106
:104600005978EC4880F84511997880F84611D978A6
:1046100080F847111879E74981F84A015979E54846
:1046200080F84B11997980F84C11D97980F84D11A7
:10463000E148006820F010001030DF4908600846AB
:10464000006820F02000203008600846006820F450
:10465000006000F5006008600846006820F48050A3
:1046600000F580500860012556E41978D14880F89B
:104670001611597880F81711197880F8281159788F
:1046800080F82911197880F84811597880F8491173
:10469000987900F0010040B1C64890F84E0140F012
:1046A0000201C44880F84E1107E0C24890F84E015C
:1046B00020F00201BF4880F84E11987900F0020006
:1046C00040B1BC4890F84E0140F00401B94880F870
:1046D0004E1107E0B74890F84E0120F00401B548AC
:1046E00080F84E11B448006820F010001030B24934
:1046F00008600846006820F0200020300860084666
:10470000006820F4006000F500600860084600685A
:1047100020F4805000F58050086001251EE41878D0
:10472000A44981F818015978A24880F8191199789C
:1047300080F81A11D97880F81B11197980F82C119A
:10474000597980F82D1198799A4981F83201D979EF
:10475000984880F833119848006820F020002030F5
:10476000954908600846006820F0800080300860A5
:10477000012518E419788F4880F81C11597880F8C1
:104780001D11997880F81E11D97880F81F118A4878
:10479000006820F0200020308749086001251BE4D4
:1047A0001978844880F82411597880F8251199786F
:1047B00080F82611D97880F827117F48006820F00A
:1047C000200020307C490860012505E4587800F07D
:1047D000010040B1774890F8490040F00100754968
:1047E00081F8490007E0734890F8490020F0010083
:1047F000704981F849007148006820F00100401CB0
:104800006E490860187800909DF80000C0F3C00061
:1048100038B16B48006820F00200801C68490860CD
:1048200005E06748006820F00200654908606548B7
:10483000FEF747F99DF80000C0F3001038B160485A
:10484000006820F00400001D5D49086005E05C4838
:10485000006820F004005A4908605A481030FEF7FA
:1048600030F9587800909DF8000000F0010038B150
:104870005348006820F0080008305149086005E0FE
:104880004F48006820F008004D4908604D4820302E
:10489000FEF717F99DF80000C0F3C00038B1484892
:1048A000006820F0100010304549086005E04448D9
:1048B000006820F010004249086042483030FEF79E
:1048C00000F9D87800F0080040B13A4890F830017B
:1048D00040F00101374880F8301107E0354890F882
:1048E000300120F00101334880F83011187800F0D1
:1048F000010040B12F4890F84E0140F001012D48D1
:1049000080F84E1107E02B4890F84E0120F001018D
:10491000284880F84E11187800F0020040B1254870
:1049200090F8590140F00101224880F8591107E040
:10493000204890F8590120F001011E4880F85911D3
:104940001D48006820F0200020301B490860084600
:10495000006820F4805000F5805008600846006828
:1049600020F4804000F580400860012595E4187827
:1049700000F0010040B10F4890F8310140F0010013
:104980000C4981F8310107E00A4890F8310120F024
:104990000100084981F83101187800F0020098B14F
:1049A000044890F8310140F00200024981F83101D9
:1049B00012E00000642E0020BC1C0020B81C002067
:1049C000DC1C00206C330020FC4890F8310120F002
:1049D0000200FA4981F83101187800F0040040B172
:1049E000F64890F8310140F00800F44981F83101AF
:1049F00007E0F24890F8310120F00800EF4981F813
:104A00003101187800F0080040B1EC4890F831010D
:104A100040F01000E94981F8310107E0E74890F8DB
:104A2000310120F01000E54981F83101E4480068C7
:104A300020F040004030E249086001250AE2187980
:104A400000909DF8000000F0010088B99DF800007A
:104A5000C0F3001060B99DF80000C0F3401038B1F9
:104A6000D848006820F00100401CD649086005E0E5
:104A7000D448006820F00100D249086018790090FD
:104A80009DF8000000F0010060B19DF80000C0F347
:104A9000400038B9CB48006820F008000830C94908
:104AA000086005E0C748006820F00800C5490860B4
:104AB000D87800909DF8000000F0010038B1C1489E
:104AC000006820F00400001DBE49086005E0BD48F4
:104AD000006820F00400BB4908609DF80000C0F3A6
:104AE000400038B1B748006820F00200801CB5498A
:104AF000086005E0B348006820F00200B149086092
:104B0000B148FDF7DEFFB0481030FDF7DAFFAE48E0
:104B10002030FDF7D6FFAC483030FDF7D2FF587992
:104B200000F0200040B1A54890F8310140F00400A9
:104B3000A24981F8310107E0A04890F8310120F046
:104B400004009E4981F83101587900F0400040B1DD
:104B50009A4890F8310140F02000984981F83101DD
:104B600007E0964890F8310120F02000934981F841
:104B70003101187800F0010040B1904890F83801F8
:104B800040F001008D4981F8380107E08B4890F82A
:104B9000380120F00100894981F83801187800F0C7
:104BA000020040B1854890F8380140F00200834986
:104BB00081F8380107E0814890F8380120F00200C0
:104BC0007E4981F83801187800F0200040B17B4818
:104BD00090F8380140F00400784981F8380107E086
:104BE000764890F8380120F00400744981F83801C3
:104BF000187800F0100040B1704890F8380140F08B
:104C000008006E4981F8380107E06C4890F83801D7
:104C100020F00800694981F83801187900F0010096
:104C200040B1664890F8380140F01000634981F8BF
:104C3000380107E0614890F8380120F010005F4922
:104C400081F83801187900F0020040B15B4890F813
:104C5000380140F02000594981F8380107E05748F1
:104C600090F8380120F02000544981F83801187973
:104C700000F0200040B1514890F8380140F0400069
:104C80004E4981F8380107E04C4890F8380120F08F
:104C900040004A4981F83801187900F0100040B10D
:104CA000464890F8380140F08000444981F83801C6
:104CB00007E0424890F8380120F080003F4981F831
:104CC0003801187800F0400040B13C4890F83901B4
:104CD00040F00101394880F8391107E0374890F871
:104CE000390120F00101354880F83911187800F0B9
:104CF000800040B1314890F8390140F002012F485E
:104D000080F8391107E02D4890F8390120F00201B0
:104D10002A4880F839115978284880F83C11587988
:104D200000F0010040B1254890F83D0140F001003D
:104D3000224981F83D0107E0204890F83D0120F02C
:104D400001001E4981F83D01587900F0020040B190
:104D50001A4890F83D0140F00200184981F83D01E1
:104D600007E0164890F83D0120F00200134981F851
:104D70003D011348006820F04000403010490860B1
:104D80000846006820F4807000F5807008600846CE
:104D9000006820F4007000F5007008600125E1E370
:104DA000987800F0010088B1044890F8310140F093
:104DB0004000024981F8310110E00000642E00201B
:104DC000BC1C0020D81C00209C320020FE4890F81B
:104DD000310120F04000FC4981F83101987800F061
:104DE000080040B1F84890F8310140F08000F649E1
:104DF00081F8310107E0F44890F8310120F080009B
:104E0000F14981F831019879EF4981F84001D97968
:104E1000ED4880F84111ED48006820F04000403036
:104E2000EA4908600846006820F4806000F5806068
:104E30000860012596E39978E34880F83411D97821
:104E400080F83511E148006820F080008030DF49AB
:104E50000860012586E39979DB4880F83611D97915
:104E600080F83711D948006820F080008030D74999
:104E70000860012576E31978D34880F83A1159780B
:104E800080F83B11997980F83E11D97980F83F116B
:104E9000CE48006820F4807000F58070CB4908602F
:104EA0000846006820F4007000F5007008600125D5
:104EB00058E31978C44880F84211597880F84311B2
:104EC000C248006820F4806000F58060BF49086037
:104ED000012547E31878BC4981F84F015978BA4851
:104EE00080F85011997880F85111D97880F85211D2
:104EF000197980F85311597980F85411B348006832
:104F000020F4005000F50050B0490860012529E365
:104F10001878AD4981F85A015978AB4880F85B118F
:104F2000997880F85C11D97880F85D11997980F8CA
:104F30006011D97980F86111A448006820F400401C
:104F400000F50040A149086001250BE3187800F046
:104F5000010040B19C4890F8620140F001009A497C
:104F600081F8620107E0984890F8620120F00100A2
:104F7000954981F86201187800F0020040B192482A
:104F800090F8620140F002008F4981F8620107E069
:104F90008D4890F8620120F002008B4981F862018F
:104FA0009979894880F86311D97980F86411884823
:104FB000006820F00100401C854908600125D1E20D
:104FC0001879814981F8650159797F4880F866111F
:104FD0007F48006820F00200801C7D4908600125A0
:104FE000C0E29879784981F86701D979764880F8E4
:104FF0006811587900F0010040B1734890F86901D8
:1050000040F00101704880F8691107E06E4890F89F
:10501000690120F001016C4880F86911587900F0AD
:10502000020040B1684890F8690140F0020166480A
:1050300080F8691107E0644890F8690120F00201E6
:10504000614880F86911587900F0040040B15E4869
:1050500090F8690140F004015B4880F8691107E0AD
:10506000594890F8690120F00401574880F8691107
:105070005748006820F00400001D554908600125CC
:1050800070E2187800F0010040B14F4890F87001CC
:1050900040F001014C4880F8701107E04A4890F850
:1050A000700120F00101484880F87011187800F074
:1050B000020040B1444890F8700140F002014248BB
:1050C00080F8701107E0404890F8700120F002016C
:1050D0003D4880F87011187800F0040040B13A485B
:1050E00090F8700140F00401374880F8701107E033
:1050F000354890F8700120F00401334880F87011B1
:10510000187800F0080040B12F4890F8700140F086
:1051100008012D4880F8701107E02B4890F87001C5
:1051200020F00801284880F870119878264981F805
:105130006A01D978244880F86B11997980F86C114C
:10514000D97980F86D11197980F87411597980F83E
:1051500075111F48006820F0080008301C490860DD
:105160000125FFE1187800F0800040B1164890F862
:10517000700140F01001144880F8701107E01248E7
:1051800090F8700120F010010F4880F870115878E5
:1051900000F0080040B10C4890F8700140F0200188
:1051A000094880F8701107E0074890F8700120F076
:1051B0002001054880F87011587800F0020078B19D
:1051C000014890F8700105E0642E0020BC1C00200E
:1051D000C01C002040F04001FC4880F8701107E03E
:1051E000FA4890F8700120F04001F84880F87011FA
:1051F000587800F0010040B1F44890F8700140F098
:105200008001F24880F8701107E0F04890F87001D2
:1052100020F08001ED4880F87011587800F004000B
:1052200040B1EA4890F8710140F00101E74880F888
:10523000711107E0E54890F8710120F00101E348A1
:1052400080F87111587800F0100040B1DF4890F8F4
:10525000710140F00201DD4880F8711107E0DB4880
:1052600090F8710120F00201D84880F87111987807
:10527000D64981F87601D978D44880F877119979A0
:1052800080F87811D97980F87911197980F880112E
:10529000597980F88111187800F0010040B1CB48AD
:1052A00090F87C0140F00101C84880F87C1107E0CB
:1052B000C64890F87C0120F00101C44880F87C11B8
:1052C000187800F0020040B1C04890F87C0140F02E
:1052D0000201BE4880F87C1107E0BC4890F87C01D0
:1052E00020F00201B94880F87C11187800F0040021
:1052F00040B1B64890F87C0140F00401B34880F812
:105300007C1107E0B14890F87C0120F00401AF481F
:1053100080F87C11187800F0080040B1AB4890F894
:105320007C0140F00801A94880F87C1107E0A748FB
:1053300090F87C0120F00801A44880F87C111878CE
:1053400000F0800040B1A14890F87C0140F01001CD
:105350009E4880F87C1107E09C4890F87C0120F082
:1053600010019A4880F87C11587800F0080040B18C
:10537000964890F87C0140F02001944880F87C1118
:1053800007E0924890F87C0120F020018F4880F8D7
:105390007C11587800F0020040B18C4890F87C01F4
:1053A00040F04001894880F87C1107E0874890F878
:1053B0007C0120F04001854880F87C11587800F08D
:1053C000010040B1814890F87C0140F080017F48A5
:1053D00080F87C1107E07D4890F87C0120F0800186
:1053E0007A4880F87C11587800F0040040B1774882
:1053F00090F87D0140F00101744880F87D1107E0CC
:10540000724890F87D0120F00101704880F87D110C
:10541000587800F0100040B16C4890F87D0140F0E1
:1054200002016A4880F87D1107E0684890F87D0124
:1054300020F00201654880F87D116548006820F081
:1054400008000830624908600846006820F0100033
:1054500010300860012585E019785C4880F86E11ED
:10546000597880F86F11997880F87A11D97880F896
:105470007B115748006820F0080008305449086044
:105480000846006820F0100010300860012569E02F
:1054900019784E4880F87211597880F8731199780C
:1054A00080F87E11D97880F87F114948006820F093
:1054B00008000830464908600846006820F01000DF
:1054C0001030086001254DE01878424981F8260027
:1054D000587881F82700987881F828003E480068BD
:1054E00020F00100401C3C49086001253AE03948A1
:1054F000196881605968C1603748006820F0010070
:10550000401C3549086001252CE032481E301968DE
:105510000160596841603048006820F00100401C7B
:105520002D49086000251DE02A48163019680160E1
:10553000596841602848006820F00100401C264955
:10554000086000250EE02348196801605968416031
:105550002148006820F00100401C1F490860012517
:1055600000E000BF00BF2846F8BD30B5034600206C
:105570001A4D5C1BAB423ED01ADC194DA3EB05045F
:10558000AB4274D00ADC174C1C44002C70D0B4F52C
:10559000606F6ED0B4F5805F6CD166E3B4F5007FC8
:1055A00069D0B4F5506F67D0B4F5606FF4D151E0B5
:1055B000B4F5F85F72D017DCB4F5406F6FD0B4F576
:1055C000E85F6DD0B4F5F05FE6D1EBE2642E002029
:1055D000C01C0020E9310020D01C0020213FF21C1B
:1055E000212DF21CDFF00DE3B4F5984F7ED0B4F519
:1055F000C04FD1D16BE3FC4C94F82C404D78AC42B9
:1056000006D00124F84D85F830404C7885F82C40C0
:10561000F54C94F82D408D78AC4206D00124F24D23
:1056200085F830408C7885F82D40EF4C94F82F4069
:105630000D78AC4206D00124EB4D85F830400C7853
:1056400085F82F404D78E94C25728D7865720D787C
:10565000E572EFE30C78E64D2C704C7804F0010411
:105660005CB12C46647844F001046C700BE029E2D4
:10567000D9E281E0DCE31AE3B7E2DD4C647824F0A0
:105680000104DB4D6C704C7804F002044CB1D84C32
:10569000647844F00204D64D6C7008E04FE1B4E247
:1056A00061E2D34C647824F00204D14D6C704C78E4
:1056B00004F0100444B1CE4C94F86A4044F0020562
:1056C000CB4C84F86A5007E0C94C94F86A4024F047
:1056D0000205C74C84F86A504C7804F0080454B1B1
:1056E000C34C94F86A4044F0040500E0FBE1C04C70
:1056F00084F86A5007E0BE4C94F86A4024F0040530
:10570000BB4C84F86A504C7804F0080444B1B84C9F
:1057100094F86A4044F00805B54C84F86A5007E0F4
:10572000B34C94F86A4024F00805B14C84F86A50F0
:105730004C7804F0040444B1AD4C94F86A4044F051
:105740004005AB4C84F86A5007E0A94C94F86A40D5
:1057500024F04005A64C84F86A50A64C246824F036
:105760000104641CA34D2C602C46246824F04004E2
:1057700040342C6001205DE3CC799D4DAC70CC7839
:1057800004F0100434B12C46E47844F00105984C40
:10579000E57005E0964CE47824F00105944CE57042
:1057A000CC7804F0200434B1914CE47844F0020544
:1057B0008F4CE57005E08E4CE47824F002058C4CAB
:1057C000E5704C7804F0010434B1894CE47844F07D
:1057D0000405874CE57005E0854CE47824F0040569
:1057E000834CE5704C7804F0020434B1804CE478CA
:1057F00044F008057E4CE57005E07D4CE47824F02B
:1058000008057B4CE5704C7804F0040434B1784C06
:10581000E47844F01005764CE57005E0744CE478CB
:1058200024F01005724CE5704C7804F0080434B193
:105830006F4CE47844F020056D4CE57005E06C4C4D
:10584000E47824F020056A4CE5704C7804F01004EC
:1058500034B1674CE47844F04005654CE57005E0F0
:10586000634CE47824F04005614CE5708C7904F0D9
:10587000400444B15E4C94F86A4044F001055C4C2D
:1058800084F86A5007E05A4C94F86A4024F0010505
:10589000574C84F86A50CC7804F0400444B1544C1E
:1058A00094F86A4044F01005514C84F86A5007E0BF
:1058B0004F4C94F86A4024F010054D4C84F86A501F
:1058C0008C7804F0200444B1494C94F86A4044F0C8
:1058D0002005474C84F86A5007E0454C94F86A402C
:1058E00024F02005424C84F86A50CC7804F002047D
:1058F00044B13F4C94F86C4044F001043C4D85F8B1
:105900006C4007E03A4C94F86C4024F00104384DA8
:1059100085F86C40374C246824F00204A41C354DF3
:105920002C602C46246824F0400440342C602C4623
:10593000246824F0800480342C6001207AE20D7801
:105940002B4C25714D786571CD78A5710D79E57178
:105950004C7904F0010444B1254C94F86A4044F0B9
:105960008005234C84F86A5007E0214C94F86A4083
:1059700024F080051E4C84F86A504C7904F002042F
:1059800044B11B4C94F86B4044F00105184C84F86A
:105990006B5007E0164C94F86B4024F00105144C52
:1059A00084F86B504C7904F0040444B1104C94F822
:1059B0006B4044F002050E4C84F86B5007E00C4C31
:1059C00094F86B4024F00205094C84F86B504C7934
:1059D00004F0080484B1064C94F86B4044F00405CC
:1059E000034C84F86B500FE08C1B0020442E0020E9
:1059F000FD2F0020C41C0020FE4C94F86B4024F0C6
:105A00000405FC4C84F86B504C7904F0100444B14C
:105A1000F84C94F86B4044F00805F64C84F86B5051
:105A200007E0F44C94F86B4024F00805F14C84F83E
:105A30006B504C7904F0200444B1EE4C94F86C4067
:105A400044F00204EB4D85F86C4007E0E94C94F813
:105A50006C4024F00204E74D85F86C404C7904F06A
:105A6000400444B1E34C94F86C4044F00404E14D2C
:105A700085F86C4007E0DF4C94F86C4024F0040497
:105A8000DC4D85F86C400D78DA4C84F865504D7823
:105A900084F866508D7884F86750D74C246824F0D9
:105AA0000204A41CD44D2C602C46246824F040042D
:105AB00040342C602C46246824F0800480342C6010
:105AC0000120B7E10C78CB4D85F854404D78C94C96
:105AD00084F85550C84C246824F020042034C64D66
