:020000040800F2
:1000000050130120F1050008F9050008D55E01082C
:10001000FD050008FF0500080106000800000000BB
:10002000000000000000000000000000990100082E
:100030000506000800000000DD010008491701085E
:100040000B0600080B0600080B0600080B0600084C
:100050000B0600080B060008F90900080B0600084B
:100060000B0600080D0A00080B0600080B06000826
:100070000B0600080B060008859A00080B0600080E
:100080000B0600080B0600080B0600080B0600080C
:10009000271B00085D1B00080B060008170B000853
:1000A0000B0600080B0600080B0600080B060008EC
:1000B0000B0600080B0600080B0600080B060008DC
:1000C0000B0600080B0600080B0600080B060008CC
:1000D0000B060008059300080B060008059A0008A7
:1000E0000B0600080B0600080B0600080B060008AC
:1000F0000B0600080B0600080B0600080B0600089C
:100100000B0600080B0600080B0600080B0600088B
:100110000B0600080B0600080B0600080B0600087B
:100120000B0600080B0600080B0600080B0600086B
:100130000B0600080B0600080B0600080B0600085B
:10014000331C0008691C00080B0600080B06000899
:100150000B060008391601086D930008CD1501083B
:100160000B0600080B0600080B0600080B0600082B
:100170000B0600080B0600080B0600080B0600081B
:100180000B060008DFF80CD015F0D8FD004800473A
:10019000D504000850130120224B19680868B0E804
:1001A000F00F80F30988BFF36F8F4FF0000080F3EA
:1001B00011884EF00D0E70470000000006480068E0
:1001C000006880F3088862B661B6BFF34F8FBFF353
:1001D0006F8F00DF00BF00BF08ED00E0EFF3098084
:1001E000BFF36F8F0F4B1A6820E9F00F106008B54E
:1001F0004FF0100080F31188BFF34F8FBFF36F8F64
:1002000014F013FA4FF0000080F31188BDE80840A5
:1002100019680868B0E8F00F80F30988BFF36F8FA2
:10022000704700BF30220020EFF3058070470000C8
:100230000221304A5183082151832021118340211A
:1002400011838021118301212B4A11802B490968D8
:1002500001F0004149B12949096841F00041274AAC
:1002600011608169891C81617047244908390968D6
:10027000234A11622149091F097882F824101F4975
:10028000C91E097891621D490C310968D1621B4968
:10029000891E098811861949096851631749091D82
:1002A00009689163154910310968D1630021154A25
:1002B000116000BF134909680029FBD0104A01688A
:1002C00011604168516081689160C168D1600169C5
:1002D00011614169516181699161C169D1610021F7
:1002E000084A116000BF074909680029FBD000BF18
:1002F000BAE7000000000240180402402CED00E0C4
:100300008022002000180020322011F069FE09F040
:1003100010FA0DF026FD15F0E6FD02F039F90CF0AB
:100320004CFD0AF0E6FA01F031F90CF09EFC11F0F8
:100330000AF80CF056FD01F03BF909F000FA02F062
:1003400035F90AF0E1FA11F006F804E00A2011F09C
:1003500047FE0CF051FCF9E710B545F255500FF08F
:100360009BF805200FF09BF840F271200FF09AF8EF
:100370000FF09BF80FF09EF810BD1CB501210F2067
:100380000FF09CFA49F2F620009001208DF804004D
:100390008DF8050000208DF8060001208DF807007B
:1003A00069468D4815F0A4FD02208B49488304203E
:1003B0004883082048831020488320200883402059
:1003C0000883802008830002488346F6D570009099
:1003D00001208DF804008DF8050000208DF806003E
:1003E00001208DF8070069467C4815F081FD012049
:1003F0007A491A3108800002088040000880800095
:10040000891E08804FF25870009001208DF804007A
:100410008DF8050000208DF8060001208DF80700FA
:1004200069466F4815F064FD10206D491A31088047
:1004300002200880C020009001208DF804000020D8
:100440008DF8050001208DF806008DF8070069463B
:10045000624815F04DFD4020604918310880802029
:10046000088040F60150009000208DF80400012023
:100470008DF807006946584815F03AFD49F22A0000
:10048000009000208DF8040001208DF807006946D7
:10049000524815F02DFD40F6A700009000208DF881
:1004A000040001208DF8070069464D4815F020FD35
:1004B0001CBD10B54FF440700FF092FD01210807EC
:1004C0000FF02FFA01200FF012F8FFF756FFFFF799
:1004D00043FF10BD00F020F9FFF7EBFF11F03FF9EB
:1004E000404A0021AFF2DF1011F07BFA3E4908606C
:1004F00011F07EF900BFFEE701460DE0002001E0AB
:1005000000BF401C41F65E729042F9D300BF4AF62C
:10051000AA22364B1A6000BF0A1EA1F10101EDD1DB
:10052000704708B50021009100914AE000BF00BF6C
:1005300000BF00BF00BF00BF00BF00BF00BF00BFC3
:1005400000BF00BF00BF00BF00BF00BF00BF00BFB3
:1005500000BF00BF00BF00BF00BF00BF00BF00BFA3
:1005600000BF00BF00BF00BF00BF00BF00BF00BF93
:1005700000BF00BF00BF00BF00BF00BF00BF00BF83
:1005800000BF00BF00BF00BF00BF00BF00BF00BF73
:1005900000BF00BF00BF00BF00BF00BF00BF00BF63
:1005A00000BF00BF00BF00BF00BF00BF00BF00BF53
:1005B00000BF00BF00BF00BF00BF00BF0099491CC3
:1005C000009100998142B1D300BF4AF6AA21074A9F
:1005D000116000BF08BD000000000240000402409E
:1005E0000008024074680108041800200030004030
:1005F0000648804706480047FEE7FEE7FEE7FEE7BD
:10060000FEE7FEE7FEE7FEE7FEE7FEE7CF060008AF
:10061000850100080CB50020019000906A48006830
:1006200040F480306849086000BF6748006800F403
:10063000003000900198401C019000980028F4D0F0
:100640006148006800F4003010B10120009001E022
:10065000002000900098012838D15B4808300068DD
:100660005949083108600846006840F400400860B5
:100670000846006840F4A05008605448091F08600C
:10068000081F006840F08070091F086000BF4E48D6
:10069000006800F000700028F9D040F203704C4967
:1006A000086049480830006820F0030046490831D6
:1006B00008600846006840F00200086000BF424839
:1006C0000830006800F00C000828F8D10CBD10B507
:1006D0003D48006840F001003B49086000203A496D
:1006E00008310860384800683A49084036490860CF
:1006F0003948091D0860081F006820F48020091F80
:100700000860002030490C310860FFF783FF4FF08C
:1007100000603249086010BD70B50020002202233D
:1007200000240221284D08352D6805F00C0020B169
:10073000042806D0082834D107E0294D294E356019
:1007400033E0294D274E35602FE01F4D2D1D2D68BC
:10075000C5F380541C4D2D1D2D6805F03F0154B18B
:10076000214DB5FBF1F5184E361D3668C6F38816D7
:1007700005FB06F209E01A4DB5FBF1F5124E361DE8
:100780003668C6F3881605FB06F20F4D2D1D2D6841
:10079000C5F301456D1C6B00B2FBF3F5114E3560DE
:1007A00003E00F4D0F4E356000BF00BF064D08350A
:1007B0002D68C5F303150D4E705D0A4D2D68C540BB
:1007C000084E356070BD000000380240083C40050E
:1007D000003C0240FFFFF6FE1030002408ED00E070
:1007E0000024F4000818002000127A000C180020E1
:1007F0002020D54981F845002021D34880F88B106E
:1008000080F8D11080F81711704700B59BB0012116
:10081000CE480FF053F8012108020FF093F8CC48AE
:100820000EF0D8FB00200290CA480390CA480490FA
:100830000020059004200690002007904FF480606F
:1008400008904000099080000A9040110B904002EF
:100850000C9000200D9001200E9000200F90109021
:1008600002A9BB480EF058FC0121B9480EF08EFCDD
:10087000032000908DF8040000208DF807006946E1
:10088000B64815F035FB002011904FF480301290DF
:1008900000201390149011A80DF0ACFC00201590CE
:1008A00001208DF858008DF85900002017901890FD
:1008B000199004208DF8680015A9A6484C380DF051
:1008C0006AFC01200DF0CBFC052301220A21A1487E
:1008D0004C380DF0E6FC052302220B219D484C38D4
:1008E0000DF0DFFC0523032210219A484C380DF04F
:1008F000D8FC05230422112196484C380DF0D1FC78
:10090000012194484C380DF077FD012191484C3875
:100910000DF067FD01218F484C380DF082FC8D48A9
:100920004C380DF01AFDFFF763FF1BB000BD30B56A
:10093000002125E0C1EBC10202EB8202824C04EBF4
:100940004200854A32F8113090F84440641CE2B20B
:1009500090F84540944200DC00220568041D04EB39
:10096000420424882C1B0460041D04EB42042380F1
:1009700004681C44046080F8442000BF481CC1B2D5
:100980000429D7DB30BD00B585B0012108460EF043
:1009900095FF012188030EF0D5FF01200190002072
:1009A0008DF8080001208DF80B0001A96C4815F0A6
:1009B0009FFA002108460FF0CDF801200390002097
:1009C0008DF810000C208DF8110001208DF8120018
:1009D00003A80EF0E1FC06208DF800000E208DF833
:1009E000010000208DF8020001208DF80300684608
:1009F0000FF0FBFA05B000BD10B501200EF032FD7E
:100A000010B101200EF03FFD10BD704710B5082059
:100A10000EF028FD50B108200EF035FD0BF01DFE44
:100A200000BF4AF6AA204F49086000BF10BD00B5BC
:100A300085B0012108460EF041FF012188030EF028
:100A400081FF4FF48070019000208DF80800012094
:100A50008DF80B0001A9424815F04AFA0821002040
:100A60000FF078F84FF48070039000208DF810009C
:100A70000C208DF8110001208DF8120003A80EF053
:100A80008BFC28208DF800000E208DF8010000203E
:100A90008DF8020001208DF8030068460FF0A5FADA
:100AA00005B000BD00B585B0012104200EF006FFA1
:100AB000012188030EF046FF2020019000208DF8D0
:100AC000080001208DF80B0001A9244815F010FA48
:100AD000052102200FF03EF82020039000208DF821
:100AE00010000C208DF8110001208DF8120003A8D1
:100AF0000EF052FC17208DF800000E208DF801003A
:100B000000208DF8020001208DF8030068460FF0E8
:100B10006CFA05B000BD10B520200EF0A3FC50B15A
:100B200020200EF0B0FC0BF098FD00BF4AF6AA2082
:100B30000C49086000BF10BD10B5FFF766FEFFF757
:100B4000B1FFFFF720FF10BDC022002004004000CD
:100B5000106402404C2001401E1800200008024092
:100B60000000024000300040FD490968FC4A92F84C
:100B70004520B1FBF2F000EB4011C1F3CF11F94A6F
:100B8000918111468989B1F5AF7F13DA0021F64AC8
:100B90001170F6490978052906DDF249C97C41F052
:100BA0002001F04AD17418E0F0490978491CEF4A55
:100BB000117012E00021ED4A1170EB490978052906
:100BC00006DDE849C97C21F02001E64AD17404E041
:100BD000E5490978491CE44A11707047E049D1F8A9
:100BE000462091F88B10B2FBF1F0C0EBC001C1EBD5
:100BF000C0117D22B1FBF2F11B31DA4AD1811146DD
:100C0000C989B1F5FA7F01DA0021D181D549C989B5
:100C100040F69802914219DAD249C98940F2A46299
:100C2000914213DD0021D24A1170D24909780A2974
:100C300006DDCC49C97C41F00201CA4AD17418E0F2
:100C4000CC490978491CCB4A117012E00021C94AED
:100C50001170C7490978052906DDC249C97C21F010
:100C60000201C04AD17404E0C1490978491CC04A54
:100C70001170BC49C989B1F52F7F13DD0021BE4A2F
:100C80001170BE490978052906DDB649C97C21F0F5
:100C90000101B44AD17418E0B8490978491CB74A2F
:100CA000117012E00021B54A1170B3490978052985
:100CB00006DDAC49C97C41F00101AA4AD17404E0C7
:100CC000AD490978491CAC4A11707047AC480078AE
:100CD000012843D1A348C07C00F0010018BB0020CC
:100CE000A84908809F488089B0F5D07F0ADB4FF47F
:100CF0000060A54908809B48C07C20F00400994909
:100D0000C87435E097488089B0F5C87F30DA4FF471
:100D100000609D49891C08809248C07C40F0040016
:100D20009049C87424E0974801880088401C954A7F
:100D300010803C2907DD8B488089B0F5AA7F02DA54
:100D40000020114608804FF400608F4908808548D4
:100D5000C07C20F004008349C87409E04FF40060AF
:100D6000894908807F48C07C20F004007D49C87410
:100D700070477C48407CC0F34000704710B5FFF7D7
:100D8000F8FF012803D100208049087002E001200B
:100D90007E4908707D4800787D49097888420BD0EB
:100DA0004FF496607B49088078480078784908704D
:100DB00000206C49087018E07648008828B1754812
:100DC0000088401E734908800FE07048007840B1E9
:100DD0007148007828B90120624908706FA008F0B6
:100DE00095FB6A4800786C49087010BD6E48006831
:100DF00000F0200098B100206C4908706C48007821
:100E0000142806DD5748407C20F0020055494874FC
:100E100018E067480078401C6549087012E000201F
:100E20006349087061480078142806DD4D48407C0D
:100E300040F002004B49487404E05C480078401CD4
:100E40005A49087070474648D0F88C2090F8D10075
:100E5000B2FBF0F081B2C1EB411202EB8200C2178B
:100E600000EBD2525212A2F2171252B23D4B1A7438
:100E700070473C48007E70473A48007F70473948C9
:100E8000407E704710B53E48007848B90520494972
:100E9000087000208871087388740876887743E0AA
:100EA00037480078012832D1052042490870FFF701
:100EB000E6FF012803D0FFF7DFFF012803D103205D
:100EC0003C4988740AE0FFF7D4FF012803D10520CC
:100ED0003849887402E0002036498874002001F007
:100EE00093FB012803D103203249887102E00520D9
:100EF00030498871012001F087FB012803D10320CC
:100F00002C49087310E005202A4908730CE01C489E
:100F10000078022808D10520264908700020887131
:100F2000087388740876887710BD10B5164808389D
:100F3000006800F0200088B100201F4908701F4899
:100F40000078052843DD0748007D40F02000054972
:100F500008750846807D012835D131E03DE000006C
:100F6000C0220020E823002033180020321800207F
:100F700035180020341800203718002036180020BB
:100F80009221002038180020180402403A1800204E
:100F90003B1800203E1800203C1800204143433AF3
:100FA0004F6666210A000000100802404018002029
:100FB00041180020C077002042180020431800206C
:100FC000F7A008F0A3FA0020FA49887521E0FA4852
:100FD0000078401CF84908701BE00020F6490870B2
:100FE000F648007814280FDDF248007D20F020003C
:100FF000F04908750846807D10B9F1A008F086FA1E
:101000000120EC49887504E0EC480078401CEB496D
:101010000870EF48006800F00800E8B90020ED49CA
:101020000870ED480078052810DDE248007D40F0AA
:101030004000E04908750846C07D012802D1E7A0BC
:1010400008F064FA0020DB49C87521E0E248007826
:10105000401CE14908701BE00020DF490870DD48B2
:10106000007814280FDDD348007D20F04000D149DE
:1010700008750846C07D10B9DCA008F047FA0120C9
:10108000CC49C87504E0D3480078401CD1490870A9
:10109000C848C07D30B9C748807D18B90020C5490F
:1010A000087602E00120C349087610BDC148407DA2
:1010B0007047C048C0897047BE4880897047BD48A6
:1010C000C07CC0F340107047BA48C07CC0F38000B9
:1010D0007047B848C07C00F001007047B548C07C3C
:1010E000C0F340007047B348807D7047B148C07D71
:1010F0007047B048407C7047AE48807C7047AD4830
:10110000C07C70470020704710B514F0F6FE04460E
:1011100004F0010040B1A748007D40F00100A5495E
:1011200008750020887107E0A248007D20F00100CA
:10113000A0490875AA20887110BD9E488068704734
:1011400010B504469B48846007F0E1FC07F0E1FB22
:1011500010BD10B500200FF082FC0446A748844261
:1011600002D007F020FC05E001200FF078FC0446D7
:101170009048846010BD10B5FFF7FBFD0446012CBC
:1011800010D18C488068401C8A4988609C4800784F
:10119000401EC0B29A49087068B93C20087007F038
:1011A000B6FC08E097480078012804D107F0AFFCAE
:1011B0000520954908709448007840B1924800781D
:1011C000401EC0B29049087008B907F0ECFB8D488A
:1011D000047010BD774948717047764908717047AF
:1011E00010B57448407968B372484079401E71491F
:1011F00048710846407928BB84A008F087F900BFF1
:101200000A2010F0EDFE00BF00BF00BF00BF00BF0E
:1012100000BFBFF34F8F00BF00BF00BF7E48006814
:1012200000F4E0607D490843001D7B49086000BF71
:1012300000BF00BFBFF34F8F00BF00BF00BF00BFA4
:1012400000BFFDE75B480079B8B15A480079401EFD
:10125000584908710846007978B971A008F056F924
:1012600000BF642010F0BCFE00BF4FF480705849EE
:101270000831088001200CF083F810BD4D48807EB5
:1012800070474C498876704710B5FFF7F7FF58B99B
:10129000FFF7F2FD012807D1FFF7F3FF64480CF0D8
:1012A0000DFC64A008F032F910BD10B5FFF73FFB4C
:1012B000FFF79CFDFFF762FD10BD10B5FFF7E2FDE3
:1012C000FFF752FCFFF78AFCFFF700FDFFF7DCFF9A
:1012D000FFF72BFE10BD09205C4908705C490870BF
:1012E00004205C4908703B205B4908705B4908702A
:1012F00000205B49087070475948007820F00100D1
:10130000401C5749087051480078002846D10846CB
:10131000007820F00400001D087009204B49087077
:101320004B48007800283AD14D48007820F008005A
:1013300008304B4908700920454908704548007835
:1013400050B94748007820F0100010304449087028
:1013500004204049087004E03E480078401E3D49A2
:1013600008703D480078B8B93D48007820F020006A
:1013700020303B4908703B203749087037480078D7
:1013800058B93748007820F04000403034490870A0
:101390003B20324908707CE06AE063E074E06DE075
:1013A000477073416E743A4E6F53686F7274210ABE
:1013B00000000000E823002043180020421800200D
:1013C000477073416E743A53686F7274210A00005B
:1013D0001004024044180020451800204770734153
:1013E0006E743A4E6F4F70656E210A0047707341FC
:1013F0006E743A4F70656E210A000000A55AAA5516
:1014000046180020471800204818002043544C3A42
:101410005265736574210A000CED00E00000FA05C6
:1014200043544C3A506F7765724F6666210A00004C
:10143000E0210020436F72726563745274634279D5
:10144000496E74477073210A000000002C180020B8
:101450002E1800202D1800202F18002030180020F2
:101460003118002057480078401E5649087010E097
:1014700055480078401E544908700AE053480078E7
:10148000401E5249087004E051480078401E5049FF
:101490000870704700B50020FFF7F3FE00BD7047ED
:1014A000704710B5FFF709FFFFF79AFE01F096F8B5
:1014B0000CF0F8FB10BD10B500BF4AF6AA20454954
:1014C000086000BFFFF7F1FE01F082F810BD10B513
:1014D0000CF0A1FC0CF0E0FB10BD10B53E4800780C
:1014E00000F0010038B13C48007820F001003A4992
:1014F0000870FFF7ECFF38480078C0F3800038B17F
:101500003548007820F0040033490870FFF7D3FF16
:1015100031480078C0F3C00038B12F48007820F07F
:1015200008002D490870FFF7BCFF2B480078C0F376
:10153000001038B12848007820F0100026490870C3
:10154000FFF7AEFF24480078C0F3401038B12248BE
:10155000007820F0200020490870FFF7A0FF1E4807
:101560000078C0F3801038B11B48007820F04000AC
:1015700019490870FFF78EFF10BD06E00A2010F031
:101580002FFDFFF7B9FEFFF7A8FFF7E710B5FFF74C
:10159000D3FAFFF7A0FE0020FFF773FE00200F49EB
:1015A000087048708870C87048748874C87410BD1A
:1015B00010B50B4A0021AFF23D0010F012FA0949B4
:1015C000086010BD301800202F1800202E180020B1
:1015D0002C1800200030004031180020E8230020A3
:1015E000986801082818002010B50246002024E061
:1015F00000EB4003FB4C54F82330934208D100EB3E
:10160000400304EB83030C685C604C689C6010BD75
:1016100000EB4003F34C54F8233063B900EB400374
:1016200044F8232000EB400304EB83030C685C6068
:101630004C689C60EBE7431CD8B25A28D8DB00BF4B
:10164000E5E71CB5012108460EF038F9C4200090EA
:1016500001208DF8040000208DF8060001208DF88F
:1016600007008DF805006946DF4814F041FC0420AE
:10167000DD4948831CBD00B58BB00420DA4948839E
:10168000DA4800F06DFDD94800F06AFDD8480068DE
:1016900030B900221146012011F020F8D449086029
:1016A000D448006830B900221146012011F016F824
:1016B000D0490860012108460EF000F901214806D2
:1016C0000EF02FF909220C21C74814F01BFC092247
:1016D0000B21C54814F016FC4FF4C05009900220AD
:1016E0008DF828008DF8290000208DF82A000120AF
:1016F0008DF82B0009A9BC4814F0FAFBBE480CF089
:1017000071FF06A80DF092F800208DF81E00012050
:101710008DF81F0000208DF820008DF821008DF835
:1017200022008DF823008DF81A008DF81B0005208B
:101730008DF81C0000208DF81D000F20ADF818005A
:1017400006A9AD480CF067FF14208DF804000120B5
:101750008DF8050000208DF8060001208DF80700A7
:1017600001A80EF042FC15208DF8040001208DF830
:10177000050000208DF8060001208DF8070001A863
:101780000EF033FC012202219B480DF0CDFA01221C
:10179000102199480DF0C8FA012102200EF08EF8B0
:1017A000012188060EF0BDF809220D21934814F09E
:1017B000A9FB09220C21914814F0A4FB4FF44050DE
:1017C000099002208DF828008DF8290000208DF85E
:1017D0002A0001208DF82B0009A9884814F088FB05
:1017E00087480CF0FFFE06A80DF020F800208DF8C9
:1017F0001E0001208DF81F0000208DF820008DF8BC
:1018000021008DF822008DF823008DF81A008DF844
:101810001B0005208DF81C0000208DF81D000F20F6
:10182000ADF8180006A976480CF0F5FE40208DF8BA
:10183000040001208DF805008DF806008DF80700E2
:1018400001A80EF0D2FB41208DF8040001208DF894
:1018500005008DF806008DF8070001A80EF0C5FB05
:101860000122022166480DF05FFA0122102164482E
:101870000DF05AFA00208DF812008DF813000120A7
:101880008DF814000020ADF80800ADF80A00ADF89E
:101890000C00ADF80E00ADF8100001208DF8150019
:1018A00002A80CF042FF0E208DF8120000208DF8E7
:1018B000130001208DF814000020ADF80800ADF8E9
:1018C0000A00ADF80C00ADF80E00ADF810000120D4
:1018D0008DF8150002A80CF028FF04204249088367
:1018E0000BB000BDF0B585B006460D4617461C4648
:1018F000012E04D1019504208DF8080003E0009525
:1019000000208DF8080000208DF809008DF80A707D
:1019100020788DF80B0061788DF80C10A1788DF887
:101920000D10E1788DF80E1021798DF80F10617986
:101930008DF81010A1798DF81110E1798DF8121041
:1019400069462D480CF0E0FF05B0F0BD70B50446C7
:1019500021462748006810F024FF05460DB90120F4
:1019600070BD0020FCE7F0B585B006460D46174671
:101970001C46012E04D1019504208DF8080003E0D7
:10198000009500208DF8080000208DF809008DF8E2
:101990000A7020788DF80B0061788DF80C10A17812
:1019A0008DF80D10E1788DF80E1021798DF80F105B
:1019B00061798DF81010A1798DF81110E1798DF809
:1019C000121069460E480CF09FFF05B0F0BD70B5CF
:1019D000044621460748006810F0E3FE05468DB92D
:1019E000012070BD8025002000000240B8290020A1
:1019F0004C180020501800200064004000040240F1
:101A0000006800400020ECE770B50646307A0428F4
:101A100001D1756800E03568002415E0A04850F851
:101A20002400A8420ED106F10B012846FFF7DCFD89
:101A300031469C4800F098FB9B48006810F0F4FE8B
:101A4000012070BD601CC4B2012CE7DB00240EE055
:101A5000964800EB84000068A84206D106F10B010D
:101A60002846FFF7C1FD0320EBE7601CC4B28F4896
:101A7000A43890F80C02A042EADC002410E08C4864
:101A800050F82400A84209D13146864800F06CFB8A
:101A90008548006810F0C8FE0220D2E7601CC4B27E
:101AA000102CECD3002410E0824850F82400A84207
:101AB00009D131467B4800F057FB7B48006810F0A5
:101AC000B3FE0220BDE7601CC4B2202CECD300247E
:101AD00010E0794850F82400A84209D131467148F5
:101AE00000F042FB7048006810F09EFE0220A8E75C
:101AF000601CC4B2222CECD3002410E06F4850F8D4
:101B00002400A84209D13146664800F02DFB664802
:101B1000006810F089FE022093E7601CC4B2142C08
:101B2000ECD300208DE700B585B0022164480DF0AC
:101B300063F988B16A46002161480CF0DAFF02219E
:101B40005F480DF0F4F96846FFF75EFF01205D493C
:101B5000087148710A20C88005B000BD00B585B085
:101B6000102157480DF048F988B16A4601215448C0
:101B70000CF0BFFF102152480DF0D9F96846FFF76D
:101B800043FF01204F49087148710A20C88005B001
:101B900000BD70B50546287A042801D16E6800E0C2
:101BA0002E68002415E0484850F82400B0420ED1B9
:101BB00005F10B013046FFF717FD2946434800F0B9
:101BC000D3FA4348006810F02FFE012070BD601C5E
:101BD000C4B2022CE7DB00240EE0344800EB8400A2
:101BE0000068B04206D105F10B013046FFF7FCFC5E
:101BF0000320EBE7601CC4B22C48A43890F80C0218
:101C0000A042EADC002410E0324850F82400B04240
:101C100009D129462D4800F0A7FA2D48006810F098
:101C200003FE0220D2E7601CC4B2592CECD3002082
:101C3000CCE700B585B0022127480DF0DDF888B16A
:101C40006A46002124480CF054FF022122480DF07E
:101C50006EF96846FFF79DFF01201A490872487225
:101C60000A20488105B000BD00B585B010211A4892
:101C70000DF0C2F888B16A46012117480CF039FF0F
:101C8000102115480DF053F96846FFF782FF012037
:101C90000C49087248720A20488105B000BD000056
:101CA00054180020B82900204C180020F41C0020F3
:101CB000581800209818002018190020A01900209A
:101CC00000640040781B0020F0190020FC2A00204E
:101CD00050180020F81900200068004010B5FFF7E8
:101CE00048F8FE49087008460078FD49097888429E
:101CF00008D0FA48007828B91E20FA490880002048
:101D0000F9490870F5480078012832D1F548008873
:101D100020B1F4480088401EF2490880F14800884C
:101D2000B8B9F2484079A0B9F048407A88B9EE488D
:101D3000007870B90120EC4908700520EC49087062
:101D40000420EC4948830020E8490871EAA007F024
:101D5000DDFBE748007860B1E5480078401EE449C3
:101D600008700846007820B9FFF785FCE5A007F069
:101D7000CDFBDB480078DA49087010BDDB48C0882D
:101D800028B1DA48C088401ED849C88002E0002047
:101D9000D6494871D548408928B1D4484089401E69
:101DA000D249488102E00020D0494872704701467C
:101DB0000878704700210170704710B502460B4645
:101DC0000BB9002010BD23F07F4300210DE002F18C
:101DD0002C0050F82100984205D11E2402F1540035
:101DE00044540020EEE7481CC1B20A29EFDB002171
:101DF00012E002F12C0050F8210058B902F12C0039
:101E000040F821301E24283044545078401C507033
:101E10000120D7E7481CC1B20A29EADB0020D1E73C
:101E200000211BE000F12C0252F82120A2B100F1A8
:101E30005402525C42B100F15402525C521ED3B2C1
:101E400000F15402535407E0002300F12C0242F841
:101E500021304278521E42704A1CD1B20A29E1DB7D
:101E6000704710B502460020002323E002F12C0445
:101E700054F82340E4B102F12C0414F8234001F893
:101E8000014B02F12C0434F82340240A01F8014BE1
:101E900002F12C0454F82340240C01F8014B02F108
:101EA0002C0454F82340240E01F8014B441CE0B2EA
:101EB0005C1CE3B20A2BD9DB08B90024547010BDB6
:101EC0000146487870472DE9F05F80460C469246FF
:101ED0000026B1468E484044002842D0B0F5803FED
:101EE00017D08C49084400287ED1A078E17800EB17
:101EF0000120217900EB0140617900EB0165681C4C
:101F000020B11DB129468448FFF757FF4FF0010962
:101F1000ABE06079CA2816D1A079FE2813D1E07908
:101F200088B96178881EC11700EB9171C1F38701F0
:101F30007A4A1170E0787A4908700120794908706E
:101F4000794908700AE06079E32807D1A079FE2872
:101F500004D1E07910B90120744908704FF00109EB
:101F600083E072480078012805D12078032802D147
:101F700000206E4908706C48007800B975E0207840
:101F80006849097888426CD167480078012868D18F
:101F90002078012810D1FF2228215F48C01C13F0AF
:101FA000A7FC5D48D4F80310C0F80310E179C171B3
:101FB00005205949887014E057488078212810DAA4
:101FC00055488178C01C0844D4F801100160B4F869
:101FD00005108180E17981714F488078C01D4E499C
:101FE00088705048007800E03EE0401C4D49087081
:101FF000084600784A490978884232DD002725E002
:102000004548C01C825D711C405C02EB00224248C6
:10201000C01CB11C405C02EB00423F48C01CF11CDC
:10202000405C02EB0065301DC6B2681C60B15DB15A
:1020300029463948FFF7C1FE8346BBF1010F02D1A3
:1020400001203549087000BF781CC7B233480078BA
:102050008742D5DB00203349087031490870324986
:1020600008704FF0010900E000BF00BF4846BDE81E
:10207000F09F10B5FE202E4948700020887088809F
:102080008880087211212A48093013F038FC00209A
:1020900027498876FF22122125481B3013F028FC9F
:1020A0000020234981F82D00FF22122120482E30E4
:1020B00013F01EFC00201E4981F84000FF2224215D
:1020C0001B48413013F014FC0020194981F86500C9
:1020D00050211748683013F012FC10BD861B0020F9
:1020E000871B0020881B00208B1B0020781B0020F2
:1020F0008A1B00200000024043616E204F6666216B
:102100000A00000043616E2052657374210A0000CA
:10211000000114E70035EDFFC02400208C1B0020D7
:102120008D1B00208E1B0020901B00208F1B002089
:102130000824002000200FE0002100EB4002F74BB4
:1021400043F8221000EB40011A4602EB8101002205
:102150004A608A60411CC8B25A28EDDB704770475C
:10216000002101704170704730B50478621CD417AB
:1021700002EB14742411A2EB0414E3B242789A42E5
:102180006FD0027802EB8205021D0C6842F82540F0
:10219000027802EB8205021D02EB85024C68546056
:1021A0000C7A027802EB8205021D02EB85021472A2
:1021B0004C7A027802EB8205021D02EB8502547212
:1021C0008C7A027802EB8205021D02EB8502947282
:1021D000CC7C027802EB8205021D02EB8502D474EE
:1021E000CC7A027802EB8205021D02EB8502D472E2
:1021F0000C7B027802EB8205021D02EB8502147350
:102200004C7B027802EB8205021D02EB85025473BF
:102210008C7B027802EB8205021D02EB850294732F
:10222000CC7B027802EB8205021D02EB8502D4739F
:102230000C7C027802EB8205021D02EB850214740D
:102240004C7C027802EB8205021D02EB850254747D
:102250008C7C027802EB8205021D02EB85029474ED
:10226000037030BD427803789A426DD0427802EB19
:102270008203021D02EB8302127A042A0AD14278F9
:1022800002EB8203021D02EB830252680A60012204
:102290004A7108E0427802EB8203021D52F82320C3
:1022A0000A6000224A71427802EB8203021D02EBAF
:1022B0008302927A0A71427802EB8203021D02EBDA
:1022C0008302D27A8A71427802EB8203021D02EB0A
:1022D0008302137BCB71427802EB8203021D02EB77
:1022E0008302537B0B72427802EB8203021D02EBE6
:1022F0008302937B4B72427802EB8203021D02EB56
:102300008302D37B8B72427802EB8203021D02EBC5
:102310008302137CCB72427802EB8203021D02EB34
:102320008302537C0B73427802EB8203021D02EBA3
:102330008302937C4B7343785A1CD31702EB1373BD
:102340001B11A2EB0313437070470146087810304D
:102350004B78C21AD01702EB10700011A2EB0010DC
:10236000C0B270477CB5044600252279A11D2068C3
:1023700002F02CFE0546012D00D17CBD2279A11D65
:10238000206804F0AFFA0546012D00D1F5E7227967
:10239000A11D206803F05EFA0546012D00D1ECE78F
:1023A0002279A11D206805F0AEF90546012D00D166
:1023B000E3E76FF060412068401A35D1A0793128F9
:1023C00031D1E07961282ED1207A32282BD1607A60
:1023D000622828D1A07A332825D1E07A632822D137
:1023E000207B34281FD1607B64281CD165208DF8A8
:1023F000000035208DF8010066208DF8020036209F
:102400008DF8030067208DF8040037208DF8050053
:1024100068208DF8060038208DF807006B460822EA
:102420000120FFF75FFA00E000BF00BF00BFA4E794
:102430001FB52AE04FF4FA60FFF788FA012824D18B
:102440001EE000BF0022022135480CF06DFC002286
:10245000102133480CF068FC00BF69463148FFF793
:1024600001FF00BF012202212D480CF05DFC01227A
:1024700010212B480CF058FC00BF6846FFF772FF94
:102480002848FFF762FF0028DBDCD3E77CB5044671
:1024900000252279A11D206800F0F1F80546012DE4
:1024A00000D17CBD204920680844B0BBA079312808
:1024B00032D1E07961282FD1207A32282CD1607A6C
:1024C000622829D1A07A332826D1E07A632823D143
:1024D000207B342820D1607B64281DD165208DF8B5
:1024E000000035208DF8010066208DF802003620AE
:1024F0008DF8030067208DF8040037208DF8050063
:1025000068208DF8060038208DF807006B460822F9
:1025100049420120FFF727FA09E007E08025002063
:1025200000640040B8290020020000E000BF00BFA6
:1025300000BFB6E71FB52AE04FF4FA60FFF747FA8D
:10254000012824D11EE000BF002202213E480CF0E9
:10255000EBFB002210213C480CF0E6FB00BF694673
:102560003A48FFF77FFE00BF0122022136480CF0F7
:10257000DBFB0122102134480CF0D6FB00BF68467B
:10258000FFF784FF3148FFF7E0FE0028DBDCD3E7EC
:1025900010B52F48FFF7E4FD2D48FFF7E1FD06F0E9
:1025A000E4F8FFF74EF8FFF766F810BD10B5294ABA
:1025B0000021AFF283100FF014FA27490860274A70
:1025C0000021AFF28F000FF00CFA2549086010BD12
:1025D00010B5FFF7D3FB05F023FF10BD10B5FFF7D3
:1025E0007DFB2048FFF71CFC1F48FFF719FC10BDBE
:1025F000014611B91D4800797047012902D11B48D5
:10260000007AF9E70020F7E7014611B91748407949
:102610007047012902D11548407AF9E70020F7E711
:10262000134890F88B02012803D01248007A012841
:1026300001D1012070470020FCE70D4890F8780296
:1026400070470A484088704700680040FC2A002014
:10265000B8290020BC6801085C1B0020E068010864
:10266000601B0020C024002020250020781B0020B3
:10267000501C0020082400201E218173704778B56B
:1026800004460B4616460025B4F55B7F73D073DC19
:1026900040F28321A4EB01008C426ED053DC40F267
:1026A000C311A4EB01008C4201F0AF852FDC40F296
:1026B0009311A4EB01008C4201F0E58616DC40F298
:1026C0008511A4EB01008C4269D008DCA4F28110D2
:1026D000002801F0B581022842F0748463E10328E8
:1026E00001F0A4830C28F7D101F0E5B91E2801F010
:1026F000698305DC022853D01028EDD101F0A6BC77
:102700001F2801F071832028E6D101F07EBB30281C
:102710007ED00DDC12287CD004DC02287AD00E2872
:10272000DAD150E1202876D02628D5D102F0C8B8D9
:10273000402871D0A02870D0A12801F04786B02889
:10274000CAD102F0CCB9C02801F0B08322DC202825
:1027500001F0CF8412DC0E2801F0288205DC02286B
:1027600074D00528B8D101F071BB102802F0888020
:102770001228B1D14EE1FCE327E03FE1302802F01E
:10278000F580402802F03A80602873D07028A3D1E9
:1027900002F0C5B8D738122882F0148401E06BE14A
:1027A000E9E0DFE810F0BC052406310641065406D6
:1027B0008E060F140F140F1406093B110F140F147B
:1027C0000F140F140F14A406B10640F27341601ADF
:1027D0008C4202F08B8358DC40F2B331A4EB010051
:1027E0008C4202F0E18032DC40F29131A4EB010036
:1027F0008C4201F09D821DDC40F28231A4EB01008D
:102800008C4201F0B3820FDCA4F27330002805E0A3
:10281000F2E322E1A6E124E316E3F3E202F0D08141
:102820000E288DD101F0E0B9032876D0062887D193
:1028300001F01CBB022801F0BD84032802F03080A7
:1028400004286BD010288DD101F013B977E040280F
:1028500073D010DC302871D006DC102802F04E80D6
:10286000202886D101F0E7BC312802F0E880322828
:102870008DD16AE118E342287BD0902801F0F184E1
:10288000B02877D0B128CCD1F6E3802801F0A4831A
:1028900020DC4E2801F0858211DC202801F016830F
:1028A00006DC0F2801F064811528BAD101F0EEBAD8
:1028B000302801F065834028B3D101F043BB502894
:1028C00001F02283602801F0798370287AD0712882
:1028D000A7D1FCE3FE2802F0358310DCEF2802F0DC
:1028E000218306DC912802F0E582EE2899D101F0DF
:1028F00082B8F12801F08783F22892D117E0FF28EF
:1029000002F03083B0F5807F02F03C83A0F201102A
:1029100028B1012885D102F045BBEBE0F9E0187839
:10292000FD4908715978FC48417102F04CBB187898
:10293000FA49087058784870F7E7F9E3F9E25878EF
:10294000F6498870D878C8709878087118788871B6
:102950001879C872587908739879C875D879087643
:10296000EF48006820F00100401CED490860012597
:10297000DBE7DDE021E11879E849C8715879087290
:1029800098784872D8788872987981F82700D87931
:1029900081F82800E248006820F00100401CE0496E
:1029A00008600125C1E7DD480E30196801605968EB
:1029B0004160DB48006820F00100401CD8490860F5
:1029C0000125B2E792E2187800909DF8000000F02F
:1029D000010040B1D348006820F4806000F58060B9
:1029E000D049086005E0CF48006820F48060CD49F8
:1029F0000860CD48FFF740FE012596E71878C749E3
:102A00008875C748006820F00100401CC449086070
:102A100001258AE71878C1494876587888769878E9
:102A2000C876D87808771879487758798877987968
:102A300081F86B00D979B94880F86C10B848006803
:102A400020F00100401CB64908600846006820F0EC
:102A50000400001D0860012567E7B0481F301968B1
:102A6000016059684160AE48006820F00100401CD8
:102A7000AB490860012558E71879597900EB012026
:102A80000A2190FBF1F082B2642A07DDA5480068B4
:102A900020F00100401CA349086005E0A14800683F
:102AA00020F001009F4908609F48A038FFF7E4FD2F
:102AB00018789A4981F82900587881F82A0098787E
:102AC00081F82B00D87881F82C00187981F82D0036
:102AD000587981F82E00987981F82F00D87981F8FB
:102AE00030008F48006820F00100401C8C490860CD
:102AF00001251AE789483130196801605968416039
:102B00008748006820F00100401C854908600125C5
:102B10000BE7824839301968016059684160804884
:102B2000006820F00100401C7D4908600125FCE69A
:102B30007A481968C0F841107948006820F001000F
:102B4000401C774908600125EFE674481968C0F811
:102B500045107348006820F00100401C704908606F
:102B60000125E2E6187900F0010040B16B4890F8C9
:102B7000490040F00100694981F8490007E06748D1
:102B800090F8490020F00100644981F84900197863
:102B9000624880F86D10597880F86E1060480068BF
:102BA00020F00100401C5E4908600846006820F0E3
:102BB0000400001D08600125B7E6987800909DF894
:102BC000000000F0010038B15648006820F04000D5
:102BD00040305449086005E05248006820F0400049
:102BE0005049086050484038FFF746FD9DF8000006
:102BF000C0F3400040B14B48006820F4807000F5FD
:102C000080704849086005E04648006820F48070FC
:102C10004449086044482038FFF72EFD9DF8000025
:102C2000C0F3800038B13F48006820F08000803059
:102C30003C49086005E03B48006820F080003949C5
:102C4000086039483038FFF717FD9DF80000C0F3E1
:102C5000C00040B13348006820F4007000F50070F7
:102C60003049086005E02F48006820F400702D49C5
:102C700008602D481038FFF7FFFC9DF80000C0F3F6
:102C8000001038B12748006820F020002030254986
:102C9000086005E02348006820F020002149086012
:102CA00021485038FFF7E8FC987800F0100040B158
:102CB0001A4890F8490040F00200184981F849008C
:102CC00007E0164890F8490020F00200134981F807
:102CD0004900987800F0010040B1104890F8490090
:102CE00040F004000D4981F8490007E00B4890F8D6
:102CF000490020F00400094981F84900987800F063
:102D0000040098B1054890F8490040F008000349D4
:102D100081F8490012E00000402C0020592C0020CE
:102D2000981B0020BC1B0020CC310020FD4890F8EF
:102D3000490020F00800FB4981F84900987800F02C
:102D4000080040B1F74890F8490040F01000F549FC
:102D500081F8490007E0F34890F8490020F010009E
:102D6000F04981F84900987800F0020040B1ED4840
:102D700090F8490040F02000EA4981F8490007E056
:102D8000E84890F8490020F02000E64981F8490021
:102D9000D87900F0800040B1E24890F8110140F08D
:102DA0000101E04880F8111107E0DE4890F81101B8
:102DB00020F00101DB4880F81111D87900F04000C3
:102DC00040B1D84890F8110140F00201D54880F890
:102DD000111107E0D34890F8110120F00201D14809
:102DE00080F81111D048006820F008000830CE4962
:102DF0000860CE48006820F00100401CCB49086004
:102E0000012592E51878C74981F84A00587881F879
:102E10004B00987881F84C00D87881F84D001879EB
:102E200081F84E00587981F84F00987981F8500068
:102E3000D87981F85100BD48006820F00100401C9D
:102E4000BA490860012570E55878B64981F8520002
:102E5000B648006820F00100401CB4490860012514
:102E600063E51878AF4981F853005978AD4880F888
:102E70005410997880F85B10D97880F85C10197933
:102E800080F85710597980F85810997980F85F10B8
:102E9000D97980F86010A548006820F00200801CF5
:102EA000A2490860012540E519789E4880F8551030
:102EB000597880F85610997880F85D10D97880F8A4
:102EC0005E10197980F86710597980F8681099793F
:102ED00080F86910D97980F86A109448006820F069
:102EE0000200801C9149086001251EE599788D48F3
:102EF00080F85910D97880F85A10197980F8611043
:102F0000597980F86210997980F80111D97980F89F
:102F100002118648006820F00200801C8349086086
:102F20008148006820F00200801C7F49086001256C
:102F3000FBE4587900F0010040B17A4890F8630052
:102F400040F00101774880F8631007E0754890F879
:102F5000630020F00101734880F86310587900F095
:102F6000020050B16F4890F8630040F002016D48D4
:102F700000E0E6E280F8631007E06A4890F863003A
:102F800020F00201674880F86310587900F01000C3
:102F900040B1644890F8630040F00401614880F853
:102FA000631007E05F4890F8630020F004015D487B
:102FB00080F86310987900F0020040B1594890F809
:102FC000630040F02001574880F8631007E055483F
:102FD00090F8630020F02001524880F8631098793F
:102FE00000F0010048B14F4890F8630040F0400104
:102FF0004C4880F8631008E039E14A4890F86300D3
:1030000020F04001474880F86310987900F01000E4
:1030100040B1444890F8630040F08001414880F896
:10302000631007E03F4890F8630020F080013D48BE
:1030300080F86310587900F0040040B1394890F8E6
:10304000640040F00101374880F8641007E035481B
:1030500090F8640020F00101324880F8641058793B
:1030600000F0080048B12F4890F8640040F00201D9
:103070002C4880F8641008E070E22A4890F8640058
:1030800020F00201274880F86410587900F02000F1
:1030900040B1244890F8640040F00401214880F8D1
:1030A000641007E01F4890F8640020F004011D48F8
:1030B00080F86410987900F0080048B1194890F839
:1030C000640040F02001174880F8641008E0B6E37F
:1030D000144890F8640020F02001124880F8641031
:1030E000987900F0040040B10E4890F8640040F078
:1030F00040010C4880F8641007E00A4890F864002A
:1031000020F04001074880F86410987900F0200012
:1031100078B1044890F8640040F08001014880F8DC
:1031200064100EE0592C00209C1B0020981B0020EE
:1031300079E0FE4890F8640020F08001FB4880F8B8
:1031400064101978F94880F86510597880F866108D
:10315000D87900F0040040B1F44890F8030140F041
:103160000101F24880F8031107E0F04890F80301EC
:1031700020F00101ED4880F80311D87900F0080033
:1031800040B1EA4890F8030140F00201E74880F8B6
:10319000031107E0E54890F8030120F00201E3483D
:1031A00080F80311D87900F0100040B1DF4890F8A2
:1031B000030140F00401DD4880F8031107E0DB481B
:1031C00090F8030120F00401D84880F80311D87961
:1031D00000F0200040B1D54890F8030140F008010C
:1031E000D24880F8031107E0D04890F8030120F09E
:1031F0000801CE4880F803119978CC4880F8FF1078
:10320000D97880F80011CA48006820F00200801CBC
:10321000C7490860C748006820F00200801CC54903
:103220000860012518E41979C04880F86F105979B1
:1032300080F87010197980F87110597980F872103F
:10324000997980F85711D97980F85811B8480068F1
:1032500020F00400001DB6490860B648006820F45C
:10326000804000F58040B3490860012541E41878AA
:1032700000F0080040B1AD4890F8730040F0010143
:10328000AA4880F8731007E0A84890F8730020F06F
:103290000101A64880F87310987800F0010040B151
:1032A000A24890F8590140F00201A04880F8591155
:1032B00007E09E4890F8590120F002019B4880F8F1
:1032C0005911987800F0020040B1984890F85901DF
:1032D00040F00401954880F8591107E0934890F8B0
:1032E000590120F00401914880F8591198798F49CB
:1032F00081F85501D9798D4880F856118C480068BD
:1033000020F00400001D8A4908608A48006820F403
:10331000804000F5804087490860012507E4D8789F
:10332000824981F874001979804880F8751099787D
:1033300080F87610187800F0010040B17B4890F8D2
:103340008A0040F00101794880F88A1007E0774848
:1033500090F88A0020F00101744880F88A101878EB
:1033600000F0020040B1714890F88A0040F002017C
:103370006E4880F88A1007E06C4890F88A0020F0C8
:1033800002016A4880F88A10187800F0040040B101
:10339000664890F88A0040F00401644880F88A107A
:1033A00007E0624890F88A0020F004015F4880F846
:1033B0008A10187800F0080040B15C4890F88A0044
:1033C00040F00801594880F88A1007E0574890F803
:1033D0008A0020F00801554880F88A105448006897
:1033E00020F02000203052490860012509E51978B5
:1033F0004E4880F877104E48006820F020002030BA
:103400004B4908600125FCE45978484880F8781059
:10341000997880F879104648006820F02000203024
:10342000434908600125ECE41978404880F87A1097
:10343000997880F87B10D97880F87C103C48006837
:1034400020F0200020303A4908600125D9E418789E
:1034500000F0010040B1354890F8830040F00101D0
:10346000324880F8831007E0304890F8830020F05D
:1034700001012E4880F88310187800F0020040B156
:103480002A4890F8830040F00201284880F8831011
:1034900007E0264890F8830020F00201234880F8D6
:1034A00083109978214880F87D10D97880F87E10B3
:1034B0001F48006820F0200020301D4908600125C9
:1034C0009FE41978194880F87F10597880F88010A7
:1034D000997880F88110D97880F8821014480068B3
:1034E00020F02000203012490860012589E4597835
:1034F0000E4880F884100E48006820F0200020302C
:103500000B49086001257CE41978084880F885108B
:10351000597880F88610197980F88710597980F8E1
:1035200088100348006820F0200005E0592C002096
:10353000981B00209C1B00202030FC4908600125BE
:103540005FE45978FA4880F88910F848006820F05C
:1035500020002030F5490860012552E4D878009019
:103560009DF8000000F0010038B1F248006820F03A
:1035700040004030EF49086005E0EE48006820F068
:103580004000EC4908609DF80000C0F3400038B1ED
:10359000E848006820F080008030E649086005E0D7
:1035A000E448006820F08000E2490860E248FFF744
:1035B00063F8E1481030FFF75FF89DF80000C0F3B2
:1035C000800040B1DB48006820F4806000F5806036
:1035D000D849086005E0D748006820F48060D549E4
:1035E00008609DF80000C0F3C00040B1D1480068F9
:1035F00020F4006000F50060CE49086005E0CD4889
:10360000006820F40060CB490860CB484030FFF7E9
:1036100033F8C9485030FFF72FF89DF80000C0F389
:10362000001038B1C348006820F010001030C149C4
:10363000086005E0BF48006820F01000BD49086040
:103640009DF80000C0F3401038B1BA48006820F07F
:1036500020002030B749086005E0B648006820F037
:103660002000B4490860B4482038FFF705F8B24894
:103670001038FFF701F89DF80000C0F3801040B14A
:10368000AC48006820F4807000F58070A94908609B
:1036900005E0A848006820F48070A64908609DF8FD
:1036A0000000C00940B1A348006820F4007000F594
:1036B0000070A049086005E09E48006820F4007092
:1036C0009C4908609C482030FEF7D6FF9A4830306D
:1036D000FEF7D2FF587800F0010040B1944890F80E
:1036E0008B0040F00100924981F88B0007E0904880
:1036F00090F88B0020F001008D4981F88B005878FC
:1037000000F0020040B18A4890F88B0040F02000A1
:10371000874981F88B0007E0854890F88B0020F0FE
:103720002000834981F88B00587800F0040040B1F4
:103730007F4890F88B0040F040007D4981F88B0075
:1037400007E07B4890F88B0020F04000784981F832
:103750008B00587800F0080040B1754890F88B0055
:1037600040F08000724981F88B0007E0704890F8C3
:103770008B0020F080006E4981F88B00587800F0B3
:10378000100040B16A4890F8900040F0010168488C
:1037900080F8901007E0664890F8900020F0010152
:1037A000634880F89010587800F0200040B16048DD
:1037B00090F8900040F020015D4880F8901007E0FC
:1037C0005B4890F8900020F02001594880F8901054
:1037D000587800F0400040B1554890F8900040F013
:1037E0004001534880F8901007E0514890F890004D
:1037F00020F040014E4880F89010587800F080008A
:1038000040B14B4890F8900040F08001484880F863
:10381000901007E0464890F8900020F0800144485E
:1038200080F890109978424880F810113F4800685D
:1038300020F0400040303D4908600125F2E418784E
:1038400000F0100040B13A4890F88B0040F00200C0
:10385000374981F88B0007E0354890F88B0020F05D
:103860000200334981F88B00187800F0200040B145
:103870002F4890F88B0040F004002D4981F88B0010
:1038800007E02B4890F88B0020F00400284981F8CD
:103890008B00187800F0400040B1254890F88B006C
:1038A00040F00800224981F88B0007E0204890F89A
:1038B0008B0020F008001E4981F88B00187800F07A
:1038C000800040B11A4890F88B0040F01000184971
:1038D00081F88B0007E0164890F88B0020F010006C
:1038E000134981F88B00187800F0010040B11048AE
:1038F00090F8900040F002010D4880F8901007E029
:103900000B4890F8900020F00201094880F89010D0
:10391000187800F0020088B1054890F8900040F057
:103920000401034880F8901010E00000981B00206C
:10393000592C0020B81B0020CC300020F84890F80B
:10394000900020F00401F64880F89010187800F0FC
:10395000040040B1F24890F8900040F00801F048AF
:1039600080F8901007E0EE4890F8900020F00801F1
:10397000EB4880F89010187800F0080040B1E84853
:1039800090F8900040F01001E54880F8901007E0B2
:10399000E34890F8900020F01001E14880F8901082
:1039A000E048006820F040004030DE490860012512
:1039B00038E41979DA4880F88C10597980F88D103C
:1039C000997980F88E10D97980F88F10197880F85D
:1039D0009110597880F89210997880F89310D978DE
:1039E00080F89410CF48006820F040004030CD4966
:1039F0000860012516E41878C94981F895005978BE
:103A0000C74880F89610997880F89710D97880F890
:103A100098101879C44988715879C87198790872D2
:103A2000C248006820F00100401CC0490860BD4841
:103A3000006820F080008030BA490860012515E454
:103A40005978B74880F89910D97880F89A10997801
:103A500080F89B10197980F8A510597980F8A81082
:103A6000B048006820F080008030AE490860012531
:103A700054E41978AA4880F89D10997980F89E102E
:103A8000197980F89F10597980F8A010997880F8FA
:103A9000A110D97880F8A210597880F8A310D979AC
:103AA00080F8A4109F48006820F0800080309D4975
:103AB0000860012532E4187800F0010040B1984810
:103AC00090F8A60040F00201954880F8A61007E0A3
:103AD000934890F8A60020F00201914880F8A610C3
:103AE000187800F0020040B18D4890F8A60040F030
:103AF00004018B4880F8A61007E0894890F8A600DA
:103B000020F00401864880F8A610187800F0100014
:103B100040B1834890F8A60040F00801804880F842
:103B2000A61007E07E4890F8A60020F008017C4827
:103B300080F8A610187800F0080040B1784890F896
:103B4000A60040F01001764880F8A61007E07448FF
:103B500090F8A60020F01001714880F8A610714876
:103B6000006820F0800080306E49086001253DE447
:103B7000987800F0010040B1694890F8A60040F044
:103B80000101674880F8A61007E0654890F8A60094
:103B900020F00101624880F8A6106248006820F019
:103BA000800080305F49086001251FE4187800F02C
:103BB000010040B15A4890F8A60040F02001584852
:103BC00080F8A61007E0564890F8A60020F02001E3
:103BD000534880F8A6105348006820F080008030D9
:103BE0005049086001250EE4187800F0010040B14A
:103BF0004B4890F8A70040F00801494880F8A7100A
:103C000007E0474890F8A70020F00801444880F8F2
:103C1000A710187800F0020040B1414890F8A700C2
:103C200040F010013E4880F8A71007E03C4890F8AB
:103C3000A70020F010013A4880F8A710187800F08B
:103C4000040040B1364890F8A70040F02001344805
:103C500080F8A71007E0324890F8A70020F0200174
:103C60002F4880F8A710D87800F0010040B12C4808
:103C700090F8A60040F04001294880F8A61007E01F
:103C8000274890F8A60020F04001254880F8A610AB
:103C9000D87800F0020040B1214890F8A60040F02A
:103CA00080011F4880F8A61007E01D4890F8A60084
:103CB00020F080011A4880F8A610D87800F004009F
:103CC00040B1174890F8A70040F00101144880F86F
:103CD000A71007E0124890F8A70020F00101104853
:103CE00080F8A710D87800F0080040B10C4890F890
:103CF000A70040F002010A4880F8A71007E0084832
:103D000090F8A70020F00201054880F8A7100548A8
:103D1000006820F0800080300249086001250FE42F
:103D2000592C0020981B0020DE2F0020B01B002003
:103D3000187800F0010040B1FE4890F8A70040F06C
:103D40000401FC4880F8A71007E0FA4890F8A700A3
:103D500020F00401F74880F8A710F748006820F029
:103D600080008030F4490860012567E5F148A930FA
:103D70001968016059684160D878EE4981F8FE0001
:103D8000ED48006820F4807000F58070EA49086012
:103D9000EA48006820F00200801CE849086001251C
:103DA0004CE51978E34880F8B110597880F8B210E2
:103DB000E148006820F4807000F58070DE490860FA
:103DC00001253BE51878DB4981F8B3005978D948DB
:103DD00080F8B410D848006820F4007000F5007036
:103DE000D5490860012529E51978D24880F8B51031
:103DF000597880F8B610D048006820F4007000F5BB
:103E00000070CD490860012518E51978C94880F887
:103E1000B710597880F8B810C748006820F40070CF
:103E200000F50070C4490860012507E5C148B930B4
:103E30001968016059684160BF48006820F48060DB
:103E400000F58060BC4908600125F7E4B948B93045
:103E5000196881605968C160B748006820F48060C3
:103E600000F58060B44908600125E7E4B148B93045
:103E70001968016159684161AF48006820F48060A9
:103E800000F58060AC4908600125D7E4A948B93045
:103E9000196881615968C161A748006820F4806091
:103EA00000F58060A44908600125C7E4A148D93025
:103EB00019680160596841609F48006820F40060FB
:103EC00000F500609C4908600125B7E49948E1309D
:103ED00019680160998881809979E13880F8081122
:103EE000D97980F809119448006820F4805000F5D1
:103EF0008050914908609148006820F00400001D3E
:103F00008E490860012599E48A48E7301968016004
:103F1000596841609979E73880F80A11D97980F8B1
:103F20000B118548006820F4005000F500508249CC
:103F300008608248006820F00400001D7F49086086
:103F400001257BE418787B4981F8EF0019797948DD
:103F500080F8F010597880F8F110997880F8F21014
:103F6000597980F8F310D97880F8F4107248006815
:103F700020F4804000F580406F49086001255DE431
:103F80006C48F53019680160197901715979F53873
:103F900080F80C11997980F80D116748006820F4B9
:103FA000004000F50040644908606448006820F063
:103FB0000400001D6149086001253FE45D48D3F815
:103FC0000310C0F8FA105D48006820F00100401CA2
:103FD0005A490860012531E41878564981F80401EE
:103FE0005978544880F80511997880F80611D978E5
:103FF00080F807115148006820F00400001D4F4967
:10400000086001251AE418784A4981F80E015978A8
:10401000484880F80F11197980F82A11597980F8E9
:104020002B11997980F82E11D97980F82F114348F6
:10403000006820F008000830404908600846006821
:1040400020F02000203008600125B1E418783949BB
:1040500081F812015978374880F81311997880F85F
:104060001411D97880F81511197880F82011597831
:1040700080F82111997880F82211D97880F82311DD
:1040800018782C4981F8440159782A4880F845115C
:10409000997880F84611D97880F847111879254920
:1040A00081F84A015979234880F84B11997980F8B1
:1040B0004C11D97980F84D112048006820F010008B
:1040C00010301E4908600846006820F020002030AB
:1040D00008600846006820F4006000F50060086091
:1040E0000846006820F4805000F5805008600125E3
:1040F0005EE419780F4880F81611597880F8171186
:10410000197880F82811597880F82911197880F8E1
:104110004811597880F84911987900F0010078B178
:10412000044890F84E0140F00201024880F84E1118
:104130000EE00000592C0020981B00209C1B002042
:10414000FE4890F84E0120F00201FC4880F84E1124
:10415000987900F0020040B1F84890F84E0140F024
:104160000401F64880F84E1107E0F44890F84E013B
:1041700020F00401F14880F84E11F148006820F069
:1041800010001030EE4908600846006820F020005A
:10419000203008600846006820F4006000F50060E8
:1041A00008600846006820F4805000F580500860E0
:1041B00001251FE41878E14981F818015978DF4892
:1041C00080F81911997880F81A11D97880F81B11A4
:1041D000197980F82C11597980F82D119879D749DF
:1041E00081F83201D979D54880F83311D448006874
:1041F00020F020002030D24908600846006820F0F6
:10420000800080300860012519E41978CB4880F8D7
:104210001C11597880F81D11997880F81E11D978F1
:1042200080F81F11C648006820F020002030C449E3
:10423000086001251CE41978C04880F824115978D9
:1042400080F82511997880F82611D97880F82711FF
:10425000BB48006820F020002030B94908600125E3
:1042600006E4187800909DF80000C0F3C00038B153
:10427000B448006820F00200801CB249086005E0E4
:10428000B048006820F00200AE490860AE48FEF772
:10429000F3F99DF80000C0F3001038B1A948006898
:1042A00020F00400001DA749086005E0A54800684B
:1042B00020F00400A3490860A3481030FEF7DCF9A1
:1042C000587800909DF8000000F0010038B19D483A
:1042D000006820F0080008309A49086005E0994815
:1042E000006820F008009749086097482030FEF7E2
:1042F000C3F99DF80000C0F3C00038B191480068D0
:1043000020F0100010308F49086005E08D480068EB
:1043100020F010008B4908608B483030FEF7ACF974
:10432000D87800F0080040B1844890F8300140F09F
:104330000101824880F8301107E0804890F8300190
:1043400020F001017D4880F83011187800F001005C
:1043500040B17A4890F84E0140F00101774880F86A
:104360004E1107E0754890F84E0120F001017348A6
:1043700080F84E11187800F0020040B16F4890F8B4
:10438000590140F001016D4880F8591107E06B4870
:1043900090F8590120F00101684880F859116848E7
:1043A000006820F020002030654908600846006859
:1043B00020F4805000F5805008600846006820F422
:1043C000804000F58040086001250CE4187800F07A
:1043D000010040B1594890F8310140F001005749BF
:1043E00081F8310107E0554890F8310120F00100D3
:1043F000524981F83101187800F0020040B14F486D
:1044000090F8310140F002004C4981F8310107E099
:104410004A4890F8310120F00200484981F8310102
:10442000187800F0040040B1444890F8310140F0A1
:104430000800424981F8310107E0404890F8310115
:1044400020F008003D4981F83101187800F008009B
:1044500040B13A4890F8310140F01000374981F8F6
:10446000310107E0354890F8310120F01000334960
:1044700081F831013248006820F040004030304976
:10448000086001254BE4187900909DF8000000F0C9
:10449000010088B99DF80000C0F3001060B99DF8D4
:1044A0000000C0F3401038B12848006820F0010037
:1044B000401C2649086005E02448006820F00100FF
:1044C00022490860187900909DF8000000F0010072
:1044D00060B19DF80000C0F3400038B91B48006887
:1044E00020F0080008301949086005E01748006806
:1044F00020F0080015490860D87800909DF8000069
:1045000000F0010038B11148006820F00400001DDF
:104510000E49086005E00D48006820F004000B49D2
:1045200008609DF80000C0F3400088B107480068AB
:1045300020F00200801C054908600FE0592C002083
:104540009C1B0020BC1B00203C310020B81B00201D
:10455000FE48006820F00200FC490860FC48FEF7B5
:104560008BF8FB481030FEF787F8F9482030FEF74B
:1045700083F8F7483030FEF77FF8587900F02000D4
:1045800040B1F44890F8310140F00400F14981F85D
:10459000310107E0EF4890F8310120F00400ED49C7
:1045A00081F83101587900F0400040B1E94890F8B5
:1045B000310140F02000E74981F8310107E0E5488A
:1045C00090F8310120F02000E24981F8310118789B
:1045D00000F0010040B1DF4890F8380140F00100E0
:1045E000DC4981F8380107E0DA4890F8380120F01A
:1045F0000100D84981F83801187800F0020040B174
:10460000D44890F8380140F00200D24981F83801CE
:1046100007E0D04890F8380120F00200CD4981F839
:104620003801187800F0200040B1CA4890F83801ED
:1046300040F00400C74981F8380107E0C54890F808
:10464000380120F00400C34981F83801187800F0DF
:10465000100040B1BF4890F8380140F00800BD4953
:1046600081F8380107E0BB4890F8380120F00800D5
:10467000B84981F83801187900F0010040B1B54817
:1046800090F8380140F01000B24981F8380107E095
:10469000B04890F8380120F01000AE4981F8380198
:1046A000187900F0020040B1AA4890F8380140F0B3
:1046B0002000A84981F8380107E0A64890F83801A1
:1046C00020F02000A34981F83801187900F020007B
:1046D00040B1A04890F8380140F040009D4981F871
:1046E000380107E09B4890F8380120F040009949D4
:1046F00081F83801187900F0100040B1954890F821
:10470000380140F08000934981F8380107E0914872
:1047100090F8380120F080008E4981F8380118782F
:1047200000F0400040B18B4890F8390140F00101A1
:10473000884880F8391107E0864890F8390120F060
:104740000101844880F83911187800F0800040B1E8
:10475000804890F8390140F002017E4880F8391114
:1047600007E07C4890F8390120F00201794880F890
:1047700039115978774880F83C11587900F00100D8
:1047800040B1744890F83D0140F00100714981F852
:104790003D0107E06F4890F83D0120F001006D49B0
:1047A00081F83D01587900F0020040B1694890F865
:1047B0003D0140F00200674981F83D0107E065488E
:1047C00090F83D0120F00200624981F83D01624805
:1047D000006820F0400040305F49086008460068EB
:1047E00020F4807000F5807008600846006820F4AE
:1047F000007000F5007008600125E4E3987800F08F
:10480000010040B1534890F8310140F04000514957
:1048100081F8310107E04F4890F8310120F0400065
:104820004C4981F83101987800F0080040B14948BE
:1048300090F8310140F08000464981F8310107E0ED
:10484000444890F8310120F08000424981F831015C
:104850009879404981F84001D9793E4880F8411162
:104860003D48006820F0400040303B490860084661
:10487000006820F4806000F5806008600125A2E3F4
:104880009978344880F83411D97880F83511324855
:10489000006820F0800080302F490860012592E3F5
:1048A00099792C4880F83611D97980F837112A483F
:1048B000006820F08000803027490860012582E3ED
:1048C0001978244880F83A11597880F83B11997981
:1048D00080F83E11D97980F83F111F48006820F414
:1048E000807000F580701C4908600846006820F45C
:1048F000007000F500700860012564E31978154820
:1049000080F84211597880F843111348006820F468
:10491000806000F5806010490860012553E3187835
:104920000C4981F84F0159780A4880F8501199785C
:1049300080F85111D97880F85211197980F8531103
:10494000597980F854110448006807E0B81B00202A
:104950006C300020592C00209C1B002020F40050BB
:1049600000F50050FB49086001252CE31878FA494E
:1049700081F85A015978F84880F85B11997880F8E5
:104980005C11D97880F85D11997980F86011D97936
:1049900080F86111EF48006820F4004000F5004005
:1049A000EC49086001250EE3187800F0010040B1E1
:1049B000E94890F8620140F00100E74981F862019E
:1049C00007E0E54890F8620120F00100E24981F833
:1049D0006201187800F0020040B1DF4890F86201EF
:1049E00040F00200DC4981F8620107E0DA4890F803
:1049F000620120F00200D84981F862019979D64815
:104A000080F86311D97980F86411D448006820F0E7
:104A10000100401CD14908600125D4E21879CE4933
:104A200081F865015979CC4880F86611CB48006857
:104A300020F00200801CC94908600125C3E2987972
:104A4000C54981F86701D979C34880F86811587958
:104A500000F0010040B1C04890F8690140F0010148
:104A6000BD4880F8691107E0BB4890F8690120F063
:104A70000101B94880F86911587900F0020040B18D
:104A8000B54890F8690140F00201B34880F8691117
:104A900007E0B14890F8690120F00201AE4880F8C3
:104AA0006911587900F0040040B1AB4890F86901F1
:104AB00040F00401A84880F8691107E0A64890F882
:104AC000690120F00401A44880F86911A348006836
:104AD00020F00400001DA1490860012573E2187848
:104AE00000F0010040B19C4890F8700140F00101D5
:104AF000994880F8701107E0974890F8700120F00D
:104B00000101954880F87011187800F0020040B15A
:104B1000914890F8700140F002018F4880F87011C0
:104B200007E08D4890F8700120F002018A4880F873
:104B30007011187800F0040040B1874890F87001B7
:104B400040F00401844880F8701107E0824890F832
:104B5000700120F00401804880F87011187800F08E
:104B6000080040B17C4890F8700140F008017A4894
:104B700080F8701107E0784890F8700120F0080183
:104B8000754880F870119878734981F86A01D9786E
:104B9000714880F86B11997980F86C11D97980F897
:104BA0006D11197980F87411597980F875116B4875
:104BB000006820F00800083068490860012502E21A
:104BC000187800F0800040B1634890F8700140F020
:104BD0001001614880F8701107E05F4890F870019B
:104BE00020F010015C4880F87011587800F008003F
:104BF00040B1594890F8700140F02001564880F8C3
:104C0000701107E0544890F8700120F020015248DC
:104C100080F87011587800F0020040B14E4890F8CA
:104C2000700140F040014C4880F8701107E04A489C
:104C300090F8700120F04001474880F870115878D2
:104C400000F0010040B1444890F8700140F080014C
:104C5000414880F8701107E03F4890F8700120F05B
:104C600080013D4880F87011587800F0040040B190
:104C7000394890F8710140F00101374880F871110E
:104C800007E0354890F8710120F00101324880F8C2
:104C90007111587800F0100040B12F4890F8710160
:104CA00040F002012C4880F8711107E02A4890F882
:104CB000710120F00201284880F871119878264986
:104CC00081F87601D978244880F87711997980F8AD
:104CD0007811D97980F87911197980F8801159798A
:104CE00080F88111187800F0010040B11A4890F85E
:104CF0007C0140F00101184880F87C1107E016485B
:104D000090F87C0120F00101134880F87C1118789C
:104D100000F0020040B1104890F87C0140F0020120
:104D20000D4880F87C1107E00B4890F87C0120F0DA
:104D30000201094880F87C11187800F0040078B16D
:104D4000054890F87C0140F00401034880F87C118C
:104D50000EE000009C1B0020592C0020A01B00200E
:104D6000FE4890F87C0120F00401FC4880F87C119A
:104D7000187800F0080040B1F84890F87C0140F045
:104D80000801F64880F87C1107E0F44890F87C01AF
:104D900020F00801F14880F87C11187800F08000BC
:104DA00040B1EE4890F87C0140F01001EB4880F8EB
:104DB0007C1107E0E94890F87C0120F01001E748F9
:104DC00080F87C11587800F0080040B1E34890F872
:104DD0007C0140F02001E14880F87C1107E0DF48C9
:104DE00090F87C0120F02001DC4880F87C11587894
:104DF00000F0020040B1D94890F87C0140F0400139
:104E0000D64880F87C1107E0D44890F87C0120F067
:104E10004001D24880F87C11587800F0010040B180
:104E2000CE4890F87C0140F08001CC4880F87C119D
:104E300007E0CA4890F87C0120F08001C74880F85C
:104E40007C11587800F0040040B1C44890F87D010E
:104E500040F00101C14880F87D1107E0BF4890F89B
:104E60007D0120F00101BD4880F87D11587800F0E7
:104E7000100040B1B94890F87D0140F00201B748F8
:104E800080F87D1107E0B54890F87D0120F002011F
:104E9000B24880F87D11B248006820F00800083060
:104EA000AF4908600846006820F010001030086024
:104EB000012588E01978A94880F86E11597880F8A2
:104EC0006F11997880F87A11D97880F87B11A4480D
:104ED000006820F008000830A14908600846006812
:104EE00020F010001030086001256CE019789B4814
:104EF00080F87211597880F87311997880F87E11D2
:104F0000D97880F87F119648006820F008000830B2
:104F1000934908600846006820F0100010300860CF
:104F2000012550E018788F4988745878C8749878AB
:104F300008758D48006820F00100401C8A4908600F
:104F4000012540E018798749C87058790871987927
:104F500048718548006820F00100401C82490860C3
:104F6000012530E018797F49C87358790874987919
:104F700048747D48006820F00100401C7A490860B0
:104F8000002520E018797749087358794873987993
:104F900088737548006820F00100401C7249086061
:104FA000002510E018796F49087058794870987991
:104FB00088706D48006820F00100401C6A49086054
:104FC000012500E000BF00BF284678BD70B503464C
:104FD00014460020654D5A1BAB4276D01ADC644D56
:104FE000A3EB0502AB4271D00ADC624A1A44002AE4
:104FF0006DD0B2F5606F6BD0B2F5805F69D14CE3D4
:10500000B2F5007F7BD0B2F5506F79D0B2F5606F0A
:10501000F4D114E0B2F5804F73D009DCB2F5885FAB
:1050200070D0B2F5905F6ED0B2F5985FE6D18EE1A8
:10503000B2F5824F68D0B2F5A84FDFD15FE30A78AE
:105040004D4D2A704A7802F001022AB12A46527860
:1050500042F001026A7005E0474A527822F00102EC
:10506000454D6A704A7802F0020232B1424A5278E3
:1050700042F00202404D6A7005E03F4A527822F049
:1050800002023D4D6A704A7802F0100242B13A4A7B
:1050900092F86A2042F00205374A82F86A5007E027
:1050A000354A92F86A2022F00205334A82F86A50A3
:1050B0004A7802F008026AB12F4A92F86A2042F058
:1050C00004052D4A82F86A500CE0A3E2FAE1C5E239
:1050D0005AE0BBE3284A92F86A2022F00405264AE7
:1050E00082F86A504A7802F0080272B1224A92F8B5
:1050F0006A2042F00805204A82F86A500DE0EEE28C
:1051000078E2F0E134E252E292E21B4A92F86A203D
:1051100022F00805184A82F86A504A7802F0040220
:1051200042B1154A92F86A2042F04005124A82F8CC
:105130006A5007E0104A92F86A2022F040050E4AB1
:1051400082F86A500D4A126822F00102521C0B4D7F
:105150002A602A46126822F0400211E0592C0020F1
:10516000A01B0020DE2F0020B01B0020214BF21CD2
:10517000212DF21CDFF00DE3F22D0020A41B0020F6
:1051800040322A60012063E3CA79F74DAA70CA78D9
:1051900002F0100232B12A46D27842F00105F24AFA
:1051A000D57005E0F04AD27822F00105EE4AD570BC
:1051B000CA7802F0200232B1EB4AD27842F00205FE
:1051C000E94AD57005E0E84AD27822F00205E64ABD
:1051D000D5704A7802F0010232B1E34AD27842F047
:1051E0000405E14AD57005E0DF4AD27822F00405D3
:1051F000DD4AD5704A7802F0020232B1DA4AD2783A
:1052000042F00805D84AD57005E0D74AD27822F096
:105210000805D54AD5704A7802F0040232B1D24A64
:10522000D27842F01005D04AD57005E0CE4AD27847
:1052300022F01005CC4AD5704A7802F0080232B14B
:10524000C94AD27842F02005C74AD57005E0C64A5F
:10525000D27822F02005C44AD5704A7802F01002B4
:1052600032B1C14AD27842F04005BF4AD57005E05C
:10527000BD4AD27822F04005BB4AD5708A7902F047
:10528000400242B1B84A92F86A2042F00105B64A9B
:1052900082F86A5007E0B44A92F86A2022F00105C9
:1052A000B14A82F86A50CA7802F0400242B1AE4A6E
:1052B00092F86A2042F01005AB4A82F86A5007E083
:1052C000A94A92F86A2022F01005A74A82F86A508B
:1052D0008A7802F0200242B1A34A92F86A2042F092
:1052E0002005A14A82F86A5007E09F4A92F86A2096
:1052F00022F020059C4A82F86A508A7902F08002E6
:1053000042B1994A92F86C2042F00102964D85F81C
:105310006C2007E0944A92F86C2022F00102924D32
:1053200085F86C20914A126822F00202921C8F4D7F
:105330002A602A46126822F0400240322A602A4639
:10534000126822F0800280322A60012080E20D780B
:10535000854A15714D785571CD7895710D79D57156
:105360004A7902F0010242B17F4A92F86A2042F083
:1053700080057D4A82F86A5007E07B4A92F86A20ED
:1053800022F08005784A82F86A504A7902F00202D7
:1053900042B1754A92F86B2042F00105724A82F8D8
:1053A0006B5007E0704A92F86B2022F001056E4ABC
:1053B00082F86B504A7902F0040242B16A4A92F8CC
:1053C0006B2042F00205684A82F86B5007E0664A9B
:1053D00092F86B2022F00205634A82F86B504A79FA
:1053E00002F0080242B1604A92F86B2042F00405D4
:1053F0005D4A82F86B5007E05B4A92F86B2022F01E
:105400000405594A82F86B504A7902F0100242B101
:10541000554A92F86B2042F00805534A82F86B50C7
:1054200007E0514A92F86B2022F008054E4A82F8B4
:105430006B504A7902F0200242B14B4A92F86C203C
:1054400042F00202484D85F86C2007E0464A92F887
:105450006C2022F00202444D85F86C204A7902F05B
:10546000400242B1404A92F86C2042F004023E4DA4
:1054700085F86C2007E03C4A92F86C2022F0040288
:10548000394D85F86C200D78374A82F865504D7893
:1054900082F866508D7882F86750344A126822F09C
:1054A0000202921C314D2A602A46126822F0400204
:1054B00040322A602A46126822F0800280322A6036
:1054C0000120C5E10A78284D85F854204D78264AF8
:1054D00082F85550254A126822F020022032234DCE
:1054E0002A600120B4E14A7802F0010242B11E4A6A
:1054F00092F85C2042F001051B4A82F85C5007E0FC
:10550000194A92F85C2022F00105174A82F85C5093
:105510004A7802F0020242B1134A92F85C2042F04B
:105520000205114A82F85C5007E00F4A92F85C20AD
:1055300022F002050C4A82F85C500D790A4A82F882
:1055400056504D7982F857508D7882F85A500D7820
:1055500082F85B50054A126822F020022032034D87
:105560002A60012074E10000F22D0020A41B00201D
:105570000D78F74A82F858504D7882F85950F54A1C
:10558000126822F020022032F24D2A608D79F04A12
:1055900082F87050CD7982F87150EE4A126822F488
:1055A000007202F50072EB4D2A60012050E10A788A
:1055B000E74D85F85D204D78E54A82F85E508D789C
:1055C00082F85F50CD7882F860500D7982F8615092
:1055D0004D7982F862508D7982F86350CD7982F8E6
:1055E0006450DC4A126822F040024032D94D2A60F1
:1055F00001202DE10D79D64A82F868504D7982F864
:105600006950D44A126822F040024032D14D2A60DB
:1056100001201DE18A79CE4D85F86F20CD4A1268B0
:1056200022F4007202F50072CA4D2A6001200FE1D7
:105630000A78002A10DD0A78132A0DDA4E780A78E3
:10564000521EC34D7F35AE54C24A126822F4006226
:1056500002F50062BF4D2A600120F9E00D78BE4AD4
:10566000D5764D7815778D785577CD7882F821509D
:105670000D7982F822504D7982F823508D7982F885
:105680002750CD7982F82850B44A126822F00202DD
:10569000921CB24D2A600120DAE00D78AE4A82F801
:1056A00029504D7882F82D508D7882F82E50CD7883
:1056B00082F82F500D7982F833504D7982F83450AA
:1056C0008D7982F83550CD7982F84550A34A126819
:1056D00022F00202921CA14D2A600120B8E00D7850
:1056E0009D4A82F846504D7882F847509B4A12688E
:1056F00022F00202921C994D2A600120A8E00A784B
:10570000012A0FD14D78944A95778D78D577CD7849
:1057100082F82050914A126822F00202921C8F4DAA
:105720002A6091E00A78022A11D14D788A4A82F8DB
:1057300024508D7882F82550CD7882F82650874AFB
:10574000126822F00202921C844D2A607CE00A78E2
:10575000032A11D14D78804A82F82A508D7882F838
:105760002B50CD7882F82C507C4A126822F002022D
:10577000921C7A4D2A6067E00A78042A11D14D788C
:10578000754A82F830508D7882F83150CD7882F8A1
:105790003250724A126822F00202921C6F4D2A6047
:1057A00052E00A78052A11D14D786B4A82F83650BA
:1057B0008D7882F83750CD7882F83850674A126871
:1057C00022F00202921C654D2A603DE00A78062A0A
:1057D00011D14D78604A82F83C508D7882F83D5066
:1057E000CD7882F83E505D4A126822F00202921C87
:1057F0005A4D2A6028E00A78072A11D14D78564A76
:1058000082F842508D7882F84350CD7882F8445027
:10581000524A126822F00202921C504D2A6013E094
:105820000A78082A10D14D784B4A82F848508D7872
:1058300082F84950CD7882F84A50484A126822F0DE
:105840000202921C454D2A60012001E0002000BFA9
:1058500000BF70BD70B5034614460020B3F5177F36
:1058600075D033DC40F22E25A3EB0502AB4279D094
:1058700019DC40F22A25A3EB0502AB4279D00BDC00
:10588000A3F20F22002A6FD00E2A6ED00F2A6DD0FD
:10589000102A41F02380F8E3012A68D0022A67D059
:1058A000032AF6D1F2E31F2A42D008DC012A7CD079
:1058B0000C2A7BD00D2A7AD01D2AEAD19AE0202A20
:1058C00076D0212A75D02C2AE3D1F1E3B3F52B7FD2
:1058D00070D017DCB3F5237F6DD00ADCA3F25D2214
:1058E000002A69D0012A68D0022A67D00D2AD0D1B7
:1058F000F0E3A3F28D22002A77D0122A76D01E2A56
:10590000C7D1E8E340F2BB255A1BAB426FD008DC9D
:10591000A3F2AD22002A6BD0012A6AD0022AB8D1A4
:10592000FCE3012A73D0022A72D0032AB1D1F6E334
:10593000074AAA320D6815604D685560084A12681A
:1059400022F00102521C064D2A600120E8E3E8E340
:10595000F22D0020A41B0020DE2F0020B01B002011
:10596000A81B0020EDE304E0F0E31DE1EFE3EFE32B
:10597000EFE30D78FA4A82F8B2504D7882F8B350CE
:105980008D7882F8B450CD7882F8B5500D7982F8D0
:10599000B6504D7982F8B7508D7982F8B850CD79EC
:1059A00082F8B950EF4A126809E0EFE3EFE374E0E0
:1059B0000CE026E3ECE3ECE3ECE35AE2EBE322F069
:1059C0000102521CE74D2A600120BFE7E44AAA32D7
:1059D0000D6815614D685561E24A126822F00102B6
:1059E000521CE04D2A600120B0E740E0EFE3EFE316
:1059F000EFE3EFE34A7802F0100252B1D84A92F88E
:105A0000732042F00205D64A82F8735009E0F7E3AA
:105A1000F7E3D34A92F8732022F00205D04A82F8C5
:105A200073500A78CE4D85F8C2208A7985F86F20A8
:105A30008D78CB4A82F87D50CD7882F87E50C94A65
:105A4000126822F00202921CC64D2A60C64A1268F1
:105A500022F4007202F50072C34D2A602A461268D1
:105A600022F4806202F580622A6001206EE70D78E0
:105A7000BB4A82F8C3504D7882F8C4508D7882F8C2
:105A8000C550CD7882F8C650B64A126822F002029C
:105A9000921CB44D2A60012058E70A78B04D2A7054
:105AA0004A7802F001022AB12A46527842F00102F5
:105AB0006A7005E0AA4A527822F00102A84D6A7085
:105AC0004A7802F0020232B1A54A527842F002024C
:105AD000A34D6A7005E0A24A527822F00202A04D5E
