:020000040800F2
:1000000040130120F1050008F9050008CD5D010845
:10001000FD050008FF0500080106000800000000BB
:10002000000000000000000000000000990100082E
:100030000506000800000000DD0100084116010867
:100040000B0600080B0600080B0600080B0600084C
:100050000B0600080B060008F90900080B0600084B
:100060000B0600080D0A00080B0600080B06000826
:100070000B0600080B0600080D9A00080B06000886
:100080000B0600080B0600080B0600080B0600080C
:10009000271B00085D1B00080B060008170B000853
:1000A0000B0600080B0600080B0600080B060008EC
:1000B0000B0600080B0600080B0600080B060008DC
:1000C0000B0600080B0600080B0600080B060008CC
:1000D0000B0600088D9200080B0600088D99000899
:1000E0000B0600080B0600080B0600080B060008AC
:1000F0000B0600080B0600080B0600080B0600089C
:100100000B0600080B0600080B0600080B0600088B
:100110000B0600080B0600080B0600080B0600087B
:100120000B0600080B0600080B0600080B0600086B
:100130000B0600080B0600080B0600080B0600085B
:10014000331C0008691C00080B0600080B06000899
:100150000B06000831150108F5920008C5140108C6
:100160000B0600080B0600080B0600080B0600082B
:100170000B0600080B0600080B0600080B0600081B
:100180000B060008DFF80CD015F054FD00480047BE
:10019000D504000840130120224B19680868B0E814
:1001A000F00F80F30988BFF36F8F4FF0000080F3EA
:1001B00011884EF00D0E70470000000006480068E0
:1001C000006880F3088862B661B6BFF34F8FBFF353
:1001D0006F8F00DF00BF00BF08ED00E0EFF3098084
:1001E000BFF36F8F0F4B1A6820E9F00F106008B54E
:1001F0004FF0100080F31188BFF34F8FBFF36F8F64
:1002000014F08FF94FF0000080F31188BDE808402A
:1002100019680868B0E8F00F80F30988BFF36F8FA2
:10022000704700BF24220020EFF3058070470000D4
:100230000221304A5183082151832021118340211A
:1002400011838021118301212B4A11802B490968D8
:1002500001F0004149B12949096841F00041274AAC
:1002600011608169891C81617047244908390968D6
:10027000234A11622149091F097882F824101F4975
:10028000C91E097891621D490C310968D1621B4968
:10029000891E098811861949096851631749091D82
:1002A00009689163154910310968D1630021154A25
:1002B000116000BF134909680029FBD0104A01688A
:1002C00011604168516081689160C168D1600169C5
:1002D00011614169516181699161C169D1610021F7
:1002E000084A116000BF074909680029FBD000BF18
:1002F000BAE7000000000240180402402CED00E0C4
:100300007422002000180020322011F0E5FD09F0D1
:10031000D4F90DF0A2FC15F062FD02F039F90CF0F1
:10032000C8FC0AF0AAFA01F031F90CF01AFC10F03E
:1003300086FF0CF0D2FC01F03BF909F0C4F902F0A1
:1003400035F90AF0A5FA10F082FF04E00A2011F056
:10035000C3FD0CF0CDFBF9E710B545F255500FF099
:1003600017F805200FF017F840F271200FF016F87B
:100370000FF017F80FF01AF810BD1CB501210F206F
:100380000FF018FA49F2F620009001208DF80400D1
:100390008DF8050000208DF8060001208DF807007B
:1003A00069468D4815F020FD02208B4948830420C2
:1003B0004883082048831020488320200883402059
:1003C0000883802008830002488346F6D570009099
:1003D00001208DF804008DF8050000208DF806003E
:1003E00001208DF8070069467C4815F0FDFC0120CE
:1003F0007A491A3108800002088040000880800095
:10040000891E08804FF25870009001208DF804007A
:100410008DF8050000208DF8060001208DF80700FA
:1004200069466F4815F0E0FC10206D491A310880CC
:1004300002200880C020009001208DF804000020D8
:100440008DF8050001208DF806008DF8070069463B
:10045000624815F0C9FC40206049183108808020AE
:10046000088040F60150009000208DF80400012023
:100470008DF807006946584815F0B6FC49F22A0085
:10048000009000208DF8040001208DF807006946D7
:10049000524815F0A9FC40F6A700009000208DF806
:1004A000040001208DF8070069464D4815F09CFCBA
:1004B0001CBD10B54FF440700FF00EFD0121080770
:1004C0000FF0ABF901200EF08EFFFFF756FFFFF79C
:1004D00043FF10BD00F020F9FFF7EBFF11F0BBF870
:1004E000404A0021AFF2DF1011F0F7F93E490860F1
:1004F00011F0FAF800BFFEE701460DE0002001E030
:1005000000BF401C41F65E729042F9D300BF4AF62C
:10051000AA22364B1A6000BF0A1EA1F10101EDD1DB
:10052000704708B50021009100914AE000BF00BF6C
:1005300000BF00BF00BF00BF00BF00BF00BF00BFC3
:1005400000BF00BF00BF00BF00BF00BF00BF00BFB3
:1005500000BF00BF00BF00BF00BF00BF00BF00BFA3
:1005600000BF00BF00BF00BF00BF00BF00BF00BF93
:1005700000BF00BF00BF00BF00BF00BF00BF00BF83
:1005800000BF00BF00BF00BF00BF00BF00BF00BF73
:1005900000BF00BF00BF00BF00BF00BF00BF00BF63
:1005A00000BF00BF00BF00BF00BF00BF00BF00BF53
:1005B00000BF00BF00BF00BF00BF00BF0099491CC3
:1005C000009100998142B1D300BF4AF6AA21074A9F
:1005D000116000BF08BD000000000240000402409E
:1005E000000802406C670108041800200030004039
:1005F0000648804706480047FEE7FEE7FEE7FEE7BD
:10060000FEE7FEE7FEE7FEE7FEE7FEE7CF060008AF
:10061000850100080CB50020019000906A48006830
:1006200040F480306849086000BF6748006800F403
:10063000003000900198401C019000980028F4D0F0
:100640006148006800F4003010B10120009001E022
:10065000002000900098012838D15B4808300068DD
:100660005949083108600846006840F400400860B5
:100670000846006840F4A05008605448091F08600C
:10068000081F006840F08070091F086000BF4E48D6
:10069000006800F000700028F9D040F203704C4967
:1006A000086049480830006820F0030046490831D6
:1006B00008600846006840F00200086000BF424839
:1006C0000830006800F00C000828F8D10CBD10B507
:1006D0003D48006840F001003B49086000203A496D
:1006E00008310860384800683A49084036490860CF
:1006F0003948091D0860081F006820F48020091F80
:100700000860002030490C310860FFF783FF4FF08C
:1007100000603249086010BD70B50020002202233D
:1007200000240221284D08352D6805F00C0020B169
:10073000042806D0082834D107E0294D294E356019
:1007400033E0294D274E35602FE01F4D2D1D2D68BC
:10075000C5F380541C4D2D1D2D6805F03F0154B18B
:10076000214DB5FBF1F5184E361D3668C6F38816D7
:1007700005FB06F209E01A4DB5FBF1F5124E361DE8
:100780003668C6F3881605FB06F20F4D2D1D2D6841
:10079000C5F301456D1C6B00B2FBF3F5114E3560DE
:1007A00003E00F4D0F4E356000BF00BF064D08350A
:1007B0002D68C5F303150D4E705D0A4D2D68C540BB
:1007C000084E356070BD000000380240083C40050E
:1007D000003C0240FFFFF6FE1030002408ED00E070
:1007E0000024F4000818002000127A000C180020E1
:1007F0002020D54981F845002021D34880F88B106E
:1008000080F8D11080F81711704700B59BB0012116
:10081000CE480EF0CFFF012108020FF00FF8CC48B0
:100820000EF054FB00200290CA480390CA4804907E
:100830000020059004200690002007904FF480606F
:1008400008904000099080000A9040110B904002EF
:100850000C9000200D9001200E9000200F90109021
:1008600002A9BB480EF0D4FB0121B9480EF00AFCE6
:10087000032000908DF8040000208DF807006946E1
:10088000B64815F0B1FA002011904FF48030129064
:1008900000201390149011A80DF028FC0020159052
:1008A00001208DF858008DF85900002017901890FD
:1008B000199004208DF8680015A9A6484C380DF051
:1008C000E6FB01200DF047FC052301220A21A14887
:1008D0004C380DF062FC052302220B219D484C3858
:1008E0000DF05BFC0523032210219A484C380DF0D3
:1008F00054FC05230422112196484C380DF04DFC80
:10090000012194484C380DF0F3FC012191484C38FA
:100910000DF0E3FC01218F484C380DF0FEFB8D48B3
:100920004C380DF096FCFFF763FF1BB000BD30B5EF
:10093000002125E0C1EBC10202EB8202824C04EBF4
:100940004200854A32F8113090F84440641CE2B20B
:1009500090F84540944200DC00220568041D04EB39
:10096000420424882C1B0460041D04EB42042380F1
:1009700004681C44046080F8442000BF481CC1B2D5
:100980000429D7DB30BD00B585B0012108460EF043
:1009900011FF012188030EF051FF0120019000207A
:1009A0008DF8080001208DF80B0001A96C4815F0A6
:1009B0001BFA002108460FF049F80120039000209F
:1009C0008DF810000C208DF8110001208DF8120018
:1009D00003A80EF05DFC06208DF800000E208DF8B7
:1009E000010000208DF8020001208DF80300684608
:1009F0000FF077FA05B000BD10B501200EF0AEFC87
:100A000010B101200EF0BBFC10BD704710B50820DE
:100A10000EF0A4FC50B108200EF0B1FC0BF099FDD3
:100A200000BF4AF6AA204F49086000BF10BD00B5BC
:100A300085B0012108460EF0BDFE012188030EF0AD
:100A4000FDFE4FF48070019000208DF80800012019
:100A50008DF80B0001A9424815F0C6F908210020C5
:100A60000EF0F4FF4FF48070039000208DF810001A
:100A70000C208DF8110001208DF8120003A80EF053
:100A800007FC28208DF800000E208DF801000020C2
:100A90008DF8020001208DF8030068460FF021FA5E
:100AA00005B000BD00B585B0012104200EF082FE26
:100AB000012188030EF0C2FE2020019000208DF855
:100AC000080001208DF80B0001A9244815F08CF9CD
:100AD000052102200EF0BAFF2020039000208DF89F
:100AE00010000C208DF8110001208DF8120003A8D1
:100AF0000EF0CEFB17208DF800000E208DF80100BF
:100B000000208DF8020001208DF8030068460FF0E8
:100B1000E8F905B000BD10B520200EF01FFC50B163
:100B200020200EF02CFC0BF014FD00BF4AF6AA208A
:100B30000C49086000BF10BD10B5FFF766FEFFF757
:100B4000B1FFFFF720FF10BDB422002004004000D9
:100B5000106402404C2001401E1800200008024092
:100B60000000024000300040FD490968FC4A92F84C
:100B70004520B1FBF2F000EB4011C1F3CF11F94A6F
:100B8000918111468989B1F5AF7F13DA0021F64AC8
:100B90001170F6490978052906DDF249C97C41F052
:100BA0002001F04AD17418E0F0490978491CEF4A55
:100BB000117012E00021ED4A1170EB490978052906
:100BC00006DDE849C97C21F02001E64AD17404E041
:100BD000E5490978491CE44A11707047E049D1F8A9
:100BE000462091F88B10B2FBF1F0C0EBC001C1EBD5
:100BF000C0117D22B1FBF2F11B31DA4AD1811146DD
:100C0000C989B1F5FA7F01DA0021D181D549C989B5
:100C100040F69802914219DAD249C98940F2A46299
:100C2000914213DD0021D24A1170D24909780A2974
:100C300006DDCC49C97C41F00201CA4AD17418E0F2
:100C4000CC490978491CCB4A117012E00021C94AED
:100C50001170C7490978052906DDC249C97C21F010
:100C60000201C04AD17404E0C1490978491CC04A54
:100C70001170BC49C989B1F52F7F13DD0021BE4A2F
:100C80001170BE490978052906DDB649C97C21F0F5
:100C90000101B44AD17418E0B8490978491CB74A2F
:100CA000117012E00021B54A1170B3490978052985
:100CB00006DDAC49C97C41F00101AA4AD17404E0C7
:100CC000AD490978491CAC4A11707047AC480078AE
:100CD000012843D1A348C07C00F0010018BB0020CC
:100CE000A84908809F488089B0F5D07F0ADB4FF47F
:100CF0000060A54908809B48C07C20F00400994909
:100D0000C87435E097488089B0F5C87F30DA4FF471
:100D100000609D49891C08809248C07C40F0040016
:100D20009049C87424E0974801880088401C954A7F
:100D300010803C2907DD8B488089B0F5AA7F02DA54
:100D40000020114608804FF400608F4908808548D4
:100D5000C07C20F004008349C87409E04FF40060AF
:100D6000894908807F48C07C20F004007D49C87410
:100D700070477C48407CC0F34000704710B5FFF7D7
:100D8000F8FF012803D100208049087002E001200B
:100D90007E4908707D4800787D49097888420BD0EB
:100DA0004FF496607B49088078480078784908704D
:100DB00000206C49087018E07648008828B1754812
:100DC0000088401E734908800FE07048007840B1E9
:100DD0007148007828B90120624908706FA008F0B6
:100DE00059FB6A4800786C49087010BD6E4800686D
:100DF00000F0200098B100206C4908706C48007821
:100E0000142806DD5748407C20F0020055494874FC
:100E100018E067480078401C6549087012E000201F
:100E20006349087061480078142806DD4D48407C0D
:100E300040F002004B49487404E05C480078401CD4
:100E40005A49087070474648D0F88C2090F8D10075
:100E5000B2FBF0F081B2C1EB411202EB8200C2178B
:100E600000EBD2525212A2F2171252B23D4B1A7438
:100E700070473C48007E70473A48007F70473948C9
:100E8000407E704710B53E48007848B90520494972
:100E9000087000208871087388740876887743E0AA
:100EA00037480078012832D1052042490870FFF701
:100EB000E6FF012803D0FFF7DFFF012803D103205D
:100EC0003C4988740AE0FFF7D4FF012803D10520CC
:100ED0003849887402E0002036498874002001F007
:100EE00093FB012803D103203249887102E00520D9
:100EF00030498871012001F087FB012803D10320CC
:100F00002C49087310E005202A4908730CE01C489E
:100F10000078022808D10520264908700020887131
:100F2000087388740876887710BD10B5164808389D
:100F3000006800F0200088B100201F4908701F4899
:100F40000078052843DD0748007D40F02000054972
:100F500008750846807D012835D131E03DE000006C
:100F6000B4220020DC230020331800203218002097
:100F700035180020341800203718002036180020BB
:100F80008621002038180020180402403A1800205A
:100F90003B1800203E1800203C1800204143433AF3
:100FA0004F6666210A000000100802404018002029
:100FB00041180020B077002042180020431800207C
:100FC000F7A008F067FA0020FA49887521E0FA488E
:100FD0000078401CF84908701BE00020F6490870B2
:100FE000F648007814280FDDF248007D20F020003C
:100FF000F04908750846807D10B9F1A008F04AFA5A
:101000000120EC49887504E0EC480078401CEB496D
:101010000870EF48006800F00800E8B90020ED49CA
:101020000870ED480078052810DDE248007D40F0AA
:101030004000E04908750846C07D012802D1E7A0BC
:1010400008F028FA0020DB49C87521E0E248007862
:10105000401CE14908701BE00020DF490870DD48B2
:10106000007814280FDDD348007D20F04000D149DE
:1010700008750846C07D10B9DCA008F00BFA012005
:10108000CC49C87504E0D3480078401CD1490870A9
:10109000C848C07D30B9C748807D18B90020C5490F
:1010A000087602E00120C349087610BDC148407DA2
:1010B0007047C048C0897047BE4880897047BD48A6
:1010C000C07CC0F340107047BA48C07CC0F38000B9
:1010D0007047B848C07C00F001007047B548C07C3C
:1010E000C0F340007047B348807D7047B148C07D71
:1010F0007047B048407C7047AE48807C7047AD4830
:10110000C07C70470020704710B514F072FE044692
:1011100004F0010040B1A748007D40F00100A5495E
:1011200008750020887107E0A248007D20F00100CA
:10113000A0490875AA20887110BD9E488068704734
:1011400010B504469B48846007F0A5FC07F0A5FB9A
:1011500010BD10B500200FF0FEFB0446A7488442E6
:1011600002D007F0E4FB05E001200FF0F4FB044699
:101170009048846010BD10B5FFF7FBFD0446012CBC
:1011800010D18C488068401C8A4988609C4800784F
:10119000401EC0B29A49087068B93C20087007F038
:1011A0007AFC08E097480078012804D107F073FC26
:1011B0000520954908709448007840B1924800781D
:1011C000401EC0B29049087008B907F0B0FB8D48C6
:1011D000047010BD774948717047764908717047AF
:1011E00010B57448407968B372484079401E71491F
:1011F00048710846407928BB84A008F04BF900BF2D
:101200000A2010F069FE00BF00BF00BF00BF00BF92
:1012100000BFBFF34F8F00BF00BF00BF7E48006814
:1012200000F4E0607D490843001D7B49086000BF71
:1012300000BF00BFBFF34F8F00BF00BF00BF00BFA4
:1012400000BFFDE75B480079B8B15A480079401EFD
:10125000584908710846007978B971A008F01AF960
:1012600000BF642010F038FE00BF4FF48070584972
:101270000831088001200BF0FFFF10BD4D48807E33
:1012800070474C498876704710B5FFF7F7FF58B99B
:10129000FFF7F2FD012807D1FFF7F3FF64480CF0D8
:1012A00089FB64A008F0F6F810BD10B5FFF73FFB0E
:1012B000FFF79CFDFFF762FD10BD10B5FFF7E2FDE3
:1012C000FFF752FCFFF78AFCFFF700FDFFF7DCFF9A
:1012D000FFF72BFE10BD09205C4908705C490870BF
:1012E00004205C4908703B205B4908705B4908702A
:1012F00000205B49087070475948007820F00100D1
:10130000401C5749087051480078002846D10846CB
:10131000007820F00400001D087009204B49087077
:101320004B48007800283AD14D48007820F008005A
:1013300008304B4908700920454908704548007835
:1013400050B94748007820F0100010304449087028
:1013500004204049087004E03E480078401E3D49A2
:1013600008703D480078B8B93D48007820F020006A
:1013700020303B4908703B203749087037480078D7
:1013800058B93748007820F04000403034490870A0
:101390003B20324908707CE06AE063E074E06DE075
:1013A000477073416E743A4E6F53686F7274210ABE
:1013B00000000000DC230020431800204218002019
:1013C000477073416E743A53686F7274210A00005B
:1013D0001004024044180020451800204770734153
:1013E0006E743A4E6F4F70656E210A0047707341FC
:1013F0006E743A4F70656E210A000000A55AAA5516
:1014000046180020471800204818002043544C3A42
:101410005265736574210A000CED00E00000FA05C6
:1014200043544C3A506F7765724F6666210A00004C
:10143000D4210020436F72726563745274634279E1
:10144000496E74477073210A000000002C180020B8
:101450002E1800202D1800202F18002030180020F2
:101460003118002057480078401E5649087010E097
:1014700055480078401E544908700AE053480078E7
:10148000401E5249087004E051480078401E5049FF
:101490000870704700B50020FFF7F3FE00BD7047ED
:1014A000704710B5FFF709FFFFF79AFE01F096F8B5
:1014B0000CF074FB10BD10B500BF4AF6AA204549D8
:1014C000086000BFFFF7F1FE01F082F810BD10B513
:1014D0000CF01DFC0CF05CFB10BD10B53E48007814
:1014E00000F0010038B13C48007820F001003A4992
:1014F0000870FFF7ECFF38480078C0F3800038B17F
:101500003548007820F0040033490870FFF7D3FF16
:1015100031480078C0F3C00038B12F48007820F07F
:1015200008002D490870FFF7BCFF2B480078C0F376
:10153000001038B12848007820F0100026490870C3
:10154000FFF7AEFF24480078C0F3401038B12248BE
:10155000007820F0200020490870FFF7A0FF1E4807
:101560000078C0F3801038B11B48007820F04000AC
:1015700019490870FFF78EFF10BD06E00A2010F031
:10158000ABFCFFF7B9FEFFF7A8FFF7E710B5FFF7D1
:10159000D3FAFFF7A0FE0020FFF773FE00200F49EB
:1015A000087048708870C87048748874C87410BD1A
:1015B00010B50B4A0021AFF23D0010F08EF9094939
:1015C000086010BD301800202F1800202E180020B1
:1015D0002C1800200030004031180020DC230020AF
:1015E000906701082818002010B50246002024E06A
:1015F00000EB4003FB4C54F82330934208D100EB3E
:10160000400304EB83030C685C604C689C6010BD75
:1016100000EB4003F34C54F8233063B900EB400374
:1016200044F8232000EB400304EB83030C685C6068
:101630004C689C60EBE7431CD8B25A28D8DB00BF4B
:10164000E5E71CB5012108460EF0B4F8C42000906F
:1016500001208DF8040000208DF8060001208DF88F
:1016600007008DF805006946DF4814F0BDFB042033
:10167000DD4948831CBD00B58BB00420DA4948839E
:10168000DA4800F06DFDD94800F06AFDD8480068DE
:1016900030B900221146012010F09CFFD4490860A7
:1016A000D448006830B900221146012010F092FFA2
:1016B000D0490860012108460EF07CF80121480657
:1016C0000EF0ABF809220C21C74814F097FB092251
:1016D0000B21C54814F092FB4FF4C0500990022032
:1016E0008DF828008DF8290000208DF82A000120AF
:1016F0008DF82B0009A9BC4814F076FBBE480CF00D
:10170000EDFE06A80DF00EF800208DF81E00012059
:101710008DF81F0000208DF820008DF821008DF835
:1017200022008DF823008DF81A008DF81B0005208B
:101730008DF81C0000208DF81D000F20ADF818005A
:1017400006A9AD480CF0E3FE14208DF8040001203A
:101750008DF8050000208DF8060001208DF80700A7
:1017600001A80EF0BEFB15208DF8040001208DF8B5
:10177000050000208DF8060001208DF8070001A863
:101780000EF0AFFB012202219B480DF049FA012225
:10179000102199480DF044FA012102200EF00AF8B8
:1017A000012188060EF039F809220D21934814F022
:1017B00025FB09220C21914814F020FB4FF44050E6
:1017C000099002208DF828008DF8290000208DF85E
:1017D0002A0001208DF82B0009A9884814F004FB89
:1017E00087480CF07BFE06A80CF09CFF00208DF8CB
:1017F0001E0001208DF81F0000208DF820008DF8BC
:1018000021008DF822008DF823008DF81A008DF844
:101810001B0005208DF81C0000208DF81D000F20F6
:10182000ADF8180006A976480CF071FE40208DF83E
:10183000040001208DF805008DF806008DF80700E2
:1018400001A80EF04EFB41208DF8040001208DF818
:1018500005008DF806008DF8070001A80EF041FB89
:101860000122022166480DF0DBF9012210216448B3
:101870000DF0D6F900208DF812008DF8130001202C
:101880008DF814000020ADF80800ADF80A00ADF89E
:101890000C00ADF80E00ADF8100001208DF8150019
:1018A00002A80CF0BEFE0E208DF8120000208DF86C
:1018B000130001208DF814000020ADF80800ADF8E9
:1018C0000A00ADF80C00ADF80E00ADF810000120D4
:1018D0008DF8150002A80CF0A4FE042042490883EC
:1018E0000BB000BDF0B585B006460D4617461C4648
:1018F000012E04D1019504208DF8080003E0009525
:1019000000208DF8080000208DF809008DF80A707D
:1019100020788DF80B0061788DF80C10A1788DF887
:101920000D10E1788DF80E1021798DF80F10617986
:101930008DF81010A1798DF81110E1798DF8121041
:1019400069462D480CF05CFF05B0F0BD70B504464B
:1019500021462748006810F0A0FE05460DB9012079
:1019600070BD0020FCE7F0B585B006460D46174671
:101970001C46012E04D1019504208DF8080003E0D7
:10198000009500208DF8080000208DF809008DF8E2
:101990000A7020788DF80B0061788DF80C10A17812
:1019A0008DF80D10E1788DF80E1021798DF80F105B
:1019B00061798DF81010A1798DF81110E1798DF809
:1019C000121069460E480CF01BFF05B0F0BD70B553
:1019D000044621460748006810F05FFE05468DB9B1
:1019E000012070BD7425002000000240AC290020B9
:1019F0004C180020501800200064004000040240F1
:101A0000006800400020ECE770B50646307A0428F4
:101A100001D1756800E03568002415E0A04850F851
:101A20002400A8420ED106F10B012846FFF7DCFD89
:101A300031469C4800F098FB9B48006810F070FE0F
:101A4000012070BD601CC4B2012CE7DB00240EE055
:101A5000964800EB84000068A84206D106F10B010D
:101A60002846FFF7C1FD0320EBE7601CC4B28F4896
:101A7000A43890F80C02A042EADC002410E08C4864
:101A800050F82400A84209D13146864800F06CFB8A
:101A90008548006810F044FE0220D2E7601CC4B202
:101AA000102CECD3002410E0824850F82400A84207
:101AB00009D131467B4800F057FB7B48006810F0A5
:101AC0002FFE0220BDE7601CC4B21F2CECD3002403
:101AD00010E0794850F82400A84209D131467148F5
:101AE00000F042FB7048006810F01AFE0220A8E7E0
:101AF000601CC4B2222CECD3002410E06F4850F8D4
:101B00002400A84209D13146664800F02DFB664802
:101B1000006810F005FE022093E7601CC4B2132C8D
:101B2000ECD300208DE700B585B0022164480DF0AC
:101B3000DFF888B16A46002161480CF056FF0221A7
:101B40005F480DF070F96846FFF75EFF01205D49C0
:101B5000087148710A20C88005B000BD00B585B085
:101B6000102157480DF0C4F888B16A460121544845
:101B70000CF03BFF102152480DF055F96846FFF775
:101B800043FF01204F49087148710A20C88005B001
:101B900000BD70B50546287A042801D16E6800E0C2
:101BA0002E68002415E0484850F82400B0420ED1B9
:101BB00005F10B013046FFF717FD2946434800F0B9
:101BC000D3FA4348006810F0ABFD012070BD601CE3
:101BD000C4B2022CE7DB00240EE0344800EB8400A2
:101BE0000068B04206D105F10B013046FFF7FCFC5E
:101BF0000320EBE7601CC4B22C48A43890F80C0218
:101C0000A042EADC002410E0324850F82400B04240
:101C100009D129462D4800F0A7FA2D48006810F098
:101C20007FFD0220D2E7601CC4B2582CECD3002008
:101C3000CCE700B585B0022127480DF059F888B1EE
:101C40006A46002124480CF0D0FE022122480DF003
:101C5000EAF86846FFF79DFF01201A4908724872AA
:101C60000A20488105B000BD00B585B010211A4892
:101C70000DF03EF888B16A46012117480CF0B5FE18
:101C8000102115480DF0CFF86846FFF782FF0120BC
:101C90000C49087248720A20488105B000BD000056
:101CA00054180020AC2900204C180020E81C00200B
:101CB0005818002098180020141900209C190020A2
:101CC000006400406C1B0020E8190020F02A00206E
:101CD00050180020F01900200068004010B5FFF7F0
:101CE00048F8FE49087008460078FD49097888429E
:101CF00008D0FA48007828B91E20FA490880002048
:101D0000F9490870F5480078012832D1F548008873
:101D100020B1F4480088401EF2490880F14800884C
:101D2000B8B9F2484079A0B9F048407A88B9EE488D
:101D3000007870B90120EC4908700520EC49087062
:101D40000420EC4948830020E8490871EAA007F024
:101D5000A1FBE748007860B1E5480078401EE449FF
:101D600008700846007820B9FFF785FCE5A007F069
:101D700091FBDB480078DA49087010BDDB48C08869
:101D800028B1DA48C088401ED849C88002E0002047
:101D9000D6494871D548408928B1D4484089401E69
:101DA000D249488102E00020D0494872704701467C
:101DB0000878704700210170704710B502460B4645
:101DC0000BB9002010BD23F07F4300210DE002F18C
:101DD0002C0050F82100984205D11E2402F1540035
:101DE00044540020EEE7481CC1B20A29EFDB002171
:101DF00012E002F12C0050F8210058B902F12C0039
:101E000040F821301E24283044545078401C507033
:101E10000120D7E7481CC1B20A29EADB0020D1E73C
:101E200000211BE000F12C0252F82120A2B100F1A8
:101E30005402525C42B100F15402525C521ED3B2C1
:101E400000F15402535407E0002300F12C0242F841
:101E500021304278521E42704A1CD1B20A29E1DB7D
:101E6000704710B502460020002323E002F12C0445
:101E700054F82340E4B102F12C0414F8234001F893
:101E8000014B02F12C0434F82340240A01F8014BE1
:101E900002F12C0454F82340240C01F8014B02F108
:101EA0002C0454F82340240E01F8014B441CE0B2EA
:101EB0005C1CE3B20A2BD9DB08B90024547010BDB6
:101EC0000146487870472DE9F05F80460C469246FF
:101ED0000026B1468E484044002842D0B0F5803FED
:101EE00017D08C49084400287ED1A078E17800EB17
:101EF0000120217900EB0140617900EB0165681C4C
:101F000020B11DB129468448FFF757FF4FF0010962
:101F1000ABE06079CA2816D1A079FE2813D1E07908
:101F200088B96178881EC11700EB9171C1F38701F0
:101F30007A4A1170E0787A4908700120794908706E
:101F4000794908700AE06079E32807D1A079FE2872
:101F500004D1E07910B90120744908704FF00109EB
:101F600083E072480078012805D12078032802D147
:101F700000206E4908706C48007800B975E0207840
:101F80006849097888426CD167480078012868D18F
:101F90002078012810D1FF2228215F48C01C13F0AF
:101FA00023FC5D48D4F80310C0F80310E179C17137
:101FB00005205949887014E057488078212810DAA4
:101FC00055488178C01C0844D4F801100160B4F869
:101FD00005108180E17981714F488078C01D4E499C
:101FE00088705048007800E03EE0401C4D49087081
:101FF000084600784A490978884232DD002725E002
:102000004548C01C825D711C405C02EB00224248C6
:10201000C01CB11C405C02EB00423F48C01CF11CDC
:10202000405C02EB0065301DC6B2681C60B15DB15A
:1020300029463948FFF7C1FE8346BBF1010F02D1A3
:1020400001203549087000BF781CC7B233480078BA
:102050008742D5DB00203349087031490870324986
:1020600008704FF0010900E000BF00BF4846BDE81E
:10207000F09F10B5FE202E4948700020887088809F
:102080008880087211212A48093013F0B4FB00201F
:1020900027498876FF22122125481B3013F0A4FB24
:1020A0000020234981F82D00FF22122120482E30E4
:1020B00013F09AFB00201E4981F84000FF222421E2
:1020C0001B48413013F090FB0020194981F865004E
:1020D00050211748683013F08EFB10BD7A1B00208A
:1020E0007B1B00207C1B00207F1B00206C1B002022
:1020F0007E1B00200000024043616E204F66662177
:102100000A00000043616E2052657374210A0000CA
:10211000000114E70035EDFFB4240020801B0020EF
:10212000811B0020821B0020841B0020831B0020B9
:10213000FC23002000200FE0002100EB4002F74BC1
:1021400043F8221000EB40011A4602EB8101002205
:102150004A608A60411CC8B25A28EDDB704770475C
:10216000002101704170704730B50478621CD417AB
:1021700002EB14742411A2EB0414E3B242789A42E5
:102180006FD0027802EB8205021D0C6842F82540F0
:10219000027802EB8205021D02EB85024C68546056
:1021A0000C7A027802EB8205021D02EB85021472A2
:1021B0004C7A027802EB8205021D02EB8502547212
:1021C0008C7A027802EB8205021D02EB8502947282
:1021D000CC7C027802EB8205021D02EB8502D474EE
:1021E000CC7A027802EB8205021D02EB8502D472E2
:1021F0000C7B027802EB8205021D02EB8502147350
:102200004C7B027802EB8205021D02EB85025473BF
:102210008C7B027802EB8205021D02EB850294732F
:10222000CC7B027802EB8205021D02EB8502D4739F
:102230000C7C027802EB8205021D02EB850214740D
:102240004C7C027802EB8205021D02EB850254747D
:102250008C7C027802EB8205021D02EB85029474ED
:10226000037030BD427803789A426DD0427802EB19
:102270008203021D02EB8302127A042A0AD14278F9
:1022800002EB8203021D02EB830252680A60012204
:102290004A7108E0427802EB8203021D52F82320C3
:1022A0000A6000224A71427802EB8203021D02EBAF
:1022B0008302927A0A71427802EB8203021D02EBDA
:1022C0008302D27A8A71427802EB8203021D02EB0A
:1022D0008302137BCB71427802EB8203021D02EB77
:1022E0008302537B0B72427802EB8203021D02EBE6
:1022F0008302937B4B72427802EB8203021D02EB56
:102300008302D37B8B72427802EB8203021D02EBC5
:102310008302137CCB72427802EB8203021D02EB34
:102320008302537C0B73427802EB8203021D02EBA3
:102330008302937C4B7343785A1CD31702EB1373BD
:102340001B11A2EB0313437070470146087810304D
:102350004B78C21AD01702EB10700011A2EB0010DC
:10236000C0B270477CB5044600252279A11D2068C3
:1023700002F018FE0546012D00D17CBD2279A11D79
:10238000206804F09BFA0546012D00D1F5E722797B
:10239000A11D206803F04AFA0546012D00D1ECE7A3
:1023A0002279A11D206805F079F90546012D00D19B
:1023B000E3E76FF060412068401A35D1A0793128F9
:1023C00031D1E07961282ED1207A32282BD1607A60
:1023D000622828D1A07A332825D1E07A632822D137
:1023E000207B34281FD1607B64281CD165208DF8A8
:1023F000000035208DF8010066208DF8020036209F
:102400008DF8030067208DF8040037208DF8050053
:1024100068208DF8060038208DF807006B460822EA
:102420000120FFF75FFA00E000BF00BF00BFA4E794
:102430001FB52AE04FF4FA60FFF788FA012824D18B
:102440001EE000BF0022022135480CF0E9FB00220B
:10245000102133480CF0E4FB00BF69463148FFF718
:1024600001FF00BF012202212D480CF0D9FB0122FF
:1024700010212B480CF0D4FB00BF6846FFF772FF19
:102480002848FFF762FF0028DBDCD3E77CB5044671
:1024900000252279A11D206800F0F1F80546012DE4
:1024A00000D17CBD204920680844B0BBA079312808
:1024B00032D1E07961282FD1207A32282CD1607A6C
:1024C000622829D1A07A332826D1E07A632823D143
:1024D000207B342820D1607B64281DD165208DF8B5
:1024E000000035208DF8010066208DF802003620AE
:1024F0008DF8030067208DF8040037208DF8050063
:1025000068208DF8060038208DF807006B460822F9
:1025100049420120FFF727FA09E007E0742500206F
:1025200000640040AC290020020000E000BF00BFB2
:1025300000BFB6E71FB52AE04FF4FA60FFF747FA8D
:10254000012824D11EE000BF002202213E480CF0E9
:1025500067FB002210213C480CF062FB00BF69467B
:102560003A48FFF77FFE00BF0122022136480CF0F7
:1025700057FB0122102134480CF052FB00BF684683
:10258000FFF784FF3148FFF7E0FE0028DBDCD3E7EC
:1025900010B52F48FFF7E4FD2D48FFF7E1FD06F0E9
:1025A000A8F8FFF74EF8FFF766F810BD10B5294AF6
:1025B0000021AFF283100FF090F927490860274AF5
:1025C0000021AFF28F000FF088F92549086010BD97
:1025D00010B5FFF7D3FB05F0E6FE10BD10B5FFF711
:1025E0007DFB2048FFF71CFC1F48FFF719FC10BDBE
:1025F000014611B91D4800797047012902D11B48D5
:10260000007AF9E70020F7E7014611B91748407949
:102610007047012902D11548407AF9E70020F7E711
:10262000134890F88B02012803D01248007A012841
:1026300001D1012070470020FCE70D4890F8780296
:1026400070470A484088704700680040F02A002020
:10265000AC290020B4670108501B0020D86701088E
:10266000541B0020B4240020142500206C1B0020E3
:10267000441C0020FC2300201E218173704778B584
:1026800004460B4616460025B4F55B7F6FD06FDC21
:1026900040F28321A4EB01008C426AD04FDC40F26F
:1026A000B311A4EB01008C4201F09B832ADC40F2C1
:1026B0009311A4EB01008C4201F0D18616DC40F2AC
:1026C0008511A4EB01008C4265D008DCA4F28110D6
:1026D000002801F0A181022842F060845DE1032816
:1026E00001F090830C28F7D101F0D1B9022853D022
:1026F000102801F097841E2801F050831F28EBD189
:1027000001F05EBB362802F0C7800DDC1E287DD0AC
:1027100005DC102801F065851228DDD11CE2222895
:1027200075D03028D8D189E3402871D0B02870D036
:10273000B12801F03786C028CED102F0BCB9C0283C
:1027400001F0A08322DC202801F0BF8412DC0E28D7
:1027500001F0188205DC022872D00528BCD101F0F6
:1027600061BB102802F078801228B5D14CE1EFE36C
:1027700027E03DE1302802F0E580402802F02A8081
:10278000602871D07028A7D102F0B5B8D7381228C8
:1027900082F0048401E069E1E7E0DFE810F0AD05D4
:1027A00015062206320645067F06FF13FF13FF13A8
:1027B000F6082B11FF13FF13FF13FF13FF139506EA
:1027C000A20640F27341601A8C4202F07B8356DC11
:1027D00040F2B331A4EB01008C4202F0D18030DC36
:1027E00040F29131A4EB01008C4201F08D821BDCA0
:1027F00040F28231A4EB01008C4201F0A3820DDC97
:10280000A4F27330002802F0C78103E0D5E01EE196
:10281000F3E3F1E20E2885D101F0D2B9032876D096
:10282000062889D101F00EBB022801F0AF840328ED
:1028300002F0228004286BD010288FD101F005B956
:1028400077E0402873D010DC302871D006DC1028E7
:1028500002F04080202888D101F0D9BC312802F054
:10286000DA8032288FD16AE10BE342287BD09028AE
:1028700001F0E384B02877D0B12884D1FDE380282B
:1028800001F0968320DC4E2801F0778211DC2028AD
:1028900001F0088306DC0F2801F056811528BAD113
:1028A00001F0E0BA302801F057834028B3D101F09D
:1028B00035BB502801F01483602801F06B83702829
:1028C0007AD07128A7D1EEE3FE2802F0278310DC2E
:1028D000EF2802F0138306DC912802F0D782EE285D
:1028E00099D101F074B8F12801F07983F22892D1DE
:1028F00017E0FF2802F02283B0F5807F02F02E83DC
:10290000A0F2011028B1012885D102F037BBEBE01D
:10291000F9E01878FD4908715978FC48417102F0D6
:102920003EBB1878FA49087058784870F7E7FBE31F
:10293000ECE25878F6498870D878C87098780871B1
:10294000187888711879C872587908739879C87599
:10295000D8790876EF48006820F00100401CED4966
:1029600008600125DBE7DDE021E11879E849C8715D
:102970005879087298784872D8788872987981F86E
:102980002700D87981F82800E248006820F001008B
:10299000401CE04908600125C1E7DD480E30196898
:1029A000016059684160DB48006820F00100401C6C
:1029B000D84908600125B2E785E2187800909DF8B3
:1029C000000000F0010040B1D348006820F48060AE
:1029D00000F58060D049086005E0CF48006820F429
:1029E0008060CD490860CD48FFF746FE012596E797
:1029F0001878C7498875C748006820F00100401C56
:102A0000C449086001258AE71878C1494876587892
:102A100088769878C876D87808771879487758797A
:102A20008877987981F86A00D979B94880F86B106D
:102A3000B848006820F00100401CB649086008460C
:102A4000006820F00400001D0860012567E7B04819
:102A50001F301968016059684160AE48006820F075
:102A60000100401CAB490860012558E718795979E5
:102A700000EB01200A2190FBF1F082B2642A07DD0D
:102A8000A548006820F00100401CA349086005E04B
:102A9000A148006820F001009F4908609F48A038C5
:102AA000FFF7EAFD18789A4981F82900587881F8EB
:102AB0002A00987881F82B00D87881F82C001879B2
:102AC00081F82D00587981F82E00987981F82F002F
:102AD000D87981F830008F48006820F00100401C50
:102AE0008C49086001251AE789483130196801606E
:102AF000596841608748006820F00100401C854902
:102B0000086001250BE7824839301968016059686F
:102B100041608048006820F00100401C7D49086049
:102B20000125FCE67A481968C0F841107948006828
:102B300020F00100401C774908600125EFE6744849
:102B40001968C0F845107348006820F00100401C67
:102B5000704908600125E2E6187900F0010040B1F3
:102B60006B4890F8490040F00100694981F849003C
:102B700007E0674890F8490020F00100644981F8B7
:102B800049001978624880F86C10597880F86D1007
:102B90006048006820F00100401C5E49086008465B
:102BA000006820F00400001D08600125B7E6987851
:102BB00000909DF8000000F0010038B15648006810
:102BC00020F0400040305449086005E05248006859
:102BD00020F040005049086050484038FFF74CFD55
:102BE0009DF80000C0F3400040B14B48006820F45D
:102BF000807000F580704849086005E0464800682C
:102C000020F480704449086044482038FFF734FDC0
:102C10009DF80000C0F3800038B13F48006820F004
:102C2000800080303C49086005E03B48006820F0A7
:102C300080003949086039483038FFF71DFD9DF89C
:102C40000000C0F3C00040B13348006820F40070B9
:102C500000F500703049086005E02F48006820F456
:102C600000702D4908602D481038FFF705FD9DF8CC
:102C70000000C0F3001038B12748006820F02000A1
:102C800020302549086005E02348006820F0200036
:102C90002149086021485038FFF7EEFC987800F091
:102CA000100040B11A4890F8490040F0020018495D
:102CB00081F8490007E0164890F8490020F002002A
:102CC000134981F84900987800F0010040B110489C
:102CD00090F8490040F004000D4981F8490007E0F0
:102CE0000B4890F8490020F00400094981F8490098
:102CF000987800F0040098B1054890F8490040F039
:102D00000800034981F8490012E00000342C00203B
:102D10004D2C00208C1B0020B01B0020BC3100205B
:102D2000FE4890F8490020F00800FC4981F849006D
:102D3000987800F0080040B1F84890F8490040F059
:102D40001000F64981F8490007E0F44890F849007E
:102D500020F01000F14981F84900987800F0020055
:102D600040B1EE4890F8490040F02000EB4981F86E
:102D7000490007E0E94890F8490020F02000E749C1
:102D800081F84900D87900F0800040B1E34890F81C
:102D9000100140F00101E14880F8101107E0DF4820
:102DA00090F8100120F00101DC4880F81011D8796A
:102DB00000F0400040B1D94890F8100140F0020105
:102DC000D64880F8101107E0D44890F8100120F0A0
:102DD0000201D24880F81011D148006820F00800A4
:102DE0000830CF490860CF48006820F00100401C3F
:102DF000CC490860012592E51878C84981F84A0055
:102E0000587881F84B00987881F84C00D87881F890
:102E10004D00187981F84E00587981F84F00987963
:102E200081F85000D87981F85100BE48006820F040
:102E30000100401CBB490860012570E51878B749BE
:102E400081F852005978B54880F85310997880F885
:102E50005A10D97880F85B10197980F85610597992
:102E600080F85710997980F85E10D97980F85F1052
:102E7000AC48006820F00200801CAA4908600125C7
:102E80004DE51978A54880F85410597880F8551008
:102E9000997880F85C10D97880F85D10197980F8FD
:102EA0006610597980F86710997980F86810D97997
:102EB00080F869109B48006820F00200801C994946
:102EC000086001252BE59978944880F85810D97846
:102ED00080F85910197980F86010597980F86110DC
:102EE000997980F80011D97980F801118D4800682E
:102EF00020F00200801C8B4908608948006820F09F
:102F00000200801C86490860012508E5587900F018
:102F1000010040B1814890F8620040F001017F4813
:102F200080F8621007E07D4890F8620020F001010F
:102F30007A4880F86210587900F0020048B177486A
:102F400090F8620040F00201744880F8621008E0D6
:102F5000E4E2724890F8620020F002016F4880F8C5
:102F60006210587900F0100040B16C4890F862008F
:102F700040F00401694880F8621007E0674890F863
:102F8000620020F00401654880F86210987900F032
:102F9000020040B1614890F8620040F020015F48B3
:102FA00080F8621007E05D4890F8620020F0200190
:102FB0005A4880F86210987900F0010040B15748F3
:102FC00090F8620040F04001544880F8621007E039
:102FD000524890F8620020F04001504880F862109A
:102FE000987900F0100048B14C4890F8620040F029
:102FF00080014A4880F8621008E025E1474890F8CF
:10300000620020F08001454880F86210587900F095
:10301000040040B1414890F8630040F001013F488E
:1030200080F8631007E03D4890F8630020F001014C
:103030003A4880F86310587900F0080040B13748EA
:1030400090F8630040F00201344880F8631007E014
:10305000324890F8630020F00201304880F8631095
:10306000587900F0200048B12C4890F8630040F0F7
:1030700004012A4880F8631008E05CE2274890F8D1
:10308000630020F00401254880F86310987900F06F
:10309000080048B1214890F8630040F020011F4823
:1030A00080F8631008E0B7E31C4890F8630020F054
:1030B00020011A4880F86310987900F0040040B1AC
:1030C000164890F8630040F04001144880F86310FF
:1030D00007E0124890F8630020F040010F4880F8A4
:1030E0006310987900F0200040B10C4890F863001C
:1030F00040F08001094880F8631007E0074890F825
:10310000630020F08001054880F8631019780348B7
:1031100080F86410597880F8651006E04D2C002086
:10312000901B00208C1B00206AE0D87900F004007E
:1031300040B1F74890F8020140F00101F44880F8EE
:10314000021107E0F24890F8020120F00101F04876
:1031500080F80211D87900F0080040B1EC4890F8EE
:10316000020140F00201EA4880F8021107E0E84855
:1031700090F8020120F00201E54880F80211D879A8
:1031800000F0100040B1E24890F8020140F0040164
:10319000DF4880F8021107E0DD4890F8020120F0D6
:1031A0000401DB4880F80211D87900F0200040B11A
:1031B000D74890F8020140F00801D54880F8021184
:1031C00007E0D34890F8020120F00801D04880F8C9
:1031D00002119978CE4880F8FE10D97880F8FF1057
:1031E000CC48006820F00200801CCA490860CA4828
:1031F000006820F00200801CC7490860012525E412
:103200001979C34880F86E10597980F86F101979D0
:1032100080F87010597980F87110997980F85611FA
:10322000D97980F85711BB48006820F00400001DD0
:10323000B8490860B848006820F4804000F5804034
:10324000B5490860012510E4187800F0080040B185
:10325000AF4890F8720040F00101AD4880F872105C
:1032600007E0AB4890F8720020F00101A84880F810
:103270007210987800F0010040B1A54890F858010C
:1032800040F00201A24880F8581107E0A04890F8E9
:10329000580120F002019E4880F85811987800F0FB
:1032A000020040B19A4890F8580140F00401984853
:1032B00080F8581107E0964890F8580120F0040172
:1032C000934880F858119879914981F85401D97937
:1032D0008F4880F855118F48006820F00400001DC9
:1032E0008C4908608C48006820F4804000F58040DC
:1032F00089490860012505E4D878854981F873007B
:103300001979834880F87410997880F875101878C6
:1033100000F0010040B17E4890F8890040F00101C2
:103320007B4880F8891007E0794890F8890020F000
:103330000101774880F88910187800F0020040B148
:10334000734890F8890040F00201714880F88910B4
:1033500007E06F4890F8890020F002016C4880F87F
:103360008910187800F0040040B1694890F889008D
:1033700040F00401664880F8891007E0644890F83E
:10338000890020F00401624880F88910187800F064
:10339000080040B15E4890F8890040F008015C48A0
:1033A00080F8891007E05A4890F8890020F0080159
:1033B000574880F889105748006820F020002030D6
:1033C00054490860012516E51978514880F87610AF
:1033D0005048006820F0200020304E490860012548
:1033E00009E559784A4880F87710997880F878107C
:1033F0004848006820F02000203046490860012538
:10340000F9E41978424880F87910997880F87A10B0
:10341000D97880F87B103F48006820F020002030E9
:103420003C4908600125E6E4187800F0010040B14D
:10343000374890F8820040F00101354880F882104A
:1034400007E0334890F8820020F00101304880F80E
:103450008210187800F0020040B12D4890F88200E8
:1034600040F002012A4880F8821007E0284890F8CE
:10347000820020F00201264880F8821099782448C2
:1034800080F87C10D97880F87D102248006820F000
:10349000200020301F4908600125ACE419781C4841
:1034A00080F87E10597880F87F10997880F8801025
:1034B000D97880F881101748006820F0200020306B
:1034C00014490860012596E45978114880F8831062
:1034D0001048006820F0200020300E4908600125C7
:1034E00089E419780A4880F88410597880F88510A2
:1034F000197980F88610597980F887100548006896
:1035000020F02000203003490860012573E400000A
:103510004D2C00208C1B0020901B00205978F9486E
:1035200080F88810F848006820F020002030F64924
:10353000086001255FE4D87800909DF8000000F055
:10354000010038B1F148006820F040004030EF49F8
:10355000086005E0ED48006820F04000EB49086095
:103560009DF80000C0F3400038B1E848006820F042
:1035700080008030E549086005E0E448006820F0FC
:103580008000E2490860E248FFF776F8E048103032
:10359000FFF772F89DF80000C0F3800040B1DB48EF
:1035A000006820F4806000F58060D849086005E07C
:1035B000D648006820F48060D44908609DF8000077
:1035C000C0F3C00040B1D148006820F4006000F5AD
:1035D0000060CE49086005E0CC48006820F4006037
:1035E000CA490860CA484030FFF746F8C84850301A
:1035F000FFF742F89DF80000C0F3001038B1C3484F
:10360000006820F010001030C049086005E0BF4895
:10361000006820F01000BD4908609DF80000C0F36C
:10362000401038B1B948006820F020002030B74978
:10363000086005E0B548006820F02000B349086044
:10364000B3482038FFF718F8B1481038FFF714F8DE
:103650009DF80000C0F3801040B1AC48006820F431
:10366000807000F58070A949086005E0A7480068EF
:1036700020F48070A54908609DF80000C00940B1A1
:10368000A248006820F4007000F500709F490860AF
:1036900005E09E48006820F400709C4908609C4842
:1036A0002030FEF7E9FF9A483030FEF7E5FF587802
:1036B00000F0010040B1934890F88A0040F001000A
:1036C000904981F88A0007E08E4890F88A0020F03F
:1036D00001008C4981F88A00587800F0020040B15E
:1036E000884890F88A0040F02000864981F88A00D6
:1036F00007E0844890F88A0020F02000814981F892
:103700008A00587800F0040040B17E4890F88A00A2
:1037100040F040007B4981F88A0007E0794890F842
:103720008A0020F04000774981F88A00587800F03C
:10373000080040B1734890F88A0040F08000714959
:1037400081F88A0007E06F4890F88A0020F0800036
:103750006C4981F88A00587800F0100040B169483F
:1037600090F88F0040F00101664880F88F1007E064
:10377000644890F88F0020F00101624880F88F10B3
:10378000587800F0200040B15E4890F88F0040F07B
:1037900020015C4880F88F1007E05A4890F88F00AD
:1037A00020F02001574880F88F10587800F0400032
:1037B00040B1544890F88F0040F04001514880F8E3
:1037C0008F1007E04F4890F88F0020F040014D48DF
:1037D00080F88F10587800F0800040B1494890F888
:1037E0008F0040F08001474880F88F1007E045487F
:1037F00090F88F0020F08001424880F88F1099786F
:10380000404880F80F114048006820F040004030E8
:103810003D4908600125F2E4187800F0100040B13D
:10382000384890F88A0040F00200364981F88A0052
:1038300007E0344890F88A0020F00200314981F80E
:103840008A00187800F0200040B12E4890F88A00D5
:1038500040F004002B4981F88A0007E0294890F8DD
:103860008A0020F00400274981F88A00187800F0C7
:10387000400040B1234890F88A0040F008002149F8
:1038800081F88A0007E01F4890F88A0020F00800BD
:103890001C4981F88A00187800F0800040B119486E
:1038A00090F88A0040F01000164981F88A0007E07D
:1038B000144890F88A0020F01000124981F88A001C
:1038C000187800F0010040B10E4890F88F0040F0E9
:1038D00002010C4880F88F1007E00A4890F88F002A
:1038E00020F00201074880F88F10187800F00200DD
:1038F00080B1044890F88F0040F00401014880F83E
:103900008F100FE04D2C00208C1B0020AC1B0020E2
:10391000BC300020F84890F88F0020F00401F648F1
:1039200080F88F10187800F0040040B1F24890F849
:103930008F0040F00801F04880F88F1007E0EE4853
:1039400090F88F0020F00801EB4880F88F1018786D
:1039500000F0080040B1E84890F88F0040F01001F6
:10396000E54880F88F1007E0E34890F88F0020F0DA
:103970001001E14880F88F10E048006820F0400016
:103980004030DE490860012539E41979DA4880F8C9
:103990008B10597980F88C10997980F88D10D9792D
:1039A00080F88E10197880F89010597880F891106E
:1039B000997880F89210D97880F89310CF480068F1
:1039C00020F040004030CD490860012517E4187808
:1039D000C94981F894005978C74880F895109978BA
:1039E00080F89610D97880F897101879C4498871B2
:1039F0005879C87198790872C248006820F00100AF
:103A0000401CC0490860BD48006820F0800080303C
:103A1000BA490860012516E45978B74880F898102B
:103A2000D97880F89910997880F89A10197980F8E7
:103A3000A410597980F8A710B048006820F08000E1
:103A40008030AE490860012555E41978AA4880F80D
:103A50009C10997980F89D10197980F89E105979F9
:103A600080F89F10997880F8A010D97880F8A1107C
:103A7000597880F8A210D97980F8A3109F4800687F
:103A800020F0800080309D490860012533E41878DB
:103A900000F0010040B1984890F8A50040F0020104
:103AA000954880F8A51007E0934890F8A50020F00D
:103AB0000201914880F8A510187800F0020040B18A
:103AC0008D4890F8A50040F004018B4880F8A510BF
:103AD00007E0894890F8A50020F00401864880F8A6
:103AE000A510187800F0100040B1834890F8A500A8
:103AF00040F00801804880F8A51007E07E4890F863
:103B0000A50020F008017C4880F8A510187800F086
:103B1000080040B1784890F8A50040F010017648C0
:103B200080F8A51007E0744890F8A50020F0100177
:103B3000714880F8A5107148006820F0800080303E
:103B40006E49086001253EE4987800F0010040B11C
:103B5000694890F8A50040F00101674880F8A51079
:103B600007E0654890F8A50020F00101624880F860
:103B7000A5106248006820F0800080305F4908602E
:103B8000012520E4187800F0010040B15A4890F86F
:103B9000A50040F02001584880F8A51007E05648DD
:103BA00090F8A50020F02001534880F8A510534854
:103BB000006820F0800080305049086001250FE443
:103BC000187800F0010040B14B4890F8A60040F092
:103BD0000801494880F8A61007E0474890F8A60079
:103BE00020F00801444880F8A610187800F0020080
:103BF00040B1414890F8A60040F010013E4880F8DE
:103C0000A61007E03C4890F8A60020F010013A48C2
:103C100080F8A610187800F0040040B1364890F8FB
:103C2000A60040F02001344880F8A61007E0324892
:103C300090F8A60020F020012F4880F8A610D87830
:103C400000F0010040B12C4890F8A50040F0400180
:103C5000294880F8A51007E0274890F8A50020F033
:103C60004001254880F8A510D87800F0020040B146
:103C7000214890F8A50040F080011F4880F8A51069
:103C800007E01D4890F8A50020F080011A4880F850
:103C9000A510D87800F0040040B1174890F8A600AD
:103CA00040F00101144880F8A61007E0124890F88F
:103CB000A60020F00101104880F8A610D87800F086
:103CC000080040B10C4890F8A60040F002010A48F4
:103CD00080F8A61007E0084890F8A60020F002013E
:103CE000054880F8A6100548006820F08000803064
:103CF00002490860012509E44D2C00208C1B00209E
:103D0000CF2F0020A41B0020187800F0010040B144
:103D1000FE4890F8A60040F00401FC4880F8A61088
:103D200007E0FA4890F8A60020F00401F74880F870
:103D3000A610F748006820F080008030F449086041
:103D4000012568E5F1488030196881625968C162CF
:103D5000D878EE4981F8FD00ED48006820F48070C5
:103D600000F58070EA490860EA48006820F0020027
:103D7000801CE849086001254DE51978E34880F882
:103D8000B010597880F8B110E148006820F48070D4
:103D900000F58070DE49086001253CE51878DB49B4
:103DA00081F8B2005978D94880F8B310D848006833
:103DB00020F4007000F50070D549086001252AE55F
:103DC0001978D24880F8B410597880F8B510D048E6
:103DD000006820F4007000F50070CD4908600125EE
:103DE00019E51978C94880F8B610597880F8B710E5
:103DF000C748006820F4007000F50070C4490860EE
:103E0000012508E5C1488030196881635968C1639C
:103E1000BF48006820F4806000F58060BC490860FD
:103E20000125F8E4B948B830196881605968C16063
:103E3000B748006820F4806000F58060B4490860ED
:103E40000125E8E4B148B830196801615968416159
:103E5000AF48006820F4806000F58060AC490860DD
:103E60000125D8E4A948B830196881615968C16151
:103E7000A748006820F4806000F58060A4490860CD
:103E80000125C8E4A1488030196881655968C16579
:103E90009F48006820F4006000F500609C490860BD
:103EA0000125B8E49948E03019680160998881805B
:103EB0009979E03880F80711D97980F80811944889
:103EC000006820F4805000F58050914908609148C6
:103ED000006820F00400001D8E49086001259AE466
:103EE0008A48E63019680160596841609979E63876
:103EF00080F80911D97980F80A118548006820F402
:103F0000005000F50050824908608248006820F0A7
:103F10000400001D7F49086001257CE418787B4976
:103F200081F8EE001979794880F8EF10597880F817
:103F3000F010997880F8F110597980F8F210D9785A
:103F400080F8F3107248006820F4804000F580404B
:103F50006F49086001255EE46C48F430196801601F
:103F6000197901715979F43880F80B11997980F831
:103F70000C116748006820F4004000F500406449D7
:103F800008606448006820F00400001D6149086072
:103F9000012540E45D48D3F80310C0F8F9105D48EE
:103FA000006820F00100401C5A490860012532E4F5
:103FB0001878564981F803015978544880F804115B
:103FC000997880F80511D97880F806115148006871
:103FD00020F00400001D4F49086001251BE41878FB
:103FE0004A4981F80D015978484880F80E1119792D
:103FF00080F82911597980F82A11997980F82D11C2
:10400000D97980F82E114348006820F00800083064
:10401000404908600846006820F020002030086011
:104020000125B1E41878394981F8110159783748E8
:1040300080F81211997880F81311D97880F814114A
:10404000197880F81F11597880F82011997880F834
:104050002111D97880F8221118782C4981F8430170
:1040600059782A4880F84411997880F84511D97810
:1040700080F846111879254981F849015979234872
:1040800080F84A11997980F84B11D97980F84C1150
:104090002048006820F0100010301E4908600846D3
:1040A000006820F02000203008600846006820F4F6
:1040B000006000F5006008600846006820F4805049
:1040C00000F58050086001255EE419780F4880F8FB
:1040D0001511597880F81611197880F82711597838
:1040E00080F82811197880F84711597880F848111C
:1040F000987900F0010078B1044890F84D0140F043
:104100000201024880F84D110EE000004D2C002005
:104110008C1B0020901B0020FE4890F84D0120F0E1
:104120000201FC4880F84D11987900F0020040B17E
:10413000F84890F84D0140F00401F64880F84D1120
:1041400007E0F44890F84D0120F00401F14880F8B0
:104150004D11F148006820F010001030EE49086061
:104160000846006820F020002030086008460068FB
:1041700020F4006000F5006008600846006820F444
:10418000805000F58050086001251FE41878E1494F
:1041900081F817015978DF4880F81811997880F86C
:1041A0001911D97880F81A11197980F82B115979D9
:1041B00080F82C119879D74981F83101D979D548FF
:1041C00080F83211D448006820F020002030D24915
:1041D00008600846006820F08000803008600125F3
:1041E00019E41978CB4880F81B11597880F81C1114
:1041F000997880F81D11D97880F81E11C64800689A
:1042000020F020002030C449086001251CE4197802
:10421000C04880F82311597880F82411997880F8E3
:104220002511D97880F82611BB48006820F02000BD
:104230002030B9490860012506E4187800909DF8FF
:104240000000C0F3C00038B1B448006820F002009C
:10425000801CB249086005E0B048006820F0020008
:10426000AE490860AE48FEF707FA9DF80000C0F3BB
:10427000001038B1A948006820F00400001DA749CB
:10428000086005E0A548006820F00400A349086024
:10429000A3481030FEF7F0F9587800909DF8000020
:1042A00000F0010038B19D48006820F00800083097
:1042B0009A49086005E09948006820F0080097498D
:1042C000086097482030FEF7D7F99DF80000C0F34A
:1042D000C00038B19148006820F0100010308F49BC
:1042E000086005E08D48006820F010008B490860E8
:1042F0008B483030FEF7C0F9D87800F0080040B1A4
:10430000844890F82F0140F00101824880F82F1175
:1043100007E0804890F82F0120F001017D4880F8E7
:104320002F11187800F0010040B17A4890F84D0143
:1043300040F00101774880F84D1107E0754890F88A
:104340004D0120F00101734880F84D11187800F0FC
:10435000020040B16F4890F8580140F001016D48EB
:1043600080F8581107E06B4890F8580120F00101DF
:10437000684880F858116848006820F02000203014
:10438000654908600846006820F4805000F58050B8
:1043900008600846006820F4804000F5804008600E
:1043A00001250CE4187800F0010040B1594890F85C
:1043B000300140F00100574981F8300107E05548CD
:1043C00090F8300120F00100524981F8300118784E
:1043D00000F0020040B14F4890F8300140F0020078
:1043E0004C4981F8300107E04A4890F8300120F04C
:1043F0000200484981F83001187800F0040040B10B
:10440000444890F8300140F00800424981F83001FA
:1044100007E0404890F8300120F008003D4981F85D
:104420003001187800F0080040B13A4890F83001A7
:1044300040F01000374981F8300107E0354890F826
:10444000300120F01000334981F830013248006813
:1044500020F0400040303049086001254BE41879D5
:1044600000909DF8000000F0010088B99DF8000060
:10447000C0F3001060B99DF80000C0F3401038B1DF
:104480002848006820F00100401C2649086005E02B
:104490002448006820F00100224908601879009043
:1044A0009DF8000000F0010060B19DF80000C0F32D
:1044B000400038B91B48006820F00800083019494E
:1044C000086005E01748006820F0080015490860FA
:1044D000D87800909DF8000000F0010038B1114834
:1044E000006820F00400001D0E49086005E00D483A
:1044F000006820F004000B4908609DF80000C0F33C
:10450000400088B10748006820F00200801C05497F
:1045100008600FE04D2C0020901B0020B01B0020F5
:104520002C310020AC1B0020FE48006820F0020067
:10453000FC490860FC48FEF79FF8FB481030FEF786
:104540009BF8F9482030FEF797F8F7483030FEF72F
:1045500093F8587900F0200040B1F44890F8300109
:1045600040F00400F14981F8300107E0EF4890F88D
:10457000300120F00400ED4981F83001587900F055
:10458000400040B1E94890F8300140F02000E74990
:1045900081F8300107E0E54890F8300120F0200074
:1045A000E24981F83001187800F0010040B1DF489D
:1045B00090F8370140F00100DC4981F8370107E04D
:1045C000DA4890F8370120F00100D84981F8370126
:1045D000187800F0020040B1D44890F8370140F05C
:1045E0000200D24981F8370107E0D04890F837013E
:1045F00020F00200CD4981F83701187800F0200042
:1046000040B1CA4890F8370140F00400C74981F82A
:10461000370107E0C54890F8370120F00400C3498E
:1046200081F83701187800F0100040B1BF4890F8C9
:10463000370140F00800BD4981F8370107E0BB4869
:1046400090F8370120F00800B84981F8370118794F
:1046500000F0010040B1B54890F8370140F010007B
:10466000B24981F8370107E0B04890F8370120F0EF
:104670001000AE4981F83701187900F0020040B10E
:10468000AA4890F8370140F02000A84981F8370186
:1046900007E0A64890F8370120F02000A34981F8F0
:1046A0003701187900F0200040B1A04890F8370198
:1046B00040F040009D4981F8370107E09B4890F8A1
:1046C000370120F04000994981F83701187900F04E
:1046D000100040B1954890F8370140F080009349B0
:1046E00081F8370107E0914890F8370120F0800009
:1046F0008E4981F83701187800F0400040B18B48AE
:1047000090F8380140F00101884880F8381107E03E
:10471000864890F8380120F00101844880F838116B
:10472000187800F0800040B1804890F8380140F0DF
:1047300002017E4880F8381107E07C4890F8380183
:1047400020F00201794880F838115978774880F8CC
:104750003B11587900F0010040B1744890F83C01D9
:1047600040F00100714981F83C0107E06F4890F882
:104770003C0120F001006D4981F83C01587900F0BE
:10478000020040B1694890F83C0140F002006749DE
:1047900081F83C0107E0654890F83C0120F00200F8
:1047A000624981F83C016248006820F040004030D6
:1047B0005F4908600846006820F4807000F580704A
:1047C00008600846006820F4007000F5007008607A
:1047D0000125E4E3987800F0010040B1534890F8D7
:1047E000300140F04000514981F8300107E04F4866
:1047F00090F8300120F040004C4981F83001987861
:1048000000F0080040B1494890F8300140F08000C5
:10481000464981F8300107E0444890F8300120F023
:104820008000424981F830019879404981F83F0180
:10483000D9793E4880F840113D48006820F040009A
:1048400040303B4908600846006820F4806000F56D
:10485000806008600125A2E39978344880F833111C
:10486000D97880F834113248006820F08000803018
:104870002F490860012592E399792C4880F8351179
:10488000D97980F836112A48006820F080008030FD
:1048900027490860012582E31978244880F83911F6
:1048A000597880F83A11997980F83D11D97980F8D2
:1048B0003E111F48006820F4807000F580701C498C
:1048C00008600846006820F4007000F50070086079
:1048D000012564E31978154880F84111597880F86A
:1048E00042111348006820F4806000F58060104990
:1048F0000860012553E318780C4981F84E01597876
:104900000A4880F84F11997880F85011D97880F8CA
:104910005111197980F85211597980F853110448CE
:10492000006807E0AC1B00205C3000204D2C00200C
:10493000901B002020F4005000F50050FB49086057
:1049400001252CE31878FA4981F859015978F8487B
:1049500080F85A11997880F85B11D97880F85C1149
:10496000997980F85F11D97980F86011EF48006873
:1049700020F4004000F50040EC49086001250EE3FA
:10498000187800F0010040B1E94890F8610140F06A
:104990000100E74981F8610107E0E54890F861010D
:1049A00020F00100E24981F86101187800F002006E
:1049B00040B1DF4890F8610140F00200DC4981F825
:1049C000610107E0DA4890F8610120F00200D8495F
:1049D00081F861019979D64880F86211D97980F817
:1049E0006311D448006820F00100401CD1490860E0
:1049F0000125D4E21879CE4981F864015979CC486F
:104A000080F86511CB48006820F00200801CC9497D
:104A100008600125C3E29879C54981F86601D97912
:104A2000C34880F86711587900F0010040B1C048D0
:104A300090F8680140F00101BD4880F8681107E076
:104A4000BB4890F8680120F00101B94880F868116E
:104A5000587900F0020040B1B54890F8680140F084
:104A60000201B34880F8681107E0B14890F8680186
:104A700020F00201AE4880F86811587900F0040077
:104A800040B1AB4890F8680140F00401A84880F8B4
:104A9000681107E0A64890F8680120F00401A448D6
:104AA00080F86811A348006820F00400001DA149A7
:104AB0000860012573E2187800F0010040B19C48BD
:104AC00090F86F0140F00101994880F86F1107E0FC
:104AD000974890F86F0120F00101954880F86F1118
:104AE000187800F0020040B1914890F86F0140F052
:104AF00002018F4880F86F1107E08D4890F86F0130
:104B000020F002018A4880F86F11187800F0040044
:104B100040B1874890F86F0140F00401844880F864
:104B20006F1107E0824890F86F0120F0040180487F
:104B300080F86F11187800F0080040B17C4890F8B8
:104B40006F0140F008017A4880F86F1107E078485B
:104B500090F86F0120F00801754880F86F1198787F
:104B6000734981F86901D978714880F86A11997997
:104B700080F86B11D97980F86C11197980F873116C
:104B8000597980F874116B48006820F008000830EB
:104B900068490860012502E2187800F0800040B101
:104BA000634890F86F0140F01001614880F86F1180
:104BB00007E05F4890F86F0120F010015C4880F832
:104BC0006F11587800F0080040B1594890F86F0113
:104BD00040F02001564880F86F1107E0544890F8E3
:104BE0006F0120F02001524880F86F11587800F0D2
:104BF000020040B14E4890F86F0140F040014C482F
:104C000080F86F1107E04A4890F86F0120F04001EA
:104C1000474880F86F11587800F0010040B14448CF
:104C200090F86F0140F08001414880F86F1107E073
:104C30003F4890F86F0120F080013D4880F86F11E7
:104C4000587800F0040040B1394890F8700140F005
:104C50000101374880F8701107E0354890F870017D
:104C600020F00101324880F87011587800F01000EF
:104C700040B12F4890F8700140F002012C4880F8B4
:104C8000701107E02A4890F8700120F002012848CE
:104C900080F870119878264981F87501D9782448F0
:104CA00080F87611997980F87711D97980F87811A0
:104CB000197980F87F11597980F88011187800F0FF
:104CC000010040B11A4890F87B0140F001011848FA
:104CD00080F87B1107E0164890F87B0120F0010175
:104CE000134880F87B11187800F0020040B110489A
:104CF00090F87B0140F002010D4880F87B1107E03D
:104D00000B4890F87B0120F00201094880F87B11E4
:104D1000187800F0040078B1054890F87B0140F065
:104D20000401034880F87B110EE00000901B002076
:104D30004D2C0020941B0020FE4890F87B0120F0B1
:104D40000401FC4880F87B11187800F0080040B19D
:104D5000F84890F87B0140F00801F64880F87B1194
:104D600007E0F44890F87B0120F00801F14880F852
:104D70007B11187800F0800040B1EE4890F87B017C
:104D800040F01001EB4880F87B1107E0E94890F80B
:104D90007B0120F01001E74880F87B11587800F083
:104DA000080040B1E34890F87B0140F02001E14861
:104DB00080F87B1107E0DF4890F87B0120F02001AC
:104DC000DC4880F87B11587800F0020040B1D948E7
:104DD00090F87B0140F04001D64880F87B1107E055
:104DE000D44890F87B0120F04001D24880F87B1134
:104DF000587800F0010040B1CE4890F87B0140F0B7
:104E00008001CC4880F87B1107E0CA4890F87B010C
:104E100020F08001C74880F87B11587800F004002A
:104E200040B1C44890F87C0140F00101C14880F8CD
:104E30007C1107E0BF4890F87C0120F00101BD48DB
:104E400080F87C11587800F0100040B1B94890F813
:104E50007C0140F00201B74880F87C1107E0B548BA
:104E600090F87C0120F00201B24880F87C11B24831
:104E7000006820F008000830AF4908600846006864
:104E800020F0100010300860012588E01978A9484A
:104E900080F86D11597880F86E11997880F8791141
:104EA000D97880F87A11A448006820F0080008300A
:104EB000A14908600846006820F010001030086022
:104EC00001256CE019789B4880F87111597880F8B9
:104ED0007211997880F87D11D97880F87E11964802
:104EE000006820F008000830934908600846006810
:104EF00020F0100010300860012550E018788F492C
:104F000088745878C874987808758D48006820F0BF
:104F10000100401C8A490860012540E01879874952
:104F2000C87058790871987948718548006820F0F0
:104F30000100401C82490860012530E018797F4952
:104F4000C87358790874987948747D48006820F0CF
:104F50000100401C7A490860002520E01879774953
:104F6000087358794873987988737548006820F0F9
:104F70000100401C72490860002510E018796F4953
:104F8000087058794870987988706D48006820F0EA
:104F90000100401C6A490860012500E000BF00BF15
:104FA000284678BD70B5034614460020654D5A1B4F
:104FB000AB4276D01ADC644DA3EB0502AB4271D054
:104FC0000ADC624A1A44002A6DD0B2F5606F6BD0D9
:104FD000B2F5805F69D14CE3B2F5007F7BD0B2F5CA
:104FE000506F79D0B2F5606FF4D114E0B2F5804F14
:104FF00073D009DCB2F5885F70D0B2F5905F6ED0E7
:10500000B2F5985FE6D18EE1B2F5824F68D0B2F585
:10501000A84FDFD15FE30A784D4D2A704A7802F03D
:1050200001022AB12A46527842F001026A7005E074
:10503000474A527822F00102454D6A704A7802F0E0
:10504000020232B1424A527842F00202404D6A7086
:1050500005E03F4A527822F002023D4D6A704A78DC
:1050600002F0100242B13A4A92F86A2042F0020578
:10507000374A82F86A5007E0354A92F86A2022F0EF
:105080000205334A82F86A504A7802F008026AB18F
:105090002F4A92F86A2042F004052D4A82F86A509D
:1050A0000CE0A3E2FAE1C5E25AE0BBE3284A92F839
:1050B0006A2022F00405264A82F86A504A7802F0F3
:1050C000080272B1224A92F86A2042F00805204A8A
:1050D00082F86A500DE0EEE278E2F0E134E252E26A
:1050E00092E21B4A92F86A2022F00805184A82F8D8
:1050F0006A504A7802F0040242B1154A92F86A20D6
:1051000042F04005124A82F86A5007E0104A92F8CD
:105110006A2022F040050E4A82F86A500D4A126851
:1051200022F00102521C0B4D2A602A46126822F01E
:10513000400211E04D2C0020941B0020CF2F0020B6
:10514000A41B0020214BF21C212DF21CDFF00DE3EB
:10515000E52D0020981B002040322A60012063E3E7
:10516000CA79F74DAA70CA7802F0100232B12A4605
:10517000D27842F00105F24AD57005E0F04AD278C3
:1051800022F00105EE4AD570CA7802F0200232B151
:10519000EB4AD27842F00205E94AD57005E0E84AC8
:1051A000D27822F00205E64AD5704A7802F0010270
:1051B00032B1E34AD27842F00405E14AD57005E005
:1051C000DF4AD27822F00405DD4AD5704A7802F031
:1051D000020232B1DA4AD27842F00805D84AD570D4
:1051E00005E0D74AD27822F00805D54AD5704A782A
:1051F00002F0040232B1D24AD27842F01005D04A0D
:10520000D57005E0CE4AD27822F01005CC4AD57090
:105210004A7802F0080232B1C94AD27842F0200539
:10522000C74AD57005E0C64AD27822F02005C44AA4
:10523000D5704A7802F0100232B1C14AD27842F0F9
:105240004005BF4AD57005E0BD4AD27822F040053E
:10525000BB4AD5708A7902F0400242B1B84A92F84E
:105260006A2042F00105B64A82F86A5007E0B44A63
:1052700092F86A2022F00105B14A82F86A50CA7891
:1052800002F0400242B1AE4A92F86A2042F01005A4
:10529000AB4A82F86A5007E0A94A92F86A2022F0E5
:1052A0001005A74A82F86A508A7802F0200242B1BB
:1052B000A34A92F86A2042F02005A14A82F86A5077
:1052C00007E09F4A92F86A2022F020059C4A82F863
:1052D0006A508A7902F0800242B1994A92F86C20B1
:1052E00042F00102964D85F86C2007E0944A92F84E
:1052F0006C2022F00102924D85F86C20914A1268D0
:1053000022F00202921C8F4D2A602A46126822F077
:10531000400240322A602A46126822F0800280321F
:105320002A60012080E20D78854A15714D7855710B
:10533000CD7895710D79D5714A7902F0010242B1AB
:105340007F4A92F86A2042F080057D4A82F86A50CE
:1053500007E07B4A92F86A2022F08005784A82F8BA
:105360006A504A7902F0020242B1754A92F86B2003
:1053700042F00105724A82F86B5007E0704A92F8D9
:105380006B2022F001056E4A82F86B504A7902F0D8
:10539000040242B16A4A92F86B2042F00205684A60
:1053A00082F86B5007E0664A92F86B2022F0020503
:1053B000634A82F86B504A7902F0080242B1604AAF
:1053C00092F86B2042F004055D4A82F86B5007E0CA
:1053D0005B4A92F86B2022F00405594A82F86B5020
:1053E0004A7902F0100242B1554A92F86B2042F01D
:1053F0000805534A82F86B5007E0514A92F86B2037
:1054000022F008054E4A82F86B504A7902F02002D9
:1054100042B14B4A92F86C2042F00202484D85F8A6
:105420006C2007E0464A92F86C2022F00202444DBC
:1054300085F86C204A7902F0400242B1404A92F865
:105440006C2042F004023E4D85F86C2007E03C4A97
:1054500092F86C2022F00402394D85F86C200D780A
:10546000374A82F865504D7882F866508D7882F818
:105470006750344A126822F00202921C314D2A60B1
:105480002A46126822F0400240322A602A461268F8
:1054900022F0800280322A600120C5E10A78284D7E
:1054A00085F854204D78264A82F85550254A1268CE
:1054B00022F020022032234D2A600120B4E14A78F4
:1054C00002F0010242B11E4A92F85C2042F001054E
:1054D0001B4A82F85C5007E0194A92F85C2022F0DF
:1054E0000105174A82F85C504A7802F0020242B184
:1054F000134A92F85C2042F00205114A82F85C508F
:1055000007E00F4A92F85C2022F002050C4A82F86C
:105510005C500D790A4A82F856504D7982F85750FE
:105520008D7882F85A500D7882F85B50054A1268DF
:1055300022F020022032034D2A60012074E1000095
:10554000E52D0020981B00200D78F74A82F858506E
:105550004D7882F85950F54A126822F02002203224
:10556000F24D2A608D79F04A82F87050CD7982F838
:105570007150EE4A126822F4007202F50072EB4D8F
:105580002A60012050E10A78E74D85F85D204D78CA
:10559000E54A82F85E508D7882F85F50CD7882F8C7
:1055A00060500D7982F861504D7982F862508D79A2
:1055B00082F86350CD7982F86450DC4A126822F098
:1055C00040024032D94D2A6001202DE10D79D64AA2
:1055D00082F868504D7982F86950D44A126822F0F6
:1055E00040024032D14D2A6001201DE18A79CE4D22
:1055F00085F86F20CD4A126822F4007202F500721D
:10560000CA4D2A6001200FE10A78002A10DD0A78CD
:10561000132A0DDA4E780A78521EC34D7F35AE54E8
:10562000C24A126822F4006202F50062BF4D2A608D
:105630000120F9E00D78BE4AD5764D7815778D7842
:105640005577CD7882F821500D7982F822504D7926
:1056500082F823508D7982F82750CD7982F828502E
:10566000B44A126822F00202921CB24D2A60012054
:10567000DAE00D78AE4A82F829504D7882F82D5044
:105680008D7882F82E50CD7882F82F500D7982F8DF
:1056900033504D7982F834508D7982F83550CD7978
:1056A00082F84550A34A126822F00202921CA14DD2
:1056B0002A600120B8E00D789D4A82F846504D7866
:1056C00082F847509B4A126822F00202921C994DC0
:1056D0002A600120A8E00A78012A0FD14D78944A67
:1056E00095778D78D577CD7882F82050914A1268D9
:1056F00022F00202921C8F4D2A6091E00A78022A61
:1057000011D14D788A4A82F824508D7882F825503C
:10571000CD7882F82650874A126822F00202921C45
:10572000844D2A607CE00A78032A11D14D78804AA2
:1057300082F82A508D7882F82B50CD7882F82C5040
:105740007C4A126822F00202921C7A4D2A6067E0BD
:105750000A78042A11D14D78754A82F830508D7834
:1057600082F83150CD7882F83250724A126822F0B5
:105770000202921C6F4D2A6052E00A78052A11D16C
:105780004D786B4A82F836508D7882F83750CD7854
:1057900082F83850674A126822F00202921C654D66
:1057A0002A603DE00A78062A11D14D78604A82F8D5
:1057B0003C508D7882F83D50CD7882F83E505D4A5D
:1057C000126822F00202921C5A4D2A6028E00A78E0
:1057D000072A11D14D78564A82F842508D7882F8C6
:1057E0004350CD7882F84450524A126822F00202A7
:1057F000921C504D2A6013E00A78082A10D14D7887
:105800004B4A82F848508D7882F84950CD7882F81A
:105810004A50484A126822F00202921C454D2A6002
:10582000012001E0002000BF00BF70BD70B503463D
:1058300014460020B3F5177F75D033DC40F22E25D7
:10584000A3EB0502AB4279D019DC40F22A25A3EB89
:105850000502AB4279D00BDCA3F20F22002A6FD0F5
:105860000E2A6ED00F2A6DD0102A41F02380F8E363
:10587000012A68D0022A67D0032AF6D1F2E31F2A50
:1058800042D008DC012A7CD00C2A7BD00D2A7AD0A9
:105890001D2AEAD19AE0202A76D0212A75D02C2A16
:1058A000E3D1F1E3B3F52B7F70D017DCB3F5237FA1
:1058B0006DD00ADCA3F25D22002A69D0012A68D0EB
:1058C000022A67D00D2AD0D1F0E3A3F28D22002A5C
:1058D00077D0122A76D01E2AC7D1E8E340F2BB2542
:1058E0005A1BAB426FD008DCA3F2AD22002A6BD06A
:1058F000012A6AD0022AB8D1FCE3012A73D0022A15
:1059000072D0032AB1D1F6E3074AAA320D681560B6
:105910004D685560084A126822F00102521C064D7B
:105920002A600120E8E3E8E3E52D0020981B002031
:10593000CF2F0020A41B00209C1B0020EDE304E0DF
:10594000F0E31DE1EFE3EFE3EFE30D78FA4A82F8CD
:10595000B2504D7882F8B3508D7882F8B450CD783B
:1059600082F8B5500D7982F8B6504D7982F8B7506B
:105970008D7982F8B850CD7982F8B950EF4A126823
:1059800009E0EFE3EFE374E00CE026E3ECE3ECE3A3
:10599000ECE35AE2EBE322F00102521CE74D2A60ED
:1059A0000120BFE7E44AAA320D6815614D685561D0
:1059B000E24A126822F00102521CE04D2A600120E6
:1059C000B0E740E0EFE3EFE3EFE3EFE34A7802F024
:1059D000100252B1D84A92F8732042F00205D64A1A
:1059E00082F8735009E0F7E3F7E3D34A92F87320A3
:1059F00022F00205D04A82F873500A78CE4D85F81D
:105A0000C2208A7985F86F208D78CB4A82F87D5044
:105A1000CD7882F87E50C94A126822F00202921CA8
:105A2000C64D2A60C64A126822F4007202F500725E
:105A3000C34D2A602A46126822F4806202F5806211
:105A40002A6001206EE70D78BB4A82F8C3504D787A
:105A500082F8C4508D7882F8C550CD7882F8C6504F
:105A6000B64A126822F00202921CB44D2A6001204C
:105A700058E70A78B04D2A704A7802F001022AB13C
:105A80002A46527842F001026A7005E0AA4A52782A
:105A900022F00102A84D6A704A7802F0020232B187
:105AA000A54A527842F00202A34D6A7005E0A24A6C
:105AB000527822F00202A04D6A704A7802F0100279
:105AC00042B19D4A92F86A2042F002059A4A82F851
:105AD0006A5007E0984A92F86A2022F00205964A36
