:020000040800F2
:10000000E0F30020E9050008F10500084D4C010867
:10001000F5050008F7050008F905000800000000D4
:10002000000000000000000000000000990100082E
:10003000FD05000800000000DD010008C104010802
:10004000030600080306000803060008030600086C
:100050000306000803060008F1090008030600086B
:1000600003060008050A0008030600080306000846
:10007000030600080306000889910008030600082B
:10008000030600080306000803060008030600082C
:10009000AB1B0008E11B0008030600080F0B00085B
:1000A000030600080306000803060008030600080C
:1000B00003060008030600080306000803060008FC
:1000C00003060008030600080306000803060008EC
:1000D00003060008098A00080306000809910008C1
:1000E00003060008030600080306000803060008CC
:1000F00003060008030600080306000803060008BC
:1001000003060008030600080306000803060008AB
:10011000030600080306000803060008030600089B
:10012000030600080306000803060008030600088B
:10013000030600080306000803060008030600087B
:10014000B71C0008ED1C00080306000803060008A1
:100150000306000803060008718A00080306000869
:10016000030600080306000803060008030600084B
:10017000030600080306000803060008030600083B
:1001800003060008DFF80CD014F094FC0048004788
:10019000CD040008E0F30020224B19680868B0E89D
:1001A000F00F80F30988BFF36F8F4FF0000080F3EA
:1001B00011884EF00D0E70470000000006480068E0
:1001C000006880F3088862B661B6BFF34F8FBFF353
:1001D0006F8F00DF00BF00BF08ED00E0EFF3098084
:1001E000BFF36F8F0F4B1A6820E9F00F106008B54E
:1001F0004FF0100080F31188BFF34F8FBFF36F8F64
:1002000013F0CFF84FF0000080F31188BDE80840EC
:1002100019680868B0E8F00F80F30988BFF36F8FA2
:10022000704700BFF8210020EFF305807047000001
:100230000221304A5183082151832021118340211A
:1002400011838021118301212B4A11802B490968D8
:1002500001F0004149B12949096841F00041274AAC
:1002600011608169891C81617047244908390968D6
:10027000234A11622149091F097882F824101F4975
:10028000C91E097891621D490C310968D1621B4968
:10029000891E098811861949096851631749091D82
:1002A00009689163154910310968D1630021154A25
:1002B000116000BF134909680029FBD0104A01688A
:1002C00011604168516081689160C168D1600169C5
:1002D00011614169516181699161C169D1610021F7
:1002E000084A116000BF074909680029FBD000BF18
:1002F000BAE7000000000240180402402CED00E0C4
:100300004822002000180020322010F025FD08F0BF
:1003100092FD0DF0A2F914F0A2FC02F07BF90CF0B2
:10032000C8F909F068FE01F059F90CF01EF90CF05B
:10033000D4F901F065F908F084FD02F077F909F0CD
:1003400065FE04E00A2010F007FD0CF0D5F8F9E78F
:1003500010B545F255500EF01BFD05200EF01BFDAB
:1003600040F271200EF01AFD0EF01BFD0EF01EFD86
:1003700010BD1CB501210F200EF01CFF49F2F62024
:10038000009001208DF804008DF8050000208DF804
:10039000060001208DF8070069468D4814F064FCC2
:1003A00002208B494883042048830820488310207A
:1003B000488320200883402008838020088300028F
:1003C000488346F6D570009001208DF804008DF822
:1003D000050000208DF8060001208DF80700694611
:1003E0007C4814F041FC01207A491A31088000024F
:1003F0000880400008808000891E08804FF25870F5
:10040000009001208DF804008DF8050000208DF883
:10041000060001208DF8070069466F4814F024FC9F
:1004200010206D491A31088002200880C0200090F9
:1004300001208DF8040000208DF8050001208DF8C2
:1004400006008DF807006946624814F00DFC402054
:100450006049183108808020088040F601500090E3
:1004600000208DF8040001208DF8070069465848E7
:1004700014F0FAFB49F22A00009000208DF80400E5
:1004800001208DF807006946524814F0EDFB40F654
:10049000A700009000208DF8040001208DF80700CF
:1004A00069464D4814F0E0FB1CBD10B54FF4407098
:1004B0000FF012FA012108070EF0AFFE01200EF036
:1004C00092FCFFF756FFFFF743FF10BD00F020F945
:1004D000FFF7EBFF0FF0FFFF404A0021AFF2D7100C
:1004E00010F03BF93E49086010F03EF800BFFEE70F
:1004F00001460DE0002001E000BF401C41F65E72A5
:100500009042F9D300BF4AF6AA22364B1A6000BFC8
:100510000A1EA1F10101EDD1704708B5002100913B
:1005200000914AE000BF00BF00BF00BF00BF00BF96
:1005300000BF00BF00BF00BF00BF00BF00BF00BFC3
:1005400000BF00BF00BF00BF00BF00BF00BF00BFB3
:1005500000BF00BF00BF00BF00BF00BF00BF00BFA3
:1005600000BF00BF00BF00BF00BF00BF00BF00BF93
:1005700000BF00BF00BF00BF00BF00BF00BF00BF83
:1005800000BF00BF00BF00BF00BF00BF00BF00BF73
:1005900000BF00BF00BF00BF00BF00BF00BF00BF63
:1005A00000BF00BF00BF00BF00BF00BF00BF00BF53
:1005B00000BF00BF0099491C009100998142B1D34E
:1005C00000BF4AF6AA21074A116000BF08BD00001B
:1005D000000002400004024000080240EC550108FF
:1005E00004180020003000400648804706480047B5
:1005F000FEE7FEE7FEE7FEE7FEE7FEE7FEE7FEE7D3
:10060000FEE7FEE7C7060008850100080CB50020DC
:10061000019000906A48006840F4803068490860A2
:1006200000BF6748006800F4003000900198401C4B
:10063000019000980028F4D06148006800F4003070
:1006400010B10120009001E00020009000980128E6
:1006500038D15B48083000685949083108600846BD
:10066000006840F4004008600846006840F4A0506C
:1006700008605448091F0860081F006840F0807037
:10068000091F086000BF4E48006800F00070002895
:10069000F9D040F203704C490860494808300068BE
:1006A00020F003004649083108600846006840F021
:1006B0000200086000BF42480830006800F00C00EB
:1006C0000828F8D10CBD10B53D48006840F0010085
:1006D0003B49086000203A49083108603848006802
:1006E0003A490840364908603948091D0860081F22
:1006F000006820F48020091F0860002030490C3178
:100700000860FFF783FF4FF000603249086010BDBA
:1007100070B500200022022300240221284D083554
:100720002D6805F00C0020B1042806D0082834D12B
:1007300007E0294D294E356033E0294D274E3560BD
:100740002FE01F4D2D1D2D68C5F380541C4D2D1D10
:100750002D6805F03F0154B1214DB5FBF1F5184E60
:10076000361D3668C6F3881605FB06F209E01A4DF9
:10077000B5FBF1F5124E361D3668C6F3881605FB3B
:1007800006F20F4D2D1D2D68C5F301456D1C6B0044
:10079000B2FBF3F5114E356003E00F4D0F4E35609F
:1007A00000BF00BF064D08352D68C5F303150D4E7B
:1007B000705D0A4D2D68C540084E356070BD000063
:1007C00000380240083C4005003C0240FFFFF6FEB6
:1007D0001030002408ED00E00024F4000818002088
:1007E00000127A000C1800202020D54981F845001D
:1007F0002021D34880F88B1080F8D11080F8171191
:10080000704700B59BB00121CE480EF0D3FC01210A
:1008100008020EF013FDCC480EF058F800200290AC
:10082000CA480390CA48049000200590042006900E
:10083000002007904FF480600890400009908000ED
:100840000A9040110B9040020C9000200D90012066
:100850000E9000200F90109002A9BB480EF0D8F81F
:100860000121B9480EF00EF9032000908DF8040024
:1008700000208DF807006946B64814F0F5F900200D
:1008800011904FF48030129000201390149011A812
:100890000DF02CF90020159001208DF858008DF8EE
:1008A0005900002017901890199004208DF86800C6
:1008B00015A9A6484C380DF0EAF801200DF04BF9C7
:1008C000052301220A21A1484C380DF066F90523C1
:1008D00002220B219D484C380DF05FF905230322BD
:1008E00010219A484C380DF058F9052304221121A3
:1008F00096484C380DF051F9012194484C380DF0D0
:10090000F7F9012191484C380DF0E7F901218F48A2
:100910004C380DF002F98D484C380DF09AF9FFF77C
:1009200063FF1BB000BD30B5002125E0C1EBC10263
:1009300002EB8202824C04EB4200854A32F811300D
:1009400090F84440641CE2B290F84540944200DCC8
:1009500000220568041D04EB420424882C1B04605B
:10096000041D04EB4204238004681C44046080F8E6
:10097000442000BF481CC1B20429D7DB30BD00B5FC
:1009800085B0012108460EF015FC012188030EF008
:1009900055FC0120019000208DF8080001208DF801
:1009A0000B0001A96C4814F05FF9002108460EF015
:1009B0004DFD0120039000208DF810000C208DF8D3
:1009C000110001208DF8120003A80EF061F9062035
:1009D0008DF800000E208DF8010000208DF8020037
:1009E00001208DF8030068460EF07BFF05B000BDC6
:1009F00010B501200EF0B2F910B101200EF0BFF9D0
:100A000010BD704710B508200EF0A8F950B10820AD
:100A10000EF0B5F90BF0A1FA00BF4AF6AA204F4933
:100A2000086000BF10BD00B585B0012108460EF07A
:100A3000C1FB012188030EF001FC4FF4807001908E
:100A400000208DF8080001208DF80B0001A9424814
:100A500014F00AF9082100200EF0F8FC4FF4807021
:100A6000039000208DF810000C208DF8110001205B
:100A70008DF8120003A80EF00BF928208DF8000065
:100A80000E208DF8010000208DF8020001208DF865
:100A9000030068460EF025FF05B000BD00B585B027
:100AA000012104200EF086FB012188030EF0C6FB15
:100AB0002020019000208DF8080001208DF80B0007
:100AC00001A9244814F0D0F8052102200EF0BEFC44
:100AD0002020039000208DF810000C208DF81100CC
:100AE00001208DF8120003A80EF0D2F817208DF81F
:100AF00000000E208DF8010000208DF8020001207A
:100B00008DF8030068460EF0ECFE05B000BD10B590
:100B100020200EF023F950B120200EF030F90BF018
:100B20001CFA00BF4AF6AA200C49086000BF10BD9D
:100B300010B5FFF766FEFFF7B1FFFFF720FF10BD0E
:100B40008822002004004000106402404C20014034
:100B50001E18002000080240000002400030004043
:100B6000FD490968FC4A92F84520B1FBF2F000EB20
:100B70004011C1F3CF11F94A918111468989B1F52C
:100B8000AF7F13DA0021F64A1170F649097805297A
:100B900006DDF249C97C41F02001F04AD17418E029
:100BA000F0490978491CEF4A117012E00021ED4A22
:100BB0001170EB490978052906DDE849C97C21F067
:100BC0002001E64AD17404E0E5490978491CE44A69
:100BD00011707047E049D1F8462091F88B10B2FBB4
:100BE000F1F0C0EBC001C1EBC0117D22B1FBF2F10D
:100BF0001B31DA4AD1811146C989B1F5FA7F01DA90
:100C00000021D181D549C98940F69802914219DA6B
:100C1000D249C98940F2A462914213DD0021D24A2F
:100C20001170D24909780A2906DDCC49C97C41F006
:100C30000201CA4AD17418E0CC490978491CCB4A50
:100C4000117012E00021C94A1170C74909780529BD
:100C500006DDC249C97C21F00201C04AD17404E01A
:100C6000C1490978491CC04A1170BC49C989B1F50C
:100C70002F7F13DD0021BE4A1170BE490978052976
:100C800006DDB649C97C21F00101B44AD17418E0EF
:100C9000B8490978491CB74A117012E00021B54AD9
:100CA0001170B3490978052906DDAC49C97C41F0CA
:100CB0000101AA4AD17404E0AD490978491CAC4A43
:100CC00011707047AC480078012843D1A348C07C1C
:100CD00000F0010018BB0020A84908809F488089C7
:100CE000B0F5D07F0ADB4FF40060A54908809B482F
:100CF000C07C20F004009949C87435E09748808989
:100D0000B0F5C87F30DA4FF400609D49891C088037
:100D10009248C07C40F004009049C87424E0974891
:100D200001880088401C954A10803C2907DD8B48CB
:100D30008089B0F5AA7F02DA0020114608804FF4BE
:100D400000608F4908808548C07C20F004008349FA
:100D5000C87409E04FF40060894908807F48C07C6E
:100D600020F004007D49C87470477C48407CC0F383
:100D70004000704710B5FFF7F8FF012803D10020AD
:100D80008049087002E001207E4908707D480078A3
:100D90007D49097888420BD04FF496607B490880E2
:100DA000784800787849087000206C49087018E08D
:100DB0007648008828B175480088401E734908802D
:100DC0000FE07048007840B17148007828B90120E0
:100DD000624908706FA007F01BFF6A4800786C49F1
:100DE000087010BD6E48006800F0200098B1002027
:100DF0006C4908706C480078142806DD5748407C20
:100E000020F002005549487418E067480078401CFB
:100E10006549087012E00020634908706148007855
:100E2000142806DD4D48407C40F002004B494874D0
:100E300004E05C480078401C5A49087070474648F6
:100E4000D0F88C2090F8D100B2FBF0F081B2C1EB69
:100E5000411202EB8200C21700EBD2525212A2F2F0
:100E6000171252B23D4B1A7470473C48007E7047CF
:100E70003A48007F70473948407E704710B53E4879
:100E8000007848B905204949087000208871087326
:100E900088740876887743E037480078012832D193
:100EA000052042490870FFF7E6FF012803D0FFF74D
:100EB000DFFF012803D103203C4988740AE0FFF7D3
:100EC000D4FF012803D105203849887402E00020AE
:100ED00036498874002001F0D5FB012803D1032096
:100EE0003249887102E0052030498871012001F003
:100EF000C9FB012803D103202C49087310E0052009
:100F00002A4908730CE01C480078022808D1052003
:100F100026490870002088710873887408768877DD
:100F200010BD10B516480838006800F0200088B1E0
:100F300000201F4908701F480078052843DD074836
:100F4000007D40F02000054908750846807D012895
:100F500035D131E03DE0000088220020B0230020A0
:100F600033180020321800203518002034180020D3
:100F700037180020361800207A2100203818002069
:100F8000180402403A1800203B1800203E180020A8
:100F90003C1800204143433A4F6666210A00000096
:100FA000100802404018002041180020387A002024
:100FB0004218002043180020F7A007F029FE002067
:100FC000FA49887521E0FA480078401CF849087011
:100FD0001BE00020F6490870F648007814280FDD61
:100FE000F248007D20F02000F04908750846807D19
:100FF00010B9F1A007F00CFE0120EC49887504E05F
:10100000EC480078401CEB490870EF48006800F09D
:101010000800E8B90020ED490870ED48007805287F
:1010200010DDE248007D40F04000E04908750846C8
:10103000C07D012802D1E7A007F0EAFD0020DB49CE
:10104000C87521E0E2480078401CE14908701BE0C7
:101050000020DF490870DD48007814280FDDD348F0
:10106000007D20F04000D14908750846C07D10B9C8
:10107000DCA007F0CDFD0120CC49C87504E0D348C1
:101080000078401CD1490870C848C07D30B9C748B5
:10109000807D18B90020C549087602E00120C349C7
:1010A000087610BDC148407D7047C048C089704770
:1010B000BE4880897047BD48C07CC0F3401070476F
:1010C000BA48C07CC0F380007047B848C07C00F0CC
:1010D00001007047B548C07CC0F340007047B3487A
:1010E000807D7047B148C07D7047B048407C7047F4
:1010F000AE48807C7047AD48C07C70470020704788
:1011000010B513F0B6FD044604F0010040B1A74845
:10111000007D40F00100A54908750020887107E0B6
:10112000A248007D20F00100A0490875AA2088711E
:1011300010BD9E488068704710B504469B48846087
:1011400007F089F806F089FF10BD10B500200FF0F8
:1011500002F90446A748844202D006F0C8FF05E021
:1011600001200FF0F8F804469048846010BD10B5D7
:10117000FFF7FBFD0446012C10D18C488068401C11
:101180008A4988609C480078401EC0B29A4908701D
:1011900068B93C20087007F05EF808E097480078CE
:1011A000012804D107F057F80520954908709448A4
:1011B000007840B192480078401EC0B29049087053
:1011C00008B906F094FF8D48047010BD7749487146
:1011D000704776490871704710B57448407968B314
:1011E00072484079401E714948710846407928BBD1
:1011F00084A007F00DFD00BF0A200FF0ADFD00BF79
:1012000000BF00BF00BF00BF00BFBFF34F8F00BFD4
:1012100000BF00BF7E48006800F4E0607D490843DD
:10122000001D7B49086000BF00BF00BFBFF34F8FA8
:1012300000BF00BF00BF00BF00BFFDE75B480079F3
:10124000B8B15A480079401E5849087108460079DB
:1012500078B971A007F0DCFC00BF64200FF07CFDC2
:1012600000BF4FF4807058490831088001200BF00E
:1012700003FD10BD4D48807E70474C49887670470D
:1012800010B5FFF7F7FF58B9FFF7F2FD012807D1B6
:10129000FFF7F3FF64480CF08DF864A007F0B8FC8A
:1012A00010BD10B5FFF73FFBFFF79CFDFFF762FD98
:1012B00010BD10B5FFF7E2FDFFF752FCFFF78AFC07
:1012C000FFF700FDFFF7DCFFFFF72BFE10BD092045
:1012D0005C4908705C49087004205C4908703B2038
:1012E0005B4908705B49087000205B4908707047D3
:1012F0005948007820F00100401C574908705148B7
:101300000078002846D10846007820F00400001D2F
:10131000087009204B4908704B48007800283AD1E2
:101320004D48007820F0080008304B49087009202B
:10133000454908704548007850B94748007820F082
:10134000100010304449087004204049087004E03F
:101350003E480078401E3D4908703D480078B8B9C5
:101360003D48007820F0200020303B4908703B20A9
:10137000374908703748007858B93748007820F066
:1013800040004030344908703B20324908707CE00E
:101390006AE063E074E06DE0477073416E743A4E4A
:1013A0006F53686F7274210A00000000B0230020A0
:1013B0004318002042180020477073416E743A535E
:1013C000686F7274210A0000100402404418002063
:1013D00045180020477073416E743A4E6F4F706528
:1013E0006E210A00477073416E743A4F70656E212A
:1013F0000A000000A55AAA554618002047180020E8
:101400004818002043544C3A5265736574210A0011
:101410000CED00E00000FA0543544C3A506F77653C
:10142000724F6666210A0000BC210020436F727271
:101430006563745274634279496E74477073210A0C
:10144000000000002C1800202E1800202D1800206D
:101450002F18002030180020311800206D48007827
:10146000401E6C49087010E06B480078401E6A49C5
:1014700008700AE069480078401E6849087004E076
:1014800067480078401E66490870704700B5002024
:10149000FFF7F3FE00BD00B585B001A80BF07CFF9F
:1014A000DDE90101CDE903019DF812009DF811105D
:1014B0009DF81020CDE9002102909DF80F309DF895
:1014C0000D209DF80C1057A007F0ADFB5B4840794C
:1014D0005A490979594AD278CDE9002102905748F2
:1014E00083784278017856A007F09DFB05B000BDD7
:1014F000704710B5FFF7DDFEFFF76EFE01F0ACF8A8
:101500000CF04CF810BD10B500BF4AF6AA205249A5
:10151000086000BFFFF7C5FE01F09AF810BD10B5D6
:101520000CF0F5F80CF034F810BD10B54B4800780D
:1015300000F0010038B14948007820F00100474927
:101540000870FFF7ECFF45480078C0F3800038B121
:101550004248007820F0040040490870FFF7D3FFAC
:101560003E480078C0F3C00038B13C48007820F015
:1015700008003A490870FFF7BCFF38480078C0F30C
:10158000001038B13548007820F010003349087059
:10159000FFF7AEFF31480078C0F3401038B12F4854
:1015A000007820F020002D490870FFF774FF2B48C9
:1015B0000078C0F3801038B12848007820F040004F
:1015C00026490870FFF762FF10BD06E00A200FF001
:1015D000C3FBFFF78DFEFFF7A8FFF7E710B5FFF796
:1015E000A7FAFFF774FE0020FFF747FE00201C4912
:1015F000087048708870C87048748874C87410BDCA
:1016000010B5184A0021AFF23D000FF0A6F81649B8
:10161000086010BD301800202F1800202E18002060
:101620002C18002054616D3A25642D25642D256405
:101630002025643A25643A25640A0D002E7A00209C
:101640005434673A25642D25642D25642025643A99
:1016500025643A25640A0D0000300040311800204E
:10166000B0230020105601082818002010B50246AB
:10167000002024E000EB4003FB4C54F8233093425D
:1016800008D100EB400304EB83030C685C604C68FA
:101690009C6010BD00EB4003F34C54F8233063B959
:1016A00000EB400344F8232000EB400304EB8303EA
:1016B0000C685C604C689C60EBE7431CD8B25A280D
:1016C000D8DB00BFE5E71CB5012108460DF072FD2F
:1016D000C420009001208DF8040000208DF8060041
:1016E00001208DF807008DF805006946DF4813F0EA
:1016F000BBFA0420DD4948831CBD00B58BB0042033
:10170000DA494883DA4800F06DFDD94800F06AFDF7
:10171000D848006830B90022114601200FF09AFE27
:10172000D4490860D448006830B90022114601202D
:101730000FF090FED0490860012108460DF03AFDF7
:10174000012148060DF069FD09220C21C74813F05C
:1017500095FA09220B21C54813F090FA4FF4C050B6
:10176000099002208DF828008DF8290000208DF8BE
:101770002A0001208DF82B0009A9BC4813F074FA47
:10178000BE480CF0ABFB06A80CF0CCFC00208DF89A
:101790001E0001208DF81F0000208DF820008DF81C
:1017A00021008DF822008DF823008DF81A008DF8A5
:1017B0001B0005208DF81C0000208DF81D000F2057
:1017C000ADF8180006A9AD480CF0A1FB14208DF867
:1017D000040001208DF8050000208DF8060001208E
:1017E0008DF8070001A80EF07CF815208DF8040094
:1017F00001208DF8050000208DF8060001208DF8ED
:10180000070001A80EF06DF8012202219B480CF0A0
:1018100007FF0122102199480CF002FF012102204C
:101820000DF0C8FC012188060DF0F7FC09220D21FE
:10183000934813F023FA09220C21914813F01EFA61
:101840004FF44050099002208DF828008DF82900AF
:1018500000208DF82A0001208DF82B0009A9884866
:1018600013F002FA87480CF039FB06A80CF05AFC7A
:1018700000208DF81E0001208DF81F0000208DF83B
:1018800020008DF821008DF822008DF823008DF8BE
:101890001A008DF81B0005208DF81C0000208DF823
:1018A0001D000F20ADF8180006A976480CF02FFB9C
:1018B00040208DF8040001208DF805008DF8060009
:1018C0008DF8070001A80EF00CF841208DF80400F7
:1018D00001208DF805008DF806008DF8070001A89D
:1018E0000DF0FFFF0122022166480CF099FE012253
:1018F000102164480CF094FE00208DF812008DF841
:10190000130001208DF814000020ADF80800ADF898
:101910000A00ADF80C00ADF80E00ADF81000012083
:101920008DF8150002A80CF07CFB0E208DF812003B
:1019300000208DF8130001208DF814000020ADF870
:101940000800ADF80A00ADF80C00ADF80E00ADF8D7
:10195000100001208DF8150002A80CF062FB042095
:10196000424908830BB000BDF0B585B006460D4670
:1019700017461C46012E04D1019504208DF808005D
:1019800003E0009500208DF8080000208DF8090084
:101990008DF80A7020788DF80B0061788DF80C10A6
:1019A000A1788DF80D10E1788DF80E1021798DF861
:1019B0000F1061798DF81010A1798DF81110E1796F
:1019C0008DF8121069462D480CF01AFC05B0F0BDD8
:1019D00070B504462146274800680FF09EFD054675
:1019E0000DB9012070BD0020FCE7F0B585B00646BA
:1019F0000D4617461C46012E04D1019504208DF892
:101A0000080003E0009500208DF8080000208DF804
:101A100009008DF80A7020788DF80B0061788DF838
:101A20000C10A1788DF80D10E1788DF80E10217949
:101A30008DF80F1061798DF81010A1798DF81110C3
:101A4000E1798DF8121069460E480CF0D9FB05B00B
:101A5000F0BD70B504462146074800680FF05DFDF3
:101A600005468DB9012070BD4825002000000240C8
:101A7000802900204C1800205018002000640040ED
:101A800000040240006800400020ECE770B5064604
:101A9000307A042801D1756800E03568002415E02B
:101AA000A04850F82400A8420ED106F10B012846A8
:101AB000FFF7DCFD31469C4800F098FB9B4800682E
:101AC0000FF06EFD012070BD601CC4B2012CE7DB7D
:101AD00000240EE0964800EB84000068A84206D17E
:101AE00006F10B012846FFF7C1FD0320EBE7601C60
:101AF000C4B28F48A43890F80C02A042EADC00245B
:101B000010E08C4850F82400A84209D1314686489C
:101B100000F06CFB854800680FF042FD0220D2E720
:101B2000601CC4B2102CECD3002410E0824850F8A2
:101B30002400A84209D131467B4800F057FB7B487E
:101B400000680FF02DFD0220BDE7601CC4B21F2C01
:101B5000ECD3002410E0794850F82400A84209D1C1
:101B60003146714800F042FB704800680FF018FDE4
:101B70000220A8E7601CC4B2222CECD3002410E0A1
:101B80006F4850F82400A84209D13146664800F059
:101B90002DFB664800680FF003FD022093E7601CF0
:101BA000C4B2132CECD300208DE700B585B0022120
:101BB00064480CF09DFD88B16A46002161480CF034
:101BC00014FC02215F480CF02EFE6846FFF75EFF12
:101BD00001205D49087148710A20C88005B000BD28
:101BE00000B585B0102157480CF082FD88B16A46D7
:101BF000012154480CF0F9FB102152480CF013FE5F
:101C00006846FFF743FF01204F49087148710A20D9
:101C1000C88005B000BD70B50546287A042801D1FA
:101C20006E6800E02E68002415E0484850F8240053
:101C3000B0420ED105F10B013046FFF717FD2946E2
:101C4000434800F0D3FA434800680FF0A9FC012094
:101C500070BD601CC4B2022CE7DB00240EE03448E7
:101C600000EB84000068B04206D105F10B0130465C
:101C7000FFF7FCFC0320EBE7601CC4B22C48A4383F
:101C800090F80C02A042EADC002410E0324850F840
:101C90002400B04209D129462D4800F0A7FA2D486A
:101CA00000680FF07DFC0220D2E7601CC4B2572C04
:101CB000ECD30020CCE700B585B0022127480CF01A
:101CC00017FD88B16A46002124480CF08EFB0221E2
:101CD00022480CF0A8FD6846FFF79DFF01201A4935
:101CE000087248720A20488105B000BD00B585B071
:101CF00010211A480CF0FCFC88B16A4601211748F3
:101D00000CF073FB102115480CF08DFD6846FFF7B1
:101D100082FF01200C49087248720A20488105B0F0
:101D200000BD000054180020802900204C1800201D
:101D3000DC1C0020581800209818002014190020DE
:101D40009C19002000640040681B0020E819002056
:101D5000C42A002050180020F0190020006800401C
:101D600010B5FFF702F8FE49087008460078FD49F3
:101D70000978884208D0FA48007828B91E20FA4924
:101D800008800020F9490870F5480078012832D110
:101D9000F548008820B1F4480088401EF2490880C8
:101DA000F1480088B8B9F2484079A0B9F048407AC3
:101DB00088B9EE48007870B90120EC490870052018
:101DC000EC4908700420EC4948830020E849087178
:101DD000EAA006F01DFFE748007860B1E54800780A
:101DE000401EE44908700846007820B9FFF785FCDA
:101DF000E5A006F00DFFDB480078DA49087010BD59
:101E0000DB48C08828B1DA48C088401ED849C8805D
:101E100002E00020D6494871D548408928B1D4480D
:101E20004089401ED249488102E00020D0494872D2
:101E3000704701460878704700210170704710B55F
:101E400002460B460BB9002010BD23F07F43002152
:101E50000DE002F12C0050F82100984205D11E241B
:101E600002F1540044540020EEE7481CC1B20A2994
:101E7000EFDB002112E002F12C0050F8210058B9EC
:101E800002F12C0040F821301E24283044545078B0
:101E9000401C50700120D7E7481CC1B20A29EADB78
:101EA0000020D1E700211BE000F12C0252F8212094
:101EB000A2B100F15402525C42B100F15402525CF2
:101EC000521ED3B200F15402535407E0002300F134
:101ED0002C0242F821304278521E42704A1CD1B284
:101EE0000A29E1DB704710B502460020002323E0F9
:101EF00002F12C0454F82340E4B102F12C0414F84C
:101F0000234001F8014B02F12C0434F82340240A49
:101F100001F8014B02F12C0454F82340240C01F881
:101F2000014B02F12C0454F82340240E01F8014B1C
:101F3000441CE0B25C1CE3B20A2BD9DB08B90024D4
:101F4000547010BD0146487870472DE9F05F804617
:101F50000C4692460026B1468E484044002842D0A6
:101F6000B0F5803F17D08C49084400287ED1A07876
:101F7000E17800EB0120217900EB0140617900EB71
:101F80000165681C20B11DB129468448FFF757FF41
:101F90004FF00109ABE06079CA2816D1A079FE287C
:101FA00013D1E07988B96178881EC11700EB91716F
:101FB000C1F387017A4A1170E0787A4908700120EC
:101FC00079490870794908700AE06079E32807D1F7
:101FD000A079FE2804D1E07910B901207449087075
:101FE0004FF0010983E072480078012805D120787C
:101FF000032802D100206E4908706C48007800B9AF
:1020000075E020786849097888426CD16748007883
:10201000012868D12078012810D1FF2228215F48AB
:10202000C01C12F021FB5D48D4F80310C0F8031067
:10203000E179C17105205949887014E057488078CA
:10204000212810DA55488178C01C0844D4F80110C2
:102050000160B4F805108180E17981714F48807882
:10206000C01D4E4988705048007800E03EE0401C9A
:102070004D490870084600784A490978884232DD9F
:10208000002725E04548C01C825D711C405C02EBC6
:1020900000224248C01CB11C405C02EB00423F4899
:1020A000C01CF11C405C02EB0065301DC6B2681C10
:1020B00060B15DB129463948FFF7C1FE8346BBF1E7
:1020C000010F02D101203549087000BF781CC7B24A
:1020D000334800788742D5DB002033490870314906
:1020E0000870324908704FF0010900E000BF00BFDE
:1020F0004846BDE8F09F10B5FE202E4948700020EC
:10210000887088808880087211212A48093012F06E
:10211000B2FA002027498876FF22122125481B3079
:1021200012F0A2FA0020234981F82D00FF2212218B
:1021300020482E3012F098FA00201E4981F8400005
:10214000FF2224211B48413012F08EFA0020194949
:1021500081F8650050211748683012F08CFA10BDE4
:10216000761B0020771B0020781B00207B1B0020A3
:10217000681B00207A1B00200000024043616E2093
:102180004F6666210A00000043616E205265737439
:10219000210A0000000114E70035EDFF882400202B
:1021A0007C1B00207D1B00207E1B0020801B00204C
:1021B0007F1B0020D023002000200FE0002100EB37
:1021C0004002F74B43F8221000EB40011A4602EBA5
:1021D000810100224A608A60411CC8B25A28EDDBA6
:1021E00070477047002101704170704730B5047826
:1021F000621CD41702EB14742411A2EB0414E3B292
:1022000042789A426FD0027802EB8205021D0C6878
:1022100042F82540027802EB8205021D02EB85029E
:102220004C6854600C7A027802EB8205021D02EBC6
:10223000850214724C7A027802EB8205021D02EBD1
:10224000850254728C7A027802EB8205021D02EB41
:1022500085029472CC7C027802EB8205021D02EBAF
:102260008502D474CC7A027802EB8205021D02EB5F
:102270008502D4720C7B027802EB8205021D02EB10
:10228000850214734C7B027802EB8205021D02EB7F
:10229000850254738C7B027802EB8205021D02EBEF
:1022A00085029473CC7B027802EB8205021D02EB5F
:1022B0008502D4730C7C027802EB8205021D02EBCE
:1022C000850214744C7C027802EB8205021D02EB3D
:1022D000850254748C7C027802EB8205021D02EBAD
:1022E00085029474037030BD427803789A426DD0B1
:1022F000427802EB8203021D02EB8302127A042A67
:102300000AD1427802EB8203021D02EB830252687B
:102310000A6001224A7108E0427802EB8203021D42
:1023200052F823200A6000224A71427802EB8203AD
:10233000021D02EB8302927A0A71427802EB820359
:10234000021D02EB8302D27A8A71427802EB820389
:10235000021D02EB8302137BCB71427802EB8203F6
:10236000021D02EB8302537B0B72427802EB820365
:10237000021D02EB8302937B4B72427802EB8203D5
:10238000021D02EB8302D37B8B72427802EB820345
:10239000021D02EB8302137CCB72427802EB8203B4
:1023A000021D02EB8302537C0B73427802EB820323
:1023B000021D02EB8302937C4B7343785A1CD317A4
:1023C00002EB13731B11A2EB03134370704701461A
:1023D000087810304B78C21AD01702EB1070001139
:1023E000A2EB0010C0B270477CB5044600252279EC
:1023F000A11D206802F0B9FB0546012D00D17CBD6E
:102400002279A11D206804F050F80546012D00D165
:10241000F5E72279A11D206802F0EBFF0546012DAA
:1024200000D1ECE72279A11D206804F02FFF0546BA
:10243000012D00D1E3E76FF060412068401A35D1EB
:10244000A079312831D1E07961282ED1207A322843
:102450002BD1607A622828D1A07A332825D1E07A5E
:10246000632822D1207B34281FD1607B64281CD1B3
:1024700065208DF8000035208DF8010066208DF86C
:10248000020036208DF8030067208DF80400372005
:102490008DF8050068208DF8060038208DF80700BB
:1024A0006B4608220120FFF75FFA00E000BF00BF83
:1024B00000BFA4E71FB52AE04FF4FA60FFF788FADF
:1024C000012824D11EE000BF0022022135480CF073
:1024D000A7F80022102133480CF0A2F800BF69468B
:1024E0003148FFF701FF00BF012202212D480CF007
:1024F00097F8012210212B480CF092F800BF684693
:10250000FFF772FF2848FFF762FF0028DBDCD3E704
:102510007CB5044600252279A11D206800F0EAF868
:102520000546012D00D17CBD204920680844B0BB80
:10253000A079312832D1E07961282FD1207A322850
:102540002CD1607A622829D1A07A332826D1E07A6A
:10255000632823D1207B342820D1607B64281DD1BF
:1025600065208DF8000035208DF8010066208DF87B
:10257000020036208DF8030067208DF80400372014
:102580008DF8050068208DF8060038208DF80700CA
:102590006B46082249420120FFF727FA09E007E0CD
:1025A000482500200064004080290020020000E04F
:1025B00000BF00BF00BFB6E71FB52AE04FF4FA60C6
:1025C000FFF747FA012824D11EE000BF00220221B4
:1025D0003C480CF025F8002210213A480CF020F875
:1025E00000BF69463848FFF77FFE00BF0122022185
:1025F00034480CF015F80122102132480CF010F884
:1026000000BF6846FFF784FF2F48FFF7E0FE002871
:10261000DBDCD3E710B52D48FFF7E4FD2B48FFF7CF
:10262000E1FDFFF750F8FFF768F810BD10B5284A34
:102630000021AFF27F100EF090F826490860264A7C
:102640000021AFF28B000EF088F82449086010BD1D
:1026500000B5FFF7D5FB00BD10B5FFF781FB2048A3
:10266000FFF720FC1F48FFF71DFC10BD014611B904
:102670001D4800797047012902D11B48007AF9E70B
:102680000020F7E7014611B9174840797047012942
:1026900002D11548407AF9E70020F7E7134890F88F
:1026A0008B02012803D01248007A012801D10120B1
:1026B00070470020FCE70D4890F8780270470A4800
:1026C0004088704700680040C42A0020802900200C
:1026D000345601084C1B002058560108501B00209E
:1026E00088240020E8240020681B0020381C0020DB
:1026F000D023002070B503461446002040F2733505
:102700005A1BAB4202F02E8078DC40F28525A3EB09
:102710000502AB4273D04DDC40F2B315A3EB0502CA
:10272000AB4201F01C8228DC40F29315A3EB0502BA
:10273000AB4201F0F48414DC40F28515A3EB0502F2
:10274000AB427DD007DCA3F28112002A79D0022AA5
:1027500042F0088247E1032A01F012820C2AF7D1E5
:10276000FEE3022A6ED0102A01F022831E2A01F015
:10277000D3811F2AECD101F0E1B9402A73D00EDCDD
:10278000222A71D005DC102A01F0EA83122ADFD157
:10279000D3E1302A69D0362ADAD101F068BEB02AF6
:1027A00076D0B12A01F05E84C02A01F06A87D02A6F
:1027B000CED12AE1D52A6CD022DC2E2A01F0A486C3
:1027C00010DC0E2A01F0338606DC032A01F0E881D2
:1027D0000C2ABDD101F094B8102A79D01E2AB7D1A5
:1027E00001F039BB3E2A01F0E0855E2A71D06E2AE5
:1027F00001F06C86BE2AABD101F002BA18E0BDE050
:10280000D63A122A82F0AE81DFE812F05E056B053F
:102810007B058E05C805AC11AC11AC117B07DA0E37
:10282000AC11AC11AC11AC11AC11DE05EB0501061D
:1028300040F20F16951BB24271D04BDC502A02E0D9
:1028400021E1FDE3B7E001F0308623DC202A01F02E
:102850005C8312DC122A72D008DC0E2A70D00F2A98
:1028600088D101F02DB9ECE3FEE056E2152A01F023
:10287000A7811E2A8BD101F005B9212A01F0E78535
:10288000222A72D02E2A71D0402A85D101F05EBE54
:1028900021E2F2E3822A6AD00EDC712A01F0A186DD
:1028A00005DC602A01F07283702A92D1A6E2722AB6
:1028B0007ED0802A8DD1F6E3D02A01F07D83F02AE4
:1028C00077D0F12A76D0B2F5807F88D102F0DEB8D9
:1028D000A7E04EE2822D02F0BD8021DC412D01F007
:1028E000BD8111DC212D01F0F58106DC062D01F002
:1028F0007781112DB4D101F093B9312D01F0CC8144
:102900003F2DADD101F0F7B8512D01F00182612DBD
:1029100078D0622D77D0712DA2D101F007BAFDE3F6
:10292000EF2D02F0DF800CDCDF2D6DD0E02D02F00A
:10293000C980E22D01F01982E32D91D118E0C4E0A5
:10294000EDE3F02D02F0DE80F12D02F0EB80F22DB0
:1029500003D0F32D84D102F0F5B80A78FE4D2A7128
:102960004D78FD4A557102F0FEB8BDE0EFE3CAE0D4
:102970000A78FA4D2A704A786A70F4E74A78F74D77
:10298000AA70CA78EA708A782A710A78AA710A79D4
:10299000EA724A792A738A79EA75CA792A76F04AFC
:1029A000126822F00102521CED4D2A600120DAE784
:1029B000B6E0EDE0FCE30A79E84DEA714A792A7263
:1029C0008A786A72CA78AA728A7985F82720CA79C1
:1029D00085F82820E24A126822F00102521CE04DDC
:1029E0002A600120BFE7DD4A0E320D6815604D6890
:1029F0005560DB4A126822F00102521CD84D2A6051
:102A00000120B0E7D7E1F5E3F5E30A78D34DAA75E5
:102A1000D34A126822F00102521CD14D2A600120D3
:102A2000A1E70A78CD4D6A764A78AA768A78EA765E
:102A3000CA782A770A796A774A79AA778A7985F8EB
:102A40006A20CD79C54A82F86B50C54A126822F0D7
:102A50000102521CC24D2A602A46126822F004026A
:102A6000121D2A6001207EE7BC4A1F320D681560E6
:102A70004D685560BA4A126822F00102521CB84DE6
:102A80002A6001206FE70A78B44D85F829204A783A
:102A900085F82A208A7885F82B20CA7885F82C209A
:102AA0000A7985F82D204A7985F82E208A7985F8CB
:102AB0002F20CA7985F83020A94A126822F0010235
:102AC000521CA74D2A6001204DE7A44A31320D68FF
:102AD00015604D685560A24A126822F00102521C2E
:102AE0009F4D2A6001203EE79C4A39320D681560EF
:102AF0004D6855609A4A126822F00102521C984DA6
:102B00002A6001202FE7954A0D68C2F84150944A87
:102B1000126822F00102521C914D2A60012022E726
:102B20008E4A0D68C2F845508D4A126822F00102A3
:102B3000521C8B4D2A60012015E70A7902F0010230
:102B400042B1864A92F8492042F00102834D85F84D
:102B5000492007E0814A92F8492022F001027F4D86
:102B600085F849200D787D4A82F86C504D7882F8BE
:102B70006D507B4A126822F00102521C784D2A6087
:102B80002A46126822F00402121D2A600120EAE699
:102B90008A7802F0100242B1704A92F8492042F05D
:102BA00002026E4D85F8492007E06C4A92F84920F0
:102BB00022F00202694D85F849208A7802F001026C
:102BC00042B1664A92F8492042F00402634D85F80A
:102BD000492007E0614A92F8492022F004025F4D43
:102BE00085F849208A7802F0040242B15B4A92F8E3
:102BF000492042F00802594D85F8492007E0574A1C
:102C000092F8492022F00802544D85F849208A782C
:102C100002F0080242B1514A92F8492042F01002F3
:102C20004E4D85F8492007E04C4A92F8492022F0A1
:102C300010024A4D85F849208A7802F0020242B11A
:102C4000464A92F8492042F02002444D85F8492036
:102C500007E0424A92F8492022F020023F4D85F8D1
:102C60004920CA7902F0800242B13C4A92F8102110
:102C700042F00105394A82F8105107E0374A92F8CC
:102C8000102122F00105354A82F81051CA7902F06C
:102C9000400242B1314A92F8102142F002052F4A17
:102CA00082F8105107E02D4A92F8102122F0020517
:102CB0002A4A82F810512B4A126822F00802083280
:102CC000284D2A60264A126822F00102521C244D27
:102CD0002A60012047E60A78204D85F84A204A7884
:102CE00085F84B208A7885F84C20CA7885F84D20E5
:102CF0000A7985F84E204A7985F84F208A7985F837
:102D00005020CA7985F85120154A126822F0010234
:102D1000521C134D2A60012025E60A780F4D85F8D4
:102D200052204D780D4A82F853508D7882F85A50CF
:102D3000CD7882F85B500D7982F856504D7982F843
:102D400057508D7982F85E50CD7982F85F50044AF1
:102D5000126822F0020207E0082C0020212C00203B
:102D6000881B00208C1B0020921CF94D2A6001203A
:102D7000F9E50D78F74A82F854504D7882F85550AD
:102D80008D7882F85C50CD7882F85D500D7982F8AC
:102D900066504D7982F867508D7982F86850CD7908
:102DA00082F86950EA4A126822F00202921CE84D49
:102DB0002A600120D7E58D78E64A82F85850CD7810
:102DC00082F859500D7982F860504D7982F861503F
:102DD0008D7982F80051CD7982F80151DC4A126870
:102DE00022F00202921CDA4D2A60DB4A126822F0BD
:102DF0000202921CD84D2A600120B4E54A7902F003
:102E0000010242B1D34A92F8622042F00105D14A50
:102E100082F8625007E0CF4A92F8622022F0010562
:102E2000CC4A82F862504A7902F0020242B1C94AA1
:102E300092F8622042F00205C64A82F8625007E02A
:102E4000C44A92F8622022F00205C24A82F8625017
:102E50004A7902F0100242B1BE4A92F8622042F072
:102E60000405BC4A82F8625007E0BA4A92F8622030
:102E700022F00405B74A82F862508A7902F0020211
:102E800042B1B44A92F8622042F02005B14A82F879
:102E9000625007E0AF4A92F8622022F02005AD4A66
:102EA00082F862508A7902F0010242B1A94A92F88E
:102EB000622042F04005A74A82F8625007E0A54A26
:102EC00092F8622022F04005A24A82F862508A7984
:102ED00002F0100242B19F4A92F8622042F080054F
:102EE0009C4A82F8625007E09A4A92F8622022F0E7
:102EF0008005984A82F862504A7902F0040242B191
:102F0000944A92F8632042F00105924A82F8635095
:102F100007E0904A92F8632022F001058D4A82F87A
:102F200063504A7902F0080242B18A4A92F863205B
:102F300042F00205874A82F8635007E0854A92F81A
:102F4000632022F00205834A82F863504A7902F036
:102F5000200252B17F4A92F8632042F0040500E05B
:102F6000F1E37C4A82F8635007E07A4A92F86320E2
:102F700022F00405774A82F863508A7902F0080249
:102F800042B1744A92F8632042F02005714A82F8F7
:102F9000635007E06F4A92F8632022F020056D4AE3
:102FA00082F863508A7902F0040242B1694A92F8C9
:102FB000632042F04005674A82F8635007E0654AA3
:102FC00092F8632022F04005624A82F863508A79C1
:102FD00002F0200242B15F4A92F8632042F080057D
:102FE0005C4A82F8635007E05A4A92F8632022F064
:102FF0008005584A82F863500D78564A82F864502A
:103000004D7882F86550CA7902F0040242B1514A03
:1030100092F8022142F001054E4A82F8025107E07F
:103020004C4A92F8022122F001054A4A82F80251E4
:10303000CA7902F008025AB1464A92F8022101E028
:10304000A7E377E042F00205424A82F8025107E026
:10305000404A92F8022122F002053E4A82F80251CB
:10306000CA7902F010024AB13A4A92F8022142F0BB
:103070000405384A82F8025108E0BDE0354A92F86A
:10308000022122F00405334A82F80251CA7902F083
:1030900020024AB12F4A92F8022142F008052D4A37
:1030A00082F8025108E01EE02A4A92F8022122F03A
:1030B0000805284A82F802518D78264A82F8FE5087
:1030C000CD7882F8FF50224A126822F00202921C48
:1030D0001F4D2A60204A126822F00202921C1E4DE7
:1030E0002A6001203FE40D791A4A82F86E504D792A
:1030F00082F86F500D7982F870504D7982F87150D6
:103100008D7982F85651CD7982F85751104A12685C
:1031100022F00402121D0E4D2A6001E0D1E3EEE31D
:103120000D4A126822F4804202F580420A4D2A605C
:10313000012018E40A7802F008027AB1054A92F8F0
:10314000722042F00105034A82F872500EE039E322
:10315000881B0020212C00208C1B0020F84A92F8AC
:10316000722022F00105F64A82F872508A7802F045
:10317000010242B1F24A92F8582142F00205F04AA7
:1031800082F8585107E0EE4A92F8582122F00205E1
:10319000EB4A82F858518A7802F002024AB1E84AB2
:1031A00092F8582142F00405E54A82F8585108E0A7
:1031B0003AE1E34A92F8582122F00405E04A82F805
:1031C00058518A79DE4D85F85421CD79DC4A82F850
:1031D0005551DC4A126822F00402121DD94D2A60B2
:1031E000D94A126822F4804202F58042D64D2A6004
:1031F000012006E4D4E1A7E2CA78D14D85F8732016
:103200000D79CF4A82F874508D7882F875500A781B
:1032100002F0010242B1CA4A92F8892042F0010547
:10322000C74A82F8895007E0C54A92F8892022F0FF
:103230000105C34A82F889500A7802F0020242B1BD
:10324000BF4A92F8892042F00205BD4A82F88950AF
:1032500007E0BB4A92F8892022F00205B84A82F8BA
:1032600089500A7802F0040242B1B54A92F88920E6
:1032700042F00405B24A82F8895007E0B04A92F859
:10328000892022F00405AE4A82F889500A7802F0BB
:10329000080242B1AA4A92F8892042F00805A84AD9
:1032A00082F8895007E0A64A92F8892022F00805A2
:1032B000A34A82F88950A34A126822F020022032E1
:1032C000A04D2A6001200EE40D789D4A82F87650C8
:1032D0009C4A126822F0200220329A4D2A60012076
:1032E00010E44D78964A82F877508D7882F87850BD
:1032F000944A126822F020022032924D2A60012066
:103300000DE40D788E4A82F879508D7882F87A50E3
:10331000CD7882F87B508B4A126822F0200220324E
:10332000884D2A60012007E40A7802F0010242B1C8
:10333000834A92F8822042F00105814A82F8825045
:1033400007E07F4A92F8822022F001057C4A82F849
:1033500082500A7802F0020242B1794A92F8822041
:1033600042F00205764A82F8825007E0744A92F8E9
:10337000822022F00205724A82F882508D78704ACB
:1033800082F87C50CD7882F87D506E4A126822F027
:10339000200220326B4D2A6001209BE40D78684AA0
:1033A00082F87E504D7882F87F508D7882F8805078
:1033B000CD7882F88150634A126822F020022032D0
:1033C000604D2A60012085E44D785D4A82F8835083
:1033D0005C4A126822F0200220325A4D2A600120F5
:1033E00078E40D78564A82F884504D7882F88550FA
:1033F0000D7982F886504D7982F88750514A1268CB
:1034000022F0200220324F4D2A60012062E44D78E4
:103410004B4A82F888504B4A126822F02002203230
:10342000484D2A60012055E44A7802F0010242B179
:10343000434A92F88A2042F00102414D85F88A20E1
:1034400007E03F4A92F88A2022F001023C4D85F8BD
:103450008A204A7802F0020242B1394A92F88A2060
:1034600042F02002364D85F88A2007E0344A92F86F
:103470008A2022F02002324D85F88A204A7802F014
:10348000040242B12E4A92F88A2042F040022C4DAA
:1034900085F88A2007E02A4A92F88A2022F0400222
:1034A000274D85F88A204A7802F0080242B1244A62
:1034B00092F88A2042F08002214D85F88A2007E0A8
:1034C0001F4A92F88A2022F080021D4D85F88A203A
:1034D0004A7802F0100242B1194A92F88F2042F065
:1034E0000105174A82F88F5007E0154A92F88F209D
:1034F00022F00105124A82F88F504A7802F0200229
:1035000042B10F4A92F88F2042F020050C4A82F80F
:103510008F5007E00A4A92F88F2022F02005084ACF
:1035200082F88F504A7802F040027AB1044A92F849
:103530008F2042F04005024A82F88F500EE00000D2
:10354000212C0020881B00208C1B0020FB4A92F8B5
:103550008F2022F04005F94A82F88F504A7802F015
:10356000800242B1F54A92F88F2042F08005F34A7A
:1035700082F88F5007E0F14A92F88F2022F0800500
:10358000EE4A82F88F508D78EC4A82F80F51EC4A5F
:10359000126822F040024032E94D2A60012009E41D
:1035A0000A7802F0100242B1E44A92F88A2042F00E
:1035B0000202E24D85F88A2007E0E04A92F88A206C
:1035C00022F00202DD4D85F88A200A7802F02002FE
:1035D00042B1DA4A92F88A2042F00402D74D85F8C7
:1035E0008A2007E0D54A92F88A2022F00402D34DBF
:1035F00085F88A200A7802F0400242B1CF4A92F858
:103600008A2042F00802CD4D85F88A2007E0CB4A97
:1036100092F88A2022F00802C84D85F88A200A789C
:1036200002F0800242B1C54A92F88A2042F01002AC
:10363000C24D85F88A2007E0C04A92F88A2022F01D
:103640001002BE4D85F88A200A7802F0010242B1CC
:10365000BA4A92F88F2042F00205B84A82F88F5099
:1036600007E0B64A92F88F2022F00205B34A82F8AA
:103670008F500A7802F0020242B1B04A92F88F20CD
:1036800042F00405AD4A82F88F5007E0AB4A92F849
:103690008F2022F00405A94A82F88F500A7802F0A0
:1036A000040242B1A54A92F88F2042F00805A34ACD
:1036B00082F88F5007E0A14A92F88F2022F0080587
:1036C0009E4A82F88F500A7802F0080242B19B4A63
:1036D00092F88F2042F01005984A82F88F5007E048
:1036E000964A92F88F2022F01005944A82F88F5063
:1036F000934A126822F040024032914D2A60012024
:10370000F0E40D798D4A82F88B504D7982F88C5017
:103710008D7982F88D50CD7982F88E500D7882F8AF
:1037200090504D7882F891508D7882F89250CD78F3
:1037300082F89350824A126822F040024032804D53
:103740002A600120CEE45FE00A787C4D85F8942061
:103750004D787A4A82F895508D7882F89650CD78D7
:1037600082F897500A79774DAA714A79EA718A7975
:103770002A72754A126822F00102521C724D2A60A8
:103780006F4A126822F0800280326D4D2A6001205B
:10379000A8E44D78694A82F89850CD7882F899501B
:1037A0008D7882F89A500D7982F8A4504D7982F87C
:1037B000A750634A126822F080028032604D2A606E
:1037C00001208FE40D785D4A82F89C508D7982F853
:1037D0009D500D7982F89E504D7982F89F508D78DA
:1037E00082F8A050CD7882F8A1504D7882F8A2508E
:1037F000CD7982F8A350524A126822F080028032BA
:103800004F4D2A6001206DE40A7802F0010242B1B6
:103810004A4A92F8A52042F00205484A82F8A5508B
:1038200007E0464A92F8A52022F00205434A82F8B2
:10383000A5500A7802F0020242B1404A92F8A5204F
:1038400042F004053D4A82F8A55007E03B4A92F851
:10385000A52022F00405394A82F8A5500A7802F022
:10386000100242B1354A92F8A52042F00805334AC9
:1038700082F8A55007E0314A92F8A52022F0080509
:103880002E4A82F8A5500A7802F0080242B12B4A6B
:1038900092F8A52042F01005284A82F8A55007E0CA
:1038A000264A92F8A52022F01005244A82F8A55055
:1038B000234A126822F080028032214D2A600120C2
:1038C00010E48A7802F0010242B11C4A92F8A52065
:1038D00042F00105194A82F8A55007E0174A92F80C
:1038E000A52022F00105154A82F8A550144A126855
:1038F00022F080028032124D2A60012019E425E076
:103900000A7802F0010242B10C4A92F8A52042F076
:1039100020050A4A82F8A55007E0084A92F8A52037
:1039200022F02005054A82F8A550054A126822F0C7
:1039300080028032024D2A6001205AE4212C0020AE
:10394000881B0020A32F0020A01B00200A7802F073
:10395000010242B1FE4A92F8A62042F00805FC4A54
:1039600082F8A65007E0FA4A92F8A62022F008054D
:10397000F74A82F8A6500A7802F0020242B1F44AED
:1039800092F8A62042F01005F14A82F8A65007E00E
:10399000EF4A92F8A62022F01005ED4A82F8A650D0
:1039A0000A7802F0040242B1E94A92F8A62042F0F5
:1039B0002005E74A82F8A65007E0E54A92F8A620DB
:1039C00022F02005E24A82F8A650CA7802F00102ED
:1039D00042B1DF4A92F8A52042F04005DC4A82F865
:1039E000A55007E0DA4A92F8A52022F04005D84A0F
:1039F00082F8A550CA7802F0020242B1D44A92F885
:103A0000A52042F08005D24A82F8A55007E0D04AAE
:103A100092F8A52022F08005CD4A82F8A550CA78F8
:103A200002F0040242B1CA4A92F8A62042F001050F
:103A3000C74A82F8A65007E0C54A92F8A62022F0AD
:103A40000105C34A82F8A650CA7802F0080242B1C2
:103A5000BF4A92F8A62042F00205BD4A82F8A6505D
:103A600007E0BB4A92F8A62022F00205B84A82F885
:103A7000A650B84A126822F080028032B54D2A6002
:103A8000012020E40A7802F0010242B1B04A92F823
:103A9000A62042F00405AE4A82F8A65007E0AC4AE0
:103AA00092F8A62022F00405A94A82F8A650A94A55
:103AB000126822F080028032A64D2A6001200FE4B5
:103AC000A34A80320D6895624D68D562CA78A04DD0
:103AD00085F8FD209F4A126822F4807202F58072F8
:103AE0009C4D2A609C4A126822F00202921C9A4D58
:103AF0002A60012004E40D78954A82F8B0504D7890
:103B000082F8B150934A126822F4807202F58072F2
:103B1000904D2A60012006E40A788D4D85F8B22088
:103B20004D788B4A82F8B3508A4A126822F40072A8
:103B300002F50072874D2A6001202EE40D78844A38
:103B400082F8B4504D7882F8B550824A126822F457
:103B5000007202F500727F4D2A6001201DE40D788D
:103B60007B4A82F8B6504D7882F8B750794A12688D
:103B700022F4007202F50072764D2A6001200CE4F6
:103B8000734A80320D6895634D68D563714A126837
:103B900022F4806202F580626E4D2A60012012E4F8
:103BA0006B4AB8320D6895604D68D560694A1268F5
:103BB00022F4806202F58062664D2A6001200FE4E3
:103BC000634AB8320D6815614D685561614A1268E3
:103BD00022F4806202F580625E4D2A60012015E4C5
:103BE0005B4AB8320D6895614D68D561594A1268D3
:103BF00022F4806202F58062564D2A60012005E4BD
:103C0000534A80320D6895654D68D565514A1268F2
:103C100022F4006202F500624E4D2A600120BEE4EB
:103C20004B4AE0320D6815608D8895808D79E03AB9
:103C300082F80751CD7982F80851464A126822F479
:103C4000805202F58052434D2A60434A126822F0A6
:103C50000402121D404D2A600120A0E43C4AE632D5
:103C60000D6815604D6855608D79E63A82F8095106
:103C7000CD7982F80A51374A126822F4005202F5CF
:103C80000052344D2A60344A126822F00402121D98
:103C9000314D2A60012082E40A782D4D85F8EE200E
:103CA0000D792B4A82F8EF504D7882F8F0508D78DC
:103CB00082F8F1504D7982F8F250CD7882F8F350C5
:103CC000244A126822F4804202F58042214D2A6083
:103CD000012064E41E4AF4320D6815600D791571F7
:103CE0004D79F43A82F80B518D7982F80C51194ACA
:103CF000126822F4004202F50042164D2A60164A6C
:103D0000126822F00402121D134D2A60012046E4BD
:103D10000F4AD1F80350C2F8F9500F4A126822F046
:103D20000102521C0C4D2A60012038E40A78084D2B
:103D300085F803214D78064A82F804518D7882F87F
:103D40000551CD7882F80651034A126806E000005A
:103D5000212C0020881B00208C1B002022F0040254
:103D6000121DFE4D2A60012019E40A78FC4D85F8E9
:103D70000D214D78FA4A82F80E510D7982F82951B9
:103D80004D7982F82A518D7982F82D51CD7982F8BA
:103D90002E51F24A126822F008020832EF4D2A60D2
:103DA0002A46126822F0200220322A600120A7E46D
:103DB0000A78EB4D85F811214D78E94A82F81251C5
:103DC0008D7882F81351CD7882F814510D7882F8ED
:103DD0001F514D7882F820518D7882F82151CD788D
:103DE00082F822510A78DE4D85F843214D78DC4A6D
:103DF00082F844518D7882F84551CD7882F8465149
:103E00000A79D74D85F849214D79D54A82F84A512A
:103E10008D7982F84B51CD7982F84C51CF4A126896
:103E200022F010021032CD4D2A602A46126822F08C
:103E3000200220322A602A46126822F4006202F52B
:103E400000622A602A46126822F4805202F58052EB
:103E50002A60012054E40D78C14A82F815514D784A
:103E600082F816510D7882F827514D7882F8285142
:103E70000D7882F847514D7882F848518A7902F0DE
:103E8000010242B1B64A92F84D2142F00205B44A0D
:103E900082F84D5107E0B24A92F84D2122F0020516
:103EA000AF4A82F84D518A7902F0020242B1AC4A1F
:103EB00092F84D2142F00405A94A82F84D5107E0DD
:103EC000A74A92F84D2122F00405A54A82F84D51E7
:103ED000A24A126822F010021032A04D2A602A462F
:103EE000126822F0200220322A602A46126822F448
:103EF000006202F500622A602A46126822F48052AB
:103F000002F580522A6001201CE40A78944D85F85D
:103F100017214D78924A82F818518D7882F81951FC
:103F2000CD7882F81A510D7982F82B514D7982F8AB
:103F30002C518A798A4D85F83121CD79884A82F8C9
:103F40003251864A126822F020022032834D2A60C4
:103F50002A46126822F0800280322A60012017E48B
:103F60000D787F4A82F81B514D7882F81C518D786C
:103F700082F81D51CD7882F81E51784A126822F0DD
:103F800020022032754D2A6001201AE40D78744A0F
:103F900082F823514D7882F824518D7882F825518A
:103FA000CD7882F826516D4A126822F02002203224
:103FB0006A4D2A60012004E4CA7802F0080242B186
:103FC000674A92F82F2142F00105654A82F82F5185
:103FD00007E0634A92F82F2122F00105604A82F837
:103FE0002F510A7802F0010242B15D4A92F84D2148
:103FF00042F001055A4A82F84D5107E0584A92F8BA
:104000004D2122F00105564A82F84D510A7802F0FE
:10401000020242B1524A92F8582142F00105504A38
:1040200082F8585107E04E4A92F8582122F00105D3
:104030004B4A82F85851494A126822F02002203235
:10404000464D2A602A46126822F4805202F58052B8
:104050002A602A46126822F4804202F580422A60D1
:1040600001202DE40A7802F0010242B13C4A92F8A4
:10407000302142F001023A4D85F8302107E0384AFC
:1040800092F8302122F00102354D85F830210A786E
:1040900002F0020242B1324A92F8302142F00202AA
:1040A0002F4D85F8302107E02D4A92F8302122F07B
:1040B00002022B4D85F830210A7802F0040242B149
:1040C000274A92F8302142F00802254D85F8302128
:1040D00007E0234A92F8302122F00802204D85F8AB
:1040E00030210A7802F0080242B11D4A92F83021CC
:1040F00042F010021A4D85F8302107E0184A92F874
:10410000302122F01002164D85F83021134A126832
:1041100022F040024032114D2A60012011E24A791A
:1041200002F0200242B10E4A92F8302142F004021D
:104130000B4D85F8302107E0094A92F8302122F032
:104140000402074D85F830214A7902F040026AB135
:10415000034A92F8302142F0200203E08C1B002039
:10416000212C0020F74D85F8302107E0F54A92F820
:10417000302122F02002F34D85F830210A7802F038
:10418000010242B1EF4A92F8372142F00102ED4DAF
:1041900085F8372107E0EB4A92F8372122F0010237
:1041A000E84D85F837210A7802F0020242B1E54A6B
:1041B00092F8372142F00202E24D85F8372107E0FC
:1041C000E04A92F8372122F00202DE4D85F83721CD
:1041D0000A7802F0200242B1DA4A92F8372142F01E
:1041E0000402D84D85F8372107E0D64A92F83721E6
:1041F00022F00402D34D85F837210A7802F010022C
:1042000042B1D04A92F8372142F00802CD4D85F8EC
:10421000372107E0CB4A92F8372122F00802C94D36
:1042200085F837210A7902F0010242B1C54A92F8B5
:10423000372142F01002C34D85F8372107E0C14A0B
:1042400092F8372122F01002BE4D85F837210A7905
:1042500002F0020242B1BB4A92F8372142F020023A
:10426000B84D85F8372107E0B64A92F8372122F099
:104270002002B44D85F837210A7902F0200242B1BC
:10428000B04A92F8372142F04002AE4D85F837210E
:1042900007E0AC4A92F8372122F04002A94D85F898
:1042A00037210A7902F0100242B1A64A92F837216A
:1042B00042F08002A34D85F8372107E0A14A92F829
:1042C000372122F080029F4D85F837210A7802F0CD
:1042D000400242B19B4A92F8382142F00105994AC6
:1042E00082F8385107E0974A92F8382122F0010508
:1042F000944A82F838510A7802F0800242B1914A19
:1043000092F8382142F002058E4A82F8385107E0CF
:104310008C4A92F8382122F002058A4A82F83851F4
:104320004D78884A82F83B514A7902F0010242B145
:10433000844A92F83C2142F00102824D85F83C21EA
:1043400007E0804A92F83C2122F001027D4D85F879
:104350003C214A7902F0020242B17A4A92F83C21A9
:1043600042F00202774D85F83C2107E0754A92F849
:104370003C2122F00202734D85F83C21724A1268FA
:1043800022F040024032704D2A602A46126822F420
:10439000807202F580722A602A46126822F4007246
:1043A00002F500722A600120DDE38A7802F0010242
:1043B00042B1644A92F8302142F04002614D85F8E2
:1043C000302107E05F4A92F8302122F040025D4D33
:1043D00085F830218A7802F0080242B1594A92F8F1
:1043E000302142F08002574D85F8302107E0554AD0
:1043F00092F8302122F08002524D85F830218A79DE
:10440000504D85F83F21CD794E4A82F840514E4AB1
:10441000126822F0400240324B4D2A602A46126850
:1044200022F4806202F580622A6001209BE38D788D
:10443000444A82F83351CD7882F83451424A1268A6
:1044400022F080028032404D2A6001208BE38D797A
:104450003C4A82F83551CD7982F836513A4A126891
:1044600022F080028032384D2A6001207BE30D78F3
:10447000344A82F839514D7882F83A518D7982F870
:104480003D51CD7982F83E512F4A126822F4807254
:1044900002F580722C4D2A602A46126822F40072BE
:1044A00002F500722A6001205DE30D78254A82F84A
:1044B00041514D7882F84251234A126822F48062B9
:1044C00002F58062204D2A6001204CE30A781D4DE0
:1044D00085F84E214D781B4A82F84F518D7882F82D
:1044E0005051CD7882F851510D7982F852514D7961
:1044F00082F85351144A126822F4005202F5005215
:10450000114D2A6001202EE30A780E4D85F85921BD
:104510004D780C4A82F85A518D7882F85B51CD78EB
:1045200082F85C518D7982F85F51CD7982F86051C3
:10453000054A126822F4004202F50042024D2A6048
:10454000012010E3212C00208C1B00200A7802F0AF
:10455000010242B1FD4A92F8612142F00102FB4D95
:1045600085F8612107E0F94A92F8612122F0010201
:10457000F64D85F861210A7802F0020242B1F34A51
:1045800092F8612142F00202F04D85F8612107E0C6
:10459000EE4A92F8612122F00202EC4D85F8612189
:1045A0008D79EA4A82F86251CD7982F86351E84AFE
:1045B000126822F00102521CE54D2A600120D2E26D
:1045C0000A79E24D85F864214D79E04A82F8655117
:1045D000DF4A126822F00202921CDD4D2A6001209F
:1045E000C1E28A79D94D85F86621CD79D74A82F81A
:1045F00067514A7902F0010242B1D44A92F8682127
:1046000042F00105D14A82F8685107E0CF4A92F89A
:10461000682122F00105CD4A82F868514A7902F0FA
:10462000020242B1C94A92F8682142F00205C74A23
:1046300082F8685107E0C54A92F8682122F0020525
:10464000C24A82F868514A7902F0040242B1BF4A74
:1046500092F8682142F00405BC4A82F8685107E0EC
:10466000BA4A92F8682122F00405B84A82F86851E3
:10467000B74A126822F00402121DB54D2A600120CB
:1046800071E20A7802F0010242B1B04A92F86F2159
:1046900042F00105AD4A82F86F5107E0AB4A92F84B
:1046A0006F2122F00105A94A82F86F510A7802F0C1
:1046B000020242B1A54A92F86F2142F00205A34AD4
:1046C00082F86F5107E0A14A92F86F2122F00205AB
:1046D0009E4A82F86F510A7802F0040242B19B4A66
:1046E00092F86F2142F00405984A82F86F5107E072
:1046F000964A92F86F2122F00405944A82F86F518D
:104700000A7802F0080242B1904A92F86F2142F012
:1047100008058E4A82F86F5107E08C4A92F86F21A3
:1047200022F00805894A82F86F518A78874D85F80A
:104730006921CD78854A82F86A518D7982F86B516A
:10474000CD7982F86C510D7982F873514D7982F8E8
:1047500074517F4A126822F0080208327C4D2A60A8
:10476000012000E20A7802F0800242B1774A92F812
:104770006F2142F01005754A82F86F5107E0734AC5
:1047800092F86F2122F01005704A82F86F514A7832
:1047900002F0080242B16D4A92F86F2142F0200502
:1047A0006A4A82F86F5107E0684A92F86F2122F056
:1047B0002005664A82F86F514A7802F0020242B13F
:1047C000624A92F86F2142F04005604A82F86F51C8
:1047D00007E05E4A92F86F2122F040055B4A82F8BA
:1047E0006F514A7802F0010242B1584A92F86F21A3
:1047F00042F08005554A82F86F5107E0534A92F81B
:104800006F2122F08005514A82F86F514A7802F0F8
:10481000040242B14D4A92F8702142F001054B4A20
:1048200082F8705107E0494A92F8702122F00105A0
:10483000464A82F870514A7802F0100242B1434A67
:1048400092F8702142F00205404A82F8705107E068
:104850003E4A92F8702122F002053C4A82F87051DB
:104860008A783A4D85F87521CD78384A82F87651A4
:104870008D7982F87751CD7982F878510D7982F867
:104880007F514D7982F880510A7802F0010242B1DD
:104890002E4A92F87B2142F001052C4A82F87B5186
:1048A00007E02A4A92F87B2122F00105274A82F884
:1048B0007B510A7802F0020242B1244A92F87B212D
:1048C00042F00205214A82F87B5107E01F4A92F824
:1048D0007B2122F002051D4A82F87B510A7802F002
:1048E000040242B1194A92F87B2142F00405174AAA
:1048F00082F87B5107E0154A92F87B2122F00405EB
:10490000124A82F87B510A7802F0080242B10F4A3B
:1049100092F87B2142F008050C4A82F87B5107E0AF
:104920000A4A92F87B2122F00805084A82F87B5156
:104930000A7802F080026AB1044A92F87B2142F0C0
:104940001005024A82F87B510CE00000212C002067
:10495000901B0020FA4A92F87B2122F01005F84AB9
:1049600082F87B514A7802F0080242B1F44A92F888
:104970007B2142F02005F24A82F87B5107E0F04AA1
:1049800092F87B2122F02005ED4A82F87B514A788B
:1049900002F0020242B1EA4A92F87B2142F040055D
:1049A000E74A82F87B5107E0E54A92F87B2122F042
:1049B0004005E34A82F87B514A7802F0010242B195
:1049C000DF4A92F87B2142F08005DD4A82F87B5174
:1049D00007E0DB4A92F87B2122F08005D84A82F872
:1049E0007B514A7802F0040242B1D54A92F87C2108
:1049F00042F00105D24A82F87C5107E0D04A92F891
:104A00007C2122F00105CE4A82F87C514A7802F0DE
:104A1000100242B1CA4A92F87C2142F00205C84A0B
:104A200082F87C5107E0C64A92F87C2122F0020508
:104A3000C34A82F87C51C34A126822F00802083245
:104A4000C04D2A602A46126822F0100210322A60F5
:104A5000012088E00D78BA4A82F86D514D7882F8CD
:104A60006E518D7882F87951CD7882F87A51B54AB5
:104A7000126822F008020832B24D2A602A461268F3
:104A800022F0100210322A6001206CE00D78AC4A4E
:104A900082F871514D7882F872518D7882F87D518B
:104AA000CD7882F87E51A74A126822F008020832B7
:104AB000A44D2A602A46126822F0100210322A60A1
:104AC000012050E00A78A04DAA744A78EA748A78E6
:104AD0002A759E4A126822F00102521C9B4D2A60E0
:104AE000012040E00A79984DEA704A792A718A7962
:104AF0006A71964A126822F00102521C934D2A6094
:104B0000012030E00A79904DEA734A792A748A7953
:104B10006A748E4A126822F00102521C8B4D2A6080
:104B2000002020E00A79884D2A734A796A738A79CD
:104B3000AA73864A126822F00102521C834D2A6031
:104B4000002010E00A79804D2A704A796A708A79CB
:104B5000AA707E4A126822F00102521C7B4D2A6024
:104B6000012000E000BF00BF70BD70B503461446D1
:104B70000020774D5A1BAB4276D01ADC754DA3EB63
:104B80000502AB4271D00ADC734A1A44002A6DD088
:104B9000B2F5606F6BD0B2F5805F69D14CE3B2F5CE
:104BA000007F7BD0B2F5506F79D0B2F5606FF4D151
:104BB00014E0B2F5804F73D009DCB2F5885F70D095
:104BC000B2F5905F6ED0B2F5985FE6D18EE1B2F5A6
:104BD000824F68D0B2F5A84FDFD15FE30A785F4D0E
:104BE0002A704A7802F001022AB12A46527842F02D
:104BF00001026A7005E0594A527822F00102574DCD
:104C00006A704A7802F0020232B1544A527842F095
:104C10000202524D6A7005E0504A527822F00202B8
:104C20004E4D6A704A7802F0100242B14B4A92F837
:104C30006A2042F00205494A82F86A5007E0474A72
:104C400092F86A2022F00205444A82F86A504A78B3
:104C500002F008026AB1414A92F86A2042F0040563
:104C60003E4A82F86A500CE0A3E2FAE1C5E247E06E
:104C7000BBE33A4A92F86A2022F00405374A82F8E8
:104C80006A504A7802F0080272B1344A92F86A20F7
:104C900042F00805314A82F86A500DE0EEE278E20F
:104CA000F0E12FE252E292E22C4A92F86A2022F0DE
:104CB00008052A4A82F86A504A7802F0040242B192
:104CC000264A92F86A2042F04005244A82F86A5047
:104CD00007E0224A92F86A2022F040051F4A82F833
:104CE0006A501F4A126822F00102521C1C4D2A60B1
:104CF0002A46126822F0400240322A60012076E300
:104D0000CA79164DAA70CA7802F0100232B12A464A
:104D1000D27842F00105114AD57005E00F4AD278E9
:104D200022F001050D4AD570CA7802F02002CAB1FE
:104D30000A4AD27842F00205084AD57018E000000D
:104D4000212C0020901B0020A32F0020A01B00205E
:104D5000214BF21C212DF21CDFF00DE3B92D0020B8
:104D6000941B0020F74AD27822F00205F54AD5704C
:104D70004A7802F0010232B1F24AD27842F00405D8
:104D8000F04AD57005E0EF4AD27822F00405ED4AEA
:104D9000D5704A7802F0020232B1EA4AD27842F083
:104DA0000805E84AD57005E0E64AD27822F0080501
:104DB000E44AD5704A7802F0040232B1E14AD2786E
:104DC00042F01005DF4AD57005E0DE4AD27822F0C5
:104DD0001005DC4AD5704A7802F0080232B1D94A8F
:104DE000D27842F02005D74AD57005E0D54AD2786E
:104DF00022F02005D34AD5704A7802F0100232B171
:104E0000D04AD27842F04005CE4AD57005E0CD4A6E
:104E1000D27822F04005CB4AD5708A7902F0400260
:104E200042B1C84A92F86A2042F00105C54A82F8A8
:104E30006A5007E0C34A92F86A2022F00105C14A8D
:104E400082F86A50CA7802F0400242B1BD4A92F834
:104E50006A2042F01005BB4A82F86A5007E0B94A5E
:104E600092F86A2022F01005B64A82F86A508A78D1
:104E700002F0200242B1B34A92F86A2042F02005C3
:104E8000B04A82F86A5007E0AE4A92F86A2022F0EF
:104E90002005AC4A82F86A508A7902F0800242B159
:104EA000A84A92F86C2042F00102A64D85F86C20C9
:104EB00007E0A44A92F86C2022F00102A14D85F887
:104EC0006C20A14A126822F00202921C9E4D2A60B8
:104ED0002A46126822F0400240322A602A461268AE
:104EE00022F0800280322A60012080E20D78954A0B
:104EF00015714D785571CD7895710D79D5714A79C7
:104F000002F0010242B18F4A92F86A2042F0800515
:104F10008C4A82F86A5007E08A4A92F86A2022F0A6
:104F20008005884A82F86A504A7902F0020242B14A
:104F3000844A92F86B2042F00105824A82F86B5055
:104F400007E0804A92F86B2022F001057D4A82F842
:104F50006B504A7902F0040242B17A4A92F86B200F
:104F600042F00205774A82F86B5007E0754A92F8E2
:104F70006B2022F00205734A82F86B504A7902F0E6
:104F8000080242B16F4A92F86B2042F004056D4A64
:104F900082F86B5007E06B4A92F86B2022F0040510
:104FA000684A82F86B504A7902F0100242B1654AB1
:104FB00092F86B2042F00805624A82F86B5007E0D5
:104FC000604A92F86B2022F008055E4A82F86B5026
:104FD0004A7902F0200242B15A4A92F86C2042F01B
:104FE0000202584D85F86C2007E0564A92F86C2072
:104FF00022F00202534D85F86C204A7902F04002FB
:1050000042B1504A92F86C2042F004024D4D85F8AE
:105010006C2007E04B4A92F86C2022F00402494DC4
:1050200085F86C200D78474A82F865504D7882F8F3
:1050300066508D7882F86750434A126822F0020267
:10504000921C414D2A602A46126822F040024032EA
:105050002A602A46126822F0800280322A600120EB
:10506000C5E10A78374D85F854204D78354A82F8E5
:105070005550354A126822F020022032324D2A6003
:105080000120B4E14A7802F0010242B12D4A92F8BF
:105090005C2042F001052B4A82F85C5007E0294A67
:1050A00092F85C2022F00105264A82F85C504A788A
:1050B00002F0020242B1234A92F85C2042F002055B
:1050C000204A82F85C5007E01E4A92F85C2022F0E9
:1050D00002051C4A82F85C500D791A4A82F8565033
:1050E0004D7982F857508D7882F85A500D7882F8B1
:1050F0005B50154A126822F020022032124D2A60BD
:10510000012074E10D780F4A82F858504D7882F8EA
:1051100059500D4A126822F0200220320A4D2A60AE
:105120008D79084A82F87050CD7982F87150064A1C
:10513000126822F4007202F50072034D2A60012009
:1051400055E10000B92D0020941B00200A78F74D8E
:1051500085F85D204D78F54A82F85E508D7882F8AA
:105160005F50CD7882F860500D7982F861504D79AA
:1051700082F862508D7982F86350CD7982F864505C
:10518000EB4A126822F040024032E94D2A600120C9
:105190002DE10D79E54A82F868504D7982F8695021
:1051A000E34A126822F040024032E14D2A600120B9
:1051B0001DE18A79DD4D85F86F20DD4A126822F401
:1051C000007202F50072DA4D2A6001200FE10A78C0
:1051D000002A10DD0A78132A0DDA4E780A78521E5A
:1051E000D24D7F35AE54D24A126822F4006202F5E5
:1051F0000062CF4D2A600120F9E00D78CD4AD576C6
:105200004D7815778D785577CD7882F821500D79C6
:1052100082F822504D7982F823508D7982F82750F8
:10522000CD7982F82850C44A126822F00202921CFA
:10523000C14D2A600120DAE00D78BE4A82F829507B
:105240004D7882F82D508D7882F82E50CD7882F8E6
:105250002F500D7982F833504D7982F834508D7982
:1052600082F83550CD7982F84550B34A126822F061
:105270000202921CB04D2A600120B8E00D78AD4AC0
:1052800082F846504D7882F84750AB4A126822F0B7
:105290000202921CA84D2A600120A8E00A78012A87
:1052A0000FD14D78A34A95778D78D577CD7882F850
:1052B0002050A14A126822F00202921C9E4D2A60E0
:1052C00091E00A78022A11D14D789A4A82F8245046
:1052D0008D7882F82550CD7882F82650964A12684B
:1052E00022F00202921C944D2A607CE00A78032A84
:1052F00011D14D788F4A82F82A508D7882F82B5040
:10530000CD7882F82C508C4A126822F00202921C4E
:10531000894D2A6067E00A78042A11D14D78854AC0
:1053200082F830508D7882F83150CD7882F8325042
:10533000814A126822F00202921C7F4D2A6052E0DC
:105340000A78052A11D14D787A4A82F836508D783C
:1053500082F83750CD7882F83850774A126822F0B8
:105360000202921C744D2A603DE00A78062A11D18F
:105370004D78704A82F83C508D7882F83D50CD7857
:1053800082F83E506C4A126822F00202921C6A4D6A
:105390002A6028E00A78072A11D14D78654A82F8F8
:1053A00042508D7882F84350CD7882F84450624A5A
:1053B000126822F00202921C5F4D2A6013E00A7804
:1053C000082A10D14D785B4A82F848508D7882F8CF
:1053D0004950CD7882F84A50574A126822F00202AA
:1053E000921C554D2A60012001E0002000BF00BF43
:1053F00070BD70B5034614460020B3F5177F75D015
:1054000033DC40F22E25A3EB0502AB426FD019DC52
:1054100040F22A25A3EB0502AB426AD00BDCA3F2D3
:105420000F22002A7DD00E2A7CD00F2A7BD0102A92
:1054300041F03780F7E3012A76D0022A75D0032A9B
:10544000F6D1F1E31F2A42D008DC012A78D00C2AD9
:1054500077D00D2A76D01D2AEAD199E0202A72D081
:10546000212A71D02C2AE3D1F0E3B3F52B7F6CD045
:1054700017DCB3F5237F69D00ADCA3F25D22002A92
:1054800065D0012A6FD0022A6ED00D2AD0D1EFE369
:10549000A3F28D22002A68D0122A67D01E2AC7D113
:1054A000E7E340F2BB255A1BAB426ED008DCA3F207
:1054B000AD22002A6AD0012A69D0022AB8D1FBE3C2
:1054C000012A74D0022A73D0032AB1D1F5E3174A16
:1054D000AA320D6815604D685560184A126822F0AE
:1054E0000102521C154D2A600120E7E3E7E3E7E3E0
:1054F000FFE70D780D4A82F8B2504D7882F8B3502C
:105500008D7882F8B450CD7882F8B5500D7982F854
:10551000B6504D7982F8B7508D7982F8B850CD7970
:1055200016E0F0E32CE1EFE3EFE3EFE3B92D002029
:10553000941B0020A32F0020A01B0020981B0020FC
:10554000FAE3FAE37EE012E06FE3F7E3F7E3F7E371
:1055500082F8B950F94A126822F00102521CF74D44
:105560002A600120C1E796E2EBE354E0EAE3F44A63
:105570000D6815614D685561F04A126822F001020C
:10558000521CEE4D2A600120AFE7FCE3FCE3FCE394
:105590004A7802F0100262B1E94AAA3A92F87320FE
:1055A00042F00205E64AAA3A82F873500BE0EDE3B6
:1055B000EDE3E34AAA3A92F8732022F00205E04AAA
:1055C000AA3A82F873500A78DD4DAA3D85F8C220C8
:1055D0008A7985F86F208D78D94AAA3A82F87D5069
:1055E000CD7882F87E50D54A126822F00202921CD1
:1055F000D24D2A60D34A126822F4007202F500727A
:10560000D04D2A602A46126822F4806202F5806238
:105610002A60012069E70D78C94AAA3A82F8C35086
:105620004D7882F8C4508D7882F8C550CD7882F8D4
:10563000C650C24A126822F00202921CBF4D2A6074
:10564000012052E70A78BE4DAA3D2A704A7802F03E
:1056500001022AB12A46527842F001026A7007E03C
:10566000B74AAA3A527822F00102B54DAA3D6A70B3
:105670004A7802F0020242B1B14AAA3A527842F0A4
:105680000202AF4DAA3D6A7007E0AD4AAA3A5278CD
:1056900022F00202AA4DAA3D6A704A7802F0100276
:1056A00052B1A74AAA3A92F86A2042F00205A44AE7
:1056B000AA3A82F86A5009E0A14AAA3A92F86A2006
:1056C00022F002059E4AAA3A82F86A504A7802F00D
:1056D000080252B19A4AAA3A92F86A2042F00405A6
:1056E000974AAA3A82F86A5009E0954AAA3A92F88B
:1056F0006A2022F00405924AAA3A82F86A504A784F
:1057000002F0080252B18E4AAA3A92F86A2042F098
:1057100008058B4AAA3A82F86A5009E0884AAA3AF0
:1057200092F86A2022F00805854AAA3A82F86A505F
:105730004A7802F0040252B1814AAA3A92F86A20E9
:1057400042F040057E4AAA3A82F86A5009E07C4A53
:10575000AA3A92F86A2022F04005794AAA3A82F8D9
:105760006A50784A126822F00102521C754D2A6074
:105770002A46126822F0400240322A600120B4E634
:10578000CA796F4DAA3DAA700A7802F001024AB1A7
:105790002A4692F86E2042F00105694AAA3A82F838
:1057A0006E5009E0664AAA3A92F86E2022F001058E
:1057B000634AAA3A82F86E500A7802F0020252B1A5
:1057C0005F4AAA3A92F86E2042F002055C4AAA3A71
:1057D00082F86E5009E05A4AAA3A92F86E2022F0F6
:1057E0000205574AAA3A82F86E50CA7802F00102BE
:1057F00052B1534AAA3A92F86E2042F00405504A38
:10580000AA3A82F86E5009E04D4AAA3A92F86E2000
:1058100022F004054A4AAA3A82F86E500A7802F049
:10582000040252B1464AAA3A92F86E2042F00805A4
:10583000434AAA3A82F86E5009E0414AAA3A92F8DD
:105840006E2022F008053E4AAA3A82F86E50CA78C5
:1058500002F0100242B13A4AAA3AD27842F0010567
:10586000374AAA3AD57007E0354AAA3AD27822F0E8
:105870000105334AAA3AD570CA7802F0200242B133
:105880002F4AAA3AD27842F002052D4AAA3AD57098
:1058900007E02B4AAA3AD27822F00205284AAA3A0F
:1058A000D5704A7802F0010242B1254AAA3AD2786C
:1058B00042F00405224AAA3AD57007E0204AAA3AE3
:1058C000D27822F004051E4AAA3AD5704A7802F02E
:1058D000020242B11A4AAA3AD27842F00805184A9E
:1058E000AA3AD57007E0164AAA3AD27822F00805FB
:1058F000134AAA3AD5704A7802F0040242B1104A1B
:10590000AA3AD27842F010050D4AAA3AD57007E0BB
:105910000B4AAA3AD27822F01005094AAA3AD57061
:105920004A7802F008027AB1054AAA3AD27842F0DF
:105930002005034AAA3AD5700CE00000981B00200D
:10594000632E0020941B0020F94AD27822F0200513
:10595000F74AD5704A7802F0100232B1F44AD27890
:1059600042F04005F24AD57005E0F14AD27822F0C3
:105970004005EF4AD5708A7902F0040242B1EC4A40
:1059800092F8732042F00105E94A82F8735007E06B
:10599000E74A92F8732022F00105E54A82F8735035
:1059A0008A7902F0400242B1E14A92F86A2042F05C
:1059B0000105DF4A82F86A5007E0DD4A92F86A2062
:1059C00022F00105DA4A82F86A50CA7802F04002F1
:1059D00042B1D74A92F86A2042F01005D44A82F8C0
:1059E0006A5007E0D24A92F86A2022F01005D04AA5
:1059F00082F86A508A7802F0200242B1CC4A92F8CA
:105A00006A2042F02005CA4A82F86A5007E0C84A74
:105A100092F86A2022F02005C54A82F86A508A79F5
:105A200002F0800242B1C24A92F86C2042F00102B8
:105A3000BF4D85F86C2007E0BD4A92F86C2022F03B
:105A40000102BB4D85F86C208A78B94D85F86D2030
:105A5000B84A126822F00202921CB64D2A602A4609
:105A6000126822F0400240322A602A46126822F070
:105A7000800280322A602A46126822F4807202F57F
:105A800080722A602A46126822F4806202F58062DF
:105A90002A60012029E50D78A54A15714D785571C8
:105AA000CD7895710D79D5714A7902F0010242B134
:105AB0009F4A92F86A2042F080059D4A82F86A5017
:105AC00007E09B4A92F86A2022F08005984A82F803
:105AD0006A504A7902F0020242B1954A92F86B206C
